{
  "_format": "hh-sol-artifact-1",
  "contractName": "ColorExtension",
  "sourceName": "contracts/core/extensions/ColorExtension.sol",
  "abi": [
    {
      "inputs": [
        {
          "internalType": "address",
          "name": "owner",
          "type": "address"
        }
      ],
      "stateMutability": "nonpayable",
      "type": "constructor"
    },
    {
      "anonymous": false,
      "inputs": [
        {
          "indexed": true,
          "internalType": "address",
          "name": "previousOwner",
          "type": "address"
        },
        {
          "indexed": true,
          "internalType": "address",
          "name": "newOwner",
          "type": "address"
        }
      ],
      "name": "OwnershipTransferred",
      "type": "event"
    },
    {
      "inputs": [
        {
          "internalType": "uint256",
          "name": "profileId",
          "type": "uint256"
        },
        {
          "internalType": "uint256",
          "name": "extensionId",
          "type": "uint256"
        }
      ],
      "name": "activate",
      "outputs": [],
      "stateMutability": "nonpayable",
      "type": "function"
    },
    {
      "inputs": [
        {
          "internalType": "uint256",
          "name": "profileId",
          "type": "uint256"
        },
        {
          "internalType": "string",
          "name": "color",
          "type": "string"
        }
      ],
      "name": "addColor",
      "outputs": [
        {
          "internalType": "uint256",
          "name": "",
          "type": "uint256"
        }
      ],
      "stateMutability": "nonpayable",
      "type": "function"
    },
    {
      "inputs": [
        {
          "internalType": "uint256",
          "name": "profileId",
          "type": "uint256"
        },
        {
          "internalType": "uint256",
          "name": "extensionId",
          "type": "uint256"
        }
      ],
      "name": "deactivate",
      "outputs": [],
      "stateMutability": "nonpayable",
      "type": "function"
    },
    {
      "inputs": [
        {
          "internalType": "uint256",
          "name": "profileId",
          "type": "uint256"
        }
      ],
      "name": "getColor",
      "outputs": [
        {
          "components": [
            {
              "internalType": "string",
              "name": "color",
              "type": "string"
            },
            {
              "internalType": "bool",
              "name": "active",
              "type": "bool"
            }
          ],
          "internalType": "struct IColorExtension.ColorStruct[]",
          "name": "",
          "type": "tuple[]"
        }
      ],
      "stateMutability": "view",
      "type": "function"
    },
    {
      "inputs": [],
      "name": "owner",
      "outputs": [
        {
          "internalType": "address",
          "name": "",
          "type": "address"
        }
      ],
      "stateMutability": "view",
      "type": "function"
    },
    {
      "inputs": [],
      "name": "renounceOwnership",
      "outputs": [],
      "stateMutability": "nonpayable",
      "type": "function"
    },
    {
      "inputs": [
        {
          "internalType": "address",
          "name": "profile",
          "type": "address"
        }
      ],
      "name": "setProfile",
      "outputs": [],
      "stateMutability": "nonpayable",
      "type": "function"
    },
    {
      "inputs": [
        {
          "internalType": "address",
          "name": "newOwner",
          "type": "address"
        }
      ],
      "name": "transferOwnership",
      "outputs": [],
      "stateMutability": "nonpayable",
      "type": "function"
    }
  ],
  "bytecode": "0x60806040523480156200001157600080fd5b506040516200136a3803806200136a8339818101604052810190620000379190620001a5565b620000576200004b6200006f60201b60201c565b6200007760201b60201c565b62000068816200007760201b60201c565b50620001d7565b600033905090565b60008060009054906101000a900473ffffffffffffffffffffffffffffffffffffffff169050816000806101000a81548173ffffffffffffffffffffffffffffffffffffffff021916908373ffffffffffffffffffffffffffffffffffffffff1602179055508173ffffffffffffffffffffffffffffffffffffffff168173ffffffffffffffffffffffffffffffffffffffff167f8be0079c531659141344cd1fd0a4f28419497f9722a3daafe3b4186f6b6457e060405160405180910390a35050565b600080fd5b600073ffffffffffffffffffffffffffffffffffffffff82169050919050565b60006200016d8262000140565b9050919050565b6200017f8162000160565b81146200018b57600080fd5b50565b6000815190506200019f8162000174565b92915050565b600060208284031215620001be57620001bd6200013b565b5b6000620001ce848285016200018e565b91505092915050565b61118380620001e76000396000f3fe608060405234801561001057600080fd5b50600436106100885760003560e01c80638ea8f83c1161005b5780638ea8f83c14610115578063b4ca798114610131578063e0b6a1e31461014d578063f2fde38b1461016957610088565b8063668151661461008d578063715018a6146100bd57806380057b9a146100c75780638da5cb5b146100f7575b600080fd5b6100a760048036038101906100a29190610b5e565b610185565b6040516100b49190610bc9565b60405180910390f35b6100c56102de565b005b6100e160048036038101906100dc9190610be4565b6102f2565b6040516100ee9190610db3565b60405180910390f35b6100ff610524565b60405161010c9190610e16565b60405180910390f35b61012f600480360381019061012a9190610e31565b61054d565b005b61014b60048036038101906101469190610e31565b610621565b005b61016760048036038101906101629190610e9d565b6106f5565b005b610183600480360381019061017e9190610e9d565b610741565b005b6000600160009054906101000a900473ffffffffffffffffffffffffffffffffffffffff1673ffffffffffffffffffffffffffffffffffffffff163373ffffffffffffffffffffffffffffffffffffffff1614610217576040517f08c379a000000000000000000000000000000000000000000000000000000000815260040161020e90610f27565b60405180910390fd5b60006003600085815260200190815260200160002054905082600260008681526020019081526020016000206000838152602001908152602001600020600001908051906020019061026a92919061090f565b50600060026000868152602001908152602001600020600083815260200190815260200160002060010160006101000a81548160ff0219169083151502179055506003600085815260200190815260200160002060008154809291906102cf90610f76565b91905055508091505092915050565b6102e66107c5565b6102f06000610843565b565b6060600160009054906101000a900473ffffffffffffffffffffffffffffffffffffffff1673ffffffffffffffffffffffffffffffffffffffff163373ffffffffffffffffffffffffffffffffffffffff1614610384576040517f08c379a000000000000000000000000000000000000000000000000000000000815260040161037b90610f27565b60405180910390fd5b6000600360008481526020019081526020016000205467ffffffffffffffff8111156103b3576103b2610a33565b5b6040519080825280602002602001820160405280156103ec57816020015b6103d9610995565b8152602001906001900390816103d15790505b50905060005b600360008581526020019081526020016000205481101561051a5760026000858152602001908152602001600020600082815260200190815260200160002060405180604001604052908160008201805461044c90610fee565b80601f016020809104026020016040519081016040528092919081815260200182805461047890610fee565b80156104c55780601f1061049a576101008083540402835291602001916104c5565b820191906000526020600020905b8154815290600101906020018083116104a857829003601f168201915b505050505081526020016001820160009054906101000a900460ff1615151515815250508282815181106104fc576104fb611020565b5b6020026020010181905250808061051290610f76565b9150506103f2565b5080915050919050565b60008060009054906101000a900473ffffffffffffffffffffffffffffffffffffffff16905090565b600160009054906101000a900473ffffffffffffffffffffffffffffffffffffffff1673ffffffffffffffffffffffffffffffffffffffff163373ffffffffffffffffffffffffffffffffffffffff16146105dd576040517f08c379a00000000000000000000000000000000000000000000000000000000081526004016105d490610f27565b60405180910390fd5b600160026000848152602001908152602001600020600083815260200190815260200160002060010160006101000a81548160ff0219169083151502179055505050565b600160009054906101000a900473ffffffffffffffffffffffffffffffffffffffff1673ffffffffffffffffffffffffffffffffffffffff163373ffffffffffffffffffffffffffffffffffffffff16146106b1576040517f08c379a00000000000000000000000000000000000000000000000000000000081526004016106a890610f27565b60405180910390fd5b600060026000848152602001908152602001600020600083815260200190815260200160002060010160006101000a81548160ff0219169083151502179055505050565b6106fd6107c5565b80600160006101000a81548173ffffffffffffffffffffffffffffffffffffffff021916908373ffffffffffffffffffffffffffffffffffffffff16021790555050565b6107496107c5565b600073ffffffffffffffffffffffffffffffffffffffff168173ffffffffffffffffffffffffffffffffffffffff1614156107b9576040517f08c379a00000000000000000000000000000000000000000000000000000000081526004016107b0906110c1565b60405180910390fd5b6107c281610843565b50565b6107cd610907565b73ffffffffffffffffffffffffffffffffffffffff166107eb610524565b73ffffffffffffffffffffffffffffffffffffffff1614610841576040517f08c379a00000000000000000000000000000000000000000000000000000000081526004016108389061112d565b60405180910390fd5b565b60008060009054906101000a900473ffffffffffffffffffffffffffffffffffffffff169050816000806101000a81548173ffffffffffffffffffffffffffffffffffffffff021916908373ffffffffffffffffffffffffffffffffffffffff1602179055508173ffffffffffffffffffffffffffffffffffffffff168173ffffffffffffffffffffffffffffffffffffffff167f8be0079c531659141344cd1fd0a4f28419497f9722a3daafe3b4186f6b6457e060405160405180910390a35050565b600033905090565b82805461091b90610fee565b90600052602060002090601f01602090048101928261093d5760008555610984565b82601f1061095657805160ff1916838001178555610984565b82800160010185558215610984579182015b82811115610983578251825591602001919060010190610968565b5b50905061099191906109b1565b5090565b6040518060400160405280606081526020016000151581525090565b5b808211156109ca5760008160009055506001016109b2565b5090565b6000604051905090565b600080fd5b600080fd5b6000819050919050565b6109f5816109e2565b8114610a0057600080fd5b50565b600081359050610a12816109ec565b92915050565b600080fd5b600080fd5b6000601f19601f8301169050919050565b7f4e487b7100000000000000000000000000000000000000000000000000000000600052604160045260246000fd5b610a6b82610a22565b810181811067ffffffffffffffff82111715610a8a57610a89610a33565b5b80604052505050565b6000610a9d6109ce565b9050610aa98282610a62565b919050565b600067ffffffffffffffff821115610ac957610ac8610a33565b5b610ad282610a22565b9050602081019050919050565b82818337600083830152505050565b6000610b01610afc84610aae565b610a93565b905082815260208101848484011115610b1d57610b1c610a1d565b5b610b28848285610adf565b509392505050565b600082601f830112610b4557610b44610a18565b5b8135610b55848260208601610aee565b91505092915050565b60008060408385031215610b7557610b746109d8565b5b6000610b8385828601610a03565b925050602083013567ffffffffffffffff811115610ba457610ba36109dd565b5b610bb085828601610b30565b9150509250929050565b610bc3816109e2565b82525050565b6000602082019050610bde6000830184610bba565b92915050565b600060208284031215610bfa57610bf96109d8565b5b6000610c0884828501610a03565b91505092915050565b600081519050919050565b600082825260208201905092915050565b6000819050602082019050919050565b600081519050919050565b600082825260208201905092915050565b60005b83811015610c77578082015181840152602081019050610c5c565b83811115610c86576000848401525b50505050565b6000610c9782610c3d565b610ca18185610c48565b9350610cb1818560208601610c59565b610cba81610a22565b840191505092915050565b60008115159050919050565b610cda81610cc5565b82525050565b60006040830160008301518482036000860152610cfd8282610c8c565b9150506020830151610d126020860182610cd1565b508091505092915050565b6000610d298383610ce0565b905092915050565b6000602082019050919050565b6000610d4982610c11565b610d538185610c1c565b935083602082028501610d6585610c2d565b8060005b85811015610da15784840389528151610d828582610d1d565b9450610d8d83610d31565b925060208a01995050600181019050610d69565b50829750879550505050505092915050565b60006020820190508181036000830152610dcd8184610d3e565b905092915050565b600073ffffffffffffffffffffffffffffffffffffffff82169050919050565b6000610e0082610dd5565b9050919050565b610e1081610df5565b82525050565b6000602082019050610e2b6000830184610e07565b92915050565b60008060408385031215610e4857610e476109d8565b5b6000610e5685828601610a03565b9250506020610e6785828601610a03565b9150509250929050565b610e7a81610df5565b8114610e8557600080fd5b50565b600081359050610e9781610e71565b92915050565b600060208284031215610eb357610eb26109d8565b5b6000610ec184828501610e88565b91505092915050565b600082825260208201905092915050565b7f436f6c6f72457874656e73696f6e3a206f6e6c792070726f66696c6500000000600082015250565b6000610f11601c83610eca565b9150610f1c82610edb565b602082019050919050565b60006020820190508181036000830152610f4081610f04565b9050919050565b7f4e487b7100000000000000000000000000000000000000000000000000000000600052601160045260246000fd5b6000610f81826109e2565b91507fffffffffffffffffffffffffffffffffffffffffffffffffffffffffffffffff821415610fb457610fb3610f47565b5b600182019050919050565b7f4e487b7100000000000000000000000000000000000000000000000000000000600052602260045260246000fd5b6000600282049050600182168061100657607f821691505b6020821081141561101a57611019610fbf565b5b50919050565b7f4e487b7100000000000000000000000000000000000000000000000000000000600052603260045260246000fd5b7f4f776e61626c653a206e6577206f776e657220697320746865207a65726f206160008201527f6464726573730000000000000000000000000000000000000000000000000000602082015250565b60006110ab602683610eca565b91506110b68261104f565b604082019050919050565b600060208201905081810360008301526110da8161109e565b9050919050565b7f4f776e61626c653a2063616c6c6572206973206e6f7420746865206f776e6572600082015250565b6000611117602083610eca565b9150611122826110e1565b602082019050919050565b600060208201905081810360008301526111468161110a565b905091905056fea26469706673582212207ef3f8c51edc7deb0e3273f8ba4b36d91e9448a609e049e41255138e89c8b88a64736f6c634300080a0033",
  "linkReferences": {},
  "deployedLinkReferences": {}
}