{
  "_format": "hh-sol-artifact-1",
  "contractName": "ColorExtension",
  "sourceName": "contracts/core/extensions/ColorExtension.sol",
  "abi": [
    {
      "inputs": [
        {
          "internalType": "address",
          "name": "owner",
          "type": "address"
        }
      ],
      "stateMutability": "nonpayable",
      "type": "constructor"
    },
    {
      "anonymous": false,
      "inputs": [
        {
          "indexed": true,
          "internalType": "address",
          "name": "previousOwner",
          "type": "address"
        },
        {
          "indexed": true,
          "internalType": "address",
          "name": "newOwner",
          "type": "address"
        }
      ],
      "name": "OwnershipTransferred",
      "type": "event"
    },
    {
      "inputs": [
        {
          "internalType": "uint256",
          "name": "profileId",
          "type": "uint256"
        },
        {
          "internalType": "uint256",
          "name": "extensionId",
          "type": "uint256"
        }
      ],
      "name": "activate",
      "outputs": [],
      "stateMutability": "nonpayable",
      "type": "function"
    },
    {
      "inputs": [
        {
          "internalType": "uint256",
          "name": "profileId",
          "type": "uint256"
        },
        {
          "internalType": "string",
          "name": "color",
          "type": "string"
        }
      ],
      "name": "addColor",
      "outputs": [
        {
          "internalType": "uint256",
          "name": "",
          "type": "uint256"
        }
      ],
      "stateMutability": "nonpayable",
      "type": "function"
    },
    {
      "inputs": [
        {
          "internalType": "uint256",
          "name": "profileId",
          "type": "uint256"
        },
        {
          "internalType": "uint256",
          "name": "extensionId",
          "type": "uint256"
        }
      ],
      "name": "deactivate",
      "outputs": [],
      "stateMutability": "nonpayable",
      "type": "function"
    },
    {
      "inputs": [
        {
          "internalType": "uint256",
          "name": "profileId",
          "type": "uint256"
        }
      ],
      "name": "getColor",
      "outputs": [
        {
          "components": [
            {
              "internalType": "string",
              "name": "color",
              "type": "string"
            },
            {
              "internalType": "bool",
              "name": "active",
              "type": "bool"
            }
          ],
          "internalType": "struct IColorExtension.ColorStruct[]",
          "name": "",
          "type": "tuple[]"
        }
      ],
      "stateMutability": "view",
      "type": "function"
    },
    {
      "inputs": [],
      "name": "owner",
      "outputs": [
        {
          "internalType": "address",
          "name": "",
          "type": "address"
        }
      ],
      "stateMutability": "view",
      "type": "function"
    },
    {
      "inputs": [],
      "name": "renounceOwnership",
      "outputs": [],
      "stateMutability": "nonpayable",
      "type": "function"
    },
    {
      "inputs": [
        {
          "internalType": "address",
          "name": "globals",
          "type": "address"
        }
      ],
      "name": "setGlobals",
      "outputs": [],
      "stateMutability": "nonpayable",
      "type": "function"
    },
    {
      "inputs": [
        {
          "internalType": "address",
          "name": "newOwner",
          "type": "address"
        }
      ],
      "name": "transferOwnership",
      "outputs": [],
      "stateMutability": "nonpayable",
      "type": "function"
    }
  ],
  "bytecode": "0x608060405234801561001057600080fd5b50604051610b89380380610b8983398101604081905261002f91610099565b8061003933610049565b61004281610049565b50506100c9565b600080546001600160a01b038381166001600160a01b0319831681178455604051919092169283917f8be0079c531659141344cd1fd0a4f28419497f9722a3daafe3b4186f6b6457e09190a35050565b6000602082840312156100ab57600080fd5b81516001600160a01b03811681146100c257600080fd5b9392505050565b610ab1806100d86000396000f3fe608060405234801561001057600080fd5b50600436106100885760003560e01c80638ea8f83c1161005b5780638ea8f83c146100f8578063b4ca79811461010b578063cc2e0a261461011e578063f2fde38b1461013157600080fd5b8063668151661461008d578063715018a6146100b357806380057b9a146100bd5780638da5cb5b146100dd575b600080fd5b6100a061009b3660046107af565b610144565b6040519081526020015b60405180910390f35b6100bb610264565b005b6100d06100cb36600461086a565b610278565b6040516100aa9190610883565b6000546040516001600160a01b0390911681526020016100aa565b6100bb610106366004610932565b610414565b6100bb610119366004610932565b6104e6565b6100bb61012c366004610969565b6105b3565b6100bb61013f366004610969565b6105dd565b6001546040805163d6afc9b160e01b815290516000926001600160a01b03169163d6afc9b19160048083019260209291908290030181865afa15801561018e573d6000803e3d6000fd5b505050506040513d601f19601f820116820180604052508101906101b2919061098d565b6001600160a01b0316336001600160a01b0316146101eb5760405162461bcd60e51b81526004016101e2906109aa565b60405180910390fd5b600083815260036020526040812080548290610206906109f7565b9182905550600085815260026020908152604080832084845282529091208551929350610237929091860190610700565b5060008481526002602090815260408083208484529091529020600101805460ff19169055905092915050565b61026c610656565b61027660006106b0565b565b6000818152600360205260408120546060919067ffffffffffffffff8111156102a3576102a3610799565b6040519080825280602002602001820160405280156102e957816020015b6040805180820190915260608152600060208201528152602001906001900390816102c15790505b50905060005b60008481526003602052604090205481101561040d5760008481526002602052604081209061031f836001610a12565b815260200190815260200160002060405180604001604052908160008201805461034890610a2a565b80601f016020809104026020016040519081016040528092919081815260200182805461037490610a2a565b80156103c15780601f10610396576101008083540402835291602001916103c1565b820191906000526020600020905b8154815290600101906020018083116103a457829003601f168201915b50505091835250506001919091015460ff16151560209091015282518390839081106103ef576103ef610a65565b60200260200101819052508080610405906109f7565b9150506102ef565b5092915050565b600160009054906101000a90046001600160a01b03166001600160a01b031663d6afc9b16040518163ffffffff1660e01b8152600401602060405180830381865afa158015610467573d6000803e3d6000fd5b505050506040513d601f19601f8201168201806040525081019061048b919061098d565b6001600160a01b0316336001600160a01b0316146104bb5760405162461bcd60e51b81526004016101e2906109aa565b600091825260026020908152604080842092845291905290206001908101805460ff19169091179055565b600160009054906101000a90046001600160a01b03166001600160a01b031663d6afc9b16040518163ffffffff1660e01b8152600401602060405180830381865afa158015610539573d6000803e3d6000fd5b505050506040513d601f19601f8201168201806040525081019061055d919061098d565b6001600160a01b0316336001600160a01b03161461058d5760405162461bcd60e51b81526004016101e2906109aa565b60009182526002602090815260408084209284529190529020600101805460ff19169055565b6105bb610656565b600180546001600160a01b0319166001600160a01b0392909216919091179055565b6105e5610656565b6001600160a01b03811661064a5760405162461bcd60e51b815260206004820152602660248201527f4f776e61626c653a206e6577206f776e657220697320746865207a65726f206160448201526564647265737360d01b60648201526084016101e2565b610653816106b0565b50565b6000546001600160a01b031633146102765760405162461bcd60e51b815260206004820181905260248201527f4f776e61626c653a2063616c6c6572206973206e6f7420746865206f776e657260448201526064016101e2565b600080546001600160a01b038381166001600160a01b0319831681178455604051919092169283917f8be0079c531659141344cd1fd0a4f28419497f9722a3daafe3b4186f6b6457e09190a35050565b82805461070c90610a2a565b90600052602060002090601f01602090048101928261072e5760008555610774565b82601f1061074757805160ff1916838001178555610774565b82800160010185558215610774579182015b82811115610774578251825591602001919060010190610759565b50610780929150610784565b5090565b5b808211156107805760008155600101610785565b634e487b7160e01b600052604160045260246000fd5b600080604083850312156107c257600080fd5b82359150602083013567ffffffffffffffff808211156107e157600080fd5b818501915085601f8301126107f557600080fd5b81358181111561080757610807610799565b604051601f8201601f19908116603f0116810190838211818310171561082f5761082f610799565b8160405282815288602084870101111561084857600080fd5b8260208601602083013760006020848301015280955050505050509250929050565b60006020828403121561087c57600080fd5b5035919050565b60006020808301818452808551808352604092508286019150828160051b8701018488016000805b8481101561092357603f198a8503018652825180518886528051808a880152845b818110156108e8578281018c0151888201606001528b016108cc565b818111156108f957856060838a0101525b50918a01511515868b01525095880195601f01601f191690930160600192918701916001016108ab565b50919998505050505050505050565b6000806040838503121561094557600080fd5b50508035926020909101359150565b6001600160a01b038116811461065357600080fd5b60006020828403121561097b57600080fd5b813561098681610954565b9392505050565b60006020828403121561099f57600080fd5b815161098681610954565b6020808252601b908201527f457874656e73696f6e426173653a206f6e6c792070726f66696c650000000000604082015260600190565b634e487b7160e01b600052601160045260246000fd5b6000600019821415610a0b57610a0b6109e1565b5060010190565b60008219821115610a2557610a256109e1565b500190565b600181811c90821680610a3e57607f821691505b60208210811415610a5f57634e487b7160e01b600052602260045260246000fd5b50919050565b634e487b7160e01b600052603260045260246000fdfea2646970667358221220e80654e4b7fec8c1002e1c275a21306e185009ea05beccff1a0f4f0a5b9a65cb64736f6c634300080a0033",
  "linkReferences": {},
  "deployedLinkReferences": {}
}