{
  "_format": "hh-sol-artifact-1",
  "contractName": "FlavorExtension",
  "sourceName": "contracts/core/extensions/FlavorExtension.sol",
  "abi": [
    {
      "inputs": [
        {
          "internalType": "address",
          "name": "owner",
          "type": "address"
        }
      ],
      "stateMutability": "nonpayable",
      "type": "constructor"
    },
    {
      "anonymous": false,
      "inputs": [
        {
          "indexed": true,
          "internalType": "uint256",
          "name": "profileId",
          "type": "uint256"
        },
        {
          "indexed": true,
          "internalType": "uint256",
          "name": "extensionId",
          "type": "uint256"
        },
        {
          "indexed": false,
          "internalType": "uint256",
          "name": "blockNumber",
          "type": "uint256"
        }
      ],
      "name": "FlavorActivated",
      "type": "event"
    },
    {
      "anonymous": false,
      "inputs": [
        {
          "indexed": true,
          "internalType": "uint256",
          "name": "profileId",
          "type": "uint256"
        },
        {
          "indexed": true,
          "internalType": "uint256",
          "name": "extensionId",
          "type": "uint256"
        },
        {
          "indexed": false,
          "internalType": "enum IFlavorExtension.FlavorType",
          "name": "flavorType",
          "type": "uint8"
        },
        {
          "indexed": false,
          "internalType": "uint256",
          "name": "blockNumber",
          "type": "uint256"
        }
      ],
      "name": "FlavorAdded",
      "type": "event"
    },
    {
      "anonymous": false,
      "inputs": [
        {
          "indexed": true,
          "internalType": "uint256",
          "name": "profileId",
          "type": "uint256"
        },
        {
          "indexed": true,
          "internalType": "uint256",
          "name": "extensionId",
          "type": "uint256"
        },
        {
          "indexed": false,
          "internalType": "uint256",
          "name": "blockNumber",
          "type": "uint256"
        }
      ],
      "name": "FlavorDeactivated",
      "type": "event"
    },
    {
      "anonymous": false,
      "inputs": [
        {
          "indexed": true,
          "internalType": "address",
          "name": "previousOwner",
          "type": "address"
        },
        {
          "indexed": true,
          "internalType": "address",
          "name": "newOwner",
          "type": "address"
        }
      ],
      "name": "OwnershipTransferred",
      "type": "event"
    },
    {
      "inputs": [
        {
          "internalType": "uint256",
          "name": "profileId",
          "type": "uint256"
        },
        {
          "internalType": "uint256",
          "name": "extensionId",
          "type": "uint256"
        }
      ],
      "name": "activate",
      "outputs": [],
      "stateMutability": "nonpayable",
      "type": "function"
    },
    {
      "inputs": [
        {
          "internalType": "uint256",
          "name": "profileId",
          "type": "uint256"
        }
      ],
      "name": "addFlavor",
      "outputs": [],
      "stateMutability": "nonpayable",
      "type": "function"
    },
    {
      "inputs": [
        {
          "internalType": "uint256",
          "name": "profileId",
          "type": "uint256"
        },
        {
          "internalType": "uint256",
          "name": "extensionId",
          "type": "uint256"
        }
      ],
      "name": "deactivate",
      "outputs": [],
      "stateMutability": "nonpayable",
      "type": "function"
    },
    {
      "inputs": [
        {
          "internalType": "uint256",
          "name": "profileId",
          "type": "uint256"
        }
      ],
      "name": "getFlavor",
      "outputs": [
        {
          "components": [
            {
              "internalType": "enum IFlavorExtension.FlavorType",
              "name": "flavorType",
              "type": "uint8"
            },
            {
              "internalType": "bool",
              "name": "active",
              "type": "bool"
            }
          ],
          "internalType": "struct IFlavorExtension.FlavorStruct[]",
          "name": "",
          "type": "tuple[]"
        }
      ],
      "stateMutability": "view",
      "type": "function"
    },
    {
      "inputs": [],
      "name": "owner",
      "outputs": [
        {
          "internalType": "address",
          "name": "",
          "type": "address"
        }
      ],
      "stateMutability": "view",
      "type": "function"
    },
    {
      "inputs": [],
      "name": "renounceOwnership",
      "outputs": [],
      "stateMutability": "nonpayable",
      "type": "function"
    },
    {
      "inputs": [
        {
          "internalType": "address",
          "name": "globals",
          "type": "address"
        }
      ],
      "name": "setGlobals",
      "outputs": [],
      "stateMutability": "nonpayable",
      "type": "function"
    },
    {
      "inputs": [
        {
          "internalType": "address",
          "name": "newOwner",
          "type": "address"
        }
      ],
      "name": "transferOwnership",
      "outputs": [],
      "stateMutability": "nonpayable",
      "type": "function"
    }
  ],
  "bytecode": "0x608060405234801561001057600080fd5b506040516112be3803806112be83398101604081905261002f91610099565b8061003933610049565b61004281610049565b50506100c9565b600080546001600160a01b038381166001600160a01b0319831681178455604051919092169283917f8be0079c531659141344cd1fd0a4f28419497f9722a3daafe3b4186f6b6457e09190a35050565b6000602082840312156100ab57600080fd5b81516001600160a01b03811681146100c257600080fd5b9392505050565b6111e6806100d86000396000f3fe608060405234801561001057600080fd5b50600436106100885760003560e01c8063a290c6ca1161005b578063a290c6ca146100ee578063b4ca798114610101578063cc2e0a2614610114578063f2fde38b1461012757600080fd5b80630ea216a61461008d578063715018a6146100b65780638da5cb5b146100c05780638ea8f83c146100db575b600080fd5b6100a061009b366004610eca565b61013a565b6040516100ad9190610f1b565b60405180910390f35b6100be610270565b005b6000546040516001600160a01b0390911681526020016100ad565b6100be6100e9366004610f73565b610284565b6100be6100fc366004610eca565b6103c0565b6100be61010f366004610f73565b61077d565b6100be610122366004610faa565b6108a8565b6100be610135366004610faa565b6108d2565b6000818152600360205260408120546060919067ffffffffffffffff81111561016557610165610fce565b6040519080825280602002602001820160405280156101aa57816020015b60408051808201909152600080825260208201528152602001906001900390816101835790505b50905060005b600084815260036020526040902054811015610269576000848152600260205260408120906101e0836001610ffa565b81526020810191909152604090810160002081518083019092528054829060ff16600481111561021257610212610ee3565b600481111561022357610223610ee3565b81529054610100900460ff161515602090910152825183908390811061024b5761024b611012565b6020026020010181905250808061026190611028565b9150506101b0565b5092915050565b61027861094b565b61028260006109a5565b565b600160009054906101000a90046001600160a01b03166001600160a01b031663d6afc9b16040518163ffffffff1660e01b8152600401602060405180830381865afa1580156102d7573d6000803e3d6000fd5b505050506040513d601f19601f820116820180604052508101906102fb9190611043565b6001600160a01b0316336001600160a01b0316146103605760405162461bcd60e51b815260206004820152601b60248201527f457874656e73696f6e426173653a206f6e6c792070726f66696c65000000000060448201526064015b60405180910390fd5b6000828152600260209081526040808320848452825291829020805461ff0019166101001790559051438152829184917f420ad6fde49c32bf855a4cd49579057cbacd38259cf598633e9141bee5729d8c91015b60405180910390a35050565b600160009054906101000a90046001600160a01b03166001600160a01b031663852b67736040518163ffffffff1660e01b8152600401602060405180830381865afa158015610413573d6000803e3d6000fd5b505050506040513d601f19601f820116820180604052508101906104379190611043565b6001600160a01b0316336001600160a01b0316146104975760405162461bcd60e51b815260206004820152601c60248201527f457874656e73696f6e426173653a206f6e6c792069636563616e6479000000006044820152606401610357565b600061058a600160009054906101000a90046001600160a01b03166001600160a01b031663bd696d096040518163ffffffff1660e01b8152600401602060405180830381865afa1580156104ef573d6000803e3d6000fd5b505050506040513d601f19601f820116820180604052508101906105139190611043565b6001600160a01b0316630e1af57b846040518263ffffffff1660e01b815260040161054091815260200190565b600060405180830381865afa15801561055d573d6000803e3d6000fd5b505050506040513d6000823e601f3d908101601f1916820160405261058591908101906110ba565b6109f5565b905060005b8151811015610778576000805b60008581526003602052604090205481101561063d578383815181106105c4576105c4611012565b602002602001015160048111156105dd576105dd610ee3565b6000868152600260205260408120906105f7846001610ffa565b815260208101919091526040016000205460ff16600481111561061c5761061c610ee3565b141561062b576001915061063d565b8061063581611028565b91505061059c565b5080610765576000848152600360205260408120805490919061065f90611028565b91905081905550604051806040016040528084848151811061068357610683611012565b6020026020010151600481111561069c5761069c610ee3565b815260006020918201819052868152600282526040808220600384528183205483529092522081518154829060ff191660018360048111156106e0576106e0610ee3565b021790555060209182015181549015156101000261ff0019909116179055600085815260039091526040902054835185907f4fde957d0cec8dfb32ee46984430390a754d6a3ce1a8f1dcb917bef49527371b9086908690811061074557610745611012565b60200260200101514360405161075c929190611195565b60405180910390a35b508061077081611028565b91505061058f565b505050565b600160009054906101000a90046001600160a01b03166001600160a01b031663d6afc9b16040518163ffffffff1660e01b8152600401602060405180830381865afa1580156107d0573d6000803e3d6000fd5b505050506040513d601f19601f820116820180604052508101906107f49190611043565b6001600160a01b0316336001600160a01b0316146108545760405162461bcd60e51b815260206004820152601b60248201527f457874656e73696f6e426173653a206f6e6c792070726f66696c6500000000006044820152606401610357565b6000828152600260209081526040808320848452825291829020805461ff00191690559051438152829184917f3686d96afa4b4026d27cc8da5a79121e51bb7c229df0922b1383ab839e4e7a8d91016103b4565b6108b061094b565b600180546001600160a01b0319166001600160a01b0392909216919091179055565b6108da61094b565b6001600160a01b03811661093f5760405162461bcd60e51b815260206004820152602660248201527f4f776e61626c653a206e6577206f776e657220697320746865207a65726f206160448201526564647265737360d01b6064820152608401610357565b610948816109a5565b50565b6000546001600160a01b031633146102825760405162461bcd60e51b815260206004820181905260248201527f4f776e61626c653a2063616c6c6572206973206e6f7420746865206f776e65726044820152606401610357565b600080546001600160a01b038381166001600160a01b0319831681178455604051919092169283917f8be0079c531659141344cd1fd0a4f28419497f9722a3daafe3b4186f6b6457e09190a35050565b60606101f482600081518110610a0d57610a0d611012565b60200260200101516020015110610b9f5760408051600580825260c082019092526000916020820160a080368337019050509050600081600081518110610a5657610a56611012565b60200260200101906004811115610a6f57610a6f610ee3565b90816004811115610a8257610a82610ee3565b81525050600181600181518110610a9b57610a9b611012565b60200260200101906004811115610ab457610ab4610ee3565b90816004811115610ac757610ac7610ee3565b81525050600281600281518110610ae057610ae0611012565b60200260200101906004811115610af957610af9610ee3565b90816004811115610b0c57610b0c610ee3565b81525050600381600381518110610b2557610b25611012565b60200260200101906004811115610b3e57610b3e610ee3565b90816004811115610b5157610b51610ee3565b81525050600481600481518110610b6a57610b6a611012565b60200260200101906004811115610b8357610b83610ee3565b90816004811115610b9657610b96610ee3565b90525092915050565b61019082600081518110610bb557610bb5611012565b60200260200101516020015110610ccd5760408051600480825260a0820190925260009160208201608080368337019050509050600081600081518110610bfe57610bfe611012565b60200260200101906004811115610c1757610c17610ee3565b90816004811115610c2a57610c2a610ee3565b81525050600181600181518110610c4357610c43611012565b60200260200101906004811115610c5c57610c5c610ee3565b90816004811115610c6f57610c6f610ee3565b81525050600281600281518110610c8857610c88611012565b60200260200101906004811115610ca157610ca1610ee3565b90816004811115610cb457610cb4610ee3565b81525050600381600381518110610b6a57610b6a611012565b61012c82600081518110610ce357610ce3611012565b60200260200101516020015110610db6576040805160038082526080820190925260009160208201606080368337019050509050600081600081518110610d2c57610d2c611012565b60200260200101906004811115610d4557610d45610ee3565b90816004811115610d5857610d58610ee3565b81525050600181600181518110610d7157610d71611012565b60200260200101906004811115610d8a57610d8a610ee3565b90816004811115610d9d57610d9d610ee3565b81525050600281600281518110610b6a57610b6a611012565b60c882600081518110610dcb57610dcb611012565b60200260200101516020015110610e5757604080516002808252606082018352600092602083019080368337019050509050600081600081518110610e1257610e12611012565b60200260200101906004811115610e2b57610e2b610ee3565b90816004811115610e3e57610e3e610ee3565b81525050600181600181518110610b6a57610b6a611012565b606482600081518110610e6c57610e6c611012565b60200260200101516020015110610eb45760408051600180825281830190925260009160208083019080368337019050509050600081600081518110610b6a57610b6a611012565b6040805160008082526020820190925290610269565b600060208284031215610edc57600080fd5b5035919050565b634e487b7160e01b600052602160045260246000fd5b60058110610f1757634e487b7160e01b600052602160045260246000fd5b9052565b602080825282518282018190526000919060409081850190868401855b82811015610f66578151610f4d858251610ef9565b8601511515848701529284019290850190600101610f38565b5091979650505050505050565b60008060408385031215610f8657600080fd5b50508035926020909101359150565b6001600160a01b038116811461094857600080fd5b600060208284031215610fbc57600080fd5b8135610fc781610f95565b9392505050565b634e487b7160e01b600052604160045260246000fd5b634e487b7160e01b600052601160045260246000fd5b6000821982111561100d5761100d610fe4565b500190565b634e487b7160e01b600052603260045260246000fd5b600060001982141561103c5761103c610fe4565b5060010190565b60006020828403121561105557600080fd5b8151610fc781610f95565b6040805190810167ffffffffffffffff8111828210171561108357611083610fce565b60405290565b604051601f8201601f1916810167ffffffffffffffff811182821017156110b2576110b2610fce565b604052919050565b600060208083850312156110cd57600080fd5b825167ffffffffffffffff808211156110e557600080fd5b818501915085601f8301126110f957600080fd5b81518181111561110b5761110b610fce565b611119848260051b01611089565b818152848101925060069190911b83018401908782111561113957600080fd5b928401925b8184101561118a57604084890312156111575760008081fd5b61115f611060565b84516003811061116f5760008081fd5b8152848601518682015283526040909301929184019161113e565b979650505050505050565b604081016111a38285610ef9565b826020830152939250505056fea26469706673582212204224710391d52ac35a8ee9d081040880efe529c085c8aa9d14c546b66895b2b364736f6c634300080a0033",
  "linkReferences": {},
  "deployedLinkReferences": {}
}