{
  "_format": "hh-sol-artifact-1",
  "contractName": "IceCandyAssetStoreProvider",
  "sourceName": "contracts/assetstore/IceCandyAssetProvider.sol",
  "abi": [
    {
      "inputs": [
        {
          "internalType": "contract IIceCandyAssetStore",
          "name": "_assetStore",
          "type": "address"
        }
      ],
      "stateMutability": "nonpayable",
      "type": "constructor"
    },
    {
      "anonymous": false,
      "inputs": [
        {
          "indexed": true,
          "internalType": "address",
          "name": "previousOwner",
          "type": "address"
        },
        {
          "indexed": true,
          "internalType": "address",
          "name": "newOwner",
          "type": "address"
        }
      ],
      "name": "OwnershipTransferred",
      "type": "event"
    },
    {
      "anonymous": false,
      "inputs": [
        {
          "indexed": false,
          "internalType": "string",
          "name": "providerKey",
          "type": "string"
        },
        {
          "indexed": false,
          "internalType": "uint256",
          "name": "assetId",
          "type": "uint256"
        },
        {
          "indexed": false,
          "internalType": "address payable",
          "name": "to",
          "type": "address"
        },
        {
          "indexed": false,
          "internalType": "uint256",
          "name": "amount",
          "type": "uint256"
        }
      ],
      "name": "Payout",
      "type": "event"
    },
    {
      "inputs": [],
      "name": "assetStore",
      "outputs": [
        {
          "internalType": "contract IIceCandyAssetStore",
          "name": "",
          "type": "address"
        }
      ],
      "stateMutability": "view",
      "type": "function"
    },
    {
      "inputs": [
        {
          "internalType": "uint256",
          "name": "_assetId",
          "type": "uint256"
        }
      ],
      "name": "generateTraits",
      "outputs": [
        {
          "internalType": "string",
          "name": "traits",
          "type": "string"
        }
      ],
      "stateMutability": "pure",
      "type": "function"
    },
    {
      "inputs": [
        {
          "internalType": "uint256",
          "name": "_assetId",
          "type": "uint256"
        }
      ],
      "name": "getAsset",
      "outputs": [
        {
          "components": [
            {
              "internalType": "string",
              "name": "name",
              "type": "string"
            },
            {
              "internalType": "address",
              "name": "creator",
              "type": "address"
            },
            {
              "internalType": "string",
              "name": "assetURI",
              "type": "string"
            }
          ],
          "internalType": "struct IIceCandyAssetStore.Asset",
          "name": "asset",
          "type": "tuple"
        }
      ],
      "stateMutability": "view",
      "type": "function"
    },
    {
      "inputs": [],
      "name": "getOwner",
      "outputs": [
        {
          "internalType": "address",
          "name": "",
          "type": "address"
        }
      ],
      "stateMutability": "view",
      "type": "function"
    },
    {
      "inputs": [],
      "name": "getProviderInfo",
      "outputs": [
        {
          "components": [
            {
              "internalType": "string",
              "name": "key",
              "type": "string"
            },
            {
              "internalType": "string",
              "name": "name",
              "type": "string"
            }
          ],
          "internalType": "struct IceCandyAssetStoreProvider.ProviderInfo",
          "name": "",
          "type": "tuple"
        }
      ],
      "stateMutability": "pure",
      "type": "function"
    },
    {
      "inputs": [],
      "name": "owner",
      "outputs": [
        {
          "internalType": "address",
          "name": "",
          "type": "address"
        }
      ],
      "stateMutability": "view",
      "type": "function"
    },
    {
      "inputs": [
        {
          "internalType": "uint256",
          "name": "_assetId",
          "type": "uint256"
        }
      ],
      "name": "processPayout",
      "outputs": [],
      "stateMutability": "payable",
      "type": "function"
    },
    {
      "inputs": [],
      "name": "renounceOwnership",
      "outputs": [],
      "stateMutability": "nonpayable",
      "type": "function"
    },
    {
      "inputs": [],
      "name": "totalSupply",
      "outputs": [
        {
          "internalType": "uint256",
          "name": "",
          "type": "uint256"
        }
      ],
      "stateMutability": "view",
      "type": "function"
    },
    {
      "inputs": [
        {
          "internalType": "address",
          "name": "newOwner",
          "type": "address"
        }
      ],
      "name": "transferOwnership",
      "outputs": [],
      "stateMutability": "nonpayable",
      "type": "function"
    }
  ],
  "bytecode": "0x60a06040523480156200001157600080fd5b5060405162001222380380620012228339818101604052810190620000379190620001dc565b620000576200004b6200009260201b60201c565b6200009a60201b60201c565b8073ffffffffffffffffffffffffffffffffffffffff1660808173ffffffffffffffffffffffffffffffffffffffff1681525050506200020e565b600033905090565b60008060009054906101000a900473ffffffffffffffffffffffffffffffffffffffff169050816000806101000a81548173ffffffffffffffffffffffffffffffffffffffff021916908373ffffffffffffffffffffffffffffffffffffffff1602179055508173ffffffffffffffffffffffffffffffffffffffff168173ffffffffffffffffffffffffffffffffffffffff167f8be0079c531659141344cd1fd0a4f28419497f9722a3daafe3b4186f6b6457e060405160405180910390a35050565b600080fd5b600073ffffffffffffffffffffffffffffffffffffffff82169050919050565b6000620001908262000163565b9050919050565b6000620001a48262000183565b9050919050565b620001b68162000197565b8114620001c257600080fd5b50565b600081519050620001d681620001ab565b92915050565b600060208284031215620001f557620001f46200015e565b5b60006200020584828501620001c5565b91505092915050565b608051610fe36200023f60003960008181610247015281816102db0152818161032b01526105500152610fe36000f3fe6080604052600436106100915760003560e01c806389ee68bf1161005957806389ee68bf1461016b5780638c40188e146101875780638da5cb5b146101b2578063eac8f5b8146101dd578063f2fde38b1461021a57610091565b806318160ddd14610096578063597a0e36146100c1578063715018a6146100ec57806379b92f2714610103578063893d20e814610140575b600080fd5b3480156100a257600080fd5b506100ab610243565b6040516100b8919061082c565b60405180910390f35b3480156100cd57600080fd5b506100d66102d9565b6040516100e391906108c6565b60405180910390f35b3480156100f857600080fd5b506101016102fd565b005b34801561010f57600080fd5b5061012a60048036038101906101259190610921565b610311565b60405161013791906109e7565b60405180910390f35b34801561014c57600080fd5b50610155610318565b6040516101629190610a2a565b60405180910390f35b61018560048036038101906101809190610921565b610327565b005b34801561019357600080fd5b5061019c610491565b6040516101a99190610ad3565b60405180910390f35b3480156101be57600080fd5b506101c761051d565b6040516101d49190610a2a565b60405180910390f35b3480156101e957600080fd5b5061020460048036038101906101ff9190610921565b610546565b6040516102119190610b5b565b60405180910390f35b34801561022657600080fd5b50610241600480360381019061023c9190610ba9565b6105f4565b005b60007f000000000000000000000000000000000000000000000000000000000000000073ffffffffffffffffffffffffffffffffffffffff1663a0aead4d6040518163ffffffff1660e01b8152600401602060405180830381865afa1580156102b0573d6000803e3d6000fd5b505050506040513d601f19601f820116820180604052508101906102d49190610beb565b905090565b7f000000000000000000000000000000000000000000000000000000000000000081565b610305610678565b61030f60006106f6565b565b6060919050565b600061032261051d565b905090565b60007f000000000000000000000000000000000000000000000000000000000000000073ffffffffffffffffffffffffffffffffffffffff1663eac8f5b8836040518263ffffffff1660e01b8152600401610382919061082c565b600060405180830381865afa15801561039f573d6000803e3d6000fd5b505050506040513d6000823e3d601f19601f820116820180604052508101906103c89190610df9565b90506000816020015190508073ffffffffffffffffffffffffffffffffffffffff166108fc349081150290604051600060405180830381858888f19350505050158015610419573d6000803e3d6000fd5b507fbb0eeee27936db25b1a46a81ab6d97326392a3e961efa7273d5d756d7a2e1cad6040518060400160405280600d81526020017f49636543616e64794173736574000000000000000000000000000000000000008152508483346040516104849493929190610e63565b60405180910390a1505050565b6104996107c2565b60405180604001604052806040518060400160405280600d81526020017f49636543616e647941737365740000000000000000000000000000000000000081525081526020016040518060400160405280601481526020017f49636543616e64792041737365742053746f7265000000000000000000000000815250815250905090565b60008060009054906101000a900473ffffffffffffffffffffffffffffffffffffffff16905090565b61054e6107dc565b7f000000000000000000000000000000000000000000000000000000000000000073ffffffffffffffffffffffffffffffffffffffff1663eac8f5b8836040518263ffffffff1660e01b81526004016105a7919061082c565b600060405180830381865afa1580156105c4573d6000803e3d6000fd5b505050506040513d6000823e3d601f19601f820116820180604052508101906105ed9190610df9565b9050919050565b6105fc610678565b600073ffffffffffffffffffffffffffffffffffffffff168173ffffffffffffffffffffffffffffffffffffffff16141561066c576040517f08c379a000000000000000000000000000000000000000000000000000000000815260040161066390610f21565b60405180910390fd5b610675816106f6565b50565b6106806107ba565b73ffffffffffffffffffffffffffffffffffffffff1661069e61051d565b73ffffffffffffffffffffffffffffffffffffffff16146106f4576040517f08c379a00000000000000000000000000000000000000000000000000000000081526004016106eb90610f8d565b60405180910390fd5b565b60008060009054906101000a900473ffffffffffffffffffffffffffffffffffffffff169050816000806101000a81548173ffffffffffffffffffffffffffffffffffffffff021916908373ffffffffffffffffffffffffffffffffffffffff1602179055508173ffffffffffffffffffffffffffffffffffffffff168173ffffffffffffffffffffffffffffffffffffffff167f8be0079c531659141344cd1fd0a4f28419497f9722a3daafe3b4186f6b6457e060405160405180910390a35050565b600033905090565b604051806040016040528060608152602001606081525090565b604051806060016040528060608152602001600073ffffffffffffffffffffffffffffffffffffffff168152602001606081525090565b6000819050919050565b61082681610813565b82525050565b6000602082019050610841600083018461081d565b92915050565b600073ffffffffffffffffffffffffffffffffffffffff82169050919050565b6000819050919050565b600061088c61088761088284610847565b610867565b610847565b9050919050565b600061089e82610871565b9050919050565b60006108b082610893565b9050919050565b6108c0816108a5565b82525050565b60006020820190506108db60008301846108b7565b92915050565b6000604051905090565b600080fd5b600080fd5b6108fe81610813565b811461090957600080fd5b50565b60008135905061091b816108f5565b92915050565b600060208284031215610937576109366108eb565b5b60006109458482850161090c565b91505092915050565b600081519050919050565b600082825260208201905092915050565b60005b8381101561098857808201518184015260208101905061096d565b83811115610997576000848401525b50505050565b6000601f19601f8301169050919050565b60006109b98261094e565b6109c38185610959565b93506109d381856020860161096a565b6109dc8161099d565b840191505092915050565b60006020820190508181036000830152610a0181846109ae565b905092915050565b6000610a1482610847565b9050919050565b610a2481610a09565b82525050565b6000602082019050610a3f6000830184610a1b565b92915050565b600082825260208201905092915050565b6000610a618261094e565b610a6b8185610a45565b9350610a7b81856020860161096a565b610a848161099d565b840191505092915050565b60006040830160008301518482036000860152610aac8282610a56565b91505060208301518482036020860152610ac68282610a56565b9150508091505092915050565b60006020820190508181036000830152610aed8184610a8f565b905092915050565b610afe81610a09565b82525050565b60006060830160008301518482036000860152610b218282610a56565b9150506020830151610b366020860182610af5565b5060408301518482036040860152610b4e8282610a56565b9150508091505092915050565b60006020820190508181036000830152610b758184610b04565b905092915050565b610b8681610a09565b8114610b9157600080fd5b50565b600081359050610ba381610b7d565b92915050565b600060208284031215610bbf57610bbe6108eb565b5b6000610bcd84828501610b94565b91505092915050565b600081519050610be5816108f5565b92915050565b600060208284031215610c0157610c006108eb565b5b6000610c0f84828501610bd6565b91505092915050565b600080fd5b7f4e487b7100000000000000000000000000000000000000000000000000000000600052604160045260246000fd5b610c558261099d565b810181811067ffffffffffffffff82111715610c7457610c73610c1d565b5b80604052505050565b6000610c876108e1565b9050610c938282610c4c565b919050565b600080fd5b600080fd5b600080fd5b600067ffffffffffffffff821115610cc257610cc1610c1d565b5b610ccb8261099d565b9050602081019050919050565b6000610ceb610ce684610ca7565b610c7d565b905082815260208101848484011115610d0757610d06610ca2565b5b610d1284828561096a565b509392505050565b600082601f830112610d2f57610d2e610c9d565b5b8151610d3f848260208601610cd8565b91505092915050565b600081519050610d5781610b7d565b92915050565b600060608284031215610d7357610d72610c18565b5b610d7d6060610c7d565b9050600082015167ffffffffffffffff811115610d9d57610d9c610c98565b5b610da984828501610d1a565b6000830152506020610dbd84828501610d48565b602083015250604082015167ffffffffffffffff811115610de157610de0610c98565b5b610ded84828501610d1a565b60408301525092915050565b600060208284031215610e0f57610e0e6108eb565b5b600082015167ffffffffffffffff811115610e2d57610e2c6108f0565b5b610e3984828501610d5d565b91505092915050565b6000610e4d82610847565b9050919050565b610e5d81610e42565b82525050565b60006080820190508181036000830152610e7d81876109ae565b9050610e8c602083018661081d565b610e996040830185610e54565b610ea6606083018461081d565b95945050505050565b7f4f776e61626c653a206e6577206f776e657220697320746865207a65726f206160008201527f6464726573730000000000000000000000000000000000000000000000000000602082015250565b6000610f0b602683610959565b9150610f1682610eaf565b604082019050919050565b60006020820190508181036000830152610f3a81610efe565b9050919050565b7f4f776e61626c653a2063616c6c6572206973206e6f7420746865206f776e6572600082015250565b6000610f77602083610959565b9150610f8282610f41565b602082019050919050565b60006020820190508181036000830152610fa681610f6a565b905091905056fea2646970667358221220f4dda29424bac870adf3a36206d88dcf09a7ee383bb2d2d9e473f64400ca9bee64736f6c634300080a0033",
  "linkReferences": {},
  "deployedLinkReferences": {}
}