{
  "_format": "hh-sol-artifact-1",
  "contractName": "IceCandy",
  "sourceName": "contracts/core/IceCandy.sol",
  "abi": [
    {
      "inputs": [
        {
          "internalType": "address",
          "name": "owner",
          "type": "address"
        }
      ],
      "stateMutability": "nonpayable",
      "type": "constructor"
    },
    {
      "anonymous": false,
      "inputs": [
        {
          "indexed": true,
          "internalType": "address",
          "name": "owner",
          "type": "address"
        },
        {
          "indexed": true,
          "internalType": "address",
          "name": "approved",
          "type": "address"
        },
        {
          "indexed": true,
          "internalType": "uint256",
          "name": "tokenId",
          "type": "uint256"
        }
      ],
      "name": "Approval",
      "type": "event"
    },
    {
      "anonymous": false,
      "inputs": [
        {
          "indexed": true,
          "internalType": "address",
          "name": "owner",
          "type": "address"
        },
        {
          "indexed": true,
          "internalType": "address",
          "name": "operator",
          "type": "address"
        },
        {
          "indexed": false,
          "internalType": "bool",
          "name": "approved",
          "type": "bool"
        }
      ],
      "name": "ApprovalForAll",
      "type": "event"
    },
    {
      "anonymous": false,
      "inputs": [
        {
          "indexed": true,
          "internalType": "uint256",
          "name": "tokenId",
          "type": "uint256"
        },
        {
          "indexed": true,
          "internalType": "address",
          "name": "to",
          "type": "address"
        },
        {
          "indexed": true,
          "internalType": "enum IIceCandy.IceCandyType",
          "name": "iceCandyType",
          "type": "uint8"
        },
        {
          "indexed": false,
          "internalType": "uint256",
          "name": "blockNumber",
          "type": "uint256"
        }
      ],
      "name": "Mint",
      "type": "event"
    },
    {
      "anonymous": false,
      "inputs": [
        {
          "indexed": true,
          "internalType": "address",
          "name": "previousOwner",
          "type": "address"
        },
        {
          "indexed": true,
          "internalType": "address",
          "name": "newOwner",
          "type": "address"
        }
      ],
      "name": "OwnershipTransferred",
      "type": "event"
    },
    {
      "anonymous": false,
      "inputs": [
        {
          "indexed": true,
          "internalType": "uint256",
          "name": "tokenId",
          "type": "uint256"
        },
        {
          "indexed": true,
          "internalType": "uint256",
          "name": "from",
          "type": "uint256"
        },
        {
          "indexed": true,
          "internalType": "uint256",
          "name": "to",
          "type": "uint256"
        },
        {
          "indexed": false,
          "internalType": "address",
          "name": "module",
          "type": "address"
        },
        {
          "indexed": false,
          "internalType": "uint256",
          "name": "moduleId",
          "type": "uint256"
        },
        {
          "indexed": false,
          "internalType": "uint256",
          "name": "blockNumber",
          "type": "uint256"
        }
      ],
      "name": "Sent",
      "type": "event"
    },
    {
      "anonymous": false,
      "inputs": [
        {
          "indexed": true,
          "internalType": "address",
          "name": "from",
          "type": "address"
        },
        {
          "indexed": true,
          "internalType": "address",
          "name": "to",
          "type": "address"
        },
        {
          "indexed": true,
          "internalType": "uint256",
          "name": "tokenId",
          "type": "uint256"
        }
      ],
      "name": "Transfer",
      "type": "event"
    },
    {
      "inputs": [
        {
          "internalType": "address",
          "name": "to",
          "type": "address"
        },
        {
          "internalType": "uint256",
          "name": "tokenId",
          "type": "uint256"
        }
      ],
      "name": "approve",
      "outputs": [],
      "stateMutability": "nonpayable",
      "type": "function"
    },
    {
      "inputs": [
        {
          "internalType": "address",
          "name": "owner",
          "type": "address"
        }
      ],
      "name": "balanceOf",
      "outputs": [
        {
          "internalType": "uint256",
          "name": "",
          "type": "uint256"
        }
      ],
      "stateMutability": "view",
      "type": "function"
    },
    {
      "inputs": [
        {
          "internalType": "address",
          "name": "owner",
          "type": "address"
        }
      ],
      "name": "balanceOfLucky",
      "outputs": [
        {
          "internalType": "uint256",
          "name": "",
          "type": "uint256"
        }
      ],
      "stateMutability": "view",
      "type": "function"
    },
    {
      "inputs": [
        {
          "internalType": "address",
          "name": "owner",
          "type": "address"
        }
      ],
      "name": "balanceOfNotRevealed",
      "outputs": [
        {
          "internalType": "uint256",
          "name": "",
          "type": "uint256"
        }
      ],
      "stateMutability": "view",
      "type": "function"
    },
    {
      "inputs": [
        {
          "internalType": "address",
          "name": "owner",
          "type": "address"
        }
      ],
      "name": "balanceOfRevealed",
      "outputs": [
        {
          "internalType": "uint256",
          "name": "",
          "type": "uint256"
        }
      ],
      "stateMutability": "view",
      "type": "function"
    },
    {
      "inputs": [
        {
          "internalType": "address",
          "name": "owner",
          "type": "address"
        }
      ],
      "name": "balanceOfUnlucky",
      "outputs": [
        {
          "internalType": "uint256",
          "name": "",
          "type": "uint256"
        }
      ],
      "stateMutability": "view",
      "type": "function"
    },
    {
      "inputs": [
        {
          "internalType": "uint256",
          "name": "tokenId",
          "type": "uint256"
        }
      ],
      "name": "getApproved",
      "outputs": [
        {
          "internalType": "address",
          "name": "",
          "type": "address"
        }
      ],
      "stateMutability": "view",
      "type": "function"
    },
    {
      "inputs": [
        {
          "internalType": "uint256",
          "name": "tokenId",
          "type": "uint256"
        }
      ],
      "name": "getIceCandy",
      "outputs": [
        {
          "components": [
            {
              "internalType": "enum IIceCandy.IceCandyType",
              "name": "iceCandyType",
              "type": "uint8"
            },
            {
              "internalType": "uint256",
              "name": "sentProfileId",
              "type": "uint256"
            },
            {
              "internalType": "address",
              "name": "sentModule",
              "type": "address"
            },
            {
              "internalType": "uint256",
              "name": "sentModuleId",
              "type": "uint256"
            }
          ],
          "internalType": "struct IIceCandy.IceCandyStruct",
          "name": "",
          "type": "tuple"
        }
      ],
      "stateMutability": "view",
      "type": "function"
    },
    {
      "inputs": [
        {
          "internalType": "address",
          "name": "owner",
          "type": "address"
        },
        {
          "internalType": "address",
          "name": "operator",
          "type": "address"
        }
      ],
      "name": "isApprovedForAll",
      "outputs": [
        {
          "internalType": "bool",
          "name": "",
          "type": "bool"
        }
      ],
      "stateMutability": "view",
      "type": "function"
    },
    {
      "inputs": [
        {
          "internalType": "address",
          "name": "to",
          "type": "address"
        }
      ],
      "name": "mint",
      "outputs": [],
      "stateMutability": "nonpayable",
      "type": "function"
    },
    {
      "inputs": [],
      "name": "name",
      "outputs": [
        {
          "internalType": "string",
          "name": "",
          "type": "string"
        }
      ],
      "stateMutability": "view",
      "type": "function"
    },
    {
      "inputs": [
        {
          "internalType": "uint256",
          "name": "profileId",
          "type": "uint256"
        }
      ],
      "name": "numberOfReceived",
      "outputs": [
        {
          "internalType": "uint256",
          "name": "",
          "type": "uint256"
        }
      ],
      "stateMutability": "view",
      "type": "function"
    },
    {
      "inputs": [
        {
          "internalType": "uint256",
          "name": "profileId",
          "type": "uint256"
        }
      ],
      "name": "numberOfReceiver",
      "outputs": [
        {
          "internalType": "uint256",
          "name": "",
          "type": "uint256"
        }
      ],
      "stateMutability": "view",
      "type": "function"
    },
    {
      "inputs": [
        {
          "internalType": "uint256",
          "name": "profileId",
          "type": "uint256"
        }
      ],
      "name": "numberOfSender",
      "outputs": [
        {
          "internalType": "uint256",
          "name": "",
          "type": "uint256"
        }
      ],
      "stateMutability": "view",
      "type": "function"
    },
    {
      "inputs": [
        {
          "internalType": "uint256",
          "name": "profileId",
          "type": "uint256"
        }
      ],
      "name": "numberOfSent",
      "outputs": [
        {
          "internalType": "uint256",
          "name": "",
          "type": "uint256"
        }
      ],
      "stateMutability": "view",
      "type": "function"
    },
    {
      "inputs": [],
      "name": "owner",
      "outputs": [
        {
          "internalType": "address",
          "name": "",
          "type": "address"
        }
      ],
      "stateMutability": "view",
      "type": "function"
    },
    {
      "inputs": [
        {
          "internalType": "uint256",
          "name": "tokenId",
          "type": "uint256"
        }
      ],
      "name": "ownerOf",
      "outputs": [
        {
          "internalType": "address",
          "name": "",
          "type": "address"
        }
      ],
      "stateMutability": "view",
      "type": "function"
    },
    {
      "inputs": [],
      "name": "renounceOwnership",
      "outputs": [],
      "stateMutability": "nonpayable",
      "type": "function"
    },
    {
      "inputs": [
        {
          "internalType": "address",
          "name": "from",
          "type": "address"
        },
        {
          "internalType": "address",
          "name": "to",
          "type": "address"
        },
        {
          "internalType": "uint256",
          "name": "tokenId",
          "type": "uint256"
        }
      ],
      "name": "safeTransferFrom",
      "outputs": [],
      "stateMutability": "nonpayable",
      "type": "function"
    },
    {
      "inputs": [
        {
          "internalType": "address",
          "name": "from",
          "type": "address"
        },
        {
          "internalType": "address",
          "name": "to",
          "type": "address"
        },
        {
          "internalType": "uint256",
          "name": "tokenId",
          "type": "uint256"
        },
        {
          "internalType": "bytes",
          "name": "data",
          "type": "bytes"
        }
      ],
      "name": "safeTransferFrom",
      "outputs": [],
      "stateMutability": "nonpayable",
      "type": "function"
    },
    {
      "inputs": [
        {
          "internalType": "uint256",
          "name": "profileId",
          "type": "uint256"
        },
        {
          "internalType": "address",
          "name": "module",
          "type": "address"
        },
        {
          "internalType": "uint256",
          "name": "moduleId",
          "type": "uint256"
        }
      ],
      "name": "send",
      "outputs": [],
      "stateMutability": "nonpayable",
      "type": "function"
    },
    {
      "inputs": [
        {
          "internalType": "address",
          "name": "operator",
          "type": "address"
        },
        {
          "internalType": "bool",
          "name": "approved",
          "type": "bool"
        }
      ],
      "name": "setApprovalForAll",
      "outputs": [],
      "stateMutability": "nonpayable",
      "type": "function"
    },
    {
      "inputs": [
        {
          "internalType": "address",
          "name": "globals",
          "type": "address"
        }
      ],
      "name": "setGlobals",
      "outputs": [],
      "stateMutability": "nonpayable",
      "type": "function"
    },
    {
      "inputs": [
        {
          "internalType": "bytes4",
          "name": "interfaceId",
          "type": "bytes4"
        }
      ],
      "name": "supportsInterface",
      "outputs": [
        {
          "internalType": "bool",
          "name": "",
          "type": "bool"
        }
      ],
      "stateMutability": "view",
      "type": "function"
    },
    {
      "inputs": [],
      "name": "symbol",
      "outputs": [
        {
          "internalType": "string",
          "name": "",
          "type": "string"
        }
      ],
      "stateMutability": "view",
      "type": "function"
    },
    {
      "inputs": [
        {
          "internalType": "uint256",
          "name": "index",
          "type": "uint256"
        }
      ],
      "name": "tokenByIndex",
      "outputs": [
        {
          "internalType": "uint256",
          "name": "",
          "type": "uint256"
        }
      ],
      "stateMutability": "view",
      "type": "function"
    },
    {
      "inputs": [
        {
          "internalType": "address",
          "name": "owner",
          "type": "address"
        },
        {
          "internalType": "uint256",
          "name": "index",
          "type": "uint256"
        }
      ],
      "name": "tokenOfOwnerByIndex",
      "outputs": [
        {
          "internalType": "uint256",
          "name": "",
          "type": "uint256"
        }
      ],
      "stateMutability": "view",
      "type": "function"
    },
    {
      "inputs": [
        {
          "internalType": "uint256",
          "name": "tokenId",
          "type": "uint256"
        }
      ],
      "name": "tokenURI",
      "outputs": [
        {
          "internalType": "string",
          "name": "",
          "type": "string"
        }
      ],
      "stateMutability": "view",
      "type": "function"
    },
    {
      "inputs": [],
      "name": "totalSupply",
      "outputs": [
        {
          "internalType": "uint256",
          "name": "",
          "type": "uint256"
        }
      ],
      "stateMutability": "view",
      "type": "function"
    },
    {
      "inputs": [
        {
          "internalType": "address",
          "name": "from",
          "type": "address"
        },
        {
          "internalType": "address",
          "name": "to",
          "type": "address"
        },
        {
          "internalType": "uint256",
          "name": "tokenId",
          "type": "uint256"
        }
      ],
      "name": "transferFrom",
      "outputs": [],
      "stateMutability": "nonpayable",
      "type": "function"
    },
    {
      "inputs": [
        {
          "internalType": "address",
          "name": "newOwner",
          "type": "address"
        }
      ],
      "name": "transferOwnership",
      "outputs": [],
      "stateMutability": "nonpayable",
      "type": "function"
    }
  ],
  "bytecode": "0x60806040523480156200001157600080fd5b5060405162002b5638038062002b568339810160408190526200003491620001c0565b604080518082018252600881526749636543616e647960c01b60208083019182528351808501909452600384526249434560e81b9084015281519192916200007f916000916200011a565b508051620000959060019060208401906200011a565b505050620000b2620000ac620000c460201b60201c565b620000c8565b620000bd81620000c8565b506200022f565b3390565b600a80546001600160a01b038381166001600160a01b0319831681179093556040519116919082907f8be0079c531659141344cd1fd0a4f28419497f9722a3daafe3b4186f6b6457e090600090a35050565b8280546200012890620001f2565b90600052602060002090601f0160209004810192826200014c576000855562000197565b82601f106200016757805160ff191683800117855562000197565b8280016001018555821562000197579182015b82811115620001975782518255916020019190600101906200017a565b50620001a5929150620001a9565b5090565b5b80821115620001a55760008155600101620001aa565b600060208284031215620001d357600080fd5b81516001600160a01b0381168114620001eb57600080fd5b9392505050565b600181811c908216806200020757607f821691505b602082108114156200022957634e487b7160e01b600052602260045260246000fd5b50919050565b612917806200023f6000396000f3fe608060405234801561001057600080fd5b50600436106101e55760003560e01c8063691a0ffb1161010f5780639f6d6665116100a2578063c87b56dd11610071578063c87b56dd146104a0578063cc2e0a26146104b3578063e985e9c5146104c6578063f2fde38b1461050257600080fd5b80639f6d666514610428578063a22cb46514610451578063b88d4fde14610464578063c13e50521461047757600080fd5b806381b34f15116100de57806381b34f15146103dc57806389bb3c02146103ef5780638da5cb5b1461040f57806395d89b411461042057600080fd5b8063691a0ffb146103855780636a627842146103ae57806370a08231146103c1578063715018a6146103d457600080fd5b806323b872dd1161018757806342842e0e1161015657806342842e0e146103235780634d182b7d146103365780634f6ccce71461035f5780636352211e1461037257600080fd5b806323b872dd146102bd5780632f745c59146102d057806334d93672146102e3578063394b20e01461030357600080fd5b8063081812fc116101c3578063081812fc14610255578063095ea7b3146102805780630e959a9f1461029557806318160ddd146102b557600080fd5b806301ffc9a7146101ea5780630686e04f1461021257806306fdde0314610240575b600080fd5b6101fd6101f83660046120d9565b610515565b60405190151581526020015b60405180910390f35b6102326102203660046120fd565b60009081526012602052604090205490565b604051908152602001610209565b610248610540565b604051610209919061216e565b6102686102633660046120fd565b6105d2565b6040516001600160a01b039091168152602001610209565b61029361028e366004612196565b6105f9565b005b6102a86102a33660046120fd565b610714565b60405161020991906121d8565b600854610232565b6102936102cb36600461222d565b6107ab565b6102326102de366004612196565b6107dc565b6102326102f13660046120fd565b60009081526015602052604090205490565b6102326103113660046120fd565b60009081526013602052604090205490565b61029361033136600461222d565b610872565b61023261034436600461226e565b6001600160a01b03166000908152600e602052604090205490565b61023261036d3660046120fd565b61088d565b6102686103803660046120fd565b610920565b61023261039336600461226e565b6001600160a01b031660009081526011602052604090205490565b6102936103bc36600461226e565b610980565b6102326103cf36600461226e565b610a23565b610293610aa9565b6102936103ea36600461228b565b610abd565b6102326103fd3660046120fd565b60009081526014602052604090205490565b600a546001600160a01b0316610268565b61024861124d565b61023261043636600461226e565b6001600160a01b031660009081526010602052604090205490565b61029361045f3660046122b2565b61125c565b610293610472366004612388565b611267565b61023261048536600461226e565b6001600160a01b03166000908152600f602052604090205490565b6102486104ae3660046120fd565b61129f565b6102936104c136600461226e565b6113a0565b6101fd6104d4366004612437565b6001600160a01b03918216600090815260056020908152604080832093909416825291909152205460ff1690565b61029361051036600461226e565b6113ca565b60006001600160e01b0319821663780e9d6360e01b148061053a575061053a82611443565b92915050565b60606000805461054f90612465565b80601f016020809104026020016040519081016040528092919081815260200182805461057b90612465565b80156105c85780601f1061059d576101008083540402835291602001916105c8565b820191906000526020600020905b8154815290600101906020018083116105ab57829003601f168201915b5050505050905090565b60006105dd82611493565b506000908152600460205260409020546001600160a01b031690565b600061060482610920565b9050806001600160a01b0316836001600160a01b031614156106775760405162461bcd60e51b815260206004820152602160248201527f4552433732313a20617070726f76616c20746f2063757272656e74206f776e656044820152603960f91b60648201526084015b60405180910390fd5b336001600160a01b0382161480610693575061069381336104d4565b6107055760405162461bcd60e51b815260206004820152603e60248201527f4552433732313a20617070726f76652063616c6c6572206973206e6f7420746f60448201527f6b656e206f776e6572206e6f7220617070726f76656420666f7220616c6c0000606482015260840161066e565b61070f83836114f2565b505050565b6040805160808101825260008082526020820181905291810182905260608101919091526000828152600d6020526040908190208151608081019092528054829060ff166003811115610769576107696121c2565b600381111561077a5761077a6121c2565b81526001820154602082015260028201546001600160a01b0316604082015260039091015460609091015292915050565b6107b53382611560565b6107d15760405162461bcd60e51b815260040161066e906124a0565b61070f8383836115df565b60006107e783610a23565b82106108495760405162461bcd60e51b815260206004820152602b60248201527f455243373231456e756d657261626c653a206f776e657220696e646578206f7560448201526a74206f6620626f756e647360a81b606482015260840161066e565b506001600160a01b03919091166000908152600660209081526040808320938352929052205490565b61070f83838360405180602001604052806000815250611267565b600061089860085490565b82106108fb5760405162461bcd60e51b815260206004820152602c60248201527f455243373231456e756d657261626c653a20676c6f62616c20696e646578206f60448201526b7574206f6620626f756e647360a01b606482015260840161066e565b6008828154811061090e5761090e6124ee565b90600052602060002001549050919050565b6000818152600260205260408120546001600160a01b03168061053a5760405162461bcd60e51b8152602060048201526018602482015277115490cdcc8c4e881a5b9d985b1a59081d1bdad95b88125160421b604482015260640161066e565b610988611782565b6000600b600081546109999061251a565b91829055506001600160a01b03831660009081526016602052604090205490915015610a135760405162461bcd60e51b815260206004820152602360248201527f49636543616e64793a206f6e6c79206f6e65206d696e7420706572206164647260448201526265737360e81b606482015260840161066e565b610a1f828260006117dc565b5050565b60006001600160a01b038216610a8d5760405162461bcd60e51b815260206004820152602960248201527f4552433732313a2061646472657373207a65726f206973206e6f7420612076616044820152683634b21037bbb732b960b91b606482015260840161066e565b506001600160a01b031660009081526003602052604090205490565b610ab1611782565b610abb6000611934565b565b33600090815260166020908152604080832054600c54825163d6afc9b160e01b815292519194936001600160a01b039091169263d6afc9b192600480830193928290030181865afa158015610b16573d6000803e3d6000fd5b505050506040513d601f19601f82011682018060405250810190610b3a9190612535565b6040516309959fbb60e21b81523360048201526001600160a01b0391909116906326567eec90602401602060405180830381865afa158015610b80573d6000803e3d6000fd5b505050506040513d601f19601f82011682018060405250810190610ba49190612552565b905060008211610c025760405162461bcd60e51b815260206004820152602360248201527f49636543616e64793a20796f7520646f6e2774206861766520612049636543616044820152626e647960e81b606482015260840161066e565b6000828152600d602052604081205460ff166003811115610c2557610c256121c2565b14610c7e5760405162461bcd60e51b8152602060048201526024808201527f49636543616e64793a206f6e6c79206e6f742072657665616c65642063616e206044820152631cd95b9960e21b606482015260840161066e565b6000828152600d602052604081208054600160ff199091168117825581018790556002810180546001600160a01b0319166001600160a01b038816179055600301849055805b600083815260126020526040902054811015610d29576000838152601260205260409020805488919083908110610cfd57610cfd6124ee565b90600052602060002001541415610d175760019150610d29565b80610d218161251a565b915050610cc4565b5080610d51576000828152601260209081526040822080546001810182559083529120018690555b506000805b600087815260136020526040902054811015610dbb576000878152601360205260409020805484919083908110610d8f57610d8f6124ee565b90600052602060002001541415610da95760019150610dbb565b80610db38161251a565b915050610d56565b5080610de3576000868152601360209081526040822080546001810182559083529120018290555b601460008381526020019081526020016000206040518060800160405280858152602001888152602001876001600160a01b03168152602001868152509080600181540180825580915050600190039060005260206000209060040201600090919091909150600082015181600001556020820151816001015560408201518160020160006101000a8154816001600160a01b0302191690836001600160a01b03160217905550606082015181600301555050601560008781526020019081526020016000206040518060800160405280858152602001848152602001876001600160a01b03168152602001868152509080600181540180825580915050600190039060005260206000209060040201600090919091909150600082015181600001556020820151816001015560408201518160020160006101000a8154816001600160a01b0302191690836001600160a01b03160217905550606082015181600301555050600060166000336001600160a01b03166001600160a01b03168152602001908152602001600020819055506001600f6000610f8386610920565b6001600160a01b03166001600160a01b03168152602001908152602001600020600082825403925050819055506001600e6000610fbf86610920565b6001600160a01b03908116825260208083019390935260409182016000208054909401909355600c54815163d6afc9b160e01b815291516110dc94339492169263d6afc9b19260048083019391928290030181865afa158015611026573d6000803e3d6000fd5b505050506040513d601f19601f8201168201806040525081019061104a9190612535565b6001600160a01b031663f08f4f64896040518263ffffffff1660e01b815260040161107791815260200190565b600060405180830381865afa158015611094573d6000803e3d6000fd5b505050506040513d6000823e601f3d908101601f191682016040526110bc9190810190612639565b5180516000906110ce576110ce6124ee565b6020026020010151856115df565b600b600081546110eb9061251a565b90915550600b546110fe9060029061271f565b6111155761111033600b5460026117dc565b611123565b61112333600b5460036117dc565b600c546040805163d6afc9b160e01b8152905188926001600160a01b03169163d6afc9b19160048083019260209291908290030181865afa15801561116c573d6000803e3d6000fd5b505050506040513d601f19601f820116820180604052508101906111909190612535565b6040516309959fbb60e21b81523360048201526001600160a01b0391909116906326567eec90602401602060405180830381865afa1580156111d6573d6000803e3d6000fd5b505050506040513d601f19601f820116820180604052508101906111fa9190612552565b604080516001600160a01b0389168152602081018890524381830152905186917f09f1b4df57600536f156c077074f35303ce4551446e92d2f5bd92f683cdc6fdd919081900360600190a4505050505050565b60606001805461054f90612465565b610a1f338383611986565b6112713383611560565b61128d5760405162461bcd60e51b815260040161066e906124a0565b61129984848484611a55565b50505050565b606060016000838152600d602052604090205460ff1660038111156112c6576112c66121c2565b14156112eb576040518060800160405280605681526020016128336056913992915050565b6000828152600d602052604081205460ff16600381111561130e5761130e6121c2565b1415611333576040518060800160405280605981526020016128896059913992915050565b60026000838152600d602052604090205460ff166003811115611358576113586121c2565b141561137f57505060408051808201909152600581526464756d6d7960d81b602082015290565b505060408051808201909152600581526464756d6d7960d81b602082015290565b6113a8611782565b600c80546001600160a01b0319166001600160a01b0392909216919091179055565b6113d2611782565b6001600160a01b0381166114375760405162461bcd60e51b815260206004820152602660248201527f4f776e61626c653a206e6577206f776e657220697320746865207a65726f206160448201526564647265737360d01b606482015260840161066e565b61144081611934565b50565b60006001600160e01b031982166380ac58cd60e01b148061147457506001600160e01b03198216635b5e139f60e01b145b8061053a57506301ffc9a760e01b6001600160e01b031983161461053a565b6000818152600260205260409020546001600160a01b03166114405760405162461bcd60e51b8152602060048201526018602482015277115490cdcc8c4e881a5b9d985b1a59081d1bdad95b88125160421b604482015260640161066e565b600081815260046020526040902080546001600160a01b0319166001600160a01b038416908117909155819061152782610920565b6001600160a01b03167f8c5be1e5ebec7d5bd14f71427d1e84f3dd0314c0f7b2291e5b200ac8c7c3b92560405160405180910390a45050565b60008061156c83610920565b9050806001600160a01b0316846001600160a01b031614806115b357506001600160a01b0380821660009081526005602090815260408083209388168352929052205460ff165b806115d75750836001600160a01b03166115cc846105d2565b6001600160a01b0316145b949350505050565b6000818152600d602052604081205460ff166003811115611602576116026121c2565b141561165e5760405162461bcd60e51b815260206004820152602560248201527f49636543616e64793a206e6f742072657665616c65642063616e2774207472616044820152643739b332b960d91b606482015260840161066e565b60016000828152600d602052604090205460ff166003811115611683576116836121c2565b14156116bd576001600160a01b038084166000908152600e6020526040808220805460001901905591841681522080546001019055611777565b60026000828152600d602052604090205460ff1660038111156116e2576116e26121c2565b141561171c576001600160a01b03808416600090815260106020526040808220805460001901905591841681522080546001019055611777565b60036000828152600d602052604090205460ff166003811115611741576117416121c2565b1415611777576001600160a01b038084166000908152601160205260408082208054600019019055918416815220805460010190555b61070f838383611a88565b600a546001600160a01b03163314610abb5760405162461bcd60e51b815260206004820181905260248201527f4f776e61626c653a2063616c6c6572206973206e6f7420746865206f776e6572604482015260640161066e565b6000828152600d60205260409020805482919060ff19166001836003811115611807576118076121c2565b02179055506000816003811115611820576118206121c2565b1415611857576001600160a01b0383166000908152600f6020908152604080832080546001019055601690915290208290556118cf565b600281600381111561186b5761186b6121c2565b1415611895576001600160a01b0383166000908152601060205260409020805460010190556118cf565b60038160038111156118a9576118a96121c2565b14156118cf576001600160a01b0383166000908152601160205260409020805460010190555b6118d98383611c2f565b8060038111156118eb576118eb6121c2565b836001600160a01b0316837f895d1910405913664d4847af96bbb120255ea67df025a326a964e3847ed6922d4360405161192791815260200190565b60405180910390a4505050565b600a80546001600160a01b038381166001600160a01b0319831681179093556040519116919082907f8be0079c531659141344cd1fd0a4f28419497f9722a3daafe3b4186f6b6457e090600090a35050565b816001600160a01b0316836001600160a01b031614156119e85760405162461bcd60e51b815260206004820152601960248201527f4552433732313a20617070726f766520746f2063616c6c657200000000000000604482015260640161066e565b6001600160a01b03838116600081815260056020908152604080832094871680845294825291829020805460ff191686151590811790915591519182527f17307eab39ab6107e8899845ad3d59bd9653f200f220920489ca2b5937696c31910160405180910390a3505050565b611a608484846115df565b611a6c84848484611d7d565b6112995760405162461bcd60e51b815260040161066e90612741565b826001600160a01b0316611a9b82610920565b6001600160a01b031614611aff5760405162461bcd60e51b815260206004820152602560248201527f4552433732313a207472616e736665722066726f6d20696e636f72726563742060448201526437bbb732b960d91b606482015260840161066e565b6001600160a01b038216611b615760405162461bcd60e51b8152602060048201526024808201527f4552433732313a207472616e7366657220746f20746865207a65726f206164646044820152637265737360e01b606482015260840161066e565b611b6c838383611e7b565b611b776000826114f2565b6001600160a01b0383166000908152600360205260408120805460019290611ba0908490612793565b90915550506001600160a01b0382166000908152600360205260408120805460019290611bce9084906127aa565b909155505060008181526002602052604080822080546001600160a01b0319166001600160a01b0386811691821790925591518493918716917fddf252ad1be2c89b69c2b068fc378daa952ba7f163c4a11628f55a4df523b3ef91a4505050565b6001600160a01b038216611c855760405162461bcd60e51b815260206004820181905260248201527f4552433732313a206d696e7420746f20746865207a65726f2061646472657373604482015260640161066e565b6000818152600260205260409020546001600160a01b031615611cea5760405162461bcd60e51b815260206004820152601c60248201527f4552433732313a20746f6b656e20616c7265616479206d696e74656400000000604482015260640161066e565b611cf660008383611e7b565b6001600160a01b0382166000908152600360205260408120805460019290611d1f9084906127aa565b909155505060008181526002602052604080822080546001600160a01b0319166001600160a01b03861690811790915590518392907fddf252ad1be2c89b69c2b068fc378daa952ba7f163c4a11628f55a4df523b3ef908290a45050565b60006001600160a01b0384163b15611e7057604051630a85bd0160e11b81526001600160a01b0385169063150b7a0290611dc19033908990889088906004016127c2565b6020604051808303816000875af1925050508015611dfc575060408051601f3d908101601f19168201909252611df9918101906127ff565b60015b611e56573d808015611e2a576040519150601f19603f3d011682016040523d82523d6000602084013e611e2f565b606091505b508051611e4e5760405162461bcd60e51b815260040161066e90612741565b805181602001fd5b6001600160e01b031916630a85bd0160e11b1490506115d7565b506001949350505050565b6001600160a01b038316611ed657611ed181600880546000838152600960205260408120829055600182018355919091527ff3f7a9fe364faab93b216da50a3214154f22a0a2b415b23a84c8169e8b636ee30155565b611ef9565b816001600160a01b0316836001600160a01b031614611ef957611ef98382611f33565b6001600160a01b038216611f105761070f81611fd0565b826001600160a01b0316826001600160a01b03161461070f5761070f828261207f565b60006001611f4084610a23565b611f4a9190612793565b600083815260076020526040902054909150808214611f9d576001600160a01b03841660009081526006602090815260408083208584528252808320548484528184208190558352600790915290208190555b5060009182526007602090815260408084208490556001600160a01b039094168352600681528383209183525290812055565b600854600090611fe290600190612793565b6000838152600960205260408120546008805493945090928490811061200a5761200a6124ee565b90600052602060002001549050806008838154811061202b5761202b6124ee565b60009182526020808320909101929092558281526009909152604080822084905585825281205560088054806120635761206361281c565b6001900381819060005260206000200160009055905550505050565b600061208a83610a23565b6001600160a01b039093166000908152600660209081526040808320868452825280832085905593825260079052919091209190915550565b6001600160e01b03198116811461144057600080fd5b6000602082840312156120eb57600080fd5b81356120f6816120c3565b9392505050565b60006020828403121561210f57600080fd5b5035919050565b60005b83811015612131578181015183820152602001612119565b838111156112995750506000910152565b6000815180845261215a816020860160208601612116565b601f01601f19169290920160200192915050565b6020815260006120f66020830184612142565b6001600160a01b038116811461144057600080fd5b600080604083850312156121a957600080fd5b82356121b481612181565b946020939093013593505050565b634e487b7160e01b600052602160045260246000fd5b81516080820190600481106121fd57634e487b7160e01b600052602160045260246000fd5b8252602083810151908301526040808401516001600160a01b031690830152606092830151929091019190915290565b60008060006060848603121561224257600080fd5b833561224d81612181565b9250602084013561225d81612181565b929592945050506040919091013590565b60006020828403121561228057600080fd5b81356120f681612181565b6000806000606084860312156122a057600080fd5b83359250602084013561225d81612181565b600080604083850312156122c557600080fd5b82356122d081612181565b9150602083013580151581146122e557600080fd5b809150509250929050565b634e487b7160e01b600052604160045260246000fd5b60405160a0810167ffffffffffffffff81118282101715612329576123296122f0565b60405290565b604051601f8201601f1916810167ffffffffffffffff81118282101715612358576123586122f0565b604052919050565b600067ffffffffffffffff82111561237a5761237a6122f0565b50601f01601f191660200190565b6000806000806080858703121561239e57600080fd5b84356123a981612181565b935060208501356123b981612181565b925060408501359150606085013567ffffffffffffffff8111156123dc57600080fd5b8501601f810187136123ed57600080fd5b80356124006123fb82612360565b61232f565b81815288602083850101111561241557600080fd5b8160208401602083013760006020838301015280935050505092959194509250565b6000806040838503121561244a57600080fd5b823561245581612181565b915060208301356122e581612181565b600181811c9082168061247957607f821691505b6020821081141561249a57634e487b7160e01b600052602260045260246000fd5b50919050565b6020808252602e908201527f4552433732313a2063616c6c6572206973206e6f7420746f6b656e206f776e6560408201526d1c881b9bdc88185c1c1c9bdd995960921b606082015260800190565b634e487b7160e01b600052603260045260246000fd5b634e487b7160e01b600052601160045260246000fd5b600060001982141561252e5761252e612504565b5060010190565b60006020828403121561254757600080fd5b81516120f681612181565b60006020828403121561256457600080fd5b5051919050565b600082601f83011261257c57600080fd5b8151602067ffffffffffffffff821115612598576125986122f0565b8160051b6125a782820161232f565b92835284810182019282810190878511156125c157600080fd5b83870192505b848310156125e95782516125da81612181565b825291830191908301906125c7565b979650505050505050565b600082601f83011261260557600080fd5b81516126136123fb82612360565b81815284602083860101111561262857600080fd5b6115d7826020830160208701612116565b60006020828403121561264b57600080fd5b815167ffffffffffffffff8082111561266357600080fd5b9083019060a0828603121561267757600080fd5b61267f612306565b82518281111561268e57600080fd5b61269a8782860161256b565b8252506020830151828111156126af57600080fd5b6126bb878286016125f4565b6020830152506040830151828111156126d357600080fd5b6126df878286016125f4565b6040830152506060830151828111156126f757600080fd5b612703878286016125f4565b6060830152506080830151608082015280935050505092915050565b60008261273c57634e487b7160e01b600052601260045260246000fd5b500690565b60208082526032908201527f4552433732313a207472616e7366657220746f206e6f6e20455243373231526560408201527131b2b4bb32b91034b6b83632b6b2b73a32b960711b606082015260800190565b6000828210156127a5576127a5612504565b500390565b600082198211156127bd576127bd612504565b500190565b6001600160a01b03858116825284166020820152604081018390526080606082018190526000906127f590830184612142565b9695505050505050565b60006020828403121561281157600080fd5b81516120f6816120c3565b634e487b7160e01b600052603160045260246000fdfe697066733a2f2f6261667962656961367a343766636c7976796c6164757a6675357372716874687575326c3675773279787873616e6b706d61747967726769617a6d2f69636543616e64795f656174656e2e6a736f6e697066733a2f2f62616679626569657170647873636f656865617a78776e6a326a71346e336e3668666b6d7a7666623764797479613632666179367a327a717275612f69636543616e64795f6e6f74456174656e2e6a736f6ea2646970667358221220e85eae31745c7a9517975c00310c413cdeb11d4a9b54a894e522617181f60e5264736f6c634300080a0033",
  "linkReferences": {},
  "deployedLinkReferences": {}
}