{
  "_format": "hh-sol-artifact-1",
  "contractName": "IceCandyAssetStoreProvider",
  "sourceName": "contracts/assetstore/IceCandyAssetProvider.sol",
  "abi": [
    {
      "inputs": [
        {
          "internalType": "contract IIceCandyAssetStore",
          "name": "_assetStore",
          "type": "address"
        }
      ],
      "stateMutability": "nonpayable",
      "type": "constructor"
    },
    {
      "anonymous": false,
      "inputs": [
        {
          "indexed": true,
          "internalType": "address",
          "name": "previousOwner",
          "type": "address"
        },
        {
          "indexed": true,
          "internalType": "address",
          "name": "newOwner",
          "type": "address"
        }
      ],
      "name": "OwnershipTransferred",
      "type": "event"
    },
    {
      "anonymous": false,
      "inputs": [
        {
          "indexed": false,
          "internalType": "string",
          "name": "providerKey",
          "type": "string"
        },
        {
          "indexed": false,
          "internalType": "uint256",
          "name": "assetId",
          "type": "uint256"
        },
        {
          "indexed": false,
          "internalType": "address payable",
          "name": "to",
          "type": "address"
        },
        {
          "indexed": false,
          "internalType": "uint256",
          "name": "amount",
          "type": "uint256"
        }
      ],
      "name": "Payout",
      "type": "event"
    },
    {
      "inputs": [],
      "name": "assetStore",
      "outputs": [
        {
          "internalType": "contract IIceCandyAssetStore",
          "name": "",
          "type": "address"
        }
      ],
      "stateMutability": "view",
      "type": "function"
    },
    {
      "inputs": [
        {
          "internalType": "uint256",
          "name": "_assetId",
          "type": "uint256"
        }
      ],
      "name": "generateTraits",
      "outputs": [
        {
          "internalType": "string",
          "name": "traits",
          "type": "string"
        }
      ],
      "stateMutability": "pure",
      "type": "function"
    },
    {
      "inputs": [
        {
          "internalType": "uint256",
          "name": "_assetId",
          "type": "uint256"
        }
      ],
      "name": "getAsset",
      "outputs": [
        {
          "components": [
            {
              "internalType": "string",
              "name": "name",
              "type": "string"
            },
            {
              "internalType": "address",
              "name": "creator",
              "type": "address"
            },
            {
              "internalType": "string",
              "name": "assetURI",
              "type": "string"
            }
          ],
          "internalType": "struct IIceCandyAssetStore.Asset",
          "name": "asset",
          "type": "tuple"
        }
      ],
      "stateMutability": "view",
      "type": "function"
    },
    {
      "inputs": [],
      "name": "getOwner",
      "outputs": [
        {
          "internalType": "address",
          "name": "",
          "type": "address"
        }
      ],
      "stateMutability": "view",
      "type": "function"
    },
    {
      "inputs": [],
      "name": "getProviderInfo",
      "outputs": [
        {
          "components": [
            {
              "internalType": "string",
              "name": "key",
              "type": "string"
            },
            {
              "internalType": "string",
              "name": "name",
              "type": "string"
            }
          ],
          "internalType": "struct IceCandyAssetStoreProvider.ProviderInfo",
          "name": "",
          "type": "tuple"
        }
      ],
      "stateMutability": "pure",
      "type": "function"
    },
    {
      "inputs": [],
      "name": "owner",
      "outputs": [
        {
          "internalType": "address",
          "name": "",
          "type": "address"
        }
      ],
      "stateMutability": "view",
      "type": "function"
    },
    {
      "inputs": [
        {
          "internalType": "uint256",
          "name": "_assetId",
          "type": "uint256"
        }
      ],
      "name": "processPayout",
      "outputs": [],
      "stateMutability": "payable",
      "type": "function"
    },
    {
      "inputs": [],
      "name": "renounceOwnership",
      "outputs": [],
      "stateMutability": "nonpayable",
      "type": "function"
    },
    {
      "inputs": [],
      "name": "totalSupply",
      "outputs": [
        {
          "internalType": "uint256",
          "name": "",
          "type": "uint256"
        }
      ],
      "stateMutability": "view",
      "type": "function"
    },
    {
      "inputs": [
        {
          "internalType": "address",
          "name": "newOwner",
          "type": "address"
        }
      ],
      "name": "transferOwnership",
      "outputs": [],
      "stateMutability": "nonpayable",
      "type": "function"
    }
  ],
  "bytecode": "0x60a060405234801561001057600080fd5b50604051610a2a380380610a2a83398101604081905261002f91610099565b61003833610049565b6001600160a01b03166080526100c9565b600080546001600160a01b038381166001600160a01b0319831681178455604051919092169283917f8be0079c531659141344cd1fd0a4f28419497f9722a3daafe3b4186f6b6457e09190a35050565b6000602082840312156100ab57600080fd5b81516001600160a01b03811681146100c257600080fd5b9392505050565b6080516109326100f86000396000818160d00152818161026301528181610315015261046401526109326000f3fe6080604052600436106100915760003560e01c806389ee68bf1161005957806389ee68bf1461016d5780638c40188e146101805780638da5cb5b1461014f578063eac8f5b814610212578063f2fde38b1461023f57600080fd5b806318160ddd14610096578063597a0e36146100be578063715018a61461010a57806379b92f2714610121578063893d20e81461014f575b600080fd5b3480156100a257600080fd5b506100ab61025f565b6040519081526020015b60405180910390f35b3480156100ca57600080fd5b506100f27f000000000000000000000000000000000000000000000000000000000000000081565b6040516001600160a01b0390911681526020016100b5565b34801561011657600080fd5b5061011f6102e8565b005b34801561012d57600080fd5b5061014261013c366004610601565b50606090565b6040516100b59190610676565b34801561015b57600080fd5b506000546001600160a01b03166100f2565b61011f61017b366004610601565b6102fc565b34801561018c57600080fd5b5061020560408051808201909152606080825260208201525060408051608081018252600d8183019081526c1258d950d85b991e505cdcd95d609a1b606083015281528151808301909252601482527349636543616e64792041737365742053746f726560601b60208381019190915281019190915290565b6040516100b59190610690565b34801561021e57600080fd5b5061023261022d366004610601565b61042e565b6040516100b591906106d2565b34801561024b57600080fd5b5061011f61025a366004610736565b6104d9565b60007f00000000000000000000000000000000000000000000000000000000000000006001600160a01b031663a0aead4d6040518163ffffffff1660e01b8152600401602060405180830381865afa1580156102bf573d6000803e3d6000fd5b505050506040513d601f19601f820116820180604052508101906102e39190610753565b905090565b6102f0610557565b6102fa60006105b1565b565b604051631d591eb760e31b8152600481018290526000907f00000000000000000000000000000000000000000000000000000000000000006001600160a01b03169063eac8f5b890602401600060405180830381865afa158015610364573d6000803e3d6000fd5b505050506040513d6000823e601f3d908101601f1916820160405261038c919081019061080a565b6020810151604051919250906001600160a01b038216903480156108fc02916000818181858888f193505050501580156103ca573d6000803e3d6000fd5b50604080518082018252600d81526c1258d950d85b991e505cdcd95d609a1b602082015290517fbb0eeee27936db25b1a46a81ab6d97326392a3e961efa7273d5d756d7a2e1cad91610421918690859034906108c4565b60405180910390a1505050565b604080516060808201835280825260006020830152818301529051631d591eb760e31b8152600481018390526001600160a01b037f0000000000000000000000000000000000000000000000000000000000000000169063eac8f5b890602401600060405180830381865afa1580156104ab573d6000803e3d6000fd5b505050506040513d6000823e601f3d908101601f191682016040526104d3919081019061080a565b92915050565b6104e1610557565b6001600160a01b03811661054b5760405162461bcd60e51b815260206004820152602660248201527f4f776e61626c653a206e6577206f776e657220697320746865207a65726f206160448201526564647265737360d01b60648201526084015b60405180910390fd5b610554816105b1565b50565b6000546001600160a01b031633146102fa5760405162461bcd60e51b815260206004820181905260248201527f4f776e61626c653a2063616c6c6572206973206e6f7420746865206f776e65726044820152606401610542565b600080546001600160a01b038381166001600160a01b0319831681178455604051919092169283917f8be0079c531659141344cd1fd0a4f28419497f9722a3daafe3b4186f6b6457e09190a35050565b60006020828403121561061357600080fd5b5035919050565b60005b8381101561063557818101518382015260200161061d565b83811115610644576000848401525b50505050565b6000815180845261066281602086016020860161061a565b601f01601f19169290920160200192915050565b602081526000610689602083018461064a565b9392505050565b6020815260008251604060208401526106ac606084018261064a565b90506020840151601f198483030160408501526106c9828261064a565b95945050505050565b6020815260008251606060208401526106ee608084018261064a565b60208501516001600160a01b0316604085810191909152850151848203601f190160608601529091506106c9828261064a565b6001600160a01b038116811461055457600080fd5b60006020828403121561074857600080fd5b813561068981610721565b60006020828403121561076557600080fd5b5051919050565b634e487b7160e01b600052604160045260246000fd5b600082601f83011261079357600080fd5b815167ffffffffffffffff808211156107ae576107ae61076c565b604051601f8301601f19908116603f011681019082821181831017156107d6576107d661076c565b816040528381528660208588010111156107ef57600080fd5b61080084602083016020890161061a565b9695505050505050565b60006020828403121561081c57600080fd5b815167ffffffffffffffff8082111561083457600080fd5b908301906060828603121561084857600080fd5b6040516060810181811083821117156108635761086361076c565b60405282518281111561087557600080fd5b61088187828601610782565b825250602083015161089281610721565b60208201526040830151828111156108a957600080fd5b6108b587828601610782565b60408301525095945050505050565b6080815260006108d7608083018761064a565b6020830195909552506001600160a01b0392909216604083015260609091015291905056fea26469706673582212200fc973899ab643648cb6a8a528f350e0474916d74166597a944d3dd5ae7bed2d64736f6c634300080a0033",
  "linkReferences": {},
  "deployedLinkReferences": {}
}