{
  "_format": "hh-sol-artifact-1",
  "contractName": "IceCandy",
  "sourceName": "contracts/core/IceCandy.sol",
  "abi": [
    {
      "inputs": [
        {
          "internalType": "address",
          "name": "owner",
          "type": "address"
        }
      ],
      "stateMutability": "nonpayable",
      "type": "constructor"
    },
    {
      "anonymous": false,
      "inputs": [
        {
          "indexed": true,
          "internalType": "address",
          "name": "owner",
          "type": "address"
        },
        {
          "indexed": true,
          "internalType": "address",
          "name": "approved",
          "type": "address"
        },
        {
          "indexed": true,
          "internalType": "uint256",
          "name": "tokenId",
          "type": "uint256"
        }
      ],
      "name": "Approval",
      "type": "event"
    },
    {
      "anonymous": false,
      "inputs": [
        {
          "indexed": true,
          "internalType": "address",
          "name": "owner",
          "type": "address"
        },
        {
          "indexed": true,
          "internalType": "address",
          "name": "operator",
          "type": "address"
        },
        {
          "indexed": false,
          "internalType": "bool",
          "name": "approved",
          "type": "bool"
        }
      ],
      "name": "ApprovalForAll",
      "type": "event"
    },
    {
      "anonymous": false,
      "inputs": [
        {
          "indexed": true,
          "internalType": "uint256",
          "name": "tokenId",
          "type": "uint256"
        },
        {
          "indexed": true,
          "internalType": "address",
          "name": "to",
          "type": "address"
        },
        {
          "indexed": true,
          "internalType": "enum IIceCandy.IceCandyType",
          "name": "iceCandyType",
          "type": "uint8"
        },
        {
          "indexed": false,
          "internalType": "uint256",
          "name": "blockNumber",
          "type": "uint256"
        }
      ],
      "name": "Mint",
      "type": "event"
    },
    {
      "anonymous": false,
      "inputs": [
        {
          "indexed": true,
          "internalType": "address",
          "name": "previousOwner",
          "type": "address"
        },
        {
          "indexed": true,
          "internalType": "address",
          "name": "newOwner",
          "type": "address"
        }
      ],
      "name": "OwnershipTransferred",
      "type": "event"
    },
    {
      "anonymous": false,
      "inputs": [
        {
          "indexed": true,
          "internalType": "uint256",
          "name": "tokenId",
          "type": "uint256"
        },
        {
          "indexed": true,
          "internalType": "uint256",
          "name": "from",
          "type": "uint256"
        },
        {
          "indexed": true,
          "internalType": "uint256",
          "name": "to",
          "type": "uint256"
        },
        {
          "indexed": false,
          "internalType": "address",
          "name": "module",
          "type": "address"
        },
        {
          "indexed": false,
          "internalType": "uint256",
          "name": "moduleId",
          "type": "uint256"
        },
        {
          "indexed": false,
          "internalType": "uint256",
          "name": "blockNumber",
          "type": "uint256"
        }
      ],
      "name": "Sent",
      "type": "event"
    },
    {
      "anonymous": false,
      "inputs": [
        {
          "indexed": true,
          "internalType": "address",
          "name": "from",
          "type": "address"
        },
        {
          "indexed": true,
          "internalType": "address",
          "name": "to",
          "type": "address"
        },
        {
          "indexed": true,
          "internalType": "uint256",
          "name": "tokenId",
          "type": "uint256"
        }
      ],
      "name": "Transfer",
      "type": "event"
    },
    {
      "inputs": [
        {
          "internalType": "address",
          "name": "to",
          "type": "address"
        },
        {
          "internalType": "uint256",
          "name": "tokenId",
          "type": "uint256"
        }
      ],
      "name": "approve",
      "outputs": [],
      "stateMutability": "nonpayable",
      "type": "function"
    },
    {
      "inputs": [
        {
          "internalType": "address",
          "name": "owner",
          "type": "address"
        }
      ],
      "name": "balanceOf",
      "outputs": [
        {
          "internalType": "uint256",
          "name": "",
          "type": "uint256"
        }
      ],
      "stateMutability": "view",
      "type": "function"
    },
    {
      "inputs": [
        {
          "internalType": "address",
          "name": "owner",
          "type": "address"
        }
      ],
      "name": "balanceOfLucky",
      "outputs": [
        {
          "internalType": "uint256",
          "name": "",
          "type": "uint256"
        }
      ],
      "stateMutability": "view",
      "type": "function"
    },
    {
      "inputs": [
        {
          "internalType": "address",
          "name": "owner",
          "type": "address"
        }
      ],
      "name": "balanceOfNotRevealed",
      "outputs": [
        {
          "internalType": "uint256",
          "name": "",
          "type": "uint256"
        }
      ],
      "stateMutability": "view",
      "type": "function"
    },
    {
      "inputs": [
        {
          "internalType": "address",
          "name": "owner",
          "type": "address"
        }
      ],
      "name": "balanceOfRevealed",
      "outputs": [
        {
          "internalType": "uint256",
          "name": "",
          "type": "uint256"
        }
      ],
      "stateMutability": "view",
      "type": "function"
    },
    {
      "inputs": [
        {
          "internalType": "address",
          "name": "owner",
          "type": "address"
        }
      ],
      "name": "balanceOfUnlucky",
      "outputs": [
        {
          "internalType": "uint256",
          "name": "",
          "type": "uint256"
        }
      ],
      "stateMutability": "view",
      "type": "function"
    },
    {
      "inputs": [
        {
          "internalType": "uint256",
          "name": "tokenId",
          "type": "uint256"
        }
      ],
      "name": "getApproved",
      "outputs": [
        {
          "internalType": "address",
          "name": "",
          "type": "address"
        }
      ],
      "stateMutability": "view",
      "type": "function"
    },
    {
      "inputs": [
        {
          "internalType": "uint256",
          "name": "tokenId",
          "type": "uint256"
        }
      ],
      "name": "getIceCandy",
      "outputs": [
        {
          "components": [
            {
              "internalType": "enum IIceCandy.IceCandyType",
              "name": "iceCandyType",
              "type": "uint8"
            },
            {
              "internalType": "uint256",
              "name": "sentProfileId",
              "type": "uint256"
            },
            {
              "internalType": "address",
              "name": "sentModule",
              "type": "address"
            },
            {
              "internalType": "uint256",
              "name": "sentModuleId",
              "type": "uint256"
            }
          ],
          "internalType": "struct IIceCandy.IceCandyStruct",
          "name": "",
          "type": "tuple"
        }
      ],
      "stateMutability": "view",
      "type": "function"
    },
    {
      "inputs": [
        {
          "internalType": "uint256",
          "name": "profileId",
          "type": "uint256"
        }
      ],
      "name": "getReceivedIceCandies",
      "outputs": [
        {
          "components": [
            {
              "internalType": "uint256",
              "name": "tokenId",
              "type": "uint256"
            },
            {
              "internalType": "uint256",
              "name": "profileId",
              "type": "uint256"
            },
            {
              "internalType": "address",
              "name": "module",
              "type": "address"
            },
            {
              "internalType": "uint256",
              "name": "moduleId",
              "type": "uint256"
            }
          ],
          "internalType": "struct IIceCandy.SentIceCandyStruct[]",
          "name": "",
          "type": "tuple[]"
        }
      ],
      "stateMutability": "view",
      "type": "function"
    },
    {
      "inputs": [
        {
          "internalType": "uint256",
          "name": "profileId",
          "type": "uint256"
        }
      ],
      "name": "getReceivedProfileIds",
      "outputs": [
        {
          "internalType": "uint256[]",
          "name": "",
          "type": "uint256[]"
        }
      ],
      "stateMutability": "view",
      "type": "function"
    },
    {
      "inputs": [
        {
          "internalType": "uint256",
          "name": "profileId",
          "type": "uint256"
        }
      ],
      "name": "getSentIceCandies",
      "outputs": [
        {
          "components": [
            {
              "internalType": "uint256",
              "name": "tokenId",
              "type": "uint256"
            },
            {
              "internalType": "uint256",
              "name": "profileId",
              "type": "uint256"
            },
            {
              "internalType": "address",
              "name": "module",
              "type": "address"
            },
            {
              "internalType": "uint256",
              "name": "moduleId",
              "type": "uint256"
            }
          ],
          "internalType": "struct IIceCandy.SentIceCandyStruct[]",
          "name": "",
          "type": "tuple[]"
        }
      ],
      "stateMutability": "view",
      "type": "function"
    },
    {
      "inputs": [
        {
          "internalType": "uint256",
          "name": "profileId",
          "type": "uint256"
        }
      ],
      "name": "getSentProfileIds",
      "outputs": [
        {
          "internalType": "uint256[]",
          "name": "",
          "type": "uint256[]"
        }
      ],
      "stateMutability": "view",
      "type": "function"
    },
    {
      "inputs": [
        {
          "internalType": "address",
          "name": "owner",
          "type": "address"
        },
        {
          "internalType": "address",
          "name": "operator",
          "type": "address"
        }
      ],
      "name": "isApprovedForAll",
      "outputs": [
        {
          "internalType": "bool",
          "name": "",
          "type": "bool"
        }
      ],
      "stateMutability": "view",
      "type": "function"
    },
    {
      "inputs": [
        {
          "internalType": "address",
          "name": "to",
          "type": "address"
        }
      ],
      "name": "mint",
      "outputs": [],
      "stateMutability": "nonpayable",
      "type": "function"
    },
    {
      "inputs": [],
      "name": "name",
      "outputs": [
        {
          "internalType": "string",
          "name": "",
          "type": "string"
        }
      ],
      "stateMutability": "view",
      "type": "function"
    },
    {
      "inputs": [
        {
          "internalType": "uint256",
          "name": "profileId",
          "type": "uint256"
        }
      ],
      "name": "numberOfReceivedIceCandies",
      "outputs": [
        {
          "internalType": "uint256",
          "name": "",
          "type": "uint256"
        }
      ],
      "stateMutability": "view",
      "type": "function"
    },
    {
      "inputs": [
        {
          "internalType": "uint256",
          "name": "profileId",
          "type": "uint256"
        }
      ],
      "name": "numberOfReceivedProfiles",
      "outputs": [
        {
          "internalType": "uint256",
          "name": "",
          "type": "uint256"
        }
      ],
      "stateMutability": "view",
      "type": "function"
    },
    {
      "inputs": [
        {
          "internalType": "uint256",
          "name": "profileId",
          "type": "uint256"
        }
      ],
      "name": "numberOfSentIceCandies",
      "outputs": [
        {
          "internalType": "uint256",
          "name": "",
          "type": "uint256"
        }
      ],
      "stateMutability": "view",
      "type": "function"
    },
    {
      "inputs": [
        {
          "internalType": "uint256",
          "name": "profileId",
          "type": "uint256"
        }
      ],
      "name": "numberOfSentProfiles",
      "outputs": [
        {
          "internalType": "uint256",
          "name": "",
          "type": "uint256"
        }
      ],
      "stateMutability": "view",
      "type": "function"
    },
    {
      "inputs": [],
      "name": "owner",
      "outputs": [
        {
          "internalType": "address",
          "name": "",
          "type": "address"
        }
      ],
      "stateMutability": "view",
      "type": "function"
    },
    {
      "inputs": [
        {
          "internalType": "uint256",
          "name": "tokenId",
          "type": "uint256"
        }
      ],
      "name": "ownerOf",
      "outputs": [
        {
          "internalType": "address",
          "name": "",
          "type": "address"
        }
      ],
      "stateMutability": "view",
      "type": "function"
    },
    {
      "inputs": [],
      "name": "renounceOwnership",
      "outputs": [],
      "stateMutability": "nonpayable",
      "type": "function"
    },
    {
      "inputs": [
        {
          "internalType": "address",
          "name": "from",
          "type": "address"
        },
        {
          "internalType": "address",
          "name": "to",
          "type": "address"
        },
        {
          "internalType": "uint256",
          "name": "tokenId",
          "type": "uint256"
        }
      ],
      "name": "safeTransferFrom",
      "outputs": [],
      "stateMutability": "nonpayable",
      "type": "function"
    },
    {
      "inputs": [
        {
          "internalType": "address",
          "name": "from",
          "type": "address"
        },
        {
          "internalType": "address",
          "name": "to",
          "type": "address"
        },
        {
          "internalType": "uint256",
          "name": "tokenId",
          "type": "uint256"
        },
        {
          "internalType": "bytes",
          "name": "data",
          "type": "bytes"
        }
      ],
      "name": "safeTransferFrom",
      "outputs": [],
      "stateMutability": "nonpayable",
      "type": "function"
    },
    {
      "inputs": [
        {
          "internalType": "uint256",
          "name": "profileId",
          "type": "uint256"
        },
        {
          "internalType": "address",
          "name": "module",
          "type": "address"
        },
        {
          "internalType": "uint256",
          "name": "moduleId",
          "type": "uint256"
        }
      ],
      "name": "send",
      "outputs": [],
      "stateMutability": "nonpayable",
      "type": "function"
    },
    {
      "inputs": [
        {
          "internalType": "address",
          "name": "operator",
          "type": "address"
        },
        {
          "internalType": "bool",
          "name": "approved",
          "type": "bool"
        }
      ],
      "name": "setApprovalForAll",
      "outputs": [],
      "stateMutability": "nonpayable",
      "type": "function"
    },
    {
      "inputs": [
        {
          "internalType": "address",
          "name": "globals",
          "type": "address"
        }
      ],
      "name": "setGlobals",
      "outputs": [],
      "stateMutability": "nonpayable",
      "type": "function"
    },
    {
      "inputs": [
        {
          "internalType": "bytes4",
          "name": "interfaceId",
          "type": "bytes4"
        }
      ],
      "name": "supportsInterface",
      "outputs": [
        {
          "internalType": "bool",
          "name": "",
          "type": "bool"
        }
      ],
      "stateMutability": "view",
      "type": "function"
    },
    {
      "inputs": [],
      "name": "symbol",
      "outputs": [
        {
          "internalType": "string",
          "name": "",
          "type": "string"
        }
      ],
      "stateMutability": "view",
      "type": "function"
    },
    {
      "inputs": [
        {
          "internalType": "uint256",
          "name": "index",
          "type": "uint256"
        }
      ],
      "name": "tokenByIndex",
      "outputs": [
        {
          "internalType": "uint256",
          "name": "",
          "type": "uint256"
        }
      ],
      "stateMutability": "view",
      "type": "function"
    },
    {
      "inputs": [
        {
          "internalType": "address",
          "name": "owner",
          "type": "address"
        },
        {
          "internalType": "uint256",
          "name": "index",
          "type": "uint256"
        }
      ],
      "name": "tokenOfOwnerByIndex",
      "outputs": [
        {
          "internalType": "uint256",
          "name": "",
          "type": "uint256"
        }
      ],
      "stateMutability": "view",
      "type": "function"
    },
    {
      "inputs": [
        {
          "internalType": "uint256",
          "name": "tokenId",
          "type": "uint256"
        }
      ],
      "name": "tokenURI",
      "outputs": [
        {
          "internalType": "string",
          "name": "",
          "type": "string"
        }
      ],
      "stateMutability": "view",
      "type": "function"
    },
    {
      "inputs": [],
      "name": "totalSupply",
      "outputs": [
        {
          "internalType": "uint256",
          "name": "",
          "type": "uint256"
        }
      ],
      "stateMutability": "view",
      "type": "function"
    },
    {
      "inputs": [
        {
          "internalType": "address",
          "name": "from",
          "type": "address"
        },
        {
          "internalType": "address",
          "name": "to",
          "type": "address"
        },
        {
          "internalType": "uint256",
          "name": "tokenId",
          "type": "uint256"
        }
      ],
      "name": "transferFrom",
      "outputs": [],
      "stateMutability": "nonpayable",
      "type": "function"
    },
    {
      "inputs": [
        {
          "internalType": "address",
          "name": "newOwner",
          "type": "address"
        }
      ],
      "name": "transferOwnership",
      "outputs": [],
      "stateMutability": "nonpayable",
      "type": "function"
    }
  ],
  "bytecode": "0x60806040523480156200001157600080fd5b5060405162002e7c38038062002e7c8339810160408190526200003491620001c0565b604080518082018252600881526749636543616e647960c01b60208083019182528351808501909452600384526249434560e81b9084015281519192916200007f916000916200011a565b508051620000959060019060208401906200011a565b505050620000b2620000ac620000c460201b60201c565b620000c8565b620000bd81620000c8565b506200022f565b3390565b600a80546001600160a01b038381166001600160a01b0319831681179093556040519116919082907f8be0079c531659141344cd1fd0a4f28419497f9722a3daafe3b4186f6b6457e090600090a35050565b8280546200012890620001f2565b90600052602060002090601f0160209004810192826200014c576000855562000197565b82601f106200016757805160ff191683800117855562000197565b8280016001018555821562000197579182015b82811115620001975782518255916020019190600101906200017a565b50620001a5929150620001a9565b5090565b5b80821115620001a55760008155600101620001aa565b600060208284031215620001d357600080fd5b81516001600160a01b0381168114620001eb57600080fd5b9392505050565b600181811c908216806200020757607f821691505b602082108114156200022957634e487b7160e01b600052602260045260246000fd5b50919050565b612c3d806200023f6000396000f3fe608060405234801561001057600080fd5b50600436106102115760003560e01c80636a627842116101255780639fe38f65116100ad578063c13e50521161007c578063c13e505214610505578063c87b56dd1461052e578063cc2e0a2614610541578063e985e9c514610554578063f2fde38b1461059057600080fd5b80639fe38f651461049f578063a22cb465146104bf578063af104cd3146104d2578063b88d4fde146104f257600080fd5b80638aa5ebfa116100f45780638aa5ebfa1461042a5780638da5cb5b1461043d57806395d89b411461044e5780639a716cde146104565780639f6d66651461047657600080fd5b80636a627842146103e957806370a08231146103fc578063715018a61461040f57806381b34f151461041757600080fd5b8063334d10e5116101a85780634f6ccce7116101775780634f6ccce7146103675780635d0bd5241461037a5780636352211e1461039a57806368926699146103ad578063691a0ffb146103c057600080fd5b8063334d10e5146102eb57806342842e0e1461030b5780634a147cc11461031e5780634d182b7d1461033e57600080fd5b80630e959a9f116101e45780630e959a9f1461029357806318160ddd146102b357806323b872dd146102c55780632f745c59146102d857600080fd5b806301ffc9a71461021657806306fdde031461023e578063081812fc14610253578063095ea7b31461027e575b600080fd5b61022961022436600461234e565b6105a3565b60405190151581526020015b60405180910390f35b6102466105ce565b60405161023591906123ca565b6102666102613660046123dd565b610660565b6040516001600160a01b039091168152602001610235565b61029161028c36600461240b565b610687565b005b6102a66102a13660046123dd565b6107a2565b604051610235919061244d565b6008545b604051908152602001610235565b6102916102d33660046124a2565b610839565b6102b76102e636600461240b565b61086a565b6102fe6102f93660046123dd565b610900565b60405161023591906124e3565b6102916103193660046124a2565b610962565b61033161032c3660046123dd565b61097d565b6040516102359190612527565b6102b761034c366004612594565b6001600160a01b03166000908152600e602052604090205490565b6102b76103753660046123dd565b610a1a565b6102b76103883660046123dd565b60009081526014602052604090205490565b6102666103a83660046123dd565b610aad565b6103316103bb3660046123dd565b610b0d565b6102b76103ce366004612594565b6001600160a01b031660009081526011602052604090205490565b6102916103f7366004612594565b610b95565b6102b761040a366004612594565b610c38565b610291610cbe565b6102916104253660046125b1565b610cd2565b6102fe6104383660046123dd565b611462565b600a546001600160a01b0316610266565b6102466114c2565b6102b76104643660046123dd565b60009081526013602052604090205490565b6102b7610484366004612594565b6001600160a01b031660009081526010602052604090205490565b6102b76104ad3660046123dd565b60009081526015602052604090205490565b6102916104cd3660046125d8565b6114d1565b6102b76104e03660046123dd565b60009081526012602052604090205490565b6102916105003660046126ae565b6114dc565b6102b7610513366004612594565b6001600160a01b03166000908152600f602052604090205490565b61024661053c3660046123dd565b611514565b61029161054f366004612594565b611615565b61022961056236600461275d565b6001600160a01b03918216600090815260056020908152604080832093909416825291909152205460ff1690565b61029161059e366004612594565b61163f565b60006001600160e01b0319821663780e9d6360e01b14806105c857506105c8826116b8565b92915050565b6060600080546105dd9061278b565b80601f01602080910402602001604051908101604052809291908181526020018280546106099061278b565b80156106565780601f1061062b57610100808354040283529160200191610656565b820191906000526020600020905b81548152906001019060200180831161063957829003601f168201915b5050505050905090565b600061066b82611708565b506000908152600460205260409020546001600160a01b031690565b600061069282610aad565b9050806001600160a01b0316836001600160a01b031614156107055760405162461bcd60e51b815260206004820152602160248201527f4552433732313a20617070726f76616c20746f2063757272656e74206f776e656044820152603960f91b60648201526084015b60405180910390fd5b336001600160a01b038216148061072157506107218133610562565b6107935760405162461bcd60e51b815260206004820152603e60248201527f4552433732313a20617070726f76652063616c6c6572206973206e6f7420746f60448201527f6b656e206f776e6572206e6f7220617070726f76656420666f7220616c6c000060648201526084016106fc565b61079d8383611767565b505050565b6040805160808101825260008082526020820181905291810182905260608101919091526000828152600d6020526040908190208151608081019092528054829060ff1660038111156107f7576107f7612437565b600381111561080857610808612437565b81526001820154602082015260028201546001600160a01b0316604082015260039091015460609091015292915050565b61084333826117d5565b61085f5760405162461bcd60e51b81526004016106fc906127c6565b61079d838383611854565b600061087583610c38565b82106108d75760405162461bcd60e51b815260206004820152602b60248201527f455243373231456e756d657261626c653a206f776e657220696e646578206f7560448201526a74206f6620626f756e647360a81b60648201526084016106fc565b506001600160a01b03919091166000908152600660209081526040808320938352929052205490565b60008181526013602090815260409182902080548351818402810184019094528084526060939283018282801561095657602002820191906000526020600020905b815481526020019060010190808311610942575b50505050509050919050565b61079d838383604051806020016040528060008152506114dc565b606060156000838152602001908152602001600020805480602002602001604051908101604052809291908181526020016000905b82821015610a0f5760008481526020908190206040805160808101825260048602909201805483526001808201548486015260028201546001600160a01b03169284019290925260030154606083015290835290920191016109b2565b505050509050919050565b6000610a2560085490565b8210610a885760405162461bcd60e51b815260206004820152602c60248201527f455243373231456e756d657261626c653a20676c6f62616c20696e646578206f60448201526b7574206f6620626f756e647360a01b60648201526084016106fc565b60088281548110610a9b57610a9b612814565b90600052602060002001549050919050565b6000818152600260205260408120546001600160a01b0316806105c85760405162461bcd60e51b8152602060048201526018602482015277115490cdcc8c4e881a5b9d985b1a59081d1bdad95b88125160421b60448201526064016106fc565b6000818152601460209081526040808320805482518185028101850190935280835260609492939192909184018215610a0f5760008481526020908190206040805160808101825260048602909201805483526001808201548486015260028201546001600160a01b03169284019290925260030154606083015290835290920191016109b2565b610b9d6119f7565b6000600b60008154610bae90612840565b91829055506001600160a01b03831660009081526016602052604090205490915015610c285760405162461bcd60e51b815260206004820152602360248201527f49636543616e64793a206f6e6c79206f6e65206d696e7420706572206164647260448201526265737360e81b60648201526084016106fc565b610c3482826000611a51565b5050565b60006001600160a01b038216610ca25760405162461bcd60e51b815260206004820152602960248201527f4552433732313a2061646472657373207a65726f206973206e6f7420612076616044820152683634b21037bbb732b960b91b60648201526084016106fc565b506001600160a01b031660009081526003602052604090205490565b610cc66119f7565b610cd06000611ba9565b565b33600090815260166020908152604080832054600c54825163d6afc9b160e01b815292519194936001600160a01b039091169263d6afc9b192600480830193928290030181865afa158015610d2b573d6000803e3d6000fd5b505050506040513d601f19601f82011682018060405250810190610d4f919061285b565b6040516309959fbb60e21b81523360048201526001600160a01b0391909116906326567eec90602401602060405180830381865afa158015610d95573d6000803e3d6000fd5b505050506040513d601f19601f82011682018060405250810190610db99190612878565b905060008211610e175760405162461bcd60e51b815260206004820152602360248201527f49636543616e64793a20796f7520646f6e2774206861766520612049636543616044820152626e647960e81b60648201526084016106fc565b6000828152600d602052604081205460ff166003811115610e3a57610e3a612437565b14610e935760405162461bcd60e51b8152602060048201526024808201527f49636543616e64793a206f6e6c79206e6f742072657665616c65642063616e206044820152631cd95b9960e21b60648201526084016106fc565b6000828152600d602052604081208054600160ff199091168117825581018790556002810180546001600160a01b0319166001600160a01b038816179055600301849055805b600083815260126020526040902054811015610f3e576000838152601260205260409020805488919083908110610f1257610f12612814565b90600052602060002001541415610f2c5760019150610f3e565b80610f3681612840565b915050610ed9565b5080610f66576000828152601260209081526040822080546001810182559083529120018690555b506000805b600087815260136020526040902054811015610fd0576000878152601360205260409020805484919083908110610fa457610fa4612814565b90600052602060002001541415610fbe5760019150610fd0565b80610fc881612840565b915050610f6b565b5080610ff8576000868152601360209081526040822080546001810182559083529120018290555b601460008381526020019081526020016000206040518060800160405280858152602001888152602001876001600160a01b03168152602001868152509080600181540180825580915050600190039060005260206000209060040201600090919091909150600082015181600001556020820151816001015560408201518160020160006101000a8154816001600160a01b0302191690836001600160a01b03160217905550606082015181600301555050601560008781526020019081526020016000206040518060800160405280858152602001848152602001876001600160a01b03168152602001868152509080600181540180825580915050600190039060005260206000209060040201600090919091909150600082015181600001556020820151816001015560408201518160020160006101000a8154816001600160a01b0302191690836001600160a01b03160217905550606082015181600301555050600060166000336001600160a01b03166001600160a01b03168152602001908152602001600020819055506001600f600061119886610aad565b6001600160a01b03166001600160a01b03168152602001908152602001600020600082825403925050819055506001600e60006111d486610aad565b6001600160a01b03908116825260208083019390935260409182016000208054909401909355600c54815163d6afc9b160e01b815291516112f194339492169263d6afc9b19260048083019391928290030181865afa15801561123b573d6000803e3d6000fd5b505050506040513d601f19601f8201168201806040525081019061125f919061285b565b6001600160a01b031663f08f4f64896040518263ffffffff1660e01b815260040161128c91815260200190565b600060405180830381865afa1580156112a9573d6000803e3d6000fd5b505050506040513d6000823e601f3d908101601f191682016040526112d1919081019061295f565b5180516000906112e3576112e3612814565b602002602001015185611854565b600b6000815461130090612840565b90915550600b5461131390600290612a45565b61132a5761132533600b546002611a51565b611338565b61133833600b546003611a51565b600c546040805163d6afc9b160e01b8152905188926001600160a01b03169163d6afc9b19160048083019260209291908290030181865afa158015611381573d6000803e3d6000fd5b505050506040513d601f19601f820116820180604052508101906113a5919061285b565b6040516309959fbb60e21b81523360048201526001600160a01b0391909116906326567eec90602401602060405180830381865afa1580156113eb573d6000803e3d6000fd5b505050506040513d601f19601f8201168201806040525081019061140f9190612878565b604080516001600160a01b0389168152602081018890524381830152905186917f09f1b4df57600536f156c077074f35303ce4551446e92d2f5bd92f683cdc6fdd919081900360600190a4505050505050565b60008181526012602090815260409182902080548351818402810184019094528084526060939283018282801561095657602002820191906000526020600020908154815260200190600101908083116109425750505050509050919050565b6060600180546105dd9061278b565b610c34338383611bfb565b6114e633836117d5565b6115025760405162461bcd60e51b81526004016106fc906127c6565b61150e84848484611cca565b50505050565b606060016000838152600d602052604090205460ff16600381111561153b5761153b612437565b141561156057604051806080016040528060568152602001612b596056913992915050565b6000828152600d602052604081205460ff16600381111561158357611583612437565b14156115a857604051806080016040528060598152602001612baf6059913992915050565b60026000838152600d602052604090205460ff1660038111156115cd576115cd612437565b14156115f457505060408051808201909152600581526464756d6d7960d81b602082015290565b505060408051808201909152600581526464756d6d7960d81b602082015290565b61161d6119f7565b600c80546001600160a01b0319166001600160a01b0392909216919091179055565b6116476119f7565b6001600160a01b0381166116ac5760405162461bcd60e51b815260206004820152602660248201527f4f776e61626c653a206e6577206f776e657220697320746865207a65726f206160448201526564647265737360d01b60648201526084016106fc565b6116b581611ba9565b50565b60006001600160e01b031982166380ac58cd60e01b14806116e957506001600160e01b03198216635b5e139f60e01b145b806105c857506301ffc9a760e01b6001600160e01b03198316146105c8565b6000818152600260205260409020546001600160a01b03166116b55760405162461bcd60e51b8152602060048201526018602482015277115490cdcc8c4e881a5b9d985b1a59081d1bdad95b88125160421b60448201526064016106fc565b600081815260046020526040902080546001600160a01b0319166001600160a01b038416908117909155819061179c82610aad565b6001600160a01b03167f8c5be1e5ebec7d5bd14f71427d1e84f3dd0314c0f7b2291e5b200ac8c7c3b92560405160405180910390a45050565b6000806117e183610aad565b9050806001600160a01b0316846001600160a01b0316148061182857506001600160a01b0380821660009081526005602090815260408083209388168352929052205460ff165b8061184c5750836001600160a01b031661184184610660565b6001600160a01b0316145b949350505050565b6000818152600d602052604081205460ff16600381111561187757611877612437565b14156118d35760405162461bcd60e51b815260206004820152602560248201527f49636543616e64793a206e6f742072657665616c65642063616e2774207472616044820152643739b332b960d91b60648201526084016106fc565b60016000828152600d602052604090205460ff1660038111156118f8576118f8612437565b1415611932576001600160a01b038084166000908152600e60205260408082208054600019019055918416815220805460010190556119ec565b60026000828152600d602052604090205460ff16600381111561195757611957612437565b1415611991576001600160a01b038084166000908152601060205260408082208054600019019055918416815220805460010190556119ec565b60036000828152600d602052604090205460ff1660038111156119b6576119b6612437565b14156119ec576001600160a01b038084166000908152601160205260408082208054600019019055918416815220805460010190555b61079d838383611cfd565b600a546001600160a01b03163314610cd05760405162461bcd60e51b815260206004820181905260248201527f4f776e61626c653a2063616c6c6572206973206e6f7420746865206f776e657260448201526064016106fc565b6000828152600d60205260409020805482919060ff19166001836003811115611a7c57611a7c612437565b02179055506000816003811115611a9557611a95612437565b1415611acc576001600160a01b0383166000908152600f602090815260408083208054600101905560169091529020829055611b44565b6002816003811115611ae057611ae0612437565b1415611b0a576001600160a01b038316600090815260106020526040902080546001019055611b44565b6003816003811115611b1e57611b1e612437565b1415611b44576001600160a01b0383166000908152601160205260409020805460010190555b611b4e8383611ea4565b806003811115611b6057611b60612437565b836001600160a01b0316837f895d1910405913664d4847af96bbb120255ea67df025a326a964e3847ed6922d43604051611b9c91815260200190565b60405180910390a4505050565b600a80546001600160a01b038381166001600160a01b0319831681179093556040519116919082907f8be0079c531659141344cd1fd0a4f28419497f9722a3daafe3b4186f6b6457e090600090a35050565b816001600160a01b0316836001600160a01b03161415611c5d5760405162461bcd60e51b815260206004820152601960248201527f4552433732313a20617070726f766520746f2063616c6c65720000000000000060448201526064016106fc565b6001600160a01b03838116600081815260056020908152604080832094871680845294825291829020805460ff191686151590811790915591519182527f17307eab39ab6107e8899845ad3d59bd9653f200f220920489ca2b5937696c31910160405180910390a3505050565b611cd5848484611854565b611ce184848484611ff2565b61150e5760405162461bcd60e51b81526004016106fc90612a67565b826001600160a01b0316611d1082610aad565b6001600160a01b031614611d745760405162461bcd60e51b815260206004820152602560248201527f4552433732313a207472616e736665722066726f6d20696e636f72726563742060448201526437bbb732b960d91b60648201526084016106fc565b6001600160a01b038216611dd65760405162461bcd60e51b8152602060048201526024808201527f4552433732313a207472616e7366657220746f20746865207a65726f206164646044820152637265737360e01b60648201526084016106fc565b611de18383836120f0565b611dec600082611767565b6001600160a01b0383166000908152600360205260408120805460019290611e15908490612ab9565b90915550506001600160a01b0382166000908152600360205260408120805460019290611e43908490612ad0565b909155505060008181526002602052604080822080546001600160a01b0319166001600160a01b0386811691821790925591518493918716917fddf252ad1be2c89b69c2b068fc378daa952ba7f163c4a11628f55a4df523b3ef91a4505050565b6001600160a01b038216611efa5760405162461bcd60e51b815260206004820181905260248201527f4552433732313a206d696e7420746f20746865207a65726f206164647265737360448201526064016106fc565b6000818152600260205260409020546001600160a01b031615611f5f5760405162461bcd60e51b815260206004820152601c60248201527f4552433732313a20746f6b656e20616c7265616479206d696e7465640000000060448201526064016106fc565b611f6b600083836120f0565b6001600160a01b0382166000908152600360205260408120805460019290611f94908490612ad0565b909155505060008181526002602052604080822080546001600160a01b0319166001600160a01b03861690811790915590518392907fddf252ad1be2c89b69c2b068fc378daa952ba7f163c4a11628f55a4df523b3ef908290a45050565b60006001600160a01b0384163b156120e557604051630a85bd0160e11b81526001600160a01b0385169063150b7a0290612036903390899088908890600401612ae8565b6020604051808303816000875af1925050508015612071575060408051601f3d908101601f1916820190925261206e91810190612b25565b60015b6120cb573d80801561209f576040519150601f19603f3d011682016040523d82523d6000602084013e6120a4565b606091505b5080516120c35760405162461bcd60e51b81526004016106fc90612a67565b805181602001fd5b6001600160e01b031916630a85bd0160e11b14905061184c565b506001949350505050565b6001600160a01b03831661214b5761214681600880546000838152600960205260408120829055600182018355919091527ff3f7a9fe364faab93b216da50a3214154f22a0a2b415b23a84c8169e8b636ee30155565b61216e565b816001600160a01b0316836001600160a01b03161461216e5761216e83826121a8565b6001600160a01b0382166121855761079d81612245565b826001600160a01b0316826001600160a01b03161461079d5761079d82826122f4565b600060016121b584610c38565b6121bf9190612ab9565b600083815260076020526040902054909150808214612212576001600160a01b03841660009081526006602090815260408083208584528252808320548484528184208190558352600790915290208190555b5060009182526007602090815260408084208490556001600160a01b039094168352600681528383209183525290812055565b60085460009061225790600190612ab9565b6000838152600960205260408120546008805493945090928490811061227f5761227f612814565b9060005260206000200154905080600883815481106122a0576122a0612814565b60009182526020808320909101929092558281526009909152604080822084905585825281205560088054806122d8576122d8612b42565b6001900381819060005260206000200160009055905550505050565b60006122ff83610c38565b6001600160a01b039093166000908152600660209081526040808320868452825280832085905593825260079052919091209190915550565b6001600160e01b0319811681146116b557600080fd5b60006020828403121561236057600080fd5b813561236b81612338565b9392505050565b60005b8381101561238d578181015183820152602001612375565b8381111561150e5750506000910152565b600081518084526123b6816020860160208601612372565b601f01601f19169290920160200192915050565b60208152600061236b602083018461239e565b6000602082840312156123ef57600080fd5b5035919050565b6001600160a01b03811681146116b557600080fd5b6000806040838503121561241e57600080fd5b8235612429816123f6565b946020939093013593505050565b634e487b7160e01b600052602160045260246000fd5b815160808201906004811061247257634e487b7160e01b600052602160045260246000fd5b8252602083810151908301526040808401516001600160a01b031690830152606092830151929091019190915290565b6000806000606084860312156124b757600080fd5b83356124c2816123f6565b925060208401356124d2816123f6565b929592945050506040919091013590565b6020808252825182820181905260009190848201906040850190845b8181101561251b578351835292840192918401916001016124ff565b50909695505050505050565b602080825282518282018190526000919060409081850190868401855b82811015612587578151805185528681015187860152858101516001600160a01b0316868601526060908101519085015260809093019290850190600101612544565b5091979650505050505050565b6000602082840312156125a657600080fd5b813561236b816123f6565b6000806000606084860312156125c657600080fd5b8335925060208401356124d2816123f6565b600080604083850312156125eb57600080fd5b82356125f6816123f6565b91506020830135801515811461260b57600080fd5b809150509250929050565b634e487b7160e01b600052604160045260246000fd5b60405160a0810167ffffffffffffffff8111828210171561264f5761264f612616565b60405290565b604051601f8201601f1916810167ffffffffffffffff8111828210171561267e5761267e612616565b604052919050565b600067ffffffffffffffff8211156126a0576126a0612616565b50601f01601f191660200190565b600080600080608085870312156126c457600080fd5b84356126cf816123f6565b935060208501356126df816123f6565b925060408501359150606085013567ffffffffffffffff81111561270257600080fd5b8501601f8101871361271357600080fd5b803561272661272182612686565b612655565b81815288602083850101111561273b57600080fd5b8160208401602083013760006020838301015280935050505092959194509250565b6000806040838503121561277057600080fd5b823561277b816123f6565b9150602083013561260b816123f6565b600181811c9082168061279f57607f821691505b602082108114156127c057634e487b7160e01b600052602260045260246000fd5b50919050565b6020808252602e908201527f4552433732313a2063616c6c6572206973206e6f7420746f6b656e206f776e6560408201526d1c881b9bdc88185c1c1c9bdd995960921b606082015260800190565b634e487b7160e01b600052603260045260246000fd5b634e487b7160e01b600052601160045260246000fd5b60006000198214156128545761285461282a565b5060010190565b60006020828403121561286d57600080fd5b815161236b816123f6565b60006020828403121561288a57600080fd5b5051919050565b600082601f8301126128a257600080fd5b8151602067ffffffffffffffff8211156128be576128be612616565b8160051b6128cd828201612655565b92835284810182019282810190878511156128e757600080fd5b83870192505b8483101561290f578251612900816123f6565b825291830191908301906128ed565b979650505050505050565b600082601f83011261292b57600080fd5b815161293961272182612686565b81815284602083860101111561294e57600080fd5b61184c826020830160208701612372565b60006020828403121561297157600080fd5b815167ffffffffffffffff8082111561298957600080fd5b9083019060a0828603121561299d57600080fd5b6129a561262c565b8251828111156129b457600080fd5b6129c087828601612891565b8252506020830151828111156129d557600080fd5b6129e18782860161291a565b6020830152506040830151828111156129f957600080fd5b612a058782860161291a565b604083015250606083015182811115612a1d57600080fd5b612a298782860161291a565b6060830152506080830151608082015280935050505092915050565b600082612a6257634e487b7160e01b600052601260045260246000fd5b500690565b60208082526032908201527f4552433732313a207472616e7366657220746f206e6f6e20455243373231526560408201527131b2b4bb32b91034b6b83632b6b2b73a32b960711b606082015260800190565b600082821015612acb57612acb61282a565b500390565b60008219821115612ae357612ae361282a565b500190565b6001600160a01b0385811682528416602082015260408101839052608060608201819052600090612b1b9083018461239e565b9695505050505050565b600060208284031215612b3757600080fd5b815161236b81612338565b634e487b7160e01b600052603160045260246000fdfe697066733a2f2f6261667962656961367a343766636c7976796c6164757a6675357372716874687575326c3675773279787873616e6b706d61747967726769617a6d2f69636543616e64795f656174656e2e6a736f6e697066733a2f2f62616679626569657170647873636f656865617a78776e6a326a71346e336e3668666b6d7a7666623764797479613632666179367a327a717275612f69636543616e64795f6e6f74456174656e2e6a736f6ea2646970667358221220cb66c9b40e0a4ae0d0aad65e6710ca9bbe01c37c3d7cfd312cd6b8a39f348f4f64736f6c634300080a0033",
  "linkReferences": {},
  "deployedLinkReferences": {}
}