{
  "_format": "hh-sol-artifact-1",
  "contractName": "MirrorModule",
  "sourceName": "contracts/core/modules/MirrorModule.sol",
  "abi": [
    {
      "inputs": [
        {
          "internalType": "address",
          "name": "owner",
          "type": "address"
        }
      ],
      "stateMutability": "nonpayable",
      "type": "constructor"
    },
    {
      "anonymous": false,
      "inputs": [
        {
          "indexed": true,
          "internalType": "address",
          "name": "previousOwner",
          "type": "address"
        },
        {
          "indexed": true,
          "internalType": "address",
          "name": "newOwner",
          "type": "address"
        }
      ],
      "name": "OwnershipTransferred",
      "type": "event"
    },
    {
      "inputs": [
        {
          "internalType": "uint256",
          "name": "profileId",
          "type": "uint256"
        },
        {
          "components": [
            {
              "internalType": "string",
              "name": "hoge",
              "type": "string"
            }
          ],
          "internalType": "struct IMirrorModule.MirrorStruct",
          "name": "mirror",
          "type": "tuple"
        }
      ],
      "name": "addMirror",
      "outputs": [
        {
          "internalType": "uint256",
          "name": "",
          "type": "uint256"
        }
      ],
      "stateMutability": "nonpayable",
      "type": "function"
    },
    {
      "inputs": [
        {
          "internalType": "uint256",
          "name": "profileId",
          "type": "uint256"
        }
      ],
      "name": "getMirror",
      "outputs": [
        {
          "components": [
            {
              "internalType": "string",
              "name": "hoge",
              "type": "string"
            }
          ],
          "internalType": "struct IMirrorModule.MirrorStruct[]",
          "name": "",
          "type": "tuple[]"
        }
      ],
      "stateMutability": "view",
      "type": "function"
    },
    {
      "inputs": [],
      "name": "owner",
      "outputs": [
        {
          "internalType": "address",
          "name": "",
          "type": "address"
        }
      ],
      "stateMutability": "view",
      "type": "function"
    },
    {
      "inputs": [],
      "name": "renounceOwnership",
      "outputs": [],
      "stateMutability": "nonpayable",
      "type": "function"
    },
    {
      "inputs": [
        {
          "internalType": "address",
          "name": "profile",
          "type": "address"
        }
      ],
      "name": "setProfile",
      "outputs": [],
      "stateMutability": "nonpayable",
      "type": "function"
    },
    {
      "inputs": [
        {
          "internalType": "address",
          "name": "newOwner",
          "type": "address"
        }
      ],
      "name": "transferOwnership",
      "outputs": [],
      "stateMutability": "nonpayable",
      "type": "function"
    }
  ],
  "bytecode": "0x60806040523480156200001157600080fd5b506040516200124a3803806200124a8339818101604052810190620000379190620001a5565b620000576200004b6200006f60201b60201c565b6200007760201b60201c565b62000068816200007760201b60201c565b50620001d7565b600033905090565b60008060009054906101000a900473ffffffffffffffffffffffffffffffffffffffff169050816000806101000a81548173ffffffffffffffffffffffffffffffffffffffff021916908373ffffffffffffffffffffffffffffffffffffffff1602179055508173ffffffffffffffffffffffffffffffffffffffff168173ffffffffffffffffffffffffffffffffffffffff167f8be0079c531659141344cd1fd0a4f28419497f9722a3daafe3b4186f6b6457e060405160405180910390a35050565b600080fd5b600073ffffffffffffffffffffffffffffffffffffffff82169050919050565b60006200016d8262000140565b9050919050565b6200017f8162000160565b81146200018b57600080fd5b50565b6000815190506200019f8162000174565b92915050565b600060208284031215620001be57620001bd6200013b565b5b6000620001ce848285016200018e565b91505092915050565b61106380620001e76000396000f3fe608060405234801561001057600080fd5b50600436106100625760003560e01c8063715018a6146100675780637524fa07146100715780638da5cb5b146100a15780639d6d9a70146100bf578063e0b6a1e3146100ef578063f2fde38b1461010b575b600080fd5b61006f610127565b005b61008b6004803603810190610086919061070c565b61013b565b60405161009891906108be565b60405180910390f35b6100a9610352565b6040516100b69190610921565b60405180910390f35b6100d960048036038101906100d49190610960565b61037b565b6040516100e691906109cb565b60405180910390f35b61010960048036038101906101049190610a12565b61049f565b005b61012560048036038101906101209190610a12565b6104eb565b005b61012f61056f565b61013960006105ed565b565b6060600160009054906101000a900473ffffffffffffffffffffffffffffffffffffffff1673ffffffffffffffffffffffffffffffffffffffff163373ffffffffffffffffffffffffffffffffffffffff16146101cd576040517f08c379a00000000000000000000000000000000000000000000000000000000081526004016101c490610a9c565b60405180910390fd5b6000600360008481526020019081526020016000205467ffffffffffffffff8111156101fc576101fb610abc565b5b60405190808252806020026020018201604052801561023557816020015b6102226106b9565b81526020019060019003908161021a5790505b50905060005b60036000858152602001908152602001600020548110156103485760026000858152602001908152602001600020600082815260200190815260200160002060405180602001604052908160008201805461029590610b1a565b80601f01602080910402602001604051908101604052809291908181526020018280546102c190610b1a565b801561030e5780601f106102e35761010080835404028352916020019161030e565b820191906000526020600020905b8154815290600101906020018083116102f157829003601f168201915b50505050508152505082828151811061032a57610329610b4c565b5b6020026020010181905250808061034090610baa565b91505061023b565b5080915050919050565b60008060009054906101000a900473ffffffffffffffffffffffffffffffffffffffff16905090565b6000600160009054906101000a900473ffffffffffffffffffffffffffffffffffffffff1673ffffffffffffffffffffffffffffffffffffffff163373ffffffffffffffffffffffffffffffffffffffff161461040d576040517f08c379a000000000000000000000000000000000000000000000000000000000815260040161040490610a9c565b60405180910390fd5b600060036000858152602001908152602001600020549050826002600086815260200190815260200160002060006003600088815260200190815260200160002054815260200190815260200160002081816104699190610f21565b90505060036000858152602001908152602001600020600081548092919061049090610baa565b91905055508091505092915050565b6104a761056f565b80600160006101000a81548173ffffffffffffffffffffffffffffffffffffffff021916908373ffffffffffffffffffffffffffffffffffffffff16021790555050565b6104f361056f565b600073ffffffffffffffffffffffffffffffffffffffff168173ffffffffffffffffffffffffffffffffffffffff161415610563576040517f08c379a000000000000000000000000000000000000000000000000000000000815260040161055a90610fa1565b60405180910390fd5b61056c816105ed565b50565b6105776106b1565b73ffffffffffffffffffffffffffffffffffffffff16610595610352565b73ffffffffffffffffffffffffffffffffffffffff16146105eb576040517f08c379a00000000000000000000000000000000000000000000000000000000081526004016105e29061100d565b60405180910390fd5b565b60008060009054906101000a900473ffffffffffffffffffffffffffffffffffffffff169050816000806101000a81548173ffffffffffffffffffffffffffffffffffffffff021916908373ffffffffffffffffffffffffffffffffffffffff1602179055508173ffffffffffffffffffffffffffffffffffffffff168173ffffffffffffffffffffffffffffffffffffffff167f8be0079c531659141344cd1fd0a4f28419497f9722a3daafe3b4186f6b6457e060405160405180910390a35050565b600033905090565b6040518060200160405280606081525090565b600080fd5b600080fd5b6000819050919050565b6106e9816106d6565b81146106f457600080fd5b50565b600081359050610706816106e0565b92915050565b600060208284031215610722576107216106cc565b5b6000610730848285016106f7565b91505092915050565b600081519050919050565b600082825260208201905092915050565b6000819050602082019050919050565b600081519050919050565b600082825260208201905092915050565b60005b8381101561079f578082015181840152602081019050610784565b838111156107ae576000848401525b50505050565b6000601f19601f8301169050919050565b60006107d082610765565b6107da8185610770565b93506107ea818560208601610781565b6107f3816107b4565b840191505092915050565b6000602083016000830151848203600086015261081b82826107c5565b9150508091505092915050565b600061083483836107fe565b905092915050565b6000602082019050919050565b600061085482610739565b61085e8185610744565b93508360208202850161087085610755565b8060005b858110156108ac578484038952815161088d8582610828565b94506108988361083c565b925060208a01995050600181019050610874565b50829750879550505050505092915050565b600060208201905081810360008301526108d88184610849565b905092915050565b600073ffffffffffffffffffffffffffffffffffffffff82169050919050565b600061090b826108e0565b9050919050565b61091b81610900565b82525050565b60006020820190506109366000830184610912565b92915050565b600080fd5b6000602082840312156109575761095661093c565b5b81905092915050565b60008060408385031215610977576109766106cc565b5b6000610985858286016106f7565b925050602083013567ffffffffffffffff8111156109a6576109a56106d1565b5b6109b285828601610941565b9150509250929050565b6109c5816106d6565b82525050565b60006020820190506109e060008301846109bc565b92915050565b6109ef81610900565b81146109fa57600080fd5b50565b600081359050610a0c816109e6565b92915050565b600060208284031215610a2857610a276106cc565b5b6000610a36848285016109fd565b91505092915050565b600082825260208201905092915050565b7f4d6972726f724d6f64756c653a206f6e6c792070726f66696c65000000000000600082015250565b6000610a86601a83610a3f565b9150610a9182610a50565b602082019050919050565b60006020820190508181036000830152610ab581610a79565b9050919050565b7f4e487b7100000000000000000000000000000000000000000000000000000000600052604160045260246000fd5b7f4e487b7100000000000000000000000000000000000000000000000000000000600052602260045260246000fd5b60006002820490506001821680610b3257607f821691505b60208210811415610b4657610b45610aeb565b5b50919050565b7f4e487b7100000000000000000000000000000000000000000000000000000000600052603260045260246000fd5b7f4e487b7100000000000000000000000000000000000000000000000000000000600052601160045260246000fd5b6000610bb5826106d6565b91507fffffffffffffffffffffffffffffffffffffffffffffffffffffffffffffffff821415610be857610be7610b7b565b5b600182019050919050565b600080fd5b600080fd5b600080fd5b60008083356001602003843603038112610c1f57610c1e610bf3565b5b80840192508235915067ffffffffffffffff821115610c4157610c40610bf8565b5b602083019250600182023603831315610c5d57610c5c610bfd565b5b509250929050565b600082905092915050565b60008190508160005260206000209050919050565b60006020601f8301049050919050565b600082821b905092915050565b600060088302610cd27fffffffffffffffffffffffffffffffffffffffffffffffffffffffffffffffff82610c95565b610cdc8683610c95565b95508019841693508086168417925050509392505050565b6000819050919050565b6000610d19610d14610d0f846106d6565b610cf4565b6106d6565b9050919050565b6000819050919050565b610d3383610cfe565b610d47610d3f82610d20565b848454610ca2565b825550505050565b600090565b610d5c610d4f565b610d67818484610d2a565b505050565b5b81811015610d8b57610d80600082610d54565b600181019050610d6d565b5050565b601f821115610dd057610da181610c70565b610daa84610c85565b81016020851015610db9578190505b610dcd610dc585610c85565b830182610d6c565b50505b505050565b600082821c905092915050565b6000610df360001984600802610dd5565b1980831691505092915050565b6000610e0c8383610de2565b9150826002028217905092915050565b610e268383610c65565b67ffffffffffffffff811115610e3f57610e3e610abc565b5b610e498254610b1a565b610e54828285610d8f565b6000601f831160018114610e835760008415610e71578287013590505b610e7b8582610e00565b865550610ee3565b601f198416610e9186610c70565b60005b82811015610eb957848901358255600182019150602085019450602081019050610e94565b86831015610ed65784890135610ed2601f891682610de2565b8355505b6001600288020188555050505b50505050505050565b610ef7838383610e1c565b505050565b6000810160008301610f0e8185610c02565b610f19818386610eec565b505050505050565b610f2b8282610efc565b5050565b7f4f776e61626c653a206e6577206f776e657220697320746865207a65726f206160008201527f6464726573730000000000000000000000000000000000000000000000000000602082015250565b6000610f8b602683610a3f565b9150610f9682610f2f565b604082019050919050565b60006020820190508181036000830152610fba81610f7e565b9050919050565b7f4f776e61626c653a2063616c6c6572206973206e6f7420746865206f776e6572600082015250565b6000610ff7602083610a3f565b915061100282610fc1565b602082019050919050565b6000602082019050818103600083015261102681610fea565b905091905056fea264697066735822122070dd2106c68cccd211702348339b7fef79c2c1e3126114fa44aeb9a960f18fb864736f6c634300080a0033",
  "linkReferences": {},
  "deployedLinkReferences": {}
}