{
  "_format": "hh-sol-artifact-1",
  "contractName": "MirrorModule",
  "sourceName": "contracts/core/modules/MirrorModule.sol",
  "abi": [
    {
      "inputs": [
        {
          "internalType": "address",
          "name": "owner",
          "type": "address"
        }
      ],
      "stateMutability": "nonpayable",
      "type": "constructor"
    },
    {
      "anonymous": false,
      "inputs": [
        {
          "indexed": true,
          "internalType": "address",
          "name": "previousOwner",
          "type": "address"
        },
        {
          "indexed": true,
          "internalType": "address",
          "name": "newOwner",
          "type": "address"
        }
      ],
      "name": "OwnershipTransferred",
      "type": "event"
    },
    {
      "inputs": [
        {
          "internalType": "uint256",
          "name": "profileId",
          "type": "uint256"
        },
        {
          "components": [
            {
              "internalType": "string",
              "name": "hoge",
              "type": "string"
            }
          ],
          "internalType": "struct IMirrorModule.MirrorStruct",
          "name": "mirror",
          "type": "tuple"
        }
      ],
      "name": "addMirror",
      "outputs": [
        {
          "internalType": "uint256",
          "name": "",
          "type": "uint256"
        }
      ],
      "stateMutability": "nonpayable",
      "type": "function"
    },
    {
      "inputs": [
        {
          "internalType": "uint256",
          "name": "profileId",
          "type": "uint256"
        }
      ],
      "name": "getMirror",
      "outputs": [
        {
          "components": [
            {
              "internalType": "string",
              "name": "hoge",
              "type": "string"
            }
          ],
          "internalType": "struct IMirrorModule.MirrorStruct[]",
          "name": "",
          "type": "tuple[]"
        }
      ],
      "stateMutability": "view",
      "type": "function"
    },
    {
      "inputs": [],
      "name": "owner",
      "outputs": [
        {
          "internalType": "address",
          "name": "",
          "type": "address"
        }
      ],
      "stateMutability": "view",
      "type": "function"
    },
    {
      "inputs": [],
      "name": "renounceOwnership",
      "outputs": [],
      "stateMutability": "nonpayable",
      "type": "function"
    },
    {
      "inputs": [
        {
          "internalType": "address",
          "name": "globals",
          "type": "address"
        }
      ],
      "name": "setGlobals",
      "outputs": [],
      "stateMutability": "nonpayable",
      "type": "function"
    },
    {
      "inputs": [
        {
          "internalType": "address",
          "name": "newOwner",
          "type": "address"
        }
      ],
      "name": "transferOwnership",
      "outputs": [],
      "stateMutability": "nonpayable",
      "type": "function"
    }
  ],
  "bytecode": "0x608060405234801561001057600080fd5b5060405161096838038061096883398101604081905261002f91610099565b8061003933610049565b61004281610049565b50506100c9565b600080546001600160a01b038381166001600160a01b0319831681178455604051919092169283917f8be0079c531659141344cd1fd0a4f28419497f9722a3daafe3b4186f6b6457e09190a35050565b6000602082840312156100ab57600080fd5b81516001600160a01b03811681146100c257600080fd5b9392505050565b610890806100d86000396000f3fe608060405234801561001057600080fd5b50600436106100625760003560e01c8063715018a6146100675780637524fa07146100715780638da5cb5b1461009a5780639d6d9a70146100b5578063cc2e0a26146100d6578063f2fde38b146100e9575b600080fd5b61006f6100fc565b005b61008461007f36600461050c565b610110565b6040516100919190610525565b60405180910390f35b6000546040516001600160a01b039091168152602001610091565b6100c86100c33660046105c7565b610293565b604051908152602001610091565b61006f6100e436600461062a565b6103bf565b61006f6100f736600461062a565b6103e9565b610104610462565b61010e60006104bc565b565b6000818152600360205260408120546060919067ffffffffffffffff81111561013b5761013b61064e565b60405190808252806020026020018201604052801561017b57816020015b6040805160208101909152606081528152602001906001900390816101595790505b50905060005b60008481526003602052604090205481101561028c576000848152600260205260408120906101b183600161067a565b81526020019081526020016000206040518060200160405290816000820180546101da90610692565b80601f016020809104026020016040519081016040528092919081815260200182805461020690610692565b80156102535780601f1061022857610100808354040283529160200191610253565b820191906000526020600020905b81548152906001019060200180831161023657829003601f168201915b50505050508152505082828151811061026e5761026e6106cd565b60200260200101819052508080610284906106e3565b915050610181565b5092915050565b6001546040805163d6afc9b160e01b815290516000926001600160a01b03169163d6afc9b19160048083019260209291908290030181865afa1580156102dd573d6000803e3d6000fd5b505050506040513d601f19601f8201168201806040525081019061030191906106fe565b6001600160a01b0316336001600160a01b0316146103665760405162461bcd60e51b815260206004820152601b60248201527f457874656e73696f6e426173653a206f6e6c792070726f66696c65000000000060448201526064015b60405180910390fd5b600083815260036020526040812080548290610381906106e3565b9182905550600085815260026020908152604080832060038352818420548452909152902090915083906103b5828261076a565b5090949350505050565b6103c7610462565b600180546001600160a01b0319166001600160a01b0392909216919091179055565b6103f1610462565b6001600160a01b0381166104565760405162461bcd60e51b815260206004820152602660248201527f4f776e61626c653a206e6577206f776e657220697320746865207a65726f206160448201526564647265737360d01b606482015260840161035d565b61045f816104bc565b50565b6000546001600160a01b0316331461010e5760405162461bcd60e51b815260206004820181905260248201527f4f776e61626c653a2063616c6c6572206973206e6f7420746865206f776e6572604482015260640161035d565b600080546001600160a01b038381166001600160a01b0319831681178455604051919092169283917f8be0079c531659141344cd1fd0a4f28419497f9722a3daafe3b4186f6b6457e09190a35050565b60006020828403121561051e57600080fd5b5035919050565b60006020808301818452808551808352604092508286019150828160051b8701018488016000805b848110156105b857603f198a85030186528251518885528051808a870152835b81811015610588578281018b01518782018b01528a0161056d565b8181111561059857848a83890101525b5096890196601f01601f191694909401870193509187019160010161054d565b50919998505050505050505050565b600080604083850312156105da57600080fd5b82359150602083013567ffffffffffffffff8111156105f857600080fd5b83016020818603121561060a57600080fd5b809150509250929050565b6001600160a01b038116811461045f57600080fd5b60006020828403121561063c57600080fd5b813561064781610615565b9392505050565b634e487b7160e01b600052604160045260246000fd5b634e487b7160e01b600052601160045260246000fd5b6000821982111561068d5761068d610664565b500190565b600181811c908216806106a657607f821691505b602082108114156106c757634e487b7160e01b600052602260045260246000fd5b50919050565b634e487b7160e01b600052603260045260246000fd5b60006000198214156106f7576106f7610664565b5060010190565b60006020828403121561071057600080fd5b815161064781610615565b601f82111561076557600081815260208120601f850160051c810160208610156107425750805b601f850160051c820191505b818110156107615782815560010161074e565b5050505b505050565b8135601e1983360301811261077e57600080fd5b8201803567ffffffffffffffff81111561079757600080fd5b602081360381840113156107aa57600080fd5b6107be826107b88654610692565b8661071b565b6000601f8311600181146107f457600084156107dc57508482018301355b600019600386901b1c1916600185901b178655610851565b600086815260209020601f19851690835b82811015610826578785018601358255938501936001909101908501610805565b50858210156108455760001960f88760031b161c198585890101351681555b505060018460011b0186555b5050505050505056fea2646970667358221220579d32eea1d5714913656f7eb8f771482a4f8577a477b1712bdbc0b0f8ec453b64736f6c634300080a0033",
  "linkReferences": {},
  "deployedLinkReferences": {}
}