{
  "_format": "hh-sol-artifact-1",
  "contractName": "MirrorModule",
  "sourceName": "contracts/core/modules/MirrorModule.sol",
  "abi": [
    {
      "inputs": [
        {
          "internalType": "address",
          "name": "owner",
          "type": "address"
        }
      ],
      "stateMutability": "nonpayable",
      "type": "constructor"
    },
    {
      "anonymous": false,
      "inputs": [
        {
          "indexed": true,
          "internalType": "address",
          "name": "previousOwner",
          "type": "address"
        },
        {
          "indexed": true,
          "internalType": "address",
          "name": "newOwner",
          "type": "address"
        }
      ],
      "name": "OwnershipTransferred",
      "type": "event"
    },
    {
      "inputs": [
        {
          "internalType": "uint256",
          "name": "profileId",
          "type": "uint256"
        }
      ],
      "name": "getMirror",
      "outputs": [
        {
          "components": [
            {
              "internalType": "string",
              "name": "hoge",
              "type": "string"
            }
          ],
          "internalType": "struct IMirrorModule.MirrorStruct[]",
          "name": "",
          "type": "tuple[]"
        }
      ],
      "stateMutability": "view",
      "type": "function"
    },
    {
      "inputs": [],
      "name": "owner",
      "outputs": [
        {
          "internalType": "address",
          "name": "",
          "type": "address"
        }
      ],
      "stateMutability": "view",
      "type": "function"
    },
    {
      "inputs": [
        {
          "internalType": "uint256",
          "name": "profileId",
          "type": "uint256"
        },
        {
          "components": [
            {
              "internalType": "string",
              "name": "hoge",
              "type": "string"
            }
          ],
          "internalType": "struct IMirrorModule.MirrorStruct",
          "name": "mirror",
          "type": "tuple"
        }
      ],
      "name": "processRegist",
      "outputs": [],
      "stateMutability": "nonpayable",
      "type": "function"
    },
    {
      "inputs": [],
      "name": "renounceOwnership",
      "outputs": [],
      "stateMutability": "nonpayable",
      "type": "function"
    },
    {
      "inputs": [
        {
          "internalType": "address",
          "name": "profile",
          "type": "address"
        }
      ],
      "name": "setProfile",
      "outputs": [],
      "stateMutability": "nonpayable",
      "type": "function"
    },
    {
      "inputs": [
        {
          "internalType": "address",
          "name": "newOwner",
          "type": "address"
        }
      ],
      "name": "transferOwnership",
      "outputs": [],
      "stateMutability": "nonpayable",
      "type": "function"
    }
  ],
  "bytecode": "0x60806040523480156200001157600080fd5b50604051620011ec380380620011ec8339818101604052810190620000379190620001a5565b620000576200004b6200006f60201b60201c565b6200007760201b60201c565b62000068816200007760201b60201c565b50620001d7565b600033905090565b60008060009054906101000a900473ffffffffffffffffffffffffffffffffffffffff169050816000806101000a81548173ffffffffffffffffffffffffffffffffffffffff021916908373ffffffffffffffffffffffffffffffffffffffff1602179055508173ffffffffffffffffffffffffffffffffffffffff168173ffffffffffffffffffffffffffffffffffffffff167f8be0079c531659141344cd1fd0a4f28419497f9722a3daafe3b4186f6b6457e060405160405180910390a35050565b600080fd5b600073ffffffffffffffffffffffffffffffffffffffff82169050919050565b60006200016d8262000140565b9050919050565b6200017f8162000160565b81146200018b57600080fd5b50565b6000815190506200019f8162000174565b92915050565b600060208284031215620001be57620001bd6200013b565b5b6000620001ce848285016200018e565b91505092915050565b61100580620001e76000396000f3fe608060405234801561001057600080fd5b50600436106100625760003560e01c8063715018a6146100675780637524fa07146100715780638da5cb5b146100a1578063a3f78e7c146100bf578063e0b6a1e3146100db578063f2fde38b146100f7575b600080fd5b61006f610113565b005b61008b600480360381019061008691906106d8565b610127565b604051610098919061088a565b60405180910390f35b6100a961033e565b6040516100b691906108ed565b60405180910390f35b6100d960048036038101906100d4919061092c565b610367565b005b6100f560048036038101906100f091906109b4565b61046b565b005b610111600480360381019061010c91906109b4565b6104b7565b005b61011b61053b565b61012560006105b9565b565b6060600160009054906101000a900473ffffffffffffffffffffffffffffffffffffffff1673ffffffffffffffffffffffffffffffffffffffff163373ffffffffffffffffffffffffffffffffffffffff16146101b9576040517f08c379a00000000000000000000000000000000000000000000000000000000081526004016101b090610a3e565b60405180910390fd5b6000600360008481526020019081526020016000205467ffffffffffffffff8111156101e8576101e7610a5e565b5b60405190808252806020026020018201604052801561022157816020015b61020e610685565b8152602001906001900390816102065790505b50905060005b60036000858152602001908152602001600020548110156103345760026000858152602001908152602001600020600082815260200190815260200160002060405180602001604052908160008201805461028190610abc565b80601f01602080910402602001604051908101604052809291908181526020018280546102ad90610abc565b80156102fa5780601f106102cf576101008083540402835291602001916102fa565b820191906000526020600020905b8154815290600101906020018083116102dd57829003601f168201915b50505050508152505082828151811061031657610315610aee565b5b6020026020010181905250808061032c90610b4c565b915050610227565b5080915050919050565b60008060009054906101000a900473ffffffffffffffffffffffffffffffffffffffff16905090565b600160009054906101000a900473ffffffffffffffffffffffffffffffffffffffff1673ffffffffffffffffffffffffffffffffffffffff163373ffffffffffffffffffffffffffffffffffffffff16146103f7576040517f08c379a00000000000000000000000000000000000000000000000000000000081526004016103ee90610a3e565b60405180910390fd5b8060026000848152602001908152602001600020600060036000868152602001908152602001600020548152602001908152602001600020818161043b9190610ec3565b90505060036000838152602001908152602001600020600081548092919061046290610b4c565b91905055505050565b61047361053b565b80600160006101000a81548173ffffffffffffffffffffffffffffffffffffffff021916908373ffffffffffffffffffffffffffffffffffffffff16021790555050565b6104bf61053b565b600073ffffffffffffffffffffffffffffffffffffffff168173ffffffffffffffffffffffffffffffffffffffff16141561052f576040517f08c379a000000000000000000000000000000000000000000000000000000000815260040161052690610f43565b60405180910390fd5b610538816105b9565b50565b61054361067d565b73ffffffffffffffffffffffffffffffffffffffff1661056161033e565b73ffffffffffffffffffffffffffffffffffffffff16146105b7576040517f08c379a00000000000000000000000000000000000000000000000000000000081526004016105ae90610faf565b60405180910390fd5b565b60008060009054906101000a900473ffffffffffffffffffffffffffffffffffffffff169050816000806101000a81548173ffffffffffffffffffffffffffffffffffffffff021916908373ffffffffffffffffffffffffffffffffffffffff1602179055508173ffffffffffffffffffffffffffffffffffffffff168173ffffffffffffffffffffffffffffffffffffffff167f8be0079c531659141344cd1fd0a4f28419497f9722a3daafe3b4186f6b6457e060405160405180910390a35050565b600033905090565b6040518060200160405280606081525090565b600080fd5b600080fd5b6000819050919050565b6106b5816106a2565b81146106c057600080fd5b50565b6000813590506106d2816106ac565b92915050565b6000602082840312156106ee576106ed610698565b5b60006106fc848285016106c3565b91505092915050565b600081519050919050565b600082825260208201905092915050565b6000819050602082019050919050565b600081519050919050565b600082825260208201905092915050565b60005b8381101561076b578082015181840152602081019050610750565b8381111561077a576000848401525b50505050565b6000601f19601f8301169050919050565b600061079c82610731565b6107a6818561073c565b93506107b681856020860161074d565b6107bf81610780565b840191505092915050565b600060208301600083015184820360008601526107e78282610791565b9150508091505092915050565b600061080083836107ca565b905092915050565b6000602082019050919050565b600061082082610705565b61082a8185610710565b93508360208202850161083c85610721565b8060005b85811015610878578484038952815161085985826107f4565b945061086483610808565b925060208a01995050600181019050610840565b50829750879550505050505092915050565b600060208201905081810360008301526108a48184610815565b905092915050565b600073ffffffffffffffffffffffffffffffffffffffff82169050919050565b60006108d7826108ac565b9050919050565b6108e7816108cc565b82525050565b600060208201905061090260008301846108de565b92915050565b600080fd5b60006020828403121561092357610922610908565b5b81905092915050565b6000806040838503121561094357610942610698565b5b6000610951858286016106c3565b925050602083013567ffffffffffffffff8111156109725761097161069d565b5b61097e8582860161090d565b9150509250929050565b610991816108cc565b811461099c57600080fd5b50565b6000813590506109ae81610988565b92915050565b6000602082840312156109ca576109c9610698565b5b60006109d88482850161099f565b91505092915050565b600082825260208201905092915050565b7f4d6972726f724d6f64756c653a206f6e6c792070726f66696c65000000000000600082015250565b6000610a28601a836109e1565b9150610a33826109f2565b602082019050919050565b60006020820190508181036000830152610a5781610a1b565b9050919050565b7f4e487b7100000000000000000000000000000000000000000000000000000000600052604160045260246000fd5b7f4e487b7100000000000000000000000000000000000000000000000000000000600052602260045260246000fd5b60006002820490506001821680610ad457607f821691505b60208210811415610ae857610ae7610a8d565b5b50919050565b7f4e487b7100000000000000000000000000000000000000000000000000000000600052603260045260246000fd5b7f4e487b7100000000000000000000000000000000000000000000000000000000600052601160045260246000fd5b6000610b57826106a2565b91507fffffffffffffffffffffffffffffffffffffffffffffffffffffffffffffffff821415610b8a57610b89610b1d565b5b600182019050919050565b600080fd5b600080fd5b600080fd5b60008083356001602003843603038112610bc157610bc0610b95565b5b80840192508235915067ffffffffffffffff821115610be357610be2610b9a565b5b602083019250600182023603831315610bff57610bfe610b9f565b5b509250929050565b600082905092915050565b60008190508160005260206000209050919050565b60006020601f8301049050919050565b600082821b905092915050565b600060088302610c747fffffffffffffffffffffffffffffffffffffffffffffffffffffffffffffffff82610c37565b610c7e8683610c37565b95508019841693508086168417925050509392505050565b6000819050919050565b6000610cbb610cb6610cb1846106a2565b610c96565b6106a2565b9050919050565b6000819050919050565b610cd583610ca0565b610ce9610ce182610cc2565b848454610c44565b825550505050565b600090565b610cfe610cf1565b610d09818484610ccc565b505050565b5b81811015610d2d57610d22600082610cf6565b600181019050610d0f565b5050565b601f821115610d7257610d4381610c12565b610d4c84610c27565b81016020851015610d5b578190505b610d6f610d6785610c27565b830182610d0e565b50505b505050565b600082821c905092915050565b6000610d9560001984600802610d77565b1980831691505092915050565b6000610dae8383610d84565b9150826002028217905092915050565b610dc88383610c07565b67ffffffffffffffff811115610de157610de0610a5e565b5b610deb8254610abc565b610df6828285610d31565b6000601f831160018114610e255760008415610e13578287013590505b610e1d8582610da2565b865550610e85565b601f198416610e3386610c12565b60005b82811015610e5b57848901358255600182019150602085019450602081019050610e36565b86831015610e785784890135610e74601f891682610d84565b8355505b6001600288020188555050505b50505050505050565b610e99838383610dbe565b505050565b6000810160008301610eb08185610ba4565b610ebb818386610e8e565b505050505050565b610ecd8282610e9e565b5050565b7f4f776e61626c653a206e6577206f776e657220697320746865207a65726f206160008201527f6464726573730000000000000000000000000000000000000000000000000000602082015250565b6000610f2d6026836109e1565b9150610f3882610ed1565b604082019050919050565b60006020820190508181036000830152610f5c81610f20565b9050919050565b7f4f776e61626c653a2063616c6c6572206973206e6f7420746865206f776e6572600082015250565b6000610f996020836109e1565b9150610fa482610f63565b602082019050919050565b60006020820190508181036000830152610fc881610f8c565b905091905056fea264697066735822122047dc2ec785f805277c9679bda85fe3d2c7f2f5b8273080d4f648d2046d9d950464736f6c634300080a0033",
  "linkReferences": {},
  "deployedLinkReferences": {}
}