{
  "_format": "hh-sol-artifact-1",
  "contractName": "NFTCollectionModule",
  "sourceName": "contracts/core/NFTCollectionModule.sol",
  "abi": [
    {
      "inputs": [
        {
          "internalType": "address",
          "name": "profile",
          "type": "address"
        }
      ],
      "stateMutability": "nonpayable",
      "type": "constructor"
    },
    {
      "inputs": [
        {
          "internalType": "uint256",
          "name": "profileId",
          "type": "uint256"
        },
        {
          "internalType": "uint256",
          "name": "pubId",
          "type": "uint256"
        }
      ],
      "name": "getNFTs",
      "outputs": [
        {
          "components": [
            {
              "internalType": "uint256",
              "name": "chainId",
              "type": "uint256"
            },
            {
              "internalType": "address",
              "name": "contractAddress",
              "type": "address"
            },
            {
              "internalType": "uint256",
              "name": "tokenId",
              "type": "uint256"
            },
            {
              "internalType": "string",
              "name": "tokenURI",
              "type": "string"
            }
          ],
          "internalType": "struct INFTCollectionModule.NFTStruct[]",
          "name": "",
          "type": "tuple[]"
        }
      ],
      "stateMutability": "view",
      "type": "function"
    },
    {
      "inputs": [
        {
          "internalType": "uint256",
          "name": "profileId",
          "type": "uint256"
        },
        {
          "internalType": "uint256",
          "name": "pubId",
          "type": "uint256"
        },
        {
          "components": [
            {
              "internalType": "uint256",
              "name": "chainId",
              "type": "uint256"
            },
            {
              "internalType": "address",
              "name": "contractAddress",
              "type": "address"
            },
            {
              "internalType": "uint256",
              "name": "tokenId",
              "type": "uint256"
            },
            {
              "internalType": "string",
              "name": "tokenURI",
              "type": "string"
            }
          ],
          "internalType": "struct INFTCollectionModule.NFTStruct[]",
          "name": "nfts",
          "type": "tuple[]"
        }
      ],
      "name": "processCollect",
      "outputs": [],
      "stateMutability": "nonpayable",
      "type": "function"
    }
  ],
  "bytecode": "0x608060405234801561001057600080fd5b5060405162000fa338038062000fa3833981810160405281019061003491906100dd565b806000806101000a81548173ffffffffffffffffffffffffffffffffffffffff021916908373ffffffffffffffffffffffffffffffffffffffff1602179055505061010a565b600080fd5b600073ffffffffffffffffffffffffffffffffffffffff82169050919050565b60006100aa8261007f565b9050919050565b6100ba8161009f565b81146100c557600080fd5b50565b6000815190506100d7816100b1565b92915050565b6000602082840312156100f3576100f261007a565b5b6000610101848285016100c8565b91505092915050565b610e89806200011a6000396000f3fe608060405234801561001057600080fd5b50600436106100365760003560e01c80630ff711c31461003b578063f90fc1e41461006b575b600080fd5b6100556004803603810190610050919061040b565b610087565b6040516100629190610659565b60405180910390f35b610085600480360381019061008091906106e0565b610295565b005b606060008054906101000a900473ffffffffffffffffffffffffffffffffffffffff1673ffffffffffffffffffffffffffffffffffffffff163373ffffffffffffffffffffffffffffffffffffffff1614610117576040517f08c379a000000000000000000000000000000000000000000000000000000000815260040161010e906107d7565b60405180910390fd5b600160008481526020019081526020016000206000838152602001908152602001600020805480602002602001604051908101604052809291908181526020016000905b828210156102895783829060005260206000209060040201604051806080016040529081600082015481526020016001820160009054906101000a900473ffffffffffffffffffffffffffffffffffffffff1673ffffffffffffffffffffffffffffffffffffffff1673ffffffffffffffffffffffffffffffffffffffff168152602001600282015481526020016003820180546101f890610826565b80601f016020809104026020016040519081016040528092919081815260200182805461022490610826565b80156102715780601f1061024657610100808354040283529160200191610271565b820191906000526020600020905b81548152906001019060200180831161025457829003601f168201915b5050505050815250508152602001906001019061015b565b50505050905092915050565b60008054906101000a900473ffffffffffffffffffffffffffffffffffffffff1673ffffffffffffffffffffffffffffffffffffffff163373ffffffffffffffffffffffffffffffffffffffff1614610323576040517f08c379a000000000000000000000000000000000000000000000000000000000815260040161031a906107d7565b60405180910390fd5b60005b828290508110156103c45760016000868152602001908152602001600020600085815260200190815260200160002083838381811061036857610367610858565b5b905060200281019061037a9190610896565b908060018154018082558091505060019003906000526020600020906004020160009091909190915081816103af9190610dcd565b505080806103bc90610e0a565b915050610326565b5050505050565b600080fd5b600080fd5b6000819050919050565b6103e8816103d5565b81146103f357600080fd5b50565b600081359050610405816103df565b92915050565b60008060408385031215610422576104216103cb565b5b6000610430858286016103f6565b9250506020610441858286016103f6565b9150509250929050565b600081519050919050565b600082825260208201905092915050565b6000819050602082019050919050565b610480816103d5565b82525050565b600073ffffffffffffffffffffffffffffffffffffffff82169050919050565b60006104b182610486565b9050919050565b6104c1816104a6565b82525050565b600081519050919050565b600082825260208201905092915050565b60005b838110156105015780820151818401526020810190506104e6565b83811115610510576000848401525b50505050565b6000601f19601f8301169050919050565b6000610532826104c7565b61053c81856104d2565b935061054c8185602086016104e3565b61055581610516565b840191505092915050565b60006080830160008301516105786000860182610477565b50602083015161058b60208601826104b8565b50604083015161059e6040860182610477565b50606083015184820360608601526105b68282610527565b9150508091505092915050565b60006105cf8383610560565b905092915050565b6000602082019050919050565b60006105ef8261044b565b6105f98185610456565b93508360208202850161060b85610467565b8060005b85811015610647578484038952815161062885826105c3565b9450610633836105d7565b925060208a0199505060018101905061060f565b50829750879550505050505092915050565b6000602082019050818103600083015261067381846105e4565b905092915050565b600080fd5b600080fd5b600080fd5b60008083601f8401126106a05761069f61067b565b5b8235905067ffffffffffffffff8111156106bd576106bc610680565b5b6020830191508360208202830111156106d9576106d8610685565b5b9250929050565b600080600080606085870312156106fa576106f96103cb565b5b6000610708878288016103f6565b9450506020610719878288016103f6565b935050604085013567ffffffffffffffff81111561073a576107396103d0565b5b6107468782880161068a565b925092505092959194509250565b600082825260208201905092915050565b7f4e4654436f6c6c656374696f6e4d6f64756c653a206f6e6c792070726f66696c60008201527f6500000000000000000000000000000000000000000000000000000000000000602082015250565b60006107c1602183610754565b91506107cc82610765565b604082019050919050565b600060208201905081810360008301526107f0816107b4565b9050919050565b7f4e487b7100000000000000000000000000000000000000000000000000000000600052602260045260246000fd5b6000600282049050600182168061083e57607f821691505b60208210811415610852576108516107f7565b5b50919050565b7f4e487b7100000000000000000000000000000000000000000000000000000000600052603260045260246000fd5b600080fd5b600080fd5b600080fd5b6000823560016080038336030381126108b2576108b1610887565b5b80830191505092915050565b600081356108cb816103df565b80915050919050565b60008160001b9050919050565b60007fffffffffffffffffffffffffffffffffffffffffffffffffffffffffffffffff61090d846108d4565b9350801983169250808416831791505092915050565b6000819050919050565b600061094861094361093e846103d5565b610923565b6103d5565b9050919050565b6000819050919050565b6109628261092d565b61097561096e8261094f565b83546108e1565b8255505050565b610985816104a6565b811461099057600080fd5b50565b600081356109a08161097c565b80915050919050565b600073ffffffffffffffffffffffffffffffffffffffff6109c9846108d4565b9350801983169250808416831791505092915050565b60006109fa6109f56109f084610486565b610923565b610486565b9050919050565b6000610a0c826109df565b9050919050565b6000610a1e82610a01565b9050919050565b6000819050919050565b610a3882610a13565b610a4b610a4482610a25565b83546109a9565b8255505050565b60008083356001602003843603038112610a6f57610a6e610887565b5b80840192508235915067ffffffffffffffff821115610a9157610a9061088c565b5b602083019250600182023603831315610aad57610aac610891565b5b509250929050565b600082905092915050565b7f4e487b7100000000000000000000000000000000000000000000000000000000600052604160045260246000fd5b60008190508160005260206000209050919050565b60006020601f8301049050919050565b600082821b905092915050565b600060088302610b517fffffffffffffffffffffffffffffffffffffffffffffffffffffffffffffffff82610b14565b610b5b8683610b14565b95508019841693508086168417925050509392505050565b610b7c8361092d565b610b90610b888261094f565b848454610b21565b825550505050565b600090565b610ba5610b98565b610bb0818484610b73565b505050565b5b81811015610bd457610bc9600082610b9d565b600181019050610bb6565b5050565b601f821115610c1957610bea81610aef565b610bf384610b04565b81016020851015610c02578190505b610c16610c0e85610b04565b830182610bb5565b50505b505050565b600082821c905092915050565b6000610c3c60001984600802610c1e565b1980831691505092915050565b6000610c558383610c2b565b9150826002028217905092915050565b610c6f8383610ab5565b67ffffffffffffffff811115610c8857610c87610ac0565b5b610c928254610826565b610c9d828285610bd8565b6000601f831160018114610ccc5760008415610cba578287013590505b610cc48582610c49565b865550610d2c565b601f198416610cda86610aef565b60005b82811015610d0257848901358255600182019150602085019450602081019050610cdd565b86831015610d1f5784890135610d1b601f891682610c2b565b8355505b6001600288020188555050505b50505050505050565b610d40838383610c65565b505050565b600081016000830180610d57816108be565b9050610d638184610959565b505050600181016020830180610d7881610993565b9050610d848184610a2f565b505050600281016040830180610d99816108be565b9050610da58184610959565b5050506003810160608301610dba8185610a52565b610dc5818386610d35565b505050505050565b610dd78282610d45565b5050565b7f4e487b7100000000000000000000000000000000000000000000000000000000600052601160045260246000fd5b6000610e15826103d5565b91507fffffffffffffffffffffffffffffffffffffffffffffffffffffffffffffffff821415610e4857610e47610ddb565b5b60018201905091905056fea2646970667358221220f11162e6e96bfb62b7b5a1e2fd59388e16f991d6ad49bbc461bb913f977a7c0164736f6c634300080a0033",
  "linkReferences": {},
  "deployedLinkReferences": {}
}