{
  "_format": "hh-sol-artifact-1",
  "contractName": "Profile",
  "sourceName": "contracts/core/Profile.sol",
  "abi": [
    {
      "inputs": [
        {
          "internalType": "address",
          "name": "owner",
          "type": "address"
        }
      ],
      "stateMutability": "nonpayable",
      "type": "constructor"
    },
    {
      "anonymous": false,
      "inputs": [
        {
          "indexed": true,
          "internalType": "address",
          "name": "owner",
          "type": "address"
        },
        {
          "indexed": true,
          "internalType": "address",
          "name": "approved",
          "type": "address"
        },
        {
          "indexed": true,
          "internalType": "uint256",
          "name": "tokenId",
          "type": "uint256"
        }
      ],
      "name": "Approval",
      "type": "event"
    },
    {
      "anonymous": false,
      "inputs": [
        {
          "indexed": true,
          "internalType": "address",
          "name": "owner",
          "type": "address"
        },
        {
          "indexed": true,
          "internalType": "address",
          "name": "operator",
          "type": "address"
        },
        {
          "indexed": false,
          "internalType": "bool",
          "name": "approved",
          "type": "bool"
        }
      ],
      "name": "ApprovalForAll",
      "type": "event"
    },
    {
      "anonymous": false,
      "inputs": [
        {
          "indexed": true,
          "internalType": "uint256",
          "name": "profileId",
          "type": "uint256"
        },
        {
          "indexed": true,
          "internalType": "uint256",
          "name": "pubId",
          "type": "uint256"
        },
        {
          "components": [
            {
              "internalType": "uint256",
              "name": "chainId",
              "type": "uint256"
            },
            {
              "internalType": "address",
              "name": "contractAddress",
              "type": "address"
            },
            {
              "internalType": "uint256",
              "name": "tokenId",
              "type": "uint256"
            },
            {
              "internalType": "string",
              "name": "tokenURI",
              "type": "string"
            }
          ],
          "indexed": false,
          "internalType": "struct INFTCollectionModule.NFTStruct[]",
          "name": "nfts",
          "type": "tuple[]"
        },
        {
          "indexed": false,
          "internalType": "uint256",
          "name": "blockNumber",
          "type": "uint256"
        }
      ],
      "name": "NFTCollectionCreated",
      "type": "event"
    },
    {
      "anonymous": false,
      "inputs": [
        {
          "indexed": true,
          "internalType": "address",
          "name": "previousOwner",
          "type": "address"
        },
        {
          "indexed": true,
          "internalType": "address",
          "name": "newOwner",
          "type": "address"
        }
      ],
      "name": "OwnershipTransferred",
      "type": "event"
    },
    {
      "anonymous": false,
      "inputs": [
        {
          "indexed": true,
          "internalType": "address",
          "name": "owner",
          "type": "address"
        },
        {
          "indexed": false,
          "internalType": "uint256",
          "name": "profileId",
          "type": "uint256"
        },
        {
          "indexed": false,
          "internalType": "string",
          "name": "handle",
          "type": "string"
        },
        {
          "indexed": false,
          "internalType": "string",
          "name": "imageURI",
          "type": "string"
        },
        {
          "indexed": false,
          "internalType": "uint256",
          "name": "blockNumber",
          "type": "uint256"
        }
      ],
      "name": "ProfileCreated",
      "type": "event"
    },
    {
      "anonymous": false,
      "inputs": [
        {
          "indexed": true,
          "internalType": "address",
          "name": "from",
          "type": "address"
        },
        {
          "indexed": true,
          "internalType": "address",
          "name": "to",
          "type": "address"
        },
        {
          "indexed": true,
          "internalType": "uint256",
          "name": "tokenId",
          "type": "uint256"
        }
      ],
      "name": "Transfer",
      "type": "event"
    },
    {
      "inputs": [
        {
          "internalType": "address",
          "name": "to",
          "type": "address"
        },
        {
          "internalType": "uint256",
          "name": "tokenId",
          "type": "uint256"
        }
      ],
      "name": "approve",
      "outputs": [],
      "stateMutability": "nonpayable",
      "type": "function"
    },
    {
      "inputs": [
        {
          "internalType": "address",
          "name": "owner",
          "type": "address"
        }
      ],
      "name": "balanceOf",
      "outputs": [
        {
          "internalType": "uint256",
          "name": "",
          "type": "uint256"
        }
      ],
      "stateMutability": "view",
      "type": "function"
    },
    {
      "inputs": [
        {
          "internalType": "uint256",
          "name": "profileId",
          "type": "uint256"
        },
        {
          "components": [
            {
              "internalType": "uint256",
              "name": "chainId",
              "type": "uint256"
            },
            {
              "internalType": "address",
              "name": "contractAddress",
              "type": "address"
            },
            {
              "internalType": "uint256",
              "name": "tokenId",
              "type": "uint256"
            },
            {
              "internalType": "string",
              "name": "tokenURI",
              "type": "string"
            }
          ],
          "internalType": "struct INFTCollectionModule.NFTStruct[]",
          "name": "nfts",
          "type": "tuple[]"
        }
      ],
      "name": "createNFTCollection",
      "outputs": [],
      "stateMutability": "nonpayable",
      "type": "function"
    },
    {
      "inputs": [
        {
          "components": [
            {
              "internalType": "string",
              "name": "handle",
              "type": "string"
            },
            {
              "internalType": "string",
              "name": "imageURI",
              "type": "string"
            },
            {
              "components": [
                {
                  "internalType": "uint256",
                  "name": "chainId",
                  "type": "uint256"
                },
                {
                  "internalType": "address",
                  "name": "contractAddress",
                  "type": "address"
                },
                {
                  "internalType": "uint256",
                  "name": "tokenId",
                  "type": "uint256"
                },
                {
                  "internalType": "string",
                  "name": "tokenURI",
                  "type": "string"
                }
              ],
              "internalType": "struct INFTCollectionModule.NFTStruct[]",
              "name": "nfts",
              "type": "tuple[]"
            }
          ],
          "internalType": "struct IProfile.CreateProfileStructData",
          "name": "vars",
          "type": "tuple"
        }
      ],
      "name": "createProfile",
      "outputs": [
        {
          "internalType": "uint256",
          "name": "",
          "type": "uint256"
        }
      ],
      "stateMutability": "nonpayable",
      "type": "function"
    },
    {
      "inputs": [
        {
          "internalType": "uint256",
          "name": "tokenId",
          "type": "uint256"
        }
      ],
      "name": "getApproved",
      "outputs": [
        {
          "internalType": "address",
          "name": "",
          "type": "address"
        }
      ],
      "stateMutability": "view",
      "type": "function"
    },
    {
      "inputs": [
        {
          "internalType": "uint256",
          "name": "profileId",
          "type": "uint256"
        },
        {
          "internalType": "uint256",
          "name": "nftCollectionPubId",
          "type": "uint256"
        }
      ],
      "name": "getNFTCollection",
      "outputs": [
        {
          "components": [
            {
              "internalType": "uint256",
              "name": "chainId",
              "type": "uint256"
            },
            {
              "internalType": "address",
              "name": "contractAddress",
              "type": "address"
            },
            {
              "internalType": "uint256",
              "name": "tokenId",
              "type": "uint256"
            },
            {
              "internalType": "string",
              "name": "tokenURI",
              "type": "string"
            }
          ],
          "internalType": "struct INFTCollectionModule.NFTStruct[]",
          "name": "",
          "type": "tuple[]"
        }
      ],
      "stateMutability": "view",
      "type": "function"
    },
    {
      "inputs": [
        {
          "internalType": "uint256",
          "name": "profileId",
          "type": "uint256"
        }
      ],
      "name": "getProfile",
      "outputs": [
        {
          "components": [
            {
              "internalType": "address",
              "name": "owner",
              "type": "address"
            },
            {
              "internalType": "string",
              "name": "handle",
              "type": "string"
            },
            {
              "internalType": "string",
              "name": "imageURI",
              "type": "string"
            },
            {
              "internalType": "uint256",
              "name": "nftCollectionPubId",
              "type": "uint256"
            }
          ],
          "internalType": "struct IProfile.ProfileStruct",
          "name": "",
          "type": "tuple"
        }
      ],
      "stateMutability": "view",
      "type": "function"
    },
    {
      "inputs": [
        {
          "internalType": "address",
          "name": "owner",
          "type": "address"
        },
        {
          "internalType": "address",
          "name": "operator",
          "type": "address"
        }
      ],
      "name": "isApprovedForAll",
      "outputs": [
        {
          "internalType": "bool",
          "name": "",
          "type": "bool"
        }
      ],
      "stateMutability": "view",
      "type": "function"
    },
    {
      "inputs": [],
      "name": "name",
      "outputs": [
        {
          "internalType": "string",
          "name": "",
          "type": "string"
        }
      ],
      "stateMutability": "view",
      "type": "function"
    },
    {
      "inputs": [],
      "name": "owner",
      "outputs": [
        {
          "internalType": "address",
          "name": "",
          "type": "address"
        }
      ],
      "stateMutability": "view",
      "type": "function"
    },
    {
      "inputs": [
        {
          "internalType": "uint256",
          "name": "tokenId",
          "type": "uint256"
        }
      ],
      "name": "ownerOf",
      "outputs": [
        {
          "internalType": "address",
          "name": "",
          "type": "address"
        }
      ],
      "stateMutability": "view",
      "type": "function"
    },
    {
      "inputs": [],
      "name": "renounceOwnership",
      "outputs": [],
      "stateMutability": "nonpayable",
      "type": "function"
    },
    {
      "inputs": [
        {
          "internalType": "address",
          "name": "from",
          "type": "address"
        },
        {
          "internalType": "address",
          "name": "to",
          "type": "address"
        },
        {
          "internalType": "uint256",
          "name": "tokenId",
          "type": "uint256"
        }
      ],
      "name": "safeTransferFrom",
      "outputs": [],
      "stateMutability": "nonpayable",
      "type": "function"
    },
    {
      "inputs": [
        {
          "internalType": "address",
          "name": "from",
          "type": "address"
        },
        {
          "internalType": "address",
          "name": "to",
          "type": "address"
        },
        {
          "internalType": "uint256",
          "name": "tokenId",
          "type": "uint256"
        },
        {
          "internalType": "bytes",
          "name": "data",
          "type": "bytes"
        }
      ],
      "name": "safeTransferFrom",
      "outputs": [],
      "stateMutability": "nonpayable",
      "type": "function"
    },
    {
      "inputs": [
        {
          "internalType": "address",
          "name": "operator",
          "type": "address"
        },
        {
          "internalType": "bool",
          "name": "approved",
          "type": "bool"
        }
      ],
      "name": "setApprovalForAll",
      "outputs": [],
      "stateMutability": "nonpayable",
      "type": "function"
    },
    {
      "inputs": [
        {
          "internalType": "address",
          "name": "nftCollectionModule",
          "type": "address"
        }
      ],
      "name": "setNFTCollectionModule",
      "outputs": [],
      "stateMutability": "nonpayable",
      "type": "function"
    },
    {
      "inputs": [
        {
          "internalType": "bytes4",
          "name": "interfaceId",
          "type": "bytes4"
        }
      ],
      "name": "supportsInterface",
      "outputs": [
        {
          "internalType": "bool",
          "name": "",
          "type": "bool"
        }
      ],
      "stateMutability": "view",
      "type": "function"
    },
    {
      "inputs": [],
      "name": "symbol",
      "outputs": [
        {
          "internalType": "string",
          "name": "",
          "type": "string"
        }
      ],
      "stateMutability": "view",
      "type": "function"
    },
    {
      "inputs": [
        {
          "internalType": "uint256",
          "name": "index",
          "type": "uint256"
        }
      ],
      "name": "tokenByIndex",
      "outputs": [
        {
          "internalType": "uint256",
          "name": "",
          "type": "uint256"
        }
      ],
      "stateMutability": "view",
      "type": "function"
    },
    {
      "inputs": [
        {
          "internalType": "address",
          "name": "owner",
          "type": "address"
        },
        {
          "internalType": "uint256",
          "name": "index",
          "type": "uint256"
        }
      ],
      "name": "tokenOfOwnerByIndex",
      "outputs": [
        {
          "internalType": "uint256",
          "name": "",
          "type": "uint256"
        }
      ],
      "stateMutability": "view",
      "type": "function"
    },
    {
      "inputs": [
        {
          "internalType": "uint256",
          "name": "tokenId",
          "type": "uint256"
        }
      ],
      "name": "tokenURI",
      "outputs": [
        {
          "internalType": "string",
          "name": "",
          "type": "string"
        }
      ],
      "stateMutability": "view",
      "type": "function"
    },
    {
      "inputs": [],
      "name": "totalSupply",
      "outputs": [
        {
          "internalType": "uint256",
          "name": "",
          "type": "uint256"
        }
      ],
      "stateMutability": "view",
      "type": "function"
    },
    {
      "inputs": [
        {
          "internalType": "address",
          "name": "from",
          "type": "address"
        },
        {
          "internalType": "address",
          "name": "to",
          "type": "address"
        },
        {
          "internalType": "uint256",
          "name": "tokenId",
          "type": "uint256"
        }
      ],
      "name": "transferFrom",
      "outputs": [],
      "stateMutability": "nonpayable",
      "type": "function"
    },
    {
      "inputs": [
        {
          "internalType": "address",
          "name": "newOwner",
          "type": "address"
        }
      ],
      "name": "transferOwnership",
      "outputs": [],
      "stateMutability": "nonpayable",
      "type": "function"
    }
  ],
  "bytecode": "0x60806040523480156200001157600080fd5b506040516200458b3803806200458b8339818101604052810190620000379190620002f7565b6040518060400160405280600781526020017f50726f66696c65000000000000000000000000000000000000000000000000008152506040518060400160405280600781526020017f50524f46494c45000000000000000000000000000000000000000000000000008152508160009080519060200190620000bb929190620001dd565b508060019080519060200190620000d4929190620001dd565b505050620000f7620000eb6200010f60201b60201c565b6200011760201b60201c565b62000108816200011760201b60201c565b506200038e565b600033905090565b6000600a60009054906101000a900473ffffffffffffffffffffffffffffffffffffffff16905081600a60006101000a81548173ffffffffffffffffffffffffffffffffffffffff021916908373ffffffffffffffffffffffffffffffffffffffff1602179055508173ffffffffffffffffffffffffffffffffffffffff168173ffffffffffffffffffffffffffffffffffffffff167f8be0079c531659141344cd1fd0a4f28419497f9722a3daafe3b4186f6b6457e060405160405180910390a35050565b828054620001eb9062000358565b90600052602060002090601f0160209004810192826200020f57600085556200025b565b82601f106200022a57805160ff19168380011785556200025b565b828001600101855582156200025b579182015b828111156200025a5782518255916020019190600101906200023d565b5b5090506200026a91906200026e565b5090565b5b80821115620002895760008160009055506001016200026f565b5090565b600080fd5b600073ffffffffffffffffffffffffffffffffffffffff82169050919050565b6000620002bf8262000292565b9050919050565b620002d181620002b2565b8114620002dd57600080fd5b50565b600081519050620002f181620002c6565b92915050565b60006020828403121562000310576200030f6200028d565b5b60006200032084828501620002e0565b91505092915050565b7f4e487b7100000000000000000000000000000000000000000000000000000000600052602260045260246000fd5b600060028204905060018216806200037157607f821691505b6020821081141562000388576200038762000329565b5b50919050565b6141ed806200039e6000396000f3fe608060405234801561001057600080fd5b50600436106101585760003560e01c80636352211e116100c3578063b88d4fde1161007c578063b88d4fde146103eb578063c87b56dd14610407578063e985e9c514610437578063f08f4f6414610467578063f2fde38b14610497578063f741a35d146104b357610158565b80636352211e1461032957806370a0823114610359578063715018a6146103895780638da5cb5b1461039357806395d89b41146103b1578063a22cb465146103cf57610158565b806323b872dd1161011557806323b872dd146102315780632f745c591461024d57806338385e8c1461027d5780633c9790f1146102ad57806342842e0e146102dd5780634f6ccce7146102f957610158565b806301ffc9a71461015d57806306fdde031461018d578063081812fc146101ab57806308a71390146101db578063095ea7b3146101f757806318160ddd14610213575b600080fd5b61017760048036038101906101729190612621565b6104cf565b6040516101849190612669565b60405180910390f35b610195610549565b6040516101a2919061271d565b60405180910390f35b6101c560048036038101906101c09190612775565b6105db565b6040516101d291906127e3565b60405180910390f35b6101f560048036038101906101f0919061282a565b610621565b005b610211600480360381019061020c9190612857565b61066d565b005b61021b610785565b60405161022891906128a6565b60405180910390f35b61024b600480360381019061024691906128c1565b610792565b005b61026760048036038101906102629190612857565b6107f2565b60405161027491906128a6565b60405180910390f35b61029760048036038101906102929190612914565b610897565b6040516102a49190612ae1565b60405180910390f35b6102c760048036038101906102c29190612b27565b610944565b6040516102d491906128a6565b60405180910390f35b6102f760048036038101906102f291906128c1565b610ad9565b005b610313600480360381019061030e9190612775565b610af9565b60405161032091906128a6565b60405180910390f35b610343600480360381019061033e9190612775565b610b6a565b60405161035091906127e3565b60405180910390f35b610373600480360381019061036e919061282a565b610c1c565b60405161038091906128a6565b60405180910390f35b610391610cd4565b005b61039b610ce8565b6040516103a891906127e3565b60405180910390f35b6103b9610d12565b6040516103c6919061271d565b60405180910390f35b6103e960048036038101906103e49190612b9c565b610da4565b005b61040560048036038101906104009190612d11565b610dba565b005b610421600480360381019061041c9190612775565b610e1c565b60405161042e919061271d565b60405180910390f35b610451600480360381019061044c9190612d94565b610e84565b60405161045e9190612669565b60405180910390f35b610481600480360381019061047c9190612775565b610f18565b60405161048e9190612e3e565b60405180910390f35b6104b160048036038101906104ac919061282a565b6110c9565b005b6104cd60048036038101906104c89190612ec0565b61114d565b005b60007f780e9d63000000000000000000000000000000000000000000000000000000007bffffffffffffffffffffffffffffffffffffffffffffffffffffffff1916827bffffffffffffffffffffffffffffffffffffffffffffffffffffffff191614806105425750610541826111cf565b5b9050919050565b60606000805461055890612f4f565b80601f016020809104026020016040519081016040528092919081815260200182805461058490612f4f565b80156105d15780601f106105a6576101008083540402835291602001916105d1565b820191906000526020600020905b8154815290600101906020018083116105b457829003601f168201915b5050505050905090565b60006105e6826112b1565b6004600083815260200190815260200160002060009054906101000a900473ffffffffffffffffffffffffffffffffffffffff169050919050565b6106296112fc565b80600d60006101000a81548173ffffffffffffffffffffffffffffffffffffffff021916908373ffffffffffffffffffffffffffffffffffffffff16021790555050565b600061067882610b6a565b90508073ffffffffffffffffffffffffffffffffffffffff168373ffffffffffffffffffffffffffffffffffffffff1614156106e9576040517f08c379a00000000000000000000000000000000000000000000000000000000081526004016106e090612ff3565b60405180910390fd5b8073ffffffffffffffffffffffffffffffffffffffff1661070861137a565b73ffffffffffffffffffffffffffffffffffffffff16148061073757506107368161073161137a565b610e84565b5b610776576040517f08c379a000000000000000000000000000000000000000000000000000000000815260040161076d90613085565b60405180910390fd5b6107808383611382565b505050565b6000600880549050905090565b6107a361079d61137a565b8261143b565b6107e2576040517f08c379a00000000000000000000000000000000000000000000000000000000081526004016107d990613117565b60405180910390fd5b6107ed8383836114d0565b505050565b60006107fd83610c1c565b821061083e576040517f08c379a0000000000000000000000000000000000000000000000000000000008152600401610835906131a9565b60405180910390fd5b600660008473ffffffffffffffffffffffffffffffffffffffff1673ffffffffffffffffffffffffffffffffffffffff168152602001908152602001600020600083815260200190815260200160002054905092915050565b6060600d60009054906101000a900473ffffffffffffffffffffffffffffffffffffffff1673ffffffffffffffffffffffffffffffffffffffff16630ff711c384846040518363ffffffff1660e01b81526004016108f69291906131c9565b600060405180830381865afa158015610913573d6000803e3d6000fd5b505050506040513d6000823e3d601f19601f8201168201806040525081019061093c919061343c565b905092915050565b600080600c60008154610956906134b4565b91905081905590506109683382611737565b33600b600083815260200190815260200160002060000160006101000a81548173ffffffffffffffffffffffffffffffffffffffff021916908373ffffffffffffffffffffffffffffffffffffffff1602179055508280600001906109cd919061350c565b600b600084815260200190815260200160002060010191906109f09291906124d4565b50828060200190610a01919061350c565b600b60008481526020019081526020016000206002019190610a249291906124d4565b506000600b600083815260200190815260200160002060030181905550610a5c816001858060400190610a57919061356f565b611911565b3373ffffffffffffffffffffffffffffffffffffffff167fc1422e75502faf8c82e2a97f85271cdfcbe44cd4dfb5f5d334f8d0e0a9a8503e82858060000190610aa5919061350c565b878060200190610ab5919061350c565b43604051610ac8969594939291906135ff565b60405180910390a280915050919050565b610af483838360405180602001604052806000815250610dba565b505050565b6000610b03610785565b8210610b44576040517f08c379a0000000000000000000000000000000000000000000000000000000008152600401610b3b906136c8565b60405180910390fd5b60088281548110610b5857610b576136e8565b5b90600052602060002001549050919050565b6000806002600084815260200190815260200160002060009054906101000a900473ffffffffffffffffffffffffffffffffffffffff169050600073ffffffffffffffffffffffffffffffffffffffff168173ffffffffffffffffffffffffffffffffffffffff161415610c13576040517f08c379a0000000000000000000000000000000000000000000000000000000008152600401610c0a90613763565b60405180910390fd5b80915050919050565b60008073ffffffffffffffffffffffffffffffffffffffff168273ffffffffffffffffffffffffffffffffffffffff161415610c8d576040517f08c379a0000000000000000000000000000000000000000000000000000000008152600401610c84906137f5565b60405180910390fd5b600360008373ffffffffffffffffffffffffffffffffffffffff1673ffffffffffffffffffffffffffffffffffffffff168152602001908152602001600020549050919050565b610cdc6112fc565b610ce66000611a02565b565b6000600a60009054906101000a900473ffffffffffffffffffffffffffffffffffffffff16905090565b606060018054610d2190612f4f565b80601f0160208091040260200160405190810160405280929190818152602001828054610d4d90612f4f565b8015610d9a5780601f10610d6f57610100808354040283529160200191610d9a565b820191906000526020600020905b815481529060010190602001808311610d7d57829003601f168201915b5050505050905090565b610db6610daf61137a565b8383611ac8565b5050565b610dcb610dc561137a565b8361143b565b610e0a576040517f08c379a0000000000000000000000000000000000000000000000000000000008152600401610e0190613117565b60405180910390fd5b610e1684848484611c35565b50505050565b6060610e27826112b1565b6000610e31611c91565b90506000815111610e515760405180602001604052806000815250610e7c565b80610e5b84611cce565b604051602001610e6c929190613851565b6040516020818303038152906040525b915050919050565b6000600560008473ffffffffffffffffffffffffffffffffffffffff1673ffffffffffffffffffffffffffffffffffffffff16815260200190815260200160002060008373ffffffffffffffffffffffffffffffffffffffff1673ffffffffffffffffffffffffffffffffffffffff16815260200190815260200160002060009054906101000a900460ff16905092915050565b610f2061255a565b600b60008381526020019081526020016000206040518060800160405290816000820160009054906101000a900473ffffffffffffffffffffffffffffffffffffffff1673ffffffffffffffffffffffffffffffffffffffff1673ffffffffffffffffffffffffffffffffffffffff168152602001600182018054610fa490612f4f565b80601f0160208091040260200160405190810160405280929190818152602001828054610fd090612f4f565b801561101d5780601f10610ff25761010080835404028352916020019161101d565b820191906000526020600020905b81548152906001019060200180831161100057829003601f168201915b5050505050815260200160028201805461103690612f4f565b80601f016020809104026020016040519081016040528092919081815260200182805461106290612f4f565b80156110af5780601f10611084576101008083540402835291602001916110af565b820191906000526020600020905b81548152906001019060200180831161109257829003601f168201915b505050505081526020016003820154815250509050919050565b6110d16112fc565b600073ffffffffffffffffffffffffffffffffffffffff168173ffffffffffffffffffffffffffffffffffffffff161415611141576040517f08c379a0000000000000000000000000000000000000000000000000000000008152600401611138906138e7565b60405180910390fd5b61114a81611a02565b50565b611157338461143b565b611196576040517f08c379a000000000000000000000000000000000000000000000000000000000815260040161118d90613979565b60405180910390fd5b6111ca83600b6000868152602001908152602001600020600301600081546111bd906134b4565b9190508190558484611911565b505050565b60007f80ac58cd000000000000000000000000000000000000000000000000000000007bffffffffffffffffffffffffffffffffffffffffffffffffffffffff1916827bffffffffffffffffffffffffffffffffffffffffffffffffffffffff1916148061129a57507f5b5e139f000000000000000000000000000000000000000000000000000000007bffffffffffffffffffffffffffffffffffffffffffffffffffffffff1916827bffffffffffffffffffffffffffffffffffffffffffffffffffffffff1916145b806112aa57506112a982611e2f565b5b9050919050565b6112ba81611e99565b6112f9576040517f08c379a00000000000000000000000000000000000000000000000000000000081526004016112f090613763565b60405180910390fd5b50565b61130461137a565b73ffffffffffffffffffffffffffffffffffffffff16611322610ce8565b73ffffffffffffffffffffffffffffffffffffffff1614611378576040517f08c379a000000000000000000000000000000000000000000000000000000000815260040161136f906139e5565b60405180910390fd5b565b600033905090565b816004600083815260200190815260200160002060006101000a81548173ffffffffffffffffffffffffffffffffffffffff021916908373ffffffffffffffffffffffffffffffffffffffff160217905550808273ffffffffffffffffffffffffffffffffffffffff166113f583610b6a565b73ffffffffffffffffffffffffffffffffffffffff167f8c5be1e5ebec7d5bd14f71427d1e84f3dd0314c0f7b2291e5b200ac8c7c3b92560405160405180910390a45050565b60008061144783610b6a565b90508073ffffffffffffffffffffffffffffffffffffffff168473ffffffffffffffffffffffffffffffffffffffff16148061148957506114888185610e84565b5b806114c757508373ffffffffffffffffffffffffffffffffffffffff166114af846105db565b73ffffffffffffffffffffffffffffffffffffffff16145b91505092915050565b8273ffffffffffffffffffffffffffffffffffffffff166114f082610b6a565b73ffffffffffffffffffffffffffffffffffffffff1614611546576040517f08c379a000000000000000000000000000000000000000000000000000000000815260040161153d90613a77565b60405180910390fd5b600073ffffffffffffffffffffffffffffffffffffffff168273ffffffffffffffffffffffffffffffffffffffff1614156115b6576040517f08c379a00000000000000000000000000000000000000000000000000000000081526004016115ad90613b09565b60405180910390fd5b6115c1838383611f05565b6115cc600082611382565b6001600360008573ffffffffffffffffffffffffffffffffffffffff1673ffffffffffffffffffffffffffffffffffffffff168152602001908152602001600020600082825461161c9190613b29565b925050819055506001600360008473ffffffffffffffffffffffffffffffffffffffff1673ffffffffffffffffffffffffffffffffffffffff16815260200190815260200160002060008282546116739190613b5d565b92505081905550816002600083815260200190815260200160002060006101000a81548173ffffffffffffffffffffffffffffffffffffffff021916908373ffffffffffffffffffffffffffffffffffffffff160217905550808273ffffffffffffffffffffffffffffffffffffffff168473ffffffffffffffffffffffffffffffffffffffff167fddf252ad1be2c89b69c2b068fc378daa952ba7f163c4a11628f55a4df523b3ef60405160405180910390a4611732838383612019565b505050565b600073ffffffffffffffffffffffffffffffffffffffff168273ffffffffffffffffffffffffffffffffffffffff1614156117a7576040517f08c379a000000000000000000000000000000000000000000000000000000000815260040161179e90613bff565b60405180910390fd5b6117b081611e99565b156117f0576040517f08c379a00000000000000000000000000000000000000000000000000000000081526004016117e790613c6b565b60405180910390fd5b6117fc60008383611f05565b6001600360008473ffffffffffffffffffffffffffffffffffffffff1673ffffffffffffffffffffffffffffffffffffffff168152602001908152602001600020600082825461184c9190613b5d565b92505081905550816002600083815260200190815260200160002060006101000a81548173ffffffffffffffffffffffffffffffffffffffff021916908373ffffffffffffffffffffffffffffffffffffffff160217905550808273ffffffffffffffffffffffffffffffffffffffff16600073ffffffffffffffffffffffffffffffffffffffff167fddf252ad1be2c89b69c2b068fc378daa952ba7f163c4a11628f55a4df523b3ef60405160405180910390a461190d60008383612019565b5050565b600d60009054906101000a900473ffffffffffffffffffffffffffffffffffffffff1673ffffffffffffffffffffffffffffffffffffffff1663f90fc1e4858585856040518563ffffffff1660e01b81526004016119729493929190613ea4565b600060405180830381600087803b15801561198c57600080fd5b505af11580156119a0573d6000803e3d6000fd5b5050505082600b60008681526020019081526020016000206003018190555082847f5aabdb2e4c234e4280c85a863405e890aae9c88e9a2dff482f22b58a3aed51118484436040516119f493929190613ee4565b60405180910390a350505050565b6000600a60009054906101000a900473ffffffffffffffffffffffffffffffffffffffff16905081600a60006101000a81548173ffffffffffffffffffffffffffffffffffffffff021916908373ffffffffffffffffffffffffffffffffffffffff1602179055508173ffffffffffffffffffffffffffffffffffffffff168173ffffffffffffffffffffffffffffffffffffffff167f8be0079c531659141344cd1fd0a4f28419497f9722a3daafe3b4186f6b6457e060405160405180910390a35050565b8173ffffffffffffffffffffffffffffffffffffffff168373ffffffffffffffffffffffffffffffffffffffff161415611b37576040517f08c379a0000000000000000000000000000000000000000000000000000000008152600401611b2e90613f62565b60405180910390fd5b80600560008573ffffffffffffffffffffffffffffffffffffffff1673ffffffffffffffffffffffffffffffffffffffff16815260200190815260200160002060008473ffffffffffffffffffffffffffffffffffffffff1673ffffffffffffffffffffffffffffffffffffffff16815260200190815260200160002060006101000a81548160ff0219169083151502179055508173ffffffffffffffffffffffffffffffffffffffff168373ffffffffffffffffffffffffffffffffffffffff167f17307eab39ab6107e8899845ad3d59bd9653f200f220920489ca2b5937696c3183604051611c289190612669565b60405180910390a3505050565b611c408484846114d0565b611c4c8484848461201e565b611c8b576040517f08c379a0000000000000000000000000000000000000000000000000000000008152600401611c8290613ff4565b60405180910390fd5b50505050565b60606040518060400160405280601381526020017f687474703a2f2f6578616d706c652e636f6d2f00000000000000000000000000815250905090565b60606000821415611d16576040518060400160405280600181526020017f30000000000000000000000000000000000000000000000000000000000000008152509050611e2a565b600082905060005b60008214611d48578080611d31906134b4565b915050600a82611d419190614043565b9150611d1e565b60008167ffffffffffffffff811115611d6457611d63612be6565b5b6040519080825280601f01601f191660200182016040528015611d965781602001600182028036833780820191505090505b5090505b60008514611e2357600182611daf9190613b29565b9150600a85611dbe9190614074565b6030611dca9190613b5d565b60f81b818381518110611de057611ddf6136e8565b5b60200101907effffffffffffffffffffffffffffffffffffffffffffffffffffffffffffff1916908160001a905350600a85611e1c9190614043565b9450611d9a565b8093505050505b919050565b60007f01ffc9a7000000000000000000000000000000000000000000000000000000007bffffffffffffffffffffffffffffffffffffffffffffffffffffffff1916827bffffffffffffffffffffffffffffffffffffffffffffffffffffffff1916149050919050565b60008073ffffffffffffffffffffffffffffffffffffffff166002600084815260200190815260200160002060009054906101000a900473ffffffffffffffffffffffffffffffffffffffff1673ffffffffffffffffffffffffffffffffffffffff1614159050919050565b611f108383836121a6565b600073ffffffffffffffffffffffffffffffffffffffff168373ffffffffffffffffffffffffffffffffffffffff161415611f5357611f4e816121ab565b611f92565b8173ffffffffffffffffffffffffffffffffffffffff168373ffffffffffffffffffffffffffffffffffffffff1614611f9157611f9083826121f4565b5b5b600073ffffffffffffffffffffffffffffffffffffffff168273ffffffffffffffffffffffffffffffffffffffff161415611fd557611fd081612361565b612014565b8273ffffffffffffffffffffffffffffffffffffffff168273ffffffffffffffffffffffffffffffffffffffff1614612013576120128282612432565b5b5b505050565b505050565b600061203f8473ffffffffffffffffffffffffffffffffffffffff166124b1565b15612199578373ffffffffffffffffffffffffffffffffffffffff1663150b7a0261206861137a565b8786866040518563ffffffff1660e01b815260040161208a94939291906140fa565b6020604051808303816000875af19250505080156120c657506040513d601f19601f820116820180604052508101906120c3919061415b565b60015b612149573d80600081146120f6576040519150601f19603f3d011682016040523d82523d6000602084013e6120fb565b606091505b50600081511415612141576040517f08c379a000000000000000000000000000000000000000000000000000000000815260040161213890613ff4565b60405180910390fd5b805181602001fd5b63150b7a0260e01b7bffffffffffffffffffffffffffffffffffffffffffffffffffffffff1916817bffffffffffffffffffffffffffffffffffffffffffffffffffffffff19161491505061219e565b600190505b949350505050565b505050565b6008805490506009600083815260200190815260200160002081905550600881908060018154018082558091505060019003906000526020600020016000909190919091505550565b6000600161220184610c1c565b61220b9190613b29565b90506000600760008481526020019081526020016000205490508181146122f0576000600660008673ffffffffffffffffffffffffffffffffffffffff1673ffffffffffffffffffffffffffffffffffffffff168152602001908152602001600020600084815260200190815260200160002054905080600660008773ffffffffffffffffffffffffffffffffffffffff1673ffffffffffffffffffffffffffffffffffffffff168152602001908152602001600020600084815260200190815260200160002081905550816007600083815260200190815260200160002081905550505b6007600084815260200190815260200160002060009055600660008573ffffffffffffffffffffffffffffffffffffffff1673ffffffffffffffffffffffffffffffffffffffff16815260200190815260200160002060008381526020019081526020016000206000905550505050565b600060016008805490506123759190613b29565b90506000600960008481526020019081526020016000205490506000600883815481106123a5576123a46136e8565b5b9060005260206000200154905080600883815481106123c7576123c66136e8565b5b90600052602060002001819055508160096000838152602001908152602001600020819055506009600085815260200190815260200160002060009055600880548061241657612415614188565b5b6001900381819060005260206000200160009055905550505050565b600061243d83610c1c565b905081600660008573ffffffffffffffffffffffffffffffffffffffff1673ffffffffffffffffffffffffffffffffffffffff168152602001908152602001600020600083815260200190815260200160002081905550806007600084815260200190815260200160002081905550505050565b6000808273ffffffffffffffffffffffffffffffffffffffff163b119050919050565b8280546124e090612f4f565b90600052602060002090601f0160209004810192826125025760008555612549565b82601f1061251b57803560ff1916838001178555612549565b82800160010185558215612549579182015b8281111561254857823582559160200191906001019061252d565b5b5090506125569190612598565b5090565b6040518060800160405280600073ffffffffffffffffffffffffffffffffffffffff1681526020016060815260200160608152602001600081525090565b5b808211156125b1576000816000905550600101612599565b5090565b6000604051905090565b600080fd5b600080fd5b60007fffffffff0000000000000000000000000000000000000000000000000000000082169050919050565b6125fe816125c9565b811461260957600080fd5b50565b60008135905061261b816125f5565b92915050565b600060208284031215612637576126366125bf565b5b60006126458482850161260c565b91505092915050565b60008115159050919050565b6126638161264e565b82525050565b600060208201905061267e600083018461265a565b92915050565b600081519050919050565b600082825260208201905092915050565b60005b838110156126be5780820151818401526020810190506126a3565b838111156126cd576000848401525b50505050565b6000601f19601f8301169050919050565b60006126ef82612684565b6126f9818561268f565b93506127098185602086016126a0565b612712816126d3565b840191505092915050565b6000602082019050818103600083015261273781846126e4565b905092915050565b6000819050919050565b6127528161273f565b811461275d57600080fd5b50565b60008135905061276f81612749565b92915050565b60006020828403121561278b5761278a6125bf565b5b600061279984828501612760565b91505092915050565b600073ffffffffffffffffffffffffffffffffffffffff82169050919050565b60006127cd826127a2565b9050919050565b6127dd816127c2565b82525050565b60006020820190506127f860008301846127d4565b92915050565b612807816127c2565b811461281257600080fd5b50565b600081359050612824816127fe565b92915050565b6000602082840312156128405761283f6125bf565b5b600061284e84828501612815565b91505092915050565b6000806040838503121561286e5761286d6125bf565b5b600061287c85828601612815565b925050602061288d85828601612760565b9150509250929050565b6128a08161273f565b82525050565b60006020820190506128bb6000830184612897565b92915050565b6000806000606084860312156128da576128d96125bf565b5b60006128e886828701612815565b93505060206128f986828701612815565b925050604061290a86828701612760565b9150509250925092565b6000806040838503121561292b5761292a6125bf565b5b600061293985828601612760565b925050602061294a85828601612760565b9150509250929050565b600081519050919050565b600082825260208201905092915050565b6000819050602082019050919050565b6129898161273f565b82525050565b612998816127c2565b82525050565b600082825260208201905092915050565b60006129ba82612684565b6129c4818561299e565b93506129d48185602086016126a0565b6129dd816126d3565b840191505092915050565b6000608083016000830151612a006000860182612980565b506020830151612a13602086018261298f565b506040830151612a266040860182612980565b5060608301518482036060860152612a3e82826129af565b9150508091505092915050565b6000612a5783836129e8565b905092915050565b6000602082019050919050565b6000612a7782612954565b612a81818561295f565b935083602082028501612a9385612970565b8060005b85811015612acf5784840389528151612ab08582612a4b565b9450612abb83612a5f565b925060208a01995050600181019050612a97565b50829750879550505050505092915050565b60006020820190508181036000830152612afb8184612a6c565b905092915050565b600080fd5b600060608284031215612b1e57612b1d612b03565b5b81905092915050565b600060208284031215612b3d57612b3c6125bf565b5b600082013567ffffffffffffffff811115612b5b57612b5a6125c4565b5b612b6784828501612b08565b91505092915050565b612b798161264e565b8114612b8457600080fd5b50565b600081359050612b9681612b70565b92915050565b60008060408385031215612bb357612bb26125bf565b5b6000612bc185828601612815565b9250506020612bd285828601612b87565b9150509250929050565b600080fd5b600080fd5b7f4e487b7100000000000000000000000000000000000000000000000000000000600052604160045260246000fd5b612c1e826126d3565b810181811067ffffffffffffffff82111715612c3d57612c3c612be6565b5b80604052505050565b6000612c506125b5565b9050612c5c8282612c15565b919050565b600067ffffffffffffffff821115612c7c57612c7b612be6565b5b612c85826126d3565b9050602081019050919050565b82818337600083830152505050565b6000612cb4612caf84612c61565b612c46565b905082815260208101848484011115612cd057612ccf612be1565b5b612cdb848285612c92565b509392505050565b600082601f830112612cf857612cf7612bdc565b5b8135612d08848260208601612ca1565b91505092915050565b60008060008060808587031215612d2b57612d2a6125bf565b5b6000612d3987828801612815565b9450506020612d4a87828801612815565b9350506040612d5b87828801612760565b925050606085013567ffffffffffffffff811115612d7c57612d7b6125c4565b5b612d8887828801612ce3565b91505092959194509250565b60008060408385031215612dab57612daa6125bf565b5b6000612db985828601612815565b9250506020612dca85828601612815565b9150509250929050565b6000608083016000830151612dec600086018261298f565b5060208301518482036020860152612e0482826129af565b91505060408301518482036040860152612e1e82826129af565b9150506060830151612e336060860182612980565b508091505092915050565b60006020820190508181036000830152612e588184612dd4565b905092915050565b600080fd5b600080fd5b60008083601f840112612e8057612e7f612bdc565b5b8235905067ffffffffffffffff811115612e9d57612e9c612e60565b5b602083019150836020820283011115612eb957612eb8612e65565b5b9250929050565b600080600060408486031215612ed957612ed86125bf565b5b6000612ee786828701612760565b935050602084013567ffffffffffffffff811115612f0857612f076125c4565b5b612f1486828701612e6a565b92509250509250925092565b7f4e487b7100000000000000000000000000000000000000000000000000000000600052602260045260246000fd5b60006002820490506001821680612f6757607f821691505b60208210811415612f7b57612f7a612f20565b5b50919050565b7f4552433732313a20617070726f76616c20746f2063757272656e74206f776e6560008201527f7200000000000000000000000000000000000000000000000000000000000000602082015250565b6000612fdd60218361268f565b9150612fe882612f81565b604082019050919050565b6000602082019050818103600083015261300c81612fd0565b9050919050565b7f4552433732313a20617070726f76652063616c6c6572206973206e6f7420746f60008201527f6b656e206f776e6572206e6f7220617070726f76656420666f7220616c6c0000602082015250565b600061306f603e8361268f565b915061307a82613013565b604082019050919050565b6000602082019050818103600083015261309e81613062565b9050919050565b7f4552433732313a2063616c6c6572206973206e6f7420746f6b656e206f776e6560008201527f72206e6f7220617070726f766564000000000000000000000000000000000000602082015250565b6000613101602e8361268f565b915061310c826130a5565b604082019050919050565b60006020820190508181036000830152613130816130f4565b9050919050565b7f455243373231456e756d657261626c653a206f776e657220696e646578206f7560008201527f74206f6620626f756e6473000000000000000000000000000000000000000000602082015250565b6000613193602b8361268f565b915061319e82613137565b604082019050919050565b600060208201905081810360008301526131c281613186565b9050919050565b60006040820190506131de6000830185612897565b6131eb6020830184612897565b9392505050565b600067ffffffffffffffff82111561320d5761320c612be6565b5b602082029050602081019050919050565b600080fd5b600080fd5b60008151905061323781612749565b92915050565b60008151905061324c816127fe565b92915050565b600067ffffffffffffffff82111561326d5761326c612be6565b5b613276826126d3565b9050602081019050919050565b600061329661329184613252565b612c46565b9050828152602081018484840111156132b2576132b1612be1565b5b6132bd8482856126a0565b509392505050565b600082601f8301126132da576132d9612bdc565b5b81516132ea848260208601613283565b91505092915050565b6000608082840312156133095761330861321e565b5b6133136080612c46565b9050600061332384828501613228565b60008301525060206133378482850161323d565b602083015250604061334b84828501613228565b604083015250606082015167ffffffffffffffff81111561336f5761336e613223565b5b61337b848285016132c5565b60608301525092915050565b600061339a613395846131f2565b612c46565b905080838252602082019050602084028301858111156133bd576133bc612e65565b5b835b8181101561340457805167ffffffffffffffff8111156133e2576133e1612bdc565b5b8086016133ef89826132f3565b855260208501945050506020810190506133bf565b5050509392505050565b600082601f83011261342357613422612bdc565b5b8151613433848260208601613387565b91505092915050565b600060208284031215613452576134516125bf565b5b600082015167ffffffffffffffff8111156134705761346f6125c4565b5b61347c8482850161340e565b91505092915050565b7f4e487b7100000000000000000000000000000000000000000000000000000000600052601160045260246000fd5b60006134bf8261273f565b91507fffffffffffffffffffffffffffffffffffffffffffffffffffffffffffffffff8214156134f2576134f1613485565b5b600182019050919050565b600080fd5b600080fd5b600080fd5b60008083356001602003843603038112613529576135286134fd565b5b80840192508235915067ffffffffffffffff82111561354b5761354a613502565b5b60208301925060018202360383131561356757613566613507565b5b509250929050565b6000808335600160200384360303811261358c5761358b6134fd565b5b80840192508235915067ffffffffffffffff8211156135ae576135ad613502565b5b6020830192506020820236038313156135ca576135c9613507565b5b509250929050565b60006135de838561268f565b93506135eb838584612c92565b6135f4836126d3565b840190509392505050565b60006080820190506136146000830189612897565b81810360208301526136278187896135d2565b9050818103604083015261363c8185876135d2565b905061364b6060830184612897565b979650505050505050565b7f455243373231456e756d657261626c653a20676c6f62616c20696e646578206f60008201527f7574206f6620626f756e64730000000000000000000000000000000000000000602082015250565b60006136b2602c8361268f565b91506136bd82613656565b604082019050919050565b600060208201905081810360008301526136e1816136a5565b9050919050565b7f4e487b7100000000000000000000000000000000000000000000000000000000600052603260045260246000fd5b7f4552433732313a20696e76616c696420746f6b656e2049440000000000000000600082015250565b600061374d60188361268f565b915061375882613717565b602082019050919050565b6000602082019050818103600083015261377c81613740565b9050919050565b7f4552433732313a2061646472657373207a65726f206973206e6f74206120766160008201527f6c6964206f776e65720000000000000000000000000000000000000000000000602082015250565b60006137df60298361268f565b91506137ea82613783565b604082019050919050565b6000602082019050818103600083015261380e816137d2565b9050919050565b600081905092915050565b600061382b82612684565b6138358185613815565b93506138458185602086016126a0565b80840191505092915050565b600061385d8285613820565b91506138698284613820565b91508190509392505050565b7f4f776e61626c653a206e6577206f776e657220697320746865207a65726f206160008201527f6464726573730000000000000000000000000000000000000000000000000000602082015250565b60006138d160268361268f565b91506138dc82613875565b604082019050919050565b60006020820190508181036000830152613900816138c4565b9050919050565b7f50726f66696c653a2063616c6c6572206973206e6f74206f776e6572206f722060008201527f617070726f766564000000000000000000000000000000000000000000000000602082015250565b600061396360288361268f565b915061396e82613907565b604082019050919050565b6000602082019050818103600083015261399281613956565b9050919050565b7f4f776e61626c653a2063616c6c6572206973206e6f7420746865206f776e6572600082015250565b60006139cf60208361268f565b91506139da82613999565b602082019050919050565b600060208201905081810360008301526139fe816139c2565b9050919050565b7f4552433732313a207472616e736665722066726f6d20696e636f72726563742060008201527f6f776e6572000000000000000000000000000000000000000000000000000000602082015250565b6000613a6160258361268f565b9150613a6c82613a05565b604082019050919050565b60006020820190508181036000830152613a9081613a54565b9050919050565b7f4552433732313a207472616e7366657220746f20746865207a65726f2061646460008201527f7265737300000000000000000000000000000000000000000000000000000000602082015250565b6000613af360248361268f565b9150613afe82613a97565b604082019050919050565b60006020820190508181036000830152613b2281613ae6565b9050919050565b6000613b348261273f565b9150613b3f8361273f565b925082821015613b5257613b51613485565b5b828203905092915050565b6000613b688261273f565b9150613b738361273f565b9250827fffffffffffffffffffffffffffffffffffffffffffffffffffffffffffffffff03821115613ba857613ba7613485565b5b828201905092915050565b7f4552433732313a206d696e7420746f20746865207a65726f2061646472657373600082015250565b6000613be960208361268f565b9150613bf482613bb3565b602082019050919050565b60006020820190508181036000830152613c1881613bdc565b9050919050565b7f4552433732313a20746f6b656e20616c7265616479206d696e74656400000000600082015250565b6000613c55601c8361268f565b9150613c6082613c1f565b602082019050919050565b60006020820190508181036000830152613c8481613c48565b9050919050565b6000819050919050565b6000613ca46020840184612760565b905092915050565b6000613cbb6020840184612815565b905092915050565b600080fd5b600080fd5b600080fd5b60008083356001602003843603038112613cef57613cee613ccd565b5b83810192508235915060208301925067ffffffffffffffff821115613d1757613d16613cc3565b5b600182023603841315613d2d57613d2c613cc8565b5b509250929050565b6000613d41838561299e565b9350613d4e838584612c92565b613d57836126d3565b840190509392505050565b600060808301613d756000840184613c95565b613d826000860182612980565b50613d906020840184613cac565b613d9d602086018261298f565b50613dab6040840184613c95565b613db86040860182612980565b50613dc66060840184613cd2565b8583036060870152613dd9838284613d35565b925050508091505092915050565b6000613df38383613d62565b905092915050565b600082356001608003833603038112613e1757613e16613ccd565b5b82810191505092915050565b6000602082019050919050565b6000613e3c838561295f565b935083602084028501613e4e84613c8b565b8060005b87811015613e92578484038952613e698284613dfb565b613e738582613de7565b9450613e7e83613e23565b925060208a01995050600181019050613e52565b50829750879450505050509392505050565b6000606082019050613eb96000830187612897565b613ec66020830186612897565b8181036040830152613ed9818486613e30565b905095945050505050565b60006040820190508181036000830152613eff818587613e30565b9050613f0e6020830184612897565b949350505050565b7f4552433732313a20617070726f766520746f2063616c6c657200000000000000600082015250565b6000613f4c60198361268f565b9150613f5782613f16565b602082019050919050565b60006020820190508181036000830152613f7b81613f3f565b9050919050565b7f4552433732313a207472616e7366657220746f206e6f6e20455243373231526560008201527f63656976657220696d706c656d656e7465720000000000000000000000000000602082015250565b6000613fde60328361268f565b9150613fe982613f82565b604082019050919050565b6000602082019050818103600083015261400d81613fd1565b9050919050565b7f4e487b7100000000000000000000000000000000000000000000000000000000600052601260045260246000fd5b600061404e8261273f565b91506140598361273f565b92508261406957614068614014565b5b828204905092915050565b600061407f8261273f565b915061408a8361273f565b92508261409a57614099614014565b5b828206905092915050565b600081519050919050565b600082825260208201905092915050565b60006140cc826140a5565b6140d681856140b0565b93506140e68185602086016126a0565b6140ef816126d3565b840191505092915050565b600060808201905061410f60008301876127d4565b61411c60208301866127d4565b6141296040830185612897565b818103606083015261413b81846140c1565b905095945050505050565b600081519050614155816125f5565b92915050565b600060208284031215614171576141706125bf565b5b600061417f84828501614146565b91505092915050565b7f4e487b7100000000000000000000000000000000000000000000000000000000600052603160045260246000fdfea264697066735822122022f11d79f69164d44f284c41c21a054c36063172f4f80c2ba3d32386c184a09664736f6c634300080a0033",
  "linkReferences": {},
  "deployedLinkReferences": {}
}