{
  "_format": "hh-sol-artifact-1",
  "contractName": "Profile",
  "sourceName": "contracts/core/Profile.sol",
  "abi": [
    {
      "inputs": [
        {
          "internalType": "address",
          "name": "owner",
          "type": "address"
        }
      ],
      "stateMutability": "nonpayable",
      "type": "constructor"
    },
    {
      "anonymous": false,
      "inputs": [
        {
          "indexed": true,
          "internalType": "address",
          "name": "owner",
          "type": "address"
        },
        {
          "indexed": true,
          "internalType": "address",
          "name": "approved",
          "type": "address"
        },
        {
          "indexed": true,
          "internalType": "uint256",
          "name": "tokenId",
          "type": "uint256"
        }
      ],
      "name": "Approval",
      "type": "event"
    },
    {
      "anonymous": false,
      "inputs": [
        {
          "indexed": true,
          "internalType": "address",
          "name": "owner",
          "type": "address"
        },
        {
          "indexed": true,
          "internalType": "address",
          "name": "operator",
          "type": "address"
        },
        {
          "indexed": false,
          "internalType": "bool",
          "name": "approved",
          "type": "bool"
        }
      ],
      "name": "ApprovalForAll",
      "type": "event"
    },
    {
      "anonymous": false,
      "inputs": [
        {
          "indexed": true,
          "internalType": "uint256",
          "name": "profileId",
          "type": "uint256"
        },
        {
          "indexed": true,
          "internalType": "uint256",
          "name": "moduleId",
          "type": "uint256"
        },
        {
          "indexed": false,
          "internalType": "uint256",
          "name": "blockNumber",
          "type": "uint256"
        }
      ],
      "name": "MirrorAdded",
      "type": "event"
    },
    {
      "anonymous": false,
      "inputs": [
        {
          "indexed": true,
          "internalType": "uint256",
          "name": "profileId",
          "type": "uint256"
        },
        {
          "indexed": true,
          "internalType": "address",
          "name": "module",
          "type": "address"
        },
        {
          "indexed": false,
          "internalType": "uint256",
          "name": "blockNumber",
          "type": "uint256"
        }
      ],
      "name": "NFTCollectionCreated",
      "type": "event"
    },
    {
      "anonymous": false,
      "inputs": [
        {
          "indexed": true,
          "internalType": "address",
          "name": "previousOwner",
          "type": "address"
        },
        {
          "indexed": true,
          "internalType": "address",
          "name": "newOwner",
          "type": "address"
        }
      ],
      "name": "OwnershipTransferred",
      "type": "event"
    },
    {
      "anonymous": false,
      "inputs": [
        {
          "indexed": true,
          "internalType": "uint256",
          "name": "profileId",
          "type": "uint256"
        },
        {
          "indexed": true,
          "internalType": "address",
          "name": "owner",
          "type": "address"
        },
        {
          "indexed": false,
          "internalType": "uint256",
          "name": "blockNumber",
          "type": "uint256"
        }
      ],
      "name": "ProfileCreated",
      "type": "event"
    },
    {
      "anonymous": false,
      "inputs": [
        {
          "indexed": true,
          "internalType": "uint256",
          "name": "profileId",
          "type": "uint256"
        },
        {
          "indexed": false,
          "internalType": "uint256",
          "name": "blockNumber",
          "type": "uint256"
        }
      ],
      "name": "SNSAccountCreated",
      "type": "event"
    },
    {
      "anonymous": false,
      "inputs": [
        {
          "indexed": true,
          "internalType": "uint256",
          "name": "profileId",
          "type": "uint256"
        },
        {
          "indexed": false,
          "internalType": "uint256",
          "name": "blockNumber",
          "type": "uint256"
        }
      ],
      "name": "ScoreCreated",
      "type": "event"
    },
    {
      "anonymous": false,
      "inputs": [
        {
          "indexed": true,
          "internalType": "uint256",
          "name": "profileId",
          "type": "uint256"
        },
        {
          "indexed": true,
          "internalType": "uint256",
          "name": "moduleId",
          "type": "uint256"
        },
        {
          "indexed": false,
          "internalType": "uint256",
          "name": "blockNumber",
          "type": "uint256"
        }
      ],
      "name": "SkillAdded",
      "type": "event"
    },
    {
      "anonymous": false,
      "inputs": [
        {
          "indexed": true,
          "internalType": "address",
          "name": "from",
          "type": "address"
        },
        {
          "indexed": true,
          "internalType": "address",
          "name": "to",
          "type": "address"
        },
        {
          "indexed": true,
          "internalType": "uint256",
          "name": "tokenId",
          "type": "uint256"
        }
      ],
      "name": "Transfer",
      "type": "event"
    },
    {
      "anonymous": false,
      "inputs": [
        {
          "indexed": false,
          "internalType": "uint256",
          "name": "profileId",
          "type": "uint256"
        },
        {
          "indexed": false,
          "internalType": "address",
          "name": "wallet",
          "type": "address"
        }
      ],
      "name": "WalletAdded",
      "type": "event"
    },
    {
      "inputs": [
        {
          "internalType": "uint256",
          "name": "profileId",
          "type": "uint256"
        },
        {
          "internalType": "uint256",
          "name": "extensionId",
          "type": "uint256"
        }
      ],
      "name": "activateFlavor",
      "outputs": [],
      "stateMutability": "nonpayable",
      "type": "function"
    },
    {
      "inputs": [
        {
          "internalType": "uint256",
          "name": "profileId",
          "type": "uint256"
        },
        {
          "components": [
            {
              "internalType": "string",
              "name": "hoge",
              "type": "string"
            }
          ],
          "internalType": "struct IMirrorModule.MirrorStruct",
          "name": "mirror",
          "type": "tuple"
        }
      ],
      "name": "addMirror",
      "outputs": [],
      "stateMutability": "nonpayable",
      "type": "function"
    },
    {
      "inputs": [
        {
          "internalType": "uint256",
          "name": "profileId",
          "type": "uint256"
        },
        {
          "components": [
            {
              "internalType": "string",
              "name": "name",
              "type": "string"
            },
            {
              "internalType": "string",
              "name": "description",
              "type": "string"
            },
            {
              "internalType": "string",
              "name": "link",
              "type": "string"
            }
          ],
          "internalType": "struct ISkillModule.SkillStruct",
          "name": "skill",
          "type": "tuple"
        }
      ],
      "name": "addSkill",
      "outputs": [],
      "stateMutability": "nonpayable",
      "type": "function"
    },
    {
      "inputs": [
        {
          "internalType": "uint256",
          "name": "profileId",
          "type": "uint256"
        },
        {
          "internalType": "address",
          "name": "wallet",
          "type": "address"
        }
      ],
      "name": "addWallet",
      "outputs": [],
      "stateMutability": "nonpayable",
      "type": "function"
    },
    {
      "inputs": [
        {
          "internalType": "address",
          "name": "to",
          "type": "address"
        },
        {
          "internalType": "uint256",
          "name": "tokenId",
          "type": "uint256"
        }
      ],
      "name": "approve",
      "outputs": [],
      "stateMutability": "nonpayable",
      "type": "function"
    },
    {
      "inputs": [
        {
          "internalType": "address",
          "name": "owner",
          "type": "address"
        }
      ],
      "name": "balanceOf",
      "outputs": [
        {
          "internalType": "uint256",
          "name": "",
          "type": "uint256"
        }
      ],
      "stateMutability": "view",
      "type": "function"
    },
    {
      "inputs": [
        {
          "internalType": "uint256",
          "name": "profileId",
          "type": "uint256"
        },
        {
          "components": [
            {
              "internalType": "uint256",
              "name": "chainId",
              "type": "uint256"
            },
            {
              "internalType": "address",
              "name": "contractAddress",
              "type": "address"
            },
            {
              "internalType": "uint256",
              "name": "tokenId",
              "type": "uint256"
            },
            {
              "internalType": "string",
              "name": "tokenURI",
              "type": "string"
            },
            {
              "internalType": "address",
              "name": "owner",
              "type": "address"
            }
          ],
          "internalType": "struct INFTCollectionModule.NFTStruct[]",
          "name": "nfts",
          "type": "tuple[]"
        }
      ],
      "name": "createNFTCollection",
      "outputs": [],
      "stateMutability": "nonpayable",
      "type": "function"
    },
    {
      "inputs": [
        {
          "internalType": "uint256",
          "name": "profileId",
          "type": "uint256"
        },
        {
          "components": [
            {
              "internalType": "uint256",
              "name": "chainId",
              "type": "uint256"
            },
            {
              "internalType": "address",
              "name": "contractAddress",
              "type": "address"
            },
            {
              "internalType": "uint256",
              "name": "tokenId",
              "type": "uint256"
            },
            {
              "internalType": "string",
              "name": "tokenURI",
              "type": "string"
            },
            {
              "internalType": "address",
              "name": "owner",
              "type": "address"
            }
          ],
          "internalType": "struct INFTCollectionModule.NFTStruct[]",
          "name": "poaps",
          "type": "tuple[]"
        }
      ],
      "name": "createPOAPCollection",
      "outputs": [],
      "stateMutability": "nonpayable",
      "type": "function"
    },
    {
      "inputs": [
        {
          "components": [
            {
              "internalType": "string",
              "name": "name",
              "type": "string"
            },
            {
              "internalType": "string",
              "name": "introduction",
              "type": "string"
            },
            {
              "internalType": "string",
              "name": "imageURI",
              "type": "string"
            },
            {
              "components": [
                {
                  "internalType": "uint256",
                  "name": "chainId",
                  "type": "uint256"
                },
                {
                  "internalType": "address",
                  "name": "contractAddress",
                  "type": "address"
                },
                {
                  "internalType": "uint256",
                  "name": "tokenId",
                  "type": "uint256"
                },
                {
                  "internalType": "string",
                  "name": "tokenURI",
                  "type": "string"
                },
                {
                  "internalType": "address",
                  "name": "owner",
                  "type": "address"
                }
              ],
              "internalType": "struct INFTCollectionModule.NFTStruct[]",
              "name": "nfts",
              "type": "tuple[]"
            },
            {
              "components": [
                {
                  "internalType": "uint256",
                  "name": "chainId",
                  "type": "uint256"
                },
                {
                  "internalType": "address",
                  "name": "contractAddress",
                  "type": "address"
                },
                {
                  "internalType": "uint256",
                  "name": "tokenId",
                  "type": "uint256"
                },
                {
                  "internalType": "string",
                  "name": "tokenURI",
                  "type": "string"
                },
                {
                  "internalType": "address",
                  "name": "owner",
                  "type": "address"
                }
              ],
              "internalType": "struct INFTCollectionModule.NFTStruct[]",
              "name": "poaps",
              "type": "tuple[]"
            },
            {
              "components": [
                {
                  "internalType": "string",
                  "name": "service",
                  "type": "string"
                },
                {
                  "internalType": "string",
                  "name": "userId",
                  "type": "string"
                },
                {
                  "internalType": "string",
                  "name": "userPageURL",
                  "type": "string"
                },
                {
                  "internalType": "address",
                  "name": "wallet",
                  "type": "address"
                }
              ],
              "internalType": "struct ISNSAccountModule.SNSAccountStruct[]",
              "name": "snsAccounts",
              "type": "tuple[]"
            }
          ],
          "internalType": "struct IProfile.CreateProfileStructData",
          "name": "vars",
          "type": "tuple"
        }
      ],
      "name": "createProfile",
      "outputs": [
        {
          "internalType": "uint256",
          "name": "",
          "type": "uint256"
        }
      ],
      "stateMutability": "nonpayable",
      "type": "function"
    },
    {
      "inputs": [
        {
          "internalType": "uint256",
          "name": "profileId",
          "type": "uint256"
        },
        {
          "components": [
            {
              "internalType": "string",
              "name": "service",
              "type": "string"
            },
            {
              "internalType": "string",
              "name": "userId",
              "type": "string"
            },
            {
              "internalType": "string",
              "name": "userPageURL",
              "type": "string"
            },
            {
              "internalType": "address",
              "name": "wallet",
              "type": "address"
            }
          ],
          "internalType": "struct ISNSAccountModule.SNSAccountStruct[]",
          "name": "snsAccounts",
          "type": "tuple[]"
        }
      ],
      "name": "createSNSAccount",
      "outputs": [],
      "stateMutability": "nonpayable",
      "type": "function"
    },
    {
      "inputs": [
        {
          "internalType": "uint256",
          "name": "profileId",
          "type": "uint256"
        },
        {
          "internalType": "uint256",
          "name": "extensionId",
          "type": "uint256"
        }
      ],
      "name": "deactivateFlavor",
      "outputs": [],
      "stateMutability": "nonpayable",
      "type": "function"
    },
    {
      "inputs": [
        {
          "internalType": "uint256",
          "name": "tokenId",
          "type": "uint256"
        }
      ],
      "name": "getApproved",
      "outputs": [
        {
          "internalType": "address",
          "name": "",
          "type": "address"
        }
      ],
      "stateMutability": "view",
      "type": "function"
    },
    {
      "inputs": [
        {
          "internalType": "uint256",
          "name": "profileId",
          "type": "uint256"
        }
      ],
      "name": "getFlavor",
      "outputs": [
        {
          "components": [
            {
              "internalType": "enum IFlavorExtension.FlavorType",
              "name": "flavorType",
              "type": "uint8"
            },
            {
              "internalType": "bool",
              "name": "active",
              "type": "bool"
            }
          ],
          "internalType": "struct IFlavorExtension.FlavorStruct[]",
          "name": "",
          "type": "tuple[]"
        }
      ],
      "stateMutability": "view",
      "type": "function"
    },
    {
      "inputs": [
        {
          "internalType": "uint256",
          "name": "profileId",
          "type": "uint256"
        }
      ],
      "name": "getMirror",
      "outputs": [
        {
          "components": [
            {
              "internalType": "string",
              "name": "hoge",
              "type": "string"
            }
          ],
          "internalType": "struct IMirrorModule.MirrorStruct[]",
          "name": "",
          "type": "tuple[]"
        }
      ],
      "stateMutability": "view",
      "type": "function"
    },
    {
      "inputs": [
        {
          "internalType": "uint256",
          "name": "profileId",
          "type": "uint256"
        }
      ],
      "name": "getNFTCollection",
      "outputs": [
        {
          "components": [
            {
              "internalType": "uint256",
              "name": "chainId",
              "type": "uint256"
            },
            {
              "internalType": "address",
              "name": "contractAddress",
              "type": "address"
            },
            {
              "internalType": "uint256",
              "name": "tokenId",
              "type": "uint256"
            },
            {
              "internalType": "string",
              "name": "tokenURI",
              "type": "string"
            },
            {
              "internalType": "address",
              "name": "owner",
              "type": "address"
            }
          ],
          "internalType": "struct INFTCollectionModule.NFTStruct[]",
          "name": "",
          "type": "tuple[]"
        }
      ],
      "stateMutability": "view",
      "type": "function"
    },
    {
      "inputs": [
        {
          "internalType": "uint256",
          "name": "profileId",
          "type": "uint256"
        }
      ],
      "name": "getPOAPCollection",
      "outputs": [
        {
          "components": [
            {
              "internalType": "uint256",
              "name": "chainId",
              "type": "uint256"
            },
            {
              "internalType": "address",
              "name": "contractAddress",
              "type": "address"
            },
            {
              "internalType": "uint256",
              "name": "tokenId",
              "type": "uint256"
            },
            {
              "internalType": "string",
              "name": "tokenURI",
              "type": "string"
            },
            {
              "internalType": "address",
              "name": "owner",
              "type": "address"
            }
          ],
          "internalType": "struct INFTCollectionModule.NFTStruct[]",
          "name": "",
          "type": "tuple[]"
        }
      ],
      "stateMutability": "view",
      "type": "function"
    },
    {
      "inputs": [
        {
          "internalType": "uint256",
          "name": "profileId",
          "type": "uint256"
        }
      ],
      "name": "getProfile",
      "outputs": [
        {
          "components": [
            {
              "internalType": "address[]",
              "name": "wallets",
              "type": "address[]"
            },
            {
              "internalType": "string",
              "name": "name",
              "type": "string"
            },
            {
              "internalType": "string",
              "name": "introduction",
              "type": "string"
            },
            {
              "internalType": "string",
              "name": "imageURI",
              "type": "string"
            },
            {
              "internalType": "uint256",
              "name": "snsAccountsPubId",
              "type": "uint256"
            }
          ],
          "internalType": "struct IProfile.ProfileStruct",
          "name": "",
          "type": "tuple"
        }
      ],
      "stateMutability": "view",
      "type": "function"
    },
    {
      "inputs": [
        {
          "internalType": "address",
          "name": "wallet",
          "type": "address"
        }
      ],
      "name": "getProfileId",
      "outputs": [
        {
          "internalType": "uint256",
          "name": "",
          "type": "uint256"
        }
      ],
      "stateMutability": "view",
      "type": "function"
    },
    {
      "inputs": [
        {
          "internalType": "uint256",
          "name": "profileId",
          "type": "uint256"
        }
      ],
      "name": "getSNSAccounts",
      "outputs": [
        {
          "components": [
            {
              "internalType": "string",
              "name": "service",
              "type": "string"
            },
            {
              "internalType": "string",
              "name": "userId",
              "type": "string"
            },
            {
              "internalType": "string",
              "name": "userPageURL",
              "type": "string"
            },
            {
              "internalType": "address",
              "name": "wallet",
              "type": "address"
            }
          ],
          "internalType": "struct ISNSAccountModule.SNSAccountStruct[]",
          "name": "",
          "type": "tuple[]"
        }
      ],
      "stateMutability": "view",
      "type": "function"
    },
    {
      "inputs": [
        {
          "internalType": "uint256",
          "name": "profileId",
          "type": "uint256"
        }
      ],
      "name": "getScore",
      "outputs": [
        {
          "components": [
            {
              "internalType": "enum IScoreModule.ScoreType",
              "name": "scoreType",
              "type": "uint8"
            },
            {
              "internalType": "uint256",
              "name": "point",
              "type": "uint256"
            }
          ],
          "internalType": "struct IScoreModule.ScoreStruct[]",
          "name": "",
          "type": "tuple[]"
        }
      ],
      "stateMutability": "view",
      "type": "function"
    },
    {
      "inputs": [
        {
          "internalType": "uint256",
          "name": "profileId",
          "type": "uint256"
        }
      ],
      "name": "getSkill",
      "outputs": [
        {
          "components": [
            {
              "internalType": "string",
              "name": "name",
              "type": "string"
            },
            {
              "internalType": "string",
              "name": "description",
              "type": "string"
            },
            {
              "internalType": "string",
              "name": "link",
              "type": "string"
            }
          ],
          "internalType": "struct ISkillModule.SkillStruct[]",
          "name": "",
          "type": "tuple[]"
        }
      ],
      "stateMutability": "view",
      "type": "function"
    },
    {
      "inputs": [
        {
          "internalType": "address",
          "name": "owner",
          "type": "address"
        },
        {
          "internalType": "address",
          "name": "operator",
          "type": "address"
        }
      ],
      "name": "isApprovedForAll",
      "outputs": [
        {
          "internalType": "bool",
          "name": "",
          "type": "bool"
        }
      ],
      "stateMutability": "view",
      "type": "function"
    },
    {
      "inputs": [],
      "name": "name",
      "outputs": [
        {
          "internalType": "string",
          "name": "",
          "type": "string"
        }
      ],
      "stateMutability": "view",
      "type": "function"
    },
    {
      "inputs": [],
      "name": "owner",
      "outputs": [
        {
          "internalType": "address",
          "name": "",
          "type": "address"
        }
      ],
      "stateMutability": "view",
      "type": "function"
    },
    {
      "inputs": [
        {
          "internalType": "uint256",
          "name": "tokenId",
          "type": "uint256"
        }
      ],
      "name": "ownerOf",
      "outputs": [
        {
          "internalType": "address",
          "name": "",
          "type": "address"
        }
      ],
      "stateMutability": "view",
      "type": "function"
    },
    {
      "inputs": [],
      "name": "renounceOwnership",
      "outputs": [],
      "stateMutability": "nonpayable",
      "type": "function"
    },
    {
      "inputs": [
        {
          "internalType": "address",
          "name": "from",
          "type": "address"
        },
        {
          "internalType": "address",
          "name": "to",
          "type": "address"
        },
        {
          "internalType": "uint256",
          "name": "tokenId",
          "type": "uint256"
        }
      ],
      "name": "safeTransferFrom",
      "outputs": [],
      "stateMutability": "nonpayable",
      "type": "function"
    },
    {
      "inputs": [
        {
          "internalType": "address",
          "name": "from",
          "type": "address"
        },
        {
          "internalType": "address",
          "name": "to",
          "type": "address"
        },
        {
          "internalType": "uint256",
          "name": "tokenId",
          "type": "uint256"
        },
        {
          "internalType": "bytes",
          "name": "data",
          "type": "bytes"
        }
      ],
      "name": "safeTransferFrom",
      "outputs": [],
      "stateMutability": "nonpayable",
      "type": "function"
    },
    {
      "inputs": [
        {
          "internalType": "address",
          "name": "operator",
          "type": "address"
        },
        {
          "internalType": "bool",
          "name": "approved",
          "type": "bool"
        }
      ],
      "name": "setApprovalForAll",
      "outputs": [],
      "stateMutability": "nonpayable",
      "type": "function"
    },
    {
      "inputs": [
        {
          "internalType": "address",
          "name": "globals",
          "type": "address"
        }
      ],
      "name": "setGlobals",
      "outputs": [],
      "stateMutability": "nonpayable",
      "type": "function"
    },
    {
      "inputs": [
        {
          "internalType": "bytes4",
          "name": "interfaceId",
          "type": "bytes4"
        }
      ],
      "name": "supportsInterface",
      "outputs": [
        {
          "internalType": "bool",
          "name": "",
          "type": "bool"
        }
      ],
      "stateMutability": "view",
      "type": "function"
    },
    {
      "inputs": [],
      "name": "symbol",
      "outputs": [
        {
          "internalType": "string",
          "name": "",
          "type": "string"
        }
      ],
      "stateMutability": "view",
      "type": "function"
    },
    {
      "inputs": [
        {
          "internalType": "uint256",
          "name": "index",
          "type": "uint256"
        }
      ],
      "name": "tokenByIndex",
      "outputs": [
        {
          "internalType": "uint256",
          "name": "",
          "type": "uint256"
        }
      ],
      "stateMutability": "view",
      "type": "function"
    },
    {
      "inputs": [
        {
          "internalType": "address",
          "name": "owner",
          "type": "address"
        },
        {
          "internalType": "uint256",
          "name": "index",
          "type": "uint256"
        }
      ],
      "name": "tokenOfOwnerByIndex",
      "outputs": [
        {
          "internalType": "uint256",
          "name": "",
          "type": "uint256"
        }
      ],
      "stateMutability": "view",
      "type": "function"
    },
    {
      "inputs": [
        {
          "internalType": "uint256",
          "name": "tokenId",
          "type": "uint256"
        }
      ],
      "name": "tokenURI",
      "outputs": [
        {
          "internalType": "string",
          "name": "",
          "type": "string"
        }
      ],
      "stateMutability": "view",
      "type": "function"
    },
    {
      "inputs": [],
      "name": "totalSupply",
      "outputs": [
        {
          "internalType": "uint256",
          "name": "",
          "type": "uint256"
        }
      ],
      "stateMutability": "view",
      "type": "function"
    },
    {
      "inputs": [
        {
          "internalType": "address",
          "name": "from",
          "type": "address"
        },
        {
          "internalType": "address",
          "name": "to",
          "type": "address"
        },
        {
          "internalType": "uint256",
          "name": "tokenId",
          "type": "uint256"
        }
      ],
      "name": "transferFrom",
      "outputs": [],
      "stateMutability": "nonpayable",
      "type": "function"
    },
    {
      "inputs": [
        {
          "internalType": "address",
          "name": "newOwner",
          "type": "address"
        }
      ],
      "name": "transferOwnership",
      "outputs": [],
      "stateMutability": "nonpayable",
      "type": "function"
    }
  ],
  "bytecode": "0x60806040523480156200001157600080fd5b50604051620043d8380380620043d88339810160408190526200003491620001cd565b6040518060400160405280600781526020016650726f66696c6560c81b8152506040518060400160405280600781526020016650524f46494c4560c81b81525081600090805190602001906200008c92919062000127565b508051620000a290600190602084019062000127565b505050620000bf620000b9620000d160201b60201c565b620000d5565b620000ca81620000d5565b506200023c565b3390565b600a80546001600160a01b038381166001600160a01b0319831681179093556040519116919082907f8be0079c531659141344cd1fd0a4f28419497f9722a3daafe3b4186f6b6457e090600090a35050565b8280546200013590620001ff565b90600052602060002090601f016020900481019282620001595760008555620001a4565b82601f106200017457805160ff1916838001178555620001a4565b82800160010185558215620001a4579182015b82811115620001a457825182559160200191906001019062000187565b50620001b2929150620001b6565b5090565b5b80821115620001b25760008155600101620001b7565b600060208284031215620001e057600080fd5b81516001600160a01b0381168114620001f857600080fd5b9392505050565b600181811c908216806200021457607f821691505b602082108114156200023657634e487b7160e01b600052602260045260246000fd5b50919050565b61418c806200024c6000396000f3fe608060405234801561001057600080fd5b50600436106102325760003560e01c80636f7a97bd11610130578063a22cb465116100b8578063cc2e0a261161007c578063cc2e0a2614610526578063e985e9c514610539578063e99ac60514610575578063f08f4f6414610588578063f2fde38b146105a857600080fd5b8063a22cb465146104ba578063b88d4fde146104cd578063b941d1db146104e0578063bd880fae146104f3578063c87b56dd1461051357600080fd5b80638da5cb5b116100ff5780638da5cb5b1461046857806395d89b41146104795780639d6d9a70146104815780639dada313146104945780639f19a59d146104a757600080fd5b80636f7a97bd1461041a57806370a082311461042d578063715018a6146104405780637524fa071461044857600080fd5b806323b872dd116101be5780634ddadfd2116101825780634ddadfd2146103bb5780634e793c66146103ce5780634f6ccce7146103e1578063524c6bc7146103f45780636352211e1461040757600080fd5b806323b872dd1461034657806326567eec146103595780632f745c591461038257806342842e0e1461039557806348defab7146103a857600080fd5b8063095ea7b311610205578063095ea7b3146102bf5780630e1af57b146102d45780630ea216a6146102f45780631202dc611461031457806318160ddd1461033457600080fd5b806301ffc9a71461023757806302f4c2ee1461025f57806306fdde031461027f578063081812fc14610294575b600080fd5b61024a610245366004612c0b565b6105bb565b60405190151581526020015b60405180910390f35b61027261026d366004612c28565b6105e6565b6040516102569190612c99565b610287610668565b6040516102569190612d40565b6102a76102a2366004612c28565b6106fa565b6040516001600160a01b039091168152602001610256565b6102d26102cd366004612d68565b610721565b005b6102e76102e2366004612c28565b61083c565b6040516102569190612daa565b610307610302366004612c28565b61091c565b6040516102569190612e09565b610327610322366004612c28565b6109fc565b6040516102569190612e5d565b6008545b604051908152602001610256565b6102d2610354366004612f04565b610adc565b610338610367366004612f45565b6001600160a01b03166000908152600c602052604090205490565b610338610390366004612d68565b610b0d565b6102d26103a3366004612f04565b610ba3565b6102d26103b6366004612fad565b610bbe565b6102d26103c9366004612fad565b610c6f565b6102d26103dc366004612ff8565b610ca0565b6103386103ef366004612c28565b610da5565b6102d261040236600461301a565b610e38565b6102a7610415366004612c28565b610f7e565b6102d2610428366004612ff8565b610fde565b61033861043b366004612f45565b6110b1565b6102d2611137565b61045b610456366004612c28565b61114b565b6040516102569190613067565b600a546001600160a01b03166102a7565b61028761122b565b6102d261048f3660046130d1565b61123a565b6103386104a2366004613113565b611373565b6102726104b5366004612c28565b6115fd565b6102d26104c836600461315b565b611656565b6102d26104db3660046132a6565b611665565b6102d26104ee366004613354565b61169d565b610506610501366004612c28565b6117ae565b6040516102569190613379565b610287610521366004612c28565b61188e565b6102d2610534366004612f45565b61191d565b61024a61054736600461340c565b6001600160a01b03918216600090815260056020908152604080832093909416825291909152205460ff1690565b6102d2610583366004612fad565b611947565b61059b610596366004612c28565b6119c4565b604051610256919061343a565b6102d26105b6366004612f45565b611c30565b60006001600160e01b0319821663780e9d6360e01b14806105e057506105e082611ca9565b92915050565b60606105e082600e60009054906101000a90046001600160a01b03166001600160a01b03166303b7af906040518163ffffffff1660e01b8152600401602060405180830381865afa15801561063f573d6000803e3d6000fd5b505050506040513d601f19601f8201168201806040525081019061066391906134f9565b611cf9565b60606000805461067790613516565b80601f01602080910402602001604051908101604052809291908181526020018280546106a390613516565b80156106f05780601f106106c5576101008083540402835291602001916106f0565b820191906000526020600020905b8154815290600101906020018083116106d357829003601f168201915b5050505050905090565b600061070582611d69565b506000908152600460205260409020546001600160a01b031690565b600061072c82610f7e565b9050806001600160a01b0316836001600160a01b0316141561079f5760405162461bcd60e51b815260206004820152602160248201527f4552433732313a20617070726f76616c20746f2063757272656e74206f776e656044820152603960f91b60648201526084015b60405180910390fd5b336001600160a01b03821614806107bb57506107bb8133610547565b61082d5760405162461bcd60e51b815260206004820152603e60248201527f4552433732313a20617070726f76652063616c6c6572206973206e6f7420746f60448201527f6b656e206f776e6572206e6f7220617070726f76656420666f7220616c6c00006064820152608401610796565b6108378383611dc8565b505050565b600e546040805163bd696d0960e01b815290516060926001600160a01b03169163bd696d099160048083019260209291908290030181865afa158015610886573d6000803e3d6000fd5b505050506040513d601f19601f820116820180604052508101906108aa91906134f9565b6001600160a01b0316630e1af57b836040518263ffffffff1660e01b81526004016108d791815260200190565b600060405180830381865afa1580156108f4573d6000803e3d6000fd5b505050506040513d6000823e601f3d908101601f191682016040526105e09190810190613574565b600e5460408051630c12f06360e11b815290516060926001600160a01b031691631825e0c69160048083019260209291908290030181865afa158015610966573d6000803e3d6000fd5b505050506040513d601f19601f8201168201806040525081019061098a91906134f9565b6001600160a01b0316630ea216a6836040518263ffffffff1660e01b81526004016109b791815260200190565b600060405180830381865afa1580156109d4573d6000803e3d6000fd5b505050506040513d6000823e601f3d908101601f191682016040526105e09190810190613637565b600e54604080516323ebb8df60e11b815290516060926001600160a01b0316916347d771be9160048083019260209291908290030181865afa158015610a46573d6000803e3d6000fd5b505050506040513d601f19601f82011682018060405250810190610a6a91906134f9565b6001600160a01b0316631202dc61836040518263ffffffff1660e01b8152600401610a9791815260200190565b600060405180830381865afa158015610ab4573d6000803e3d6000fd5b505050506040513d6000823e601f3d908101601f191682016040526105e0919081019061373e565b610ae63382611e36565b610b025760405162461bcd60e51b815260040161079690613885565b610837838383611eb5565b6000610b18836110b1565b8210610b7a5760405162461bcd60e51b815260206004820152602b60248201527f455243373231456e756d657261626c653a206f776e657220696e646578206f7560448201526a74206f6620626f756e647360a81b6064820152608401610796565b506001600160a01b03919091166000908152600660209081526040808320938352929052205490565b61083783838360405180602001604052806000815250611665565b610bc83384611e36565b610be45760405162461bcd60e51b8152600401610796906138d3565b610c6683600e60009054906101000a90046001600160a01b03166001600160a01b03166303b7af906040518163ffffffff1660e01b8152600401602060405180830381865afa158015610c3b573d6000803e3d6000fd5b505050506040513d601f19601f82011682018060405250810190610c5f91906134f9565b848461205c565b61083783612108565b610c793384611e36565b610c955760405162461bcd60e51b8152600401610796906138d3565b61083783838361221b565b610caa3383611e36565b610cc65760405162461bcd60e51b8152600401610796906138d3565b600e60009054906101000a90046001600160a01b03166001600160a01b0316631825e0c66040518163ffffffff1660e01b8152600401602060405180830381865afa158015610d19573d6000803e3d6000fd5b505050506040513d601f19601f82011682018060405250810190610d3d91906134f9565b60405163b4ca798160e01b815260048101849052602481018390526001600160a01b03919091169063b4ca7981906044015b600060405180830381600087803b158015610d8957600080fd5b505af1158015610d9d573d6000803e3d6000fd5b505050505050565b6000610db060085490565b8210610e135760405162461bcd60e51b815260206004820152602c60248201527f455243373231456e756d657261626c653a20676c6f62616c20696e646578206f60448201526b7574206f6620626f756e647360a01b6064820152608401610796565b60088281548110610e2657610e2661391b565b90600052602060002001549050919050565b610e423383611e36565b610e5e5760405162461bcd60e51b8152600401610796906138d3565b600e5460408051630e4d19bf60e11b815290516000926001600160a01b031691631c9a337e9160048083019260209291908290030181865afa158015610ea8573d6000803e3d6000fd5b505050506040513d601f19601f82011682018060405250810190610ecc91906134f9565b6001600160a01b031663524c6bc784846040518363ffffffff1660e01b8152600401610ef992919061399f565b6020604051808303816000875af1158015610f18573d6000803e3d6000fd5b505050506040513d601f19601f82011682018060405250810190610f3c9190613a1b565b905080837f8ddef22b803e2edb2bd3c242fccd97baa438ecc1ab793a85a09745567dd4c54743604051610f7191815260200190565b60405180910390a3505050565b6000818152600260205260408120546001600160a01b0316806105e05760405162461bcd60e51b8152602060048201526018602482015277115490cdcc8c4e881a5b9d985b1a59081d1bdad95b88125160421b6044820152606401610796565b610fe83383611e36565b6110045760405162461bcd60e51b8152600401610796906138d3565b600e60009054906101000a90046001600160a01b03166001600160a01b0316631825e0c66040518163ffffffff1660e01b8152600401602060405180830381865afa158015611057573d6000803e3d6000fd5b505050506040513d601f19601f8201168201806040525081019061107b91906134f9565b6040516323aa3e0f60e21b815260048101849052602481018390526001600160a01b039190911690638ea8f83c90604401610d6f565b60006001600160a01b03821661111b5760405162461bcd60e51b815260206004820152602960248201527f4552433732313a2061646472657373207a65726f206973206e6f7420612076616044820152683634b21037bbb732b960b91b6064820152608401610796565b506001600160a01b031660009081526003602052604090205490565b61113f612332565b611149600061238c565b565b600e546040805163ec22013f60e01b815290516060926001600160a01b03169163ec22013f9160048083019260209291908290030181865afa158015611195573d6000803e3d6000fd5b505050506040513d601f19601f820116820180604052508101906111b991906134f9565b6001600160a01b0316637524fa07836040518263ffffffff1660e01b81526004016111e691815260200190565b600060405180830381865afa158015611203573d6000803e3d6000fd5b505050506040513d6000823e601f3d908101601f191682016040526105e09190810190613a34565b60606001805461067790613516565b6112443383611e36565b6112605760405162461bcd60e51b8152600401610796906138d3565b600e546040805163ec22013f60e01b815290516000926001600160a01b03169163ec22013f9160048083019260209291908290030181865afa1580156112aa573d6000803e3d6000fd5b505050506040513d601f19601f820116820180604052508101906112ce91906134f9565b6001600160a01b0316639d6d9a7084846040518363ffffffff1660e01b81526004016112fb929190613b0a565b6020604051808303816000875af115801561131a573d6000803e3d6000fd5b505050506040513d601f19601f8201168201806040525081019061133e9190613a1b565b905080837f44c8fa92ea188ac4a5d045570b403bd7d004b6ae9c6e6b173db92688d825786343604051610f7191815260200190565b336000908152600c6020526040812054156113d05760405162461bcd60e51b815260206004820152601f60248201527f50726f66696c653a2070726f66696c6520616c726561647920657869737473006044820152606401610796565b6000600d600081546113e190613b55565b9182905550336000818152600c602052604090208290559091506114c990829061140b8680613b70565b8080601f01602080910402602001604051908101604052809392919081815260200183838082843760009201919091525061144d925050506020880188613b70565b8080601f01602080910402602001604051908101604052809392919081815260200183838082843760009201919091525061148f925050506040890189613b70565b8080601f0160208091040260200160405190810160405280939291908181526020018383808284376000920191909152506123de92505050565b61155681600e60009054906101000a90046001600160a01b03166001600160a01b031663e14607de6040518163ffffffff1660e01b8152600401602060405180830381865afa158015611520573d6000803e3d6000fd5b505050506040513d601f19601f8201168201806040525081019061154491906134f9565b6115516060870187613bb6565b61205c565b6115de81600e60009054906101000a90046001600160a01b03166001600160a01b03166303b7af906040518163ffffffff1660e01b8152600401602060405180830381865afa1580156115ad573d6000803e3d6000fd5b505050506040513d601f19601f820116820180604052508101906115d191906134f9565b6115516080870187613bb6565b6115f4816115ef60a0860186613bb6565b61221b565b6105e081612108565b60606105e082600e60009054906101000a90046001600160a01b03166001600160a01b031663e14607de6040518163ffffffff1660e01b8152600401602060405180830381865afa15801561063f573d6000803e3d6000fd5b6116613383836124d1565b5050565b61166f3383611e36565b61168b5760405162461bcd60e51b815260040161079690613885565b61169784848484612598565b50505050565b6116a73383611e36565b6116c35760405162461bcd60e51b8152600401610796906138d3565b6001600160a01b0381166000908152600c6020526040902054156117295760405162461bcd60e51b815260206004820152601f60248201527f50726f66696c653a2070726f66696c6520616c726561647920657869737473006044820152606401610796565b6001600160a01b0381166000818152600c60209081526040808320869055858352600b825280832080546001810182559084529282902090920180546001600160a01b031916841790558151858152908101929092527ff0306f4e8668d23ebcc691f3a47412cb3e3bc7a86b5be28204cf62853914ff15910160405180910390a15050565b600e5460408051630e4d19bf60e11b815290516060926001600160a01b031691631c9a337e9160048083019260209291908290030181865afa1580156117f8573d6000803e3d6000fd5b505050506040513d601f19601f8201168201806040525081019061181c91906134f9565b6001600160a01b031663bd880fae836040518263ffffffff1660e01b815260040161184991815260200190565b600060405180830381865afa158015611866573d6000803e3d6000fd5b505050506040513d6000823e601f3d908101601f191682016040526105e09190810190613bff565b606061189982611d69565b60006118cb604080518082019091526013815272687474703a2f2f6578616d706c652e636f6d2f60681b602082015290565b905060008151116118eb5760405180602001604052806000815250611916565b806118f5846125cb565b604051602001611906929190613d24565b6040516020818303038152906040525b9392505050565b611925612332565b600e80546001600160a01b0319166001600160a01b0392909216919091179055565b6119513384611e36565b61196d5760405162461bcd60e51b8152600401610796906138d3565b610c6683600e60009054906101000a90046001600160a01b03166001600160a01b031663e14607de6040518163ffffffff1660e01b8152600401602060405180830381865afa158015610c3b573d6000803e3d6000fd5b6119f66040518060a0016040528060608152602001606081526020016060815260200160608152602001600081525090565b6000828152600b60209081526040918290208251815460c09381028201840190945260a081018481529093919284928491840182828015611a6057602002820191906000526020600020905b81546001600160a01b03168152600190910190602001808311611a42575b50505050508152602001600182018054611a7990613516565b80601f0160208091040260200160405190810160405280929190818152602001828054611aa590613516565b8015611af25780601f10611ac757610100808354040283529160200191611af2565b820191906000526020600020905b815481529060010190602001808311611ad557829003601f168201915b50505050508152602001600282018054611b0b90613516565b80601f0160208091040260200160405190810160405280929190818152602001828054611b3790613516565b8015611b845780601f10611b5957610100808354040283529160200191611b84565b820191906000526020600020905b815481529060010190602001808311611b6757829003601f168201915b50505050508152602001600382018054611b9d90613516565b80601f0160208091040260200160405190810160405280929190818152602001828054611bc990613516565b8015611c165780601f10611beb57610100808354040283529160200191611c16565b820191906000526020600020905b815481529060010190602001808311611bf957829003601f168201915b505050505081526020016004820154815250509050919050565b611c38612332565b6001600160a01b038116611c9d5760405162461bcd60e51b815260206004820152602660248201527f4f776e61626c653a206e6577206f776e657220697320746865207a65726f206160448201526564647265737360d01b6064820152608401610796565b611ca68161238c565b50565b60006001600160e01b031982166380ac58cd60e01b1480611cda57506001600160e01b03198216635b5e139f60e01b145b806105e057506301ffc9a760e01b6001600160e01b03198316146105e0565b604051630b43e78560e31b8152600481018390526060906001600160a01b03831690635a1f3c2890602401600060405180830381865afa158015611d41573d6000803e3d6000fd5b505050506040513d6000823e601f3d908101601f191682016040526119169190810190613d53565b6000818152600260205260409020546001600160a01b0316611ca65760405162461bcd60e51b8152602060048201526018602482015277115490cdcc8c4e881a5b9d985b1a59081d1bdad95b88125160421b6044820152606401610796565b600081815260046020526040902080546001600160a01b0319166001600160a01b0384169081179091558190611dfd82610f7e565b6001600160a01b03167f8c5be1e5ebec7d5bd14f71427d1e84f3dd0314c0f7b2291e5b200ac8c7c3b92560405160405180910390a45050565b600080611e4283610f7e565b9050806001600160a01b0316846001600160a01b03161480611e8957506001600160a01b0380821660009081526005602090815260408083209388168352929052205460ff165b80611ead5750836001600160a01b0316611ea2846106fa565b6001600160a01b0316145b949350505050565b826001600160a01b0316611ec882610f7e565b6001600160a01b031614611f2c5760405162461bcd60e51b815260206004820152602560248201527f4552433732313a207472616e736665722066726f6d20696e636f72726563742060448201526437bbb732b960d91b6064820152608401610796565b6001600160a01b038216611f8e5760405162461bcd60e51b8152602060048201526024808201527f4552433732313a207472616e7366657220746f20746865207a65726f206164646044820152637265737360e01b6064820152608401610796565b611f998383836126c8565b611fa4600082611dc8565b6001600160a01b0383166000908152600360205260408120805460019290611fcd908490613e6a565b90915550506001600160a01b0382166000908152600360205260408120805460019290611ffb908490613e81565b909155505060008181526002602052604080822080546001600160a01b0319166001600160a01b0386811691821790925591518493918716917fddf252ad1be2c89b69c2b068fc378daa952ba7f163c4a11628f55a4df523b3ef91a4505050565b604051639e11313760e01b81526001600160a01b03841690639e1131379061208c90879086908690600401613e99565b600060405180830381600087803b1580156120a657600080fd5b505af11580156120ba573d6000803e3d6000fd5b50505050826001600160a01b0316847f368671e33babaefec9922793c2b772bfd5552fc5457ca10241a5922f14797f06436040516120fa91815260200190565b60405180910390a350505050565b600e60009054906101000a90046001600160a01b03166001600160a01b031663bd696d096040518163ffffffff1660e01b8152600401602060405180830381865afa15801561215b573d6000803e3d6000fd5b505050506040513d601f19601f8201168201806040525081019061217f91906134f9565b6001600160a01b031663778f6281826040518263ffffffff1660e01b81526004016121ac91815260200190565b600060405180830381600087803b1580156121c657600080fd5b505af11580156121da573d6000803e3d6000fd5b50505050807f2689353491109488c9e4dbfe939f827ae1c8a589f8f19158ab955357e7685a024360405161221091815260200190565b60405180910390a250565b600e60009054906101000a90046001600160a01b03166001600160a01b03166347d771be6040518163ffffffff1660e01b8152600401602060405180830381865afa15801561226e573d6000803e3d6000fd5b505050506040513d601f19601f8201168201806040525081019061229291906134f9565b6001600160a01b031663c71216508484846040518463ffffffff1660e01b81526004016122c193929190613f78565b600060405180830381600087803b1580156122db57600080fd5b505af11580156122ef573d6000803e3d6000fd5b50505050827f5b0d3563a9beca21ac123df26d944a2b6ebdbc5bd6ce911e3e62c696c3027a234360405161232591815260200190565b60405180910390a2505050565b600a546001600160a01b031633146111495760405162461bcd60e51b815260206004820181905260248201527f4f776e61626c653a2063616c6c6572206973206e6f7420746865206f776e65726044820152606401610796565b600a80546001600160a01b038381166001600160a01b0319831681179093556040519116919082907f8be0079c531659141344cd1fd0a4f28419497f9722a3daafe3b4186f6b6457e090600090a35050565b6123e83386612780565b6000858152600b60209081526040822080546001808201835582855283852090910180546001600160a01b0319166001600160a01b038a161790559288905285516124399390910191860190612b5c565b506000858152600b60209081526040909120835161245f92600290920191850190612b5c565b506000858152600b60209081526040909120825161248592600390920191840190612b5c565b50836001600160a01b0316857f94c7a064468d8c8c92b4ce54d25c29022fbdb08117e1a0c6df34cbde87d3d2fb436040516124c291815260200190565b60405180910390a35050505050565b816001600160a01b0316836001600160a01b031614156125335760405162461bcd60e51b815260206004820152601960248201527f4552433732313a20617070726f766520746f2063616c6c6572000000000000006044820152606401610796565b6001600160a01b03838116600081815260056020908152604080832094871680845294825291829020805460ff191686151590811790915591519182527f17307eab39ab6107e8899845ad3d59bd9653f200f220920489ca2b5937696c319101610f71565b6125a3848484611eb5565b6125af848484846128ce565b6116975760405162461bcd60e51b815260040161079690614060565b6060816125ef5750506040805180820190915260018152600360fc1b602082015290565b8160005b8115612619578061260381613b55565b91506126129050600a836140c8565b91506125f3565b6000816001600160401b0381111561263357612633613189565b6040519080825280601f01601f19166020018201604052801561265d576020820181803683370190505b5090505b8415611ead57612672600183613e6a565b915061267f600a866140dc565b61268a906030613e81565b60f81b81838151811061269f5761269f61391b565b60200101906001600160f81b031916908160001a9053506126c1600a866140c8565b9450612661565b6001600160a01b0383166127235761271e81600880546000838152600960205260408120829055600182018355919091527ff3f7a9fe364faab93b216da50a3214154f22a0a2b415b23a84c8169e8b636ee30155565b612746565b816001600160a01b0316836001600160a01b0316146127465761274683826129cc565b6001600160a01b03821661275d5761083781612a69565b826001600160a01b0316826001600160a01b031614610837576108378282612b18565b6001600160a01b0382166127d65760405162461bcd60e51b815260206004820181905260248201527f4552433732313a206d696e7420746f20746865207a65726f20616464726573736044820152606401610796565b6000818152600260205260409020546001600160a01b03161561283b5760405162461bcd60e51b815260206004820152601c60248201527f4552433732313a20746f6b656e20616c7265616479206d696e746564000000006044820152606401610796565b612847600083836126c8565b6001600160a01b0382166000908152600360205260408120805460019290612870908490613e81565b909155505060008181526002602052604080822080546001600160a01b0319166001600160a01b03861690811790915590518392907fddf252ad1be2c89b69c2b068fc378daa952ba7f163c4a11628f55a4df523b3ef908290a45050565b60006001600160a01b0384163b156129c157604051630a85bd0160e11b81526001600160a01b0385169063150b7a02906129129033908990889088906004016140f0565b6020604051808303816000875af192505050801561294d575060408051601f3d908101601f1916820190925261294a91810190614123565b60015b6129a7573d80801561297b576040519150601f19603f3d011682016040523d82523d6000602084013e612980565b606091505b50805161299f5760405162461bcd60e51b815260040161079690614060565b805181602001fd5b6001600160e01b031916630a85bd0160e11b149050611ead565b506001949350505050565b600060016129d9846110b1565b6129e39190613e6a565b600083815260076020526040902054909150808214612a36576001600160a01b03841660009081526006602090815260408083208584528252808320548484528184208190558352600790915290208190555b5060009182526007602090815260408084208490556001600160a01b039094168352600681528383209183525290812055565b600854600090612a7b90600190613e6a565b60008381526009602052604081205460088054939450909284908110612aa357612aa361391b565b906000526020600020015490508060088381548110612ac457612ac461391b565b6000918252602080832090910192909255828152600990915260408082208490558582528120556008805480612afc57612afc614140565b6001900381819060005260206000200160009055905550505050565b6000612b23836110b1565b6001600160a01b039093166000908152600660209081526040808320868452825280832085905593825260079052919091209190915550565b828054612b6890613516565b90600052602060002090601f016020900481019282612b8a5760008555612bd0565b82601f10612ba357805160ff1916838001178555612bd0565b82800160010185558215612bd0579182015b82811115612bd0578251825591602001919060010190612bb5565b50612bdc929150612be0565b5090565b5b80821115612bdc5760008155600101612be1565b6001600160e01b031981168114611ca657600080fd5b600060208284031215612c1d57600080fd5b813561191681612bf5565b600060208284031215612c3a57600080fd5b5035919050565b60005b83811015612c5c578181015183820152602001612c44565b838111156116975750506000910152565b60008151808452612c85816020860160208601612c41565b601f01601f19169290920160200192915050565b60006020808301818452808551808352604092508286019150828160051b87010184880160005b83811015612d3257888303603f19018552815180518452878101516001600160a01b0390811689860152878201518886015260608083015160a08288018190529290612d0e84890182612c6d565b60809586015190921697909401969096525050509386019390860190600101612cc0565b509098975050505050505050565b6020815260006119166020830184612c6d565b6001600160a01b0381168114611ca657600080fd5b60008060408385031215612d7b57600080fd5b8235612d8681612d53565b946020939093013593505050565b634e487b7160e01b600052602160045260246000fd5b602080825282518282018190526000919060409081850190868401855b82811015612dfc578151805160038110612de357612de3612d94565b8552860151868501529284019290850190600101612dc7565b5091979650505050505050565b602080825282518282018190526000919060409081850190868401855b82811015612dfc578151805160058110612e4257612e42612d94565b85528601511515868501529284019290850190600101612e26565b60006020808301818452808551808352604092508286019150828160051b87010184880160005b83811015612d3257603f19898403018552815160808151818652612eaa82870182612c6d565b915050888201518582038a870152612ec28282612c6d565b9150508782015185820389870152612eda8282612c6d565b6060938401516001600160a01b031696909301959095525094870194925090860190600101612e84565b600080600060608486031215612f1957600080fd5b8335612f2481612d53565b92506020840135612f3481612d53565b929592945050506040919091013590565b600060208284031215612f5757600080fd5b813561191681612d53565b60008083601f840112612f7457600080fd5b5081356001600160401b03811115612f8b57600080fd5b6020830191508360208260051b8501011115612fa657600080fd5b9250929050565b600080600060408486031215612fc257600080fd5b8335925060208401356001600160401b03811115612fdf57600080fd5b612feb86828701612f62565b9497909650939450505050565b6000806040838503121561300b57600080fd5b50508035926020909101359150565b6000806040838503121561302d57600080fd5b8235915060208301356001600160401b0381111561304a57600080fd5b83016060818603121561305c57600080fd5b809150509250929050565b6000602080830181845280855180835260408601915060408160051b870101925083870160005b828110156130c457878503603f190184528151518686526130b187870182612c6d565b955050928501929085019060010161308e565b5092979650505050505050565b600080604083850312156130e457600080fd5b8235915060208301356001600160401b0381111561310157600080fd5b83016020818603121561305c57600080fd5b60006020828403121561312557600080fd5b81356001600160401b0381111561313b57600080fd5b820160c0818503121561191657600080fd5b8015158114611ca657600080fd5b6000806040838503121561316e57600080fd5b823561317981612d53565b9150602083013561305c8161314d565b634e487b7160e01b600052604160045260246000fd5b604080519081016001600160401b03811182821017156131c1576131c1613189565b60405290565b604051608081016001600160401b03811182821017156131c1576131c1613189565b604051602081016001600160401b03811182821017156131c1576131c1613189565b604051606081016001600160401b03811182821017156131c1576131c1613189565b60405160a081016001600160401b03811182821017156131c1576131c1613189565b604051601f8201601f191681016001600160401b038111828210171561327757613277613189565b604052919050565b60006001600160401b0382111561329857613298613189565b50601f01601f191660200190565b600080600080608085870312156132bc57600080fd5b84356132c781612d53565b935060208501356132d781612d53565b92506040850135915060608501356001600160401b038111156132f957600080fd5b8501601f8101871361330a57600080fd5b803561331d6133188261327f565b61324f565b81815288602083850101111561333257600080fd5b8160208401602083013760006020838301015280935050505092959194509250565b6000806040838503121561336757600080fd5b82359150602083013561305c81612d53565b60006020808301818452808551808352604092508286019150828160051b87010184880160005b83811015612d3257603f198984030185528151606081518186526133c682870182612c6d565b915050888201518582038a8701526133de8282612c6d565b915050878201519150848103888601526133f88183612c6d565b9689019694505050908601906001016133a0565b6000806040838503121561341f57600080fd5b823561342a81612d53565b9150602083013561305c81612d53565b6020808252825160a083830152805160c0840181905260009291820190839060e08601905b808310156134885783516001600160a01b0316825292840192600192909201919084019061345f565b50838701519350601f199250828682030160408701526134a88185612c6d565b935050506040850151818584030160608601526134c58382612c6d565b9250506060850151818584030160808601526134e18382612c6d565b92505050608084015160a08401528091505092915050565b60006020828403121561350b57600080fd5b815161191681612d53565b600181811c9082168061352a57607f821691505b6020821081141561354b57634e487b7160e01b600052602260045260246000fd5b50919050565b60006001600160401b0382111561356a5761356a613189565b5060051b60200190565b6000602080838503121561358757600080fd5b82516001600160401b0381111561359d57600080fd5b8301601f810185136135ae57600080fd5b80516135bc61331882613551565b81815260069190911b820183019083810190878311156135db57600080fd5b928401925b8284101561362c57604084890312156135f95760008081fd5b61360161319f565b8451600381106136115760008081fd5b815284860151868201528252604090930192908401906135e0565b979650505050505050565b6000602080838503121561364a57600080fd5b82516001600160401b0381111561366057600080fd5b8301601f8101851361367157600080fd5b805161367f61331882613551565b81815260069190911b8201830190838101908783111561369e57600080fd5b928401925b8284101561362c57604084890312156136bc5760008081fd5b6136c461319f565b8451600581106136d45760008081fd5b8152848601516136e38161314d565b81870152825260409390930192908401906136a3565b600082601f83011261370a57600080fd5b81516137186133188261327f565b81815284602083860101111561372d57600080fd5b611ead826020830160208701612c41565b6000602080838503121561375157600080fd5b82516001600160401b038082111561376857600080fd5b818501915085601f83011261377c57600080fd5b815161378a61331882613551565b81815260059190911b830184019084810190888311156137a957600080fd5b8585015b83811015613878578051858111156137c457600080fd5b86016080818c03601f190112156137db5760008081fd5b6137e36131c7565b88820151878111156137f55760008081fd5b6138038d8b838601016136f9565b8252506040808301518881111561381a5760008081fd5b6138288e8c838701016136f9565b8b84015250606080840151898111156138415760008081fd5b61384f8f8d838801016136f9565b83850152506080840151935061386484612d53565b8201929092528452509186019186016137ad565b5098975050505050505050565b6020808252602e908201527f4552433732313a2063616c6c6572206973206e6f7420746f6b656e206f776e6560408201526d1c881b9bdc88185c1c1c9bdd995960921b606082015260800190565b60208082526028908201527f50726f66696c653a2063616c6c6572206973206e6f74206f776e6572206f7220604082015267185c1c1c9bdd995960c21b606082015260800190565b634e487b7160e01b600052603260045260246000fd5b6000808335601e1984360301811261394857600080fd5b83016020810192503590506001600160401b0381111561396757600080fd5b803603831315612fa657600080fd5b81835281816020850137506000828201602090810191909152601f909101601f19169091010190565b8281526040602082015260006139b58384613931565b606060408501526139ca60a085018284613976565b9150506139da6020850185613931565b603f19808685030160608701526139f2848385613976565b9350613a016040880188613931565b93509150808685030160808701525061362c838383613976565b600060208284031215613a2d57600080fd5b5051919050565b60006020808385031215613a4757600080fd5b82516001600160401b0380821115613a5e57600080fd5b818501915085601f830112613a7257600080fd5b8151613a8061331882613551565b81815260059190911b83018401908481019088831115613a9f57600080fd5b8585015b8381101561387857805185811115613abb5760008081fd5b8601808b03601f1901881315613ad15760008081fd5b613ad96131e9565b8882015187811115613aeb5760008081fd5b613af98d8b838601016136f9565b825250845250918601918601613aa3565b828152604060208201526000613b208384613931565b60206040850152613b35606085018284613976565b9695505050505050565b634e487b7160e01b600052601160045260246000fd5b6000600019821415613b6957613b69613b3f565b5060010190565b6000808335601e19843603018112613b8757600080fd5b8301803591506001600160401b03821115613ba157600080fd5b602001915036819003821315612fa657600080fd5b6000808335601e19843603018112613bcd57600080fd5b8301803591506001600160401b03821115613be757600080fd5b6020019150600581901b3603821315612fa657600080fd5b60006020808385031215613c1257600080fd5b82516001600160401b0380821115613c2957600080fd5b818501915085601f830112613c3d57600080fd5b8151613c4b61331882613551565b81815260059190911b83018401908481019088831115613c6a57600080fd5b8585015b8381101561387857805185811115613c865760008081fd5b86016060818c03601f1901811315613c9e5760008081fd5b613ca661320b565b8983015188811115613cb85760008081fd5b613cc68e8c838701016136f9565b82525060408084015189811115613cdd5760008081fd5b613ceb8f8d838801016136f9565b838d015250918301519188831115613d035760008081fd5b613d118e8c858701016136f9565b9082015285525050918601918601613c6e565b60008351613d36818460208801612c41565b835190830190613d4a818360208801612c41565b01949350505050565b60006020808385031215613d6657600080fd5b82516001600160401b0380821115613d7d57600080fd5b818501915085601f830112613d9157600080fd5b8151613d9f61331882613551565b81815260059190911b83018401908481019088831115613dbe57600080fd5b8585015b8381101561387857805185811115613dd957600080fd5b860160a0818c03601f19011215613df05760008081fd5b613df861322d565b888201518152604080830151613e0d81612d53565b808b8401525060608084015182840152608091508184015189811115613e335760008081fd5b613e418f8d838801016136f9565b82850152505060a08301519250613e5783612d53565b8101919091528352918601918601613dc2565b600082821015613e7c57613e7c613b3f565b500390565b60008219821115613e9457613e94613b3f565b500190565b600060408083018684526020828186015281868352606092508286019050828760051b870101886000805b8a811015613f6757898403605f190185528235368d9003609e19018112613ee9578283fd5b8c018035855260a087820135613efe81612d53565b6001600160a01b03818116888b0152838c01358c890152613f218b850185613931565b9250838c8a0152613f35848a018483613976565b93505060809150818401359350613f4b84612d53565b9290921695909101949094529385019391850191600101613ec4565b50919b9a5050505050505050505050565b600060408083018684526020828186015281868352606092508286019050828760051b870101886000805b8a811015613f6757898403605f190185528235368d9003607e19018112613fc8578283fd5b8c016080613fd68280613931565b828852613fe68389018284613976565b92505050613ff688830183613931565b8783038a890152614008838284613976565b925050506140188a830183613931565b8783038c89015261402a838284613976565b9250505088820135915061403d82612d53565b6001600160a01b0391909116948801949094529385019391850191600101613fa3565b60208082526032908201527f4552433732313a207472616e7366657220746f206e6f6e20455243373231526560408201527131b2b4bb32b91034b6b83632b6b2b73a32b960711b606082015260800190565b634e487b7160e01b600052601260045260246000fd5b6000826140d7576140d76140b2565b500490565b6000826140eb576140eb6140b2565b500690565b6001600160a01b0385811682528416602082015260408101839052608060608201819052600090613b3590830184612c6d565b60006020828403121561413557600080fd5b815161191681612bf5565b634e487b7160e01b600052603160045260246000fdfea264697066735822122015b249be95b5095bed9c6c457583b2feae27904758de0f5c412af5f14639346864736f6c634300080a0033",
  "linkReferences": {},
  "deployedLinkReferences": {}
}