{
  "_format": "hh-sol-artifact-1",
  "contractName": "Profile",
  "sourceName": "contracts/core/Profile.sol",
  "abi": [
    {
      "inputs": [
        {
          "internalType": "address",
          "name": "owner",
          "type": "address"
        }
      ],
      "stateMutability": "nonpayable",
      "type": "constructor"
    },
    {
      "anonymous": false,
      "inputs": [
        {
          "indexed": true,
          "internalType": "address",
          "name": "owner",
          "type": "address"
        },
        {
          "indexed": true,
          "internalType": "address",
          "name": "approved",
          "type": "address"
        },
        {
          "indexed": true,
          "internalType": "uint256",
          "name": "tokenId",
          "type": "uint256"
        }
      ],
      "name": "Approval",
      "type": "event"
    },
    {
      "anonymous": false,
      "inputs": [
        {
          "indexed": true,
          "internalType": "address",
          "name": "owner",
          "type": "address"
        },
        {
          "indexed": true,
          "internalType": "address",
          "name": "operator",
          "type": "address"
        },
        {
          "indexed": false,
          "internalType": "bool",
          "name": "approved",
          "type": "bool"
        }
      ],
      "name": "ApprovalForAll",
      "type": "event"
    },
    {
      "anonymous": false,
      "inputs": [
        {
          "indexed": true,
          "internalType": "uint256",
          "name": "profileId",
          "type": "uint256"
        },
        {
          "indexed": true,
          "internalType": "uint256",
          "name": "extensionId",
          "type": "uint256"
        },
        {
          "indexed": false,
          "internalType": "uint256",
          "name": "blockNumber",
          "type": "uint256"
        }
      ],
      "name": "ColorActivated",
      "type": "event"
    },
    {
      "anonymous": false,
      "inputs": [
        {
          "indexed": true,
          "internalType": "uint256",
          "name": "profileId",
          "type": "uint256"
        },
        {
          "indexed": true,
          "internalType": "uint256",
          "name": "extensionId",
          "type": "uint256"
        },
        {
          "indexed": false,
          "internalType": "uint256",
          "name": "blockNumber",
          "type": "uint256"
        }
      ],
      "name": "ColorAdded",
      "type": "event"
    },
    {
      "anonymous": false,
      "inputs": [
        {
          "indexed": true,
          "internalType": "uint256",
          "name": "profileId",
          "type": "uint256"
        },
        {
          "indexed": true,
          "internalType": "uint256",
          "name": "extensionId",
          "type": "uint256"
        },
        {
          "indexed": false,
          "internalType": "uint256",
          "name": "blockNumber",
          "type": "uint256"
        }
      ],
      "name": "ColorDeactivated",
      "type": "event"
    },
    {
      "anonymous": false,
      "inputs": [
        {
          "indexed": true,
          "internalType": "uint256",
          "name": "profileId",
          "type": "uint256"
        },
        {
          "indexed": true,
          "internalType": "uint256",
          "name": "moduleId",
          "type": "uint256"
        },
        {
          "indexed": false,
          "internalType": "uint256",
          "name": "blockNumber",
          "type": "uint256"
        }
      ],
      "name": "MirrorAdded",
      "type": "event"
    },
    {
      "anonymous": false,
      "inputs": [
        {
          "indexed": true,
          "internalType": "uint256",
          "name": "profileId",
          "type": "uint256"
        },
        {
          "indexed": true,
          "internalType": "address",
          "name": "module",
          "type": "address"
        },
        {
          "indexed": false,
          "internalType": "uint256",
          "name": "blockNumber",
          "type": "uint256"
        }
      ],
      "name": "NFTCollectionCreated",
      "type": "event"
    },
    {
      "anonymous": false,
      "inputs": [
        {
          "indexed": true,
          "internalType": "address",
          "name": "previousOwner",
          "type": "address"
        },
        {
          "indexed": true,
          "internalType": "address",
          "name": "newOwner",
          "type": "address"
        }
      ],
      "name": "OwnershipTransferred",
      "type": "event"
    },
    {
      "anonymous": false,
      "inputs": [
        {
          "indexed": true,
          "internalType": "uint256",
          "name": "profileId",
          "type": "uint256"
        },
        {
          "indexed": true,
          "internalType": "address",
          "name": "owner",
          "type": "address"
        },
        {
          "indexed": false,
          "internalType": "uint256",
          "name": "blockNumber",
          "type": "uint256"
        }
      ],
      "name": "ProfileCreated",
      "type": "event"
    },
    {
      "anonymous": false,
      "inputs": [
        {
          "indexed": true,
          "internalType": "uint256",
          "name": "profileId",
          "type": "uint256"
        },
        {
          "indexed": false,
          "internalType": "uint256",
          "name": "blockNumber",
          "type": "uint256"
        }
      ],
      "name": "SNSAccountCreated",
      "type": "event"
    },
    {
      "anonymous": false,
      "inputs": [
        {
          "indexed": true,
          "internalType": "uint256",
          "name": "profileId",
          "type": "uint256"
        },
        {
          "indexed": false,
          "internalType": "uint256",
          "name": "blockNumber",
          "type": "uint256"
        }
      ],
      "name": "ScoreCreated",
      "type": "event"
    },
    {
      "anonymous": false,
      "inputs": [
        {
          "indexed": true,
          "internalType": "address",
          "name": "from",
          "type": "address"
        },
        {
          "indexed": true,
          "internalType": "address",
          "name": "to",
          "type": "address"
        },
        {
          "indexed": true,
          "internalType": "uint256",
          "name": "tokenId",
          "type": "uint256"
        }
      ],
      "name": "Transfer",
      "type": "event"
    },
    {
      "anonymous": false,
      "inputs": [
        {
          "indexed": false,
          "internalType": "uint256",
          "name": "profileId",
          "type": "uint256"
        },
        {
          "indexed": false,
          "internalType": "address",
          "name": "wallet",
          "type": "address"
        }
      ],
      "name": "WalletAdded",
      "type": "event"
    },
    {
      "inputs": [
        {
          "internalType": "uint256",
          "name": "profileId",
          "type": "uint256"
        },
        {
          "internalType": "uint256",
          "name": "extensionId",
          "type": "uint256"
        }
      ],
      "name": "activateColor",
      "outputs": [],
      "stateMutability": "nonpayable",
      "type": "function"
    },
    {
      "inputs": [
        {
          "internalType": "uint256",
          "name": "profileId",
          "type": "uint256"
        },
        {
          "internalType": "string",
          "name": "color",
          "type": "string"
        }
      ],
      "name": "addColor",
      "outputs": [],
      "stateMutability": "nonpayable",
      "type": "function"
    },
    {
      "inputs": [
        {
          "internalType": "uint256",
          "name": "profileId",
          "type": "uint256"
        },
        {
          "components": [
            {
              "internalType": "string",
              "name": "hoge",
              "type": "string"
            }
          ],
          "internalType": "struct IMirrorModule.MirrorStruct",
          "name": "mirror",
          "type": "tuple"
        }
      ],
      "name": "addMirror",
      "outputs": [],
      "stateMutability": "nonpayable",
      "type": "function"
    },
    {
      "inputs": [
        {
          "internalType": "uint256",
          "name": "profileId",
          "type": "uint256"
        },
        {
          "internalType": "address",
          "name": "wallet",
          "type": "address"
        }
      ],
      "name": "addWallet",
      "outputs": [],
      "stateMutability": "nonpayable",
      "type": "function"
    },
    {
      "inputs": [
        {
          "internalType": "address",
          "name": "to",
          "type": "address"
        },
        {
          "internalType": "uint256",
          "name": "tokenId",
          "type": "uint256"
        }
      ],
      "name": "approve",
      "outputs": [],
      "stateMutability": "nonpayable",
      "type": "function"
    },
    {
      "inputs": [
        {
          "internalType": "address",
          "name": "owner",
          "type": "address"
        }
      ],
      "name": "balanceOf",
      "outputs": [
        {
          "internalType": "uint256",
          "name": "",
          "type": "uint256"
        }
      ],
      "stateMutability": "view",
      "type": "function"
    },
    {
      "inputs": [
        {
          "internalType": "uint256",
          "name": "profileId",
          "type": "uint256"
        },
        {
          "components": [
            {
              "internalType": "uint256",
              "name": "chainId",
              "type": "uint256"
            },
            {
              "internalType": "address",
              "name": "contractAddress",
              "type": "address"
            },
            {
              "internalType": "uint256",
              "name": "tokenId",
              "type": "uint256"
            },
            {
              "internalType": "string",
              "name": "tokenURI",
              "type": "string"
            },
            {
              "internalType": "address",
              "name": "owner",
              "type": "address"
            }
          ],
          "internalType": "struct INFTCollectionModule.NFTStruct[]",
          "name": "nfts",
          "type": "tuple[]"
        }
      ],
      "name": "createNFTCollection",
      "outputs": [],
      "stateMutability": "nonpayable",
      "type": "function"
    },
    {
      "inputs": [
        {
          "internalType": "uint256",
          "name": "profileId",
          "type": "uint256"
        },
        {
          "components": [
            {
              "internalType": "uint256",
              "name": "chainId",
              "type": "uint256"
            },
            {
              "internalType": "address",
              "name": "contractAddress",
              "type": "address"
            },
            {
              "internalType": "uint256",
              "name": "tokenId",
              "type": "uint256"
            },
            {
              "internalType": "string",
              "name": "tokenURI",
              "type": "string"
            },
            {
              "internalType": "address",
              "name": "owner",
              "type": "address"
            }
          ],
          "internalType": "struct INFTCollectionModule.NFTStruct[]",
          "name": "poaps",
          "type": "tuple[]"
        }
      ],
      "name": "createPOAPCollection",
      "outputs": [],
      "stateMutability": "nonpayable",
      "type": "function"
    },
    {
      "inputs": [
        {
          "components": [
            {
              "internalType": "string",
              "name": "name",
              "type": "string"
            },
            {
              "internalType": "string",
              "name": "introduction",
              "type": "string"
            },
            {
              "internalType": "string",
              "name": "imageURI",
              "type": "string"
            },
            {
              "components": [
                {
                  "internalType": "uint256",
                  "name": "chainId",
                  "type": "uint256"
                },
                {
                  "internalType": "address",
                  "name": "contractAddress",
                  "type": "address"
                },
                {
                  "internalType": "uint256",
                  "name": "tokenId",
                  "type": "uint256"
                },
                {
                  "internalType": "string",
                  "name": "tokenURI",
                  "type": "string"
                },
                {
                  "internalType": "address",
                  "name": "owner",
                  "type": "address"
                }
              ],
              "internalType": "struct INFTCollectionModule.NFTStruct[]",
              "name": "nfts",
              "type": "tuple[]"
            },
            {
              "components": [
                {
                  "internalType": "uint256",
                  "name": "chainId",
                  "type": "uint256"
                },
                {
                  "internalType": "address",
                  "name": "contractAddress",
                  "type": "address"
                },
                {
                  "internalType": "uint256",
                  "name": "tokenId",
                  "type": "uint256"
                },
                {
                  "internalType": "string",
                  "name": "tokenURI",
                  "type": "string"
                },
                {
                  "internalType": "address",
                  "name": "owner",
                  "type": "address"
                }
              ],
              "internalType": "struct INFTCollectionModule.NFTStruct[]",
              "name": "poaps",
              "type": "tuple[]"
            },
            {
              "components": [
                {
                  "internalType": "string",
                  "name": "service",
                  "type": "string"
                },
                {
                  "internalType": "string",
                  "name": "userId",
                  "type": "string"
                },
                {
                  "internalType": "string",
                  "name": "userPageURL",
                  "type": "string"
                },
                {
                  "internalType": "address",
                  "name": "wallet",
                  "type": "address"
                }
              ],
              "internalType": "struct ISNSAccountModule.SNSAccountStruct[]",
              "name": "snsAccounts",
              "type": "tuple[]"
            }
          ],
          "internalType": "struct IProfile.CreateProfileStructData",
          "name": "vars",
          "type": "tuple"
        }
      ],
      "name": "createProfile",
      "outputs": [
        {
          "internalType": "uint256",
          "name": "",
          "type": "uint256"
        }
      ],
      "stateMutability": "nonpayable",
      "type": "function"
    },
    {
      "inputs": [
        {
          "internalType": "uint256",
          "name": "profileId",
          "type": "uint256"
        },
        {
          "components": [
            {
              "internalType": "string",
              "name": "service",
              "type": "string"
            },
            {
              "internalType": "string",
              "name": "userId",
              "type": "string"
            },
            {
              "internalType": "string",
              "name": "userPageURL",
              "type": "string"
            },
            {
              "internalType": "address",
              "name": "wallet",
              "type": "address"
            }
          ],
          "internalType": "struct ISNSAccountModule.SNSAccountStruct[]",
          "name": "snsAccounts",
          "type": "tuple[]"
        }
      ],
      "name": "createSNSAccount",
      "outputs": [],
      "stateMutability": "nonpayable",
      "type": "function"
    },
    {
      "inputs": [
        {
          "internalType": "uint256",
          "name": "profileId",
          "type": "uint256"
        }
      ],
      "name": "createScore",
      "outputs": [],
      "stateMutability": "nonpayable",
      "type": "function"
    },
    {
      "inputs": [
        {
          "internalType": "uint256",
          "name": "profileId",
          "type": "uint256"
        },
        {
          "internalType": "uint256",
          "name": "extensionId",
          "type": "uint256"
        }
      ],
      "name": "deactivateColor",
      "outputs": [],
      "stateMutability": "nonpayable",
      "type": "function"
    },
    {
      "inputs": [
        {
          "internalType": "uint256",
          "name": "tokenId",
          "type": "uint256"
        }
      ],
      "name": "getApproved",
      "outputs": [
        {
          "internalType": "address",
          "name": "",
          "type": "address"
        }
      ],
      "stateMutability": "view",
      "type": "function"
    },
    {
      "inputs": [
        {
          "internalType": "uint256",
          "name": "profileId",
          "type": "uint256"
        }
      ],
      "name": "getColor",
      "outputs": [
        {
          "components": [
            {
              "internalType": "string",
              "name": "color",
              "type": "string"
            },
            {
              "internalType": "bool",
              "name": "active",
              "type": "bool"
            }
          ],
          "internalType": "struct IColorExtension.ColorStruct[]",
          "name": "",
          "type": "tuple[]"
        }
      ],
      "stateMutability": "view",
      "type": "function"
    },
    {
      "inputs": [
        {
          "internalType": "uint256",
          "name": "profileId",
          "type": "uint256"
        }
      ],
      "name": "getMirror",
      "outputs": [
        {
          "components": [
            {
              "internalType": "string",
              "name": "hoge",
              "type": "string"
            }
          ],
          "internalType": "struct IMirrorModule.MirrorStruct[]",
          "name": "",
          "type": "tuple[]"
        }
      ],
      "stateMutability": "view",
      "type": "function"
    },
    {
      "inputs": [
        {
          "internalType": "uint256",
          "name": "profileId",
          "type": "uint256"
        }
      ],
      "name": "getNFTCollection",
      "outputs": [
        {
          "components": [
            {
              "internalType": "uint256",
              "name": "chainId",
              "type": "uint256"
            },
            {
              "internalType": "address",
              "name": "contractAddress",
              "type": "address"
            },
            {
              "internalType": "uint256",
              "name": "tokenId",
              "type": "uint256"
            },
            {
              "internalType": "string",
              "name": "tokenURI",
              "type": "string"
            },
            {
              "internalType": "address",
              "name": "owner",
              "type": "address"
            }
          ],
          "internalType": "struct INFTCollectionModule.NFTStruct[]",
          "name": "",
          "type": "tuple[]"
        }
      ],
      "stateMutability": "view",
      "type": "function"
    },
    {
      "inputs": [
        {
          "internalType": "uint256",
          "name": "profileId",
          "type": "uint256"
        }
      ],
      "name": "getPOAPCollection",
      "outputs": [
        {
          "components": [
            {
              "internalType": "uint256",
              "name": "chainId",
              "type": "uint256"
            },
            {
              "internalType": "address",
              "name": "contractAddress",
              "type": "address"
            },
            {
              "internalType": "uint256",
              "name": "tokenId",
              "type": "uint256"
            },
            {
              "internalType": "string",
              "name": "tokenURI",
              "type": "string"
            },
            {
              "internalType": "address",
              "name": "owner",
              "type": "address"
            }
          ],
          "internalType": "struct INFTCollectionModule.NFTStruct[]",
          "name": "",
          "type": "tuple[]"
        }
      ],
      "stateMutability": "view",
      "type": "function"
    },
    {
      "inputs": [
        {
          "internalType": "uint256",
          "name": "profileId",
          "type": "uint256"
        }
      ],
      "name": "getProfile",
      "outputs": [
        {
          "components": [
            {
              "internalType": "address[]",
              "name": "wallets",
              "type": "address[]"
            },
            {
              "internalType": "string",
              "name": "name",
              "type": "string"
            },
            {
              "internalType": "string",
              "name": "introduction",
              "type": "string"
            },
            {
              "internalType": "string",
              "name": "imageURI",
              "type": "string"
            },
            {
              "internalType": "uint256",
              "name": "snsAccountsPubId",
              "type": "uint256"
            }
          ],
          "internalType": "struct IProfile.ProfileStruct",
          "name": "",
          "type": "tuple"
        }
      ],
      "stateMutability": "view",
      "type": "function"
    },
    {
      "inputs": [
        {
          "internalType": "uint256",
          "name": "profileId",
          "type": "uint256"
        }
      ],
      "name": "getSNSAccounts",
      "outputs": [
        {
          "components": [
            {
              "internalType": "string",
              "name": "service",
              "type": "string"
            },
            {
              "internalType": "string",
              "name": "userId",
              "type": "string"
            },
            {
              "internalType": "string",
              "name": "userPageURL",
              "type": "string"
            },
            {
              "internalType": "address",
              "name": "wallet",
              "type": "address"
            }
          ],
          "internalType": "struct ISNSAccountModule.SNSAccountStruct[]",
          "name": "",
          "type": "tuple[]"
        }
      ],
      "stateMutability": "view",
      "type": "function"
    },
    {
      "inputs": [
        {
          "internalType": "uint256",
          "name": "profileId",
          "type": "uint256"
        }
      ],
      "name": "getScore",
      "outputs": [
        {
          "components": [
            {
              "internalType": "string",
              "name": "name",
              "type": "string"
            },
            {
              "internalType": "uint256",
              "name": "point",
              "type": "uint256"
            }
          ],
          "internalType": "struct IScoreModule.ScoreStruct[]",
          "name": "",
          "type": "tuple[]"
        }
      ],
      "stateMutability": "view",
      "type": "function"
    },
    {
      "inputs": [
        {
          "internalType": "address",
          "name": "owner",
          "type": "address"
        },
        {
          "internalType": "address",
          "name": "operator",
          "type": "address"
        }
      ],
      "name": "isApprovedForAll",
      "outputs": [
        {
          "internalType": "bool",
          "name": "",
          "type": "bool"
        }
      ],
      "stateMutability": "view",
      "type": "function"
    },
    {
      "inputs": [],
      "name": "name",
      "outputs": [
        {
          "internalType": "string",
          "name": "",
          "type": "string"
        }
      ],
      "stateMutability": "view",
      "type": "function"
    },
    {
      "inputs": [],
      "name": "owner",
      "outputs": [
        {
          "internalType": "address",
          "name": "",
          "type": "address"
        }
      ],
      "stateMutability": "view",
      "type": "function"
    },
    {
      "inputs": [
        {
          "internalType": "uint256",
          "name": "tokenId",
          "type": "uint256"
        }
      ],
      "name": "ownerOf",
      "outputs": [
        {
          "internalType": "address",
          "name": "",
          "type": "address"
        }
      ],
      "stateMutability": "view",
      "type": "function"
    },
    {
      "inputs": [],
      "name": "renounceOwnership",
      "outputs": [],
      "stateMutability": "nonpayable",
      "type": "function"
    },
    {
      "inputs": [
        {
          "internalType": "address",
          "name": "from",
          "type": "address"
        },
        {
          "internalType": "address",
          "name": "to",
          "type": "address"
        },
        {
          "internalType": "uint256",
          "name": "tokenId",
          "type": "uint256"
        }
      ],
      "name": "safeTransferFrom",
      "outputs": [],
      "stateMutability": "nonpayable",
      "type": "function"
    },
    {
      "inputs": [
        {
          "internalType": "address",
          "name": "from",
          "type": "address"
        },
        {
          "internalType": "address",
          "name": "to",
          "type": "address"
        },
        {
          "internalType": "uint256",
          "name": "tokenId",
          "type": "uint256"
        },
        {
          "internalType": "bytes",
          "name": "data",
          "type": "bytes"
        }
      ],
      "name": "safeTransferFrom",
      "outputs": [],
      "stateMutability": "nonpayable",
      "type": "function"
    },
    {
      "inputs": [
        {
          "internalType": "address",
          "name": "operator",
          "type": "address"
        },
        {
          "internalType": "bool",
          "name": "approved",
          "type": "bool"
        }
      ],
      "name": "setApprovalForAll",
      "outputs": [],
      "stateMutability": "nonpayable",
      "type": "function"
    },
    {
      "inputs": [
        {
          "internalType": "address",
          "name": "globals",
          "type": "address"
        }
      ],
      "name": "setGlobals",
      "outputs": [],
      "stateMutability": "nonpayable",
      "type": "function"
    },
    {
      "inputs": [
        {
          "internalType": "bytes4",
          "name": "interfaceId",
          "type": "bytes4"
        }
      ],
      "name": "supportsInterface",
      "outputs": [
        {
          "internalType": "bool",
          "name": "",
          "type": "bool"
        }
      ],
      "stateMutability": "view",
      "type": "function"
    },
    {
      "inputs": [],
      "name": "symbol",
      "outputs": [
        {
          "internalType": "string",
          "name": "",
          "type": "string"
        }
      ],
      "stateMutability": "view",
      "type": "function"
    },
    {
      "inputs": [
        {
          "internalType": "uint256",
          "name": "index",
          "type": "uint256"
        }
      ],
      "name": "tokenByIndex",
      "outputs": [
        {
          "internalType": "uint256",
          "name": "",
          "type": "uint256"
        }
      ],
      "stateMutability": "view",
      "type": "function"
    },
    {
      "inputs": [
        {
          "internalType": "address",
          "name": "owner",
          "type": "address"
        },
        {
          "internalType": "uint256",
          "name": "index",
          "type": "uint256"
        }
      ],
      "name": "tokenOfOwnerByIndex",
      "outputs": [
        {
          "internalType": "uint256",
          "name": "",
          "type": "uint256"
        }
      ],
      "stateMutability": "view",
      "type": "function"
    },
    {
      "inputs": [
        {
          "internalType": "uint256",
          "name": "tokenId",
          "type": "uint256"
        }
      ],
      "name": "tokenURI",
      "outputs": [
        {
          "internalType": "string",
          "name": "",
          "type": "string"
        }
      ],
      "stateMutability": "view",
      "type": "function"
    },
    {
      "inputs": [],
      "name": "totalSupply",
      "outputs": [
        {
          "internalType": "uint256",
          "name": "",
          "type": "uint256"
        }
      ],
      "stateMutability": "view",
      "type": "function"
    },
    {
      "inputs": [
        {
          "internalType": "address",
          "name": "from",
          "type": "address"
        },
        {
          "internalType": "address",
          "name": "to",
          "type": "address"
        },
        {
          "internalType": "uint256",
          "name": "tokenId",
          "type": "uint256"
        }
      ],
      "name": "transferFrom",
      "outputs": [],
      "stateMutability": "nonpayable",
      "type": "function"
    },
    {
      "inputs": [
        {
          "internalType": "address",
          "name": "newOwner",
          "type": "address"
        }
      ],
      "name": "transferOwnership",
      "outputs": [],
      "stateMutability": "nonpayable",
      "type": "function"
    }
  ],
  "bytecode": "0x60806040523480156200001157600080fd5b50604051620040ca380380620040ca8339810160408190526200003491620001cd565b6040518060400160405280600781526020016650726f66696c6560c81b8152506040518060400160405280600781526020016650524f46494c4560c81b81525081600090805190602001906200008c92919062000127565b508051620000a290600190602084019062000127565b505050620000bf620000b9620000d160201b60201c565b620000d5565b620000ca81620000d5565b506200023c565b3390565b600a80546001600160a01b038381166001600160a01b0319831681179093556040519116919082907f8be0079c531659141344cd1fd0a4f28419497f9722a3daafe3b4186f6b6457e090600090a35050565b8280546200013590620001ff565b90600052602060002090601f016020900481019282620001595760008555620001a4565b82601f106200017457805160ff1916838001178555620001a4565b82800160010185558215620001a4579182015b82811115620001a457825182559160200191906001019062000187565b50620001b2929150620001b6565b5090565b5b80821115620001b25760008155600101620001b7565b600060208284031215620001e057600080fd5b81516001600160a01b0381168114620001f857600080fd5b9392505050565b600181811c908216806200021457607f821691505b602082108114156200023657634e487b7160e01b600052602260045260246000fd5b50919050565b613e7e806200024c6000396000f3fe608060405234801561001057600080fd5b50600436106102275760003560e01c8063715018a611610130578063a22cb465116100b8578063cc2e0a261161007c578063cc2e0a26146104e5578063e985e9c5146104f8578063e99ac60514610534578063f08f4f6414610547578063f2fde38b1461056757600080fd5b8063a22cb46514610486578063b85e446614610499578063b88d4fde146104ac578063b941d1db146104bf578063c87b56dd146104d257600080fd5b806395d89b41116100ff57806395d89b41146104325780639a82e2cb1461043a5780639d6d9a701461044d5780639dada313146104605780639f19a59d1461047357600080fd5b8063715018a6146103d95780637524fa07146103e157806380057b9a146104015780638da5cb5b1461042157600080fd5b80632f745c59116101b35780634f6ccce7116101825780634f6ccce71461037a5780635d7ecd5c1461038d5780636352211e146103a057806366815166146103b357806370a08231146103c657600080fd5b80632f745c591461032e57806342842e0e1461034157806348defab7146103545780634ddadfd21461036757600080fd5b8063095ea7b3116101fa578063095ea7b3146102b45780630e1af57b146102c95780631202dc61146102e957806318160ddd1461030957806323b872dd1461031b57600080fd5b806301ffc9a71461022c57806302f4c2ee1461025457806306fdde0314610274578063081812fc14610289575b600080fd5b61023f61023a366004612ac4565b61057a565b60405190151581526020015b60405180910390f35b610267610262366004612ae1565b6105a5565b60405161024b9190612b52565b61027c610627565b60405161024b9190612bf9565b61029c610297366004612ae1565b6106b9565b6040516001600160a01b03909116815260200161024b565b6102c76102c2366004612c21565b6106e0565b005b6102dc6102d7366004612ae1565b6107fb565b60405161024b9190612c4d565b6102fc6102f7366004612ae1565b6108db565b60405161024b9190612cb5565b6008545b60405190815260200161024b565b6102c7610329366004612d5c565b6109bb565b61030d61033c366004612c21565b6109ec565b6102c761034f366004612d5c565b610a82565b6102c7610362366004612de8565b610a9d565b6102c7610375366004612de8565b610b45565b61030d610388366004612ae1565b610b76565b6102c761039b366004612e33565b610c09565b61029c6103ae366004612ae1565b610d48565b6102c76103c1366004612f8e565b610da8565b61030d6103d4366004612fe8565b610eed565b6102c7610f73565b6103f46103ef366004612ae1565b610f87565b60405161024b9190613005565b61041461040f366004612ae1565b611067565b60405161024b919061306f565b600a546001600160a01b031661029c565b61027c611146565b6102c7610448366004612ae1565b611155565b6102c761045b3660046130d9565b611187565b61030d61046e366004613126565b6112c0565b610267610481366004612ae1565b6114da565b6102c761049436600461316e565b611533565b6102c76104a7366004612e33565b611542565b6102c76104ba36600461319c565b611675565b6102c76104cd36600461321b565b6116ad565b61027c6104e0366004612ae1565b61174a565b6102c76104f3366004612fe8565b6117d9565b61023f610506366004613240565b6001600160a01b03918216600090815260056020908152604080832093909416825291909152205460ff1690565b6102c7610542366004612de8565b611803565b61055a610555366004612ae1565b611880565b60405161024b919061326e565b6102c7610575366004612fe8565b611aec565b60006001600160e01b0319821663780e9d6360e01b148061059f575061059f82611b62565b92915050565b606061059f82600d60009054906101000a90046001600160a01b03166001600160a01b03166303b7af906040518163ffffffff1660e01b8152600401602060405180830381865afa1580156105fe573d6000803e3d6000fd5b505050506040513d601f19601f82011682018060405250810190610622919061332d565b611bb2565b6060600080546106369061334a565b80601f01602080910402602001604051908101604052809291908181526020018280546106629061334a565b80156106af5780601f10610684576101008083540402835291602001916106af565b820191906000526020600020905b81548152906001019060200180831161069257829003601f168201915b5050505050905090565b60006106c482611c22565b506000908152600460205260409020546001600160a01b031690565b60006106eb82610d48565b9050806001600160a01b0316836001600160a01b0316141561075e5760405162461bcd60e51b815260206004820152602160248201527f4552433732313a20617070726f76616c20746f2063757272656e74206f776e656044820152603960f91b60648201526084015b60405180910390fd5b336001600160a01b038216148061077a575061077a8133610506565b6107ec5760405162461bcd60e51b815260206004820152603e60248201527f4552433732313a20617070726f76652063616c6c6572206973206e6f7420746f60448201527f6b656e206f776e6572206e6f7220617070726f76656420666f7220616c6c00006064820152608401610755565b6107f68383611c81565b505050565b600d546040805163bd696d0960e01b815290516060926001600160a01b03169163bd696d099160048083019260209291908290030181865afa158015610845573d6000803e3d6000fd5b505050506040513d601f19601f82011682018060405250810190610869919061332d565b6001600160a01b0316630e1af57b836040518263ffffffff1660e01b815260040161089691815260200190565b600060405180830381865afa1580156108b3573d6000803e3d6000fd5b505050506040513d6000823e601f3d908101601f1916820160405261059f91908101906133ed565b600d54604080516323ebb8df60e11b815290516060926001600160a01b0316916347d771be9160048083019260209291908290030181865afa158015610925573d6000803e3d6000fd5b505050506040513d601f19601f82011682018060405250810190610949919061332d565b6001600160a01b0316631202dc61836040518263ffffffff1660e01b815260040161097691815260200190565b600060405180830381865afa158015610993573d6000803e3d6000fd5b505050506040513d6000823e601f3d908101601f1916820160405261059f91908101906134d8565b6109c53382611cef565b6109e15760405162461bcd60e51b815260040161075590613612565b6107f6838383611d6e565b60006109f783610eed565b8210610a595760405162461bcd60e51b815260206004820152602b60248201527f455243373231456e756d657261626c653a206f776e657220696e646578206f7560448201526a74206f6620626f756e647360a81b6064820152608401610755565b506001600160a01b03919091166000908152600660209081526040808320938352929052205490565b6107f683838360405180602001604052806000815250611675565b610aa73384611cef565b610ac35760405162461bcd60e51b815260040161075590613660565b6107f683600d60009054906101000a90046001600160a01b03166001600160a01b03166303b7af906040518163ffffffff1660e01b8152600401602060405180830381865afa158015610b1a573d6000803e3d6000fd5b505050506040513d601f19601f82011682018060405250810190610b3e919061332d565b8484611f15565b610b4f3384611cef565b610b6b5760405162461bcd60e51b815260040161075590613660565b6107f6838383611fc1565b6000610b8160085490565b8210610be45760405162461bcd60e51b815260206004820152602c60248201527f455243373231456e756d657261626c653a20676c6f62616c20696e646578206f60448201526b7574206f6620626f756e647360a01b6064820152608401610755565b60088281548110610bf757610bf76136a8565b90600052602060002001549050919050565b610c133383611cef565b610c2f5760405162461bcd60e51b815260040161075590613660565b600d60009054906101000a90046001600160a01b03166001600160a01b0316630b0292606040518163ffffffff1660e01b8152600401602060405180830381865afa158015610c82573d6000803e3d6000fd5b505050506040513d601f19601f82011682018060405250810190610ca6919061332d565b6040516323aa3e0f60e21b815260048101849052602481018390526001600160a01b039190911690638ea8f83c90604401600060405180830381600087803b158015610cf157600080fd5b505af1158015610d05573d6000803e3d6000fd5b5050505080827f689c0946d5bcb6c238777710f33d77eaf720fc5b2866cade374904e560dc46f643604051610d3c91815260200190565b60405180910390a35050565b6000818152600260205260408120546001600160a01b03168061059f5760405162461bcd60e51b8152602060048201526018602482015277115490cdcc8c4e881a5b9d985b1a59081d1bdad95b88125160421b6044820152606401610755565b610db23383611cef565b610dce5760405162461bcd60e51b815260040161075590613660565b600d54604080516258149360e51b815290516000926001600160a01b031691630b0292609160048083019260209291908290030181865afa158015610e17573d6000803e3d6000fd5b505050506040513d601f19601f82011682018060405250810190610e3b919061332d565b6001600160a01b0316636681516684846040518363ffffffff1660e01b8152600401610e689291906136be565b6020604051808303816000875af1158015610e87573d6000803e3d6000fd5b505050506040513d601f19601f82011682018060405250810190610eab91906136d7565b905080837f7de1fa55ce381ac320aa3b9feba4c878512f4f12f950af174962b3543a8f1fe943604051610ee091815260200190565b60405180910390a3505050565b60006001600160a01b038216610f575760405162461bcd60e51b815260206004820152602960248201527f4552433732313a2061646472657373207a65726f206973206e6f7420612076616044820152683634b21037bbb732b960b91b6064820152608401610755565b506001600160a01b031660009081526003602052604090205490565b610f7b6120d8565b610f856000612132565b565b600d546040805163ec22013f60e01b815290516060926001600160a01b03169163ec22013f9160048083019260209291908290030181865afa158015610fd1573d6000803e3d6000fd5b505050506040513d601f19601f82011682018060405250810190610ff5919061332d565b6001600160a01b0316637524fa07836040518263ffffffff1660e01b815260040161102291815260200190565b600060405180830381865afa15801561103f573d6000803e3d6000fd5b505050506040513d6000823e601f3d908101601f1916820160405261059f91908101906136f0565b600d54604080516258149360e51b815290516060926001600160a01b031691630b0292609160048083019260209291908290030181865afa1580156110b0573d6000803e3d6000fd5b505050506040513d601f19601f820116820180604052508101906110d4919061332d565b6001600160a01b03166380057b9a836040518263ffffffff1660e01b815260040161110191815260200190565b600060405180830381865afa15801561111e573d6000803e3d6000fd5b505050506040513d6000823e601f3d908101601f1916820160405261059f91908101906137c6565b6060600180546106369061334a565b61115f3382611cef565b61117b5760405162461bcd60e51b815260040161075590613660565b61118481612184565b50565b6111913383611cef565b6111ad5760405162461bcd60e51b815260040161075590613660565b600d546040805163ec22013f60e01b815290516000926001600160a01b03169163ec22013f9160048083019260209291908290030181865afa1580156111f7573d6000803e3d6000fd5b505050506040513d601f19601f8201168201806040525081019061121b919061332d565b6001600160a01b0316639d6d9a7084846040518363ffffffff1660e01b8152600401611248929190613921565b6020604051808303816000875af1158015611267573d6000803e3d6000fd5b505050506040513d601f19601f8201168201806040525081019061128b91906136d7565b905080837f44c8fa92ea188ac4a5d045570b403bd7d004b6ae9c6e6b173db92688d825786343604051610ee091815260200190565b600080600c600081546112d29061396c565b918290555090506113a681336112e88680613987565b8080601f01602080910402602001604051908101604052809392919081815260200183838082843760009201919091525061132a925050506020880188613987565b8080601f01602080910402602001604051908101604052809392919081815260200183838082843760009201919091525061136c925050506040890189613987565b8080601f01602080910402602001604051908101604052809392919081815260200183838082843760009201919091525061229792505050565b61143381600d60009054906101000a90046001600160a01b03166001600160a01b031663e14607de6040518163ffffffff1660e01b8152600401602060405180830381865afa1580156113fd573d6000803e3d6000fd5b505050506040513d601f19601f82011682018060405250810190611421919061332d565b61142e60608701876139cd565b611f15565b6114bb81600d60009054906101000a90046001600160a01b03166001600160a01b03166303b7af906040518163ffffffff1660e01b8152600401602060405180830381865afa15801561148a573d6000803e3d6000fd5b505050506040513d601f19601f820116820180604052508101906114ae919061332d565b61142e60808701876139cd565b6114d1816114cc60a08601866139cd565b611fc1565b61059f81612184565b606061059f82600d60009054906101000a90046001600160a01b03166001600160a01b031663e14607de6040518163ffffffff1660e01b8152600401602060405180830381865afa1580156105fe573d6000803e3d6000fd5b61153e33838361238a565b5050565b61154c3383611cef565b6115685760405162461bcd60e51b815260040161075590613660565b600d60009054906101000a90046001600160a01b03166001600160a01b0316630b0292606040518163ffffffff1660e01b8152600401602060405180830381865afa1580156115bb573d6000803e3d6000fd5b505050506040513d601f19601f820116820180604052508101906115df919061332d565b60405163b4ca798160e01b815260048101849052602481018390526001600160a01b03919091169063b4ca798190604401600060405180830381600087803b15801561162a57600080fd5b505af115801561163e573d6000803e3d6000fd5b5050505080827f3da6dc05893b68d5388c9343c22cf91e735f0fee64fbdbc04ec3ca41080afa2443604051610d3c91815260200190565b61167f3383611cef565b61169b5760405162461bcd60e51b815260040161075590613612565b6116a784848484612451565b50505050565b6116b73383611cef565b6116d35760405162461bcd60e51b815260040161075590613660565b6000828152600b6020908152604080832080546001810182559084529282902090920180546001600160a01b0319166001600160a01b0385169081179091558251858152918201527ff0306f4e8668d23ebcc691f3a47412cb3e3bc7a86b5be28204cf62853914ff15910160405180910390a15050565b606061175582611c22565b6000611787604080518082019091526013815272687474703a2f2f6578616d706c652e636f6d2f60681b602082015290565b905060008151116117a757604051806020016040528060008152506117d2565b806117b184612484565b6040516020016117c2929190613a16565b6040516020818303038152906040525b9392505050565b6117e16120d8565b600d80546001600160a01b0319166001600160a01b0392909216919091179055565b61180d3384611cef565b6118295760405162461bcd60e51b815260040161075590613660565b6107f683600d60009054906101000a90046001600160a01b03166001600160a01b031663e14607de6040518163ffffffff1660e01b8152600401602060405180830381865afa158015610b1a573d6000803e3d6000fd5b6118b26040518060a0016040528060608152602001606081526020016060815260200160608152602001600081525090565b6000828152600b60209081526040918290208251815460c09381028201840190945260a08101848152909391928492849184018282801561191c57602002820191906000526020600020905b81546001600160a01b031681526001909101906020018083116118fe575b505050505081526020016001820180546119359061334a565b80601f01602080910402602001604051908101604052809291908181526020018280546119619061334a565b80156119ae5780601f10611983576101008083540402835291602001916119ae565b820191906000526020600020905b81548152906001019060200180831161199157829003601f168201915b505050505081526020016002820180546119c79061334a565b80601f01602080910402602001604051908101604052809291908181526020018280546119f39061334a565b8015611a405780601f10611a1557610100808354040283529160200191611a40565b820191906000526020600020905b815481529060010190602001808311611a2357829003601f168201915b50505050508152602001600382018054611a599061334a565b80601f0160208091040260200160405190810160405280929190818152602001828054611a859061334a565b8015611ad25780601f10611aa757610100808354040283529160200191611ad2565b820191906000526020600020905b815481529060010190602001808311611ab557829003601f168201915b505050505081526020016004820154815250509050919050565b611af46120d8565b6001600160a01b038116611b595760405162461bcd60e51b815260206004820152602660248201527f4f776e61626c653a206e6577206f776e657220697320746865207a65726f206160448201526564647265737360d01b6064820152608401610755565b61118481612132565b60006001600160e01b031982166380ac58cd60e01b1480611b9357506001600160e01b03198216635b5e139f60e01b145b8061059f57506301ffc9a760e01b6001600160e01b031983161461059f565b604051630b43e78560e31b8152600481018390526060906001600160a01b03831690635a1f3c2890602401600060405180830381865afa158015611bfa573d6000803e3d6000fd5b505050506040513d6000823e601f3d908101601f191682016040526117d29190810190613a45565b6000818152600260205260409020546001600160a01b03166111845760405162461bcd60e51b8152602060048201526018602482015277115490cdcc8c4e881a5b9d985b1a59081d1bdad95b88125160421b6044820152606401610755565b600081815260046020526040902080546001600160a01b0319166001600160a01b0384169081179091558190611cb682610d48565b6001600160a01b03167f8c5be1e5ebec7d5bd14f71427d1e84f3dd0314c0f7b2291e5b200ac8c7c3b92560405160405180910390a45050565b600080611cfb83610d48565b9050806001600160a01b0316846001600160a01b03161480611d4257506001600160a01b0380821660009081526005602090815260408083209388168352929052205460ff165b80611d665750836001600160a01b0316611d5b846106b9565b6001600160a01b0316145b949350505050565b826001600160a01b0316611d8182610d48565b6001600160a01b031614611de55760405162461bcd60e51b815260206004820152602560248201527f4552433732313a207472616e736665722066726f6d20696e636f72726563742060448201526437bbb732b960d91b6064820152608401610755565b6001600160a01b038216611e475760405162461bcd60e51b8152602060048201526024808201527f4552433732313a207472616e7366657220746f20746865207a65726f206164646044820152637265737360e01b6064820152608401610755565b611e52838383612581565b611e5d600082611c81565b6001600160a01b0383166000908152600360205260408120805460019290611e86908490613b5c565b90915550506001600160a01b0382166000908152600360205260408120805460019290611eb4908490613b73565b909155505060008181526002602052604080822080546001600160a01b0319166001600160a01b0386811691821790925591518493918716917fddf252ad1be2c89b69c2b068fc378daa952ba7f163c4a11628f55a4df523b3ef91a4505050565b604051639e11313760e01b81526001600160a01b03841690639e11313790611f4590879086908690600401613b8b565b600060405180830381600087803b158015611f5f57600080fd5b505af1158015611f73573d6000803e3d6000fd5b50505050826001600160a01b0316847f368671e33babaefec9922793c2b772bfd5552fc5457ca10241a5922f14797f0643604051611fb391815260200190565b60405180910390a350505050565b600d60009054906101000a90046001600160a01b03166001600160a01b03166347d771be6040518163ffffffff1660e01b8152600401602060405180830381865afa158015612014573d6000803e3d6000fd5b505050506040513d601f19601f82011682018060405250810190612038919061332d565b6001600160a01b031663c71216508484846040518463ffffffff1660e01b815260040161206793929190613c6a565b600060405180830381600087803b15801561208157600080fd5b505af1158015612095573d6000803e3d6000fd5b50505050827f5b0d3563a9beca21ac123df26d944a2b6ebdbc5bd6ce911e3e62c696c3027a23436040516120cb91815260200190565b60405180910390a2505050565b600a546001600160a01b03163314610f855760405162461bcd60e51b815260206004820181905260248201527f4f776e61626c653a2063616c6c6572206973206e6f7420746865206f776e65726044820152606401610755565b600a80546001600160a01b038381166001600160a01b0319831681179093556040519116919082907f8be0079c531659141344cd1fd0a4f28419497f9722a3daafe3b4186f6b6457e090600090a35050565b600d60009054906101000a90046001600160a01b03166001600160a01b031663bd696d096040518163ffffffff1660e01b8152600401602060405180830381865afa1580156121d7573d6000803e3d6000fd5b505050506040513d601f19601f820116820180604052508101906121fb919061332d565b6001600160a01b031663778f6281826040518263ffffffff1660e01b815260040161222891815260200190565b600060405180830381600087803b15801561224257600080fd5b505af1158015612256573d6000803e3d6000fd5b50505050807f2689353491109488c9e4dbfe939f827ae1c8a589f8f19158ab955357e7685a024360405161228c91815260200190565b60405180910390a250565b6122a13386612639565b6000858152600b60209081526040822080546001808201835582855283852090910180546001600160a01b0319166001600160a01b038a161790559288905285516122f29390910191860190612a15565b506000858152600b60209081526040909120835161231892600290920191850190612a15565b506000858152600b60209081526040909120825161233e92600390920191840190612a15565b50836001600160a01b0316857f94c7a064468d8c8c92b4ce54d25c29022fbdb08117e1a0c6df34cbde87d3d2fb4360405161237b91815260200190565b60405180910390a35050505050565b816001600160a01b0316836001600160a01b031614156123ec5760405162461bcd60e51b815260206004820152601960248201527f4552433732313a20617070726f766520746f2063616c6c6572000000000000006044820152606401610755565b6001600160a01b03838116600081815260056020908152604080832094871680845294825291829020805460ff191686151590811790915591519182527f17307eab39ab6107e8899845ad3d59bd9653f200f220920489ca2b5937696c319101610ee0565b61245c848484611d6e565b61246884848484612787565b6116a75760405162461bcd60e51b815260040161075590613d52565b6060816124a85750506040805180820190915260018152600360fc1b602082015290565b8160005b81156124d257806124bc8161396c565b91506124cb9050600a83613dba565b91506124ac565b6000816001600160401b038111156124ec576124ec612e55565b6040519080825280601f01601f191660200182016040528015612516576020820181803683370190505b5090505b8415611d665761252b600183613b5c565b9150612538600a86613dce565b612543906030613b73565b60f81b818381518110612558576125586136a8565b60200101906001600160f81b031916908160001a90535061257a600a86613dba565b945061251a565b6001600160a01b0383166125dc576125d781600880546000838152600960205260408120829055600182018355919091527ff3f7a9fe364faab93b216da50a3214154f22a0a2b415b23a84c8169e8b636ee30155565b6125ff565b816001600160a01b0316836001600160a01b0316146125ff576125ff8382612885565b6001600160a01b038216612616576107f681612922565b826001600160a01b0316826001600160a01b0316146107f6576107f682826129d1565b6001600160a01b03821661268f5760405162461bcd60e51b815260206004820181905260248201527f4552433732313a206d696e7420746f20746865207a65726f20616464726573736044820152606401610755565b6000818152600260205260409020546001600160a01b0316156126f45760405162461bcd60e51b815260206004820152601c60248201527f4552433732313a20746f6b656e20616c7265616479206d696e746564000000006044820152606401610755565b61270060008383612581565b6001600160a01b0382166000908152600360205260408120805460019290612729908490613b73565b909155505060008181526002602052604080822080546001600160a01b0319166001600160a01b03861690811790915590518392907fddf252ad1be2c89b69c2b068fc378daa952ba7f163c4a11628f55a4df523b3ef908290a45050565b60006001600160a01b0384163b1561287a57604051630a85bd0160e11b81526001600160a01b0385169063150b7a02906127cb903390899088908890600401613de2565b6020604051808303816000875af1925050508015612806575060408051601f3d908101601f1916820190925261280391810190613e15565b60015b612860573d808015612834576040519150601f19603f3d011682016040523d82523d6000602084013e612839565b606091505b5080516128585760405162461bcd60e51b815260040161075590613d52565b805181602001fd5b6001600160e01b031916630a85bd0160e11b149050611d66565b506001949350505050565b6000600161289284610eed565b61289c9190613b5c565b6000838152600760205260409020549091508082146128ef576001600160a01b03841660009081526006602090815260408083208584528252808320548484528184208190558352600790915290208190555b5060009182526007602090815260408084208490556001600160a01b039094168352600681528383209183525290812055565b60085460009061293490600190613b5c565b6000838152600960205260408120546008805493945090928490811061295c5761295c6136a8565b90600052602060002001549050806008838154811061297d5761297d6136a8565b60009182526020808320909101929092558281526009909152604080822084905585825281205560088054806129b5576129b5613e32565b6001900381819060005260206000200160009055905550505050565b60006129dc83610eed565b6001600160a01b039093166000908152600660209081526040808320868452825280832085905593825260079052919091209190915550565b828054612a219061334a565b90600052602060002090601f016020900481019282612a435760008555612a89565b82601f10612a5c57805160ff1916838001178555612a89565b82800160010185558215612a89579182015b82811115612a89578251825591602001919060010190612a6e565b50612a95929150612a99565b5090565b5b80821115612a955760008155600101612a9a565b6001600160e01b03198116811461118457600080fd5b600060208284031215612ad657600080fd5b81356117d281612aae565b600060208284031215612af357600080fd5b5035919050565b60005b83811015612b15578181015183820152602001612afd565b838111156116a75750506000910152565b60008151808452612b3e816020860160208601612afa565b601f01601f19169290920160200192915050565b60006020808301818452808551808352604092508286019150828160051b87010184880160005b83811015612beb57888303603f19018552815180518452878101516001600160a01b0390811689860152878201518886015260608083015160a08288018190529290612bc784890182612b26565b60809586015190921697909401969096525050509386019390860190600101612b79565b509098975050505050505050565b6020815260006117d26020830184612b26565b6001600160a01b038116811461118457600080fd5b60008060408385031215612c3457600080fd5b8235612c3f81612c0c565b946020939093013593505050565b60006020808301818452808551808352604092508286019150828160051b87010184880160005b83811015612beb57888303603f1901855281518051878552612c9888860182612b26565b918901519489019490945294870194925090860190600101612c74565b60006020808301818452808551808352604092508286019150828160051b87010184880160005b83811015612beb57603f19898403018552815160808151818652612d0282870182612b26565b915050888201518582038a870152612d1a8282612b26565b9150508782015185820389870152612d328282612b26565b6060938401516001600160a01b031696909301959095525094870194925090860190600101612cdc565b600080600060608486031215612d7157600080fd5b8335612d7c81612c0c565b92506020840135612d8c81612c0c565b929592945050506040919091013590565b60008083601f840112612daf57600080fd5b5081356001600160401b03811115612dc657600080fd5b6020830191508360208260051b8501011115612de157600080fd5b9250929050565b600080600060408486031215612dfd57600080fd5b8335925060208401356001600160401b03811115612e1a57600080fd5b612e2686828701612d9d565b9497909650939450505050565b60008060408385031215612e4657600080fd5b50508035926020909101359150565b634e487b7160e01b600052604160045260246000fd5b604080519081016001600160401b0381118282101715612e8d57612e8d612e55565b60405290565b604051608081016001600160401b0381118282101715612e8d57612e8d612e55565b604051602081016001600160401b0381118282101715612e8d57612e8d612e55565b60405160a081016001600160401b0381118282101715612e8d57612e8d612e55565b604051601f8201601f191681016001600160401b0381118282101715612f2157612f21612e55565b604052919050565b60006001600160401b03821115612f4257612f42612e55565b50601f01601f191660200190565b6000612f63612f5e84612f29565b612ef9565b9050828152838383011115612f7757600080fd5b828260208301376000602084830101529392505050565b60008060408385031215612fa157600080fd5b8235915060208301356001600160401b03811115612fbe57600080fd5b8301601f81018513612fcf57600080fd5b612fde85823560208401612f50565b9150509250929050565b600060208284031215612ffa57600080fd5b81356117d281612c0c565b6000602080830181845280855180835260408601915060408160051b870101925083870160005b8281101561306257878503603f1901845281515186865261304f87870182612b26565b955050928501929085019060010161302c565b5092979650505050505050565b60006020808301818452808551808352604092508286019150828160051b87010184880160005b83811015612beb57888303603f19018552815180518785526130ba88860182612b26565b9189015115159489019490945294870194925090860190600101613096565b600080604083850312156130ec57600080fd5b8235915060208301356001600160401b0381111561310957600080fd5b83016020818603121561311b57600080fd5b809150509250929050565b60006020828403121561313857600080fd5b81356001600160401b0381111561314e57600080fd5b820160c081850312156117d257600080fd5b801515811461118457600080fd5b6000806040838503121561318157600080fd5b823561318c81612c0c565b9150602083013561311b81613160565b600080600080608085870312156131b257600080fd5b84356131bd81612c0c565b935060208501356131cd81612c0c565b92506040850135915060608501356001600160401b038111156131ef57600080fd5b8501601f8101871361320057600080fd5b61320f87823560208401612f50565b91505092959194509250565b6000806040838503121561322e57600080fd5b82359150602083013561311b81612c0c565b6000806040838503121561325357600080fd5b823561325e81612c0c565b9150602083013561311b81612c0c565b6020808252825160a083830152805160c0840181905260009291820190839060e08601905b808310156132bc5783516001600160a01b03168252928401926001929092019190840190613293565b50838701519350601f199250828682030160408701526132dc8185612b26565b935050506040850151818584030160608601526132f98382612b26565b9250506060850151818584030160808601526133158382612b26565b92505050608084015160a08401528091505092915050565b60006020828403121561333f57600080fd5b81516117d281612c0c565b600181811c9082168061335e57607f821691505b6020821081141561337f57634e487b7160e01b600052602260045260246000fd5b50919050565b60006001600160401b0382111561339e5761339e612e55565b5060051b60200190565b600082601f8301126133b957600080fd5b81516133c7612f5e82612f29565b8181528460208386010111156133dc57600080fd5b611d66826020830160208701612afa565b6000602080838503121561340057600080fd5b82516001600160401b038082111561341757600080fd5b818501915085601f83011261342b57600080fd5b8151613439612f5e82613385565b81815260059190911b8301840190848101908883111561345857600080fd5b8585015b838110156134cb578051858111156134745760008081fd5b86016040818c03601f190181131561348c5760008081fd5b613494612e6b565b89830151888111156134a65760008081fd5b6134b48e8c838701016133a8565b82525091015188820152835291860191860161345c565b5098975050505050505050565b600060208083850312156134eb57600080fd5b82516001600160401b038082111561350257600080fd5b818501915085601f83011261351657600080fd5b8151613524612f5e82613385565b81815260059190911b8301840190848101908883111561354357600080fd5b8585015b838110156134cb5780518581111561355e57600080fd5b86016080818c03601f190112156135755760008081fd5b61357d612e93565b888201518781111561358f5760008081fd5b61359d8d8b838601016133a8565b825250604080830151888111156135b45760008081fd5b6135c28e8c838701016133a8565b8b84015250606080840151898111156135db5760008081fd5b6135e98f8d838801016133a8565b8385015250608084015193506135fe84612c0c565b820192909252845250918601918601613547565b6020808252602e908201527f4552433732313a2063616c6c6572206973206e6f7420746f6b656e206f776e6560408201526d1c881b9bdc88185c1c1c9bdd995960921b606082015260800190565b60208082526028908201527f50726f66696c653a2063616c6c6572206973206e6f74206f776e6572206f7220604082015267185c1c1c9bdd995960c21b606082015260800190565b634e487b7160e01b600052603260045260246000fd5b828152604060208201526000611d666040830184612b26565b6000602082840312156136e957600080fd5b5051919050565b6000602080838503121561370357600080fd5b82516001600160401b038082111561371a57600080fd5b818501915085601f83011261372e57600080fd5b815161373c612f5e82613385565b81815260059190911b8301840190848101908883111561375b57600080fd5b8585015b838110156134cb578051858111156137775760008081fd5b8601808b03601f190188131561378d5760008081fd5b613795612eb5565b88820151878111156137a75760008081fd5b6137b58d8b838601016133a8565b82525084525091860191860161375f565b600060208083850312156137d957600080fd5b82516001600160401b03808211156137f057600080fd5b818501915085601f83011261380457600080fd5b8151613812612f5e82613385565b81815260059190911b8301840190848101908883111561383157600080fd5b8585015b838110156134cb5780518581111561384d5760008081fd5b86016040818c03601f19018113156138655760008081fd5b61386d612e6b565b898301518881111561387f5760008081fd5b61388d8e8c838701016133a8565b825250918101519161389e83613160565b808a0192909252508352918601918601613835565b6000808335601e198436030181126138ca57600080fd5b83016020810192503590506001600160401b038111156138e957600080fd5b803603831315612de157600080fd5b81835281816020850137506000828201602090810191909152601f909101601f19169091010190565b82815260406020820152600061393783846138b3565b6020604085015261394c6060850182846138f8565b9695505050505050565b634e487b7160e01b600052601160045260246000fd5b600060001982141561398057613980613956565b5060010190565b6000808335601e1984360301811261399e57600080fd5b8301803591506001600160401b038211156139b857600080fd5b602001915036819003821315612de157600080fd5b6000808335601e198436030181126139e457600080fd5b8301803591506001600160401b038211156139fe57600080fd5b6020019150600581901b3603821315612de157600080fd5b60008351613a28818460208801612afa565b835190830190613a3c818360208801612afa565b01949350505050565b60006020808385031215613a5857600080fd5b82516001600160401b0380821115613a6f57600080fd5b818501915085601f830112613a8357600080fd5b8151613a91612f5e82613385565b81815260059190911b83018401908481019088831115613ab057600080fd5b8585015b838110156134cb57805185811115613acb57600080fd5b860160a0818c03601f19011215613ae25760008081fd5b613aea612ed7565b888201518152604080830151613aff81612c0c565b808b8401525060608084015182840152608091508184015189811115613b255760008081fd5b613b338f8d838801016133a8565b82850152505060a08301519250613b4983612c0c565b8101919091528352918601918601613ab4565b600082821015613b6e57613b6e613956565b500390565b60008219821115613b8657613b86613956565b500190565b600060408083018684526020828186015281868352606092508286019050828760051b870101886000805b8a811015613c5957898403605f190185528235368d9003609e19018112613bdb578283fd5b8c018035855260a087820135613bf081612c0c565b6001600160a01b03818116888b0152838c01358c890152613c138b8501856138b3565b9250838c8a0152613c27848a0184836138f8565b93505060809150818401359350613c3d84612c0c565b9290921695909101949094529385019391850191600101613bb6565b50919b9a5050505050505050505050565b600060408083018684526020828186015281868352606092508286019050828760051b870101886000805b8a811015613c5957898403605f190185528235368d9003607e19018112613cba578283fd5b8c016080613cc882806138b3565b828852613cd883890182846138f8565b92505050613ce8888301836138b3565b8783038a890152613cfa8382846138f8565b92505050613d0a8a8301836138b3565b8783038c890152613d1c8382846138f8565b92505050888201359150613d2f82612c0c565b6001600160a01b0391909116948801949094529385019391850191600101613c95565b60208082526032908201527f4552433732313a207472616e7366657220746f206e6f6e20455243373231526560408201527131b2b4bb32b91034b6b83632b6b2b73a32b960711b606082015260800190565b634e487b7160e01b600052601260045260246000fd5b600082613dc957613dc9613da4565b500490565b600082613ddd57613ddd613da4565b500690565b6001600160a01b038581168252841660208201526040810183905260806060820181905260009061394c90830184612b26565b600060208284031215613e2757600080fd5b81516117d281612aae565b634e487b7160e01b600052603160045260246000fdfea26469706673582212200153d7b8d3ce40d26e2c690c44177bd6e4368e1e3a0c1e7a84ad2ecd193e369d64736f6c634300080a0033",
  "linkReferences": {},
  "deployedLinkReferences": {}
}