{
  "_format": "hh-sol-artifact-1",
  "contractName": "Profile",
  "sourceName": "contracts/core/Profile.sol",
  "abi": [
    {
      "inputs": [
        {
          "internalType": "address",
          "name": "owner",
          "type": "address"
        }
      ],
      "stateMutability": "nonpayable",
      "type": "constructor"
    },
    {
      "anonymous": false,
      "inputs": [
        {
          "indexed": true,
          "internalType": "address",
          "name": "owner",
          "type": "address"
        },
        {
          "indexed": true,
          "internalType": "address",
          "name": "approved",
          "type": "address"
        },
        {
          "indexed": true,
          "internalType": "uint256",
          "name": "tokenId",
          "type": "uint256"
        }
      ],
      "name": "Approval",
      "type": "event"
    },
    {
      "anonymous": false,
      "inputs": [
        {
          "indexed": true,
          "internalType": "address",
          "name": "owner",
          "type": "address"
        },
        {
          "indexed": true,
          "internalType": "address",
          "name": "operator",
          "type": "address"
        },
        {
          "indexed": false,
          "internalType": "bool",
          "name": "approved",
          "type": "bool"
        }
      ],
      "name": "ApprovalForAll",
      "type": "event"
    },
    {
      "anonymous": false,
      "inputs": [
        {
          "indexed": true,
          "internalType": "uint256",
          "name": "profileId",
          "type": "uint256"
        },
        {
          "indexed": true,
          "internalType": "uint256",
          "name": "pubId",
          "type": "uint256"
        },
        {
          "components": [
            {
              "internalType": "uint256",
              "name": "chainId",
              "type": "uint256"
            },
            {
              "internalType": "address",
              "name": "contractAddress",
              "type": "address"
            },
            {
              "internalType": "uint256",
              "name": "tokenId",
              "type": "uint256"
            },
            {
              "internalType": "string",
              "name": "tokenURI",
              "type": "string"
            },
            {
              "internalType": "address",
              "name": "wallet",
              "type": "address"
            }
          ],
          "indexed": false,
          "internalType": "struct INFTCollectionModule.NFTStruct[]",
          "name": "nfts",
          "type": "tuple[]"
        },
        {
          "indexed": false,
          "internalType": "uint256",
          "name": "blockNumber",
          "type": "uint256"
        }
      ],
      "name": "NFTCollectionCreated",
      "type": "event"
    },
    {
      "anonymous": false,
      "inputs": [
        {
          "indexed": true,
          "internalType": "address",
          "name": "previousOwner",
          "type": "address"
        },
        {
          "indexed": true,
          "internalType": "address",
          "name": "newOwner",
          "type": "address"
        }
      ],
      "name": "OwnershipTransferred",
      "type": "event"
    },
    {
      "anonymous": false,
      "inputs": [
        {
          "indexed": true,
          "internalType": "address",
          "name": "wallet",
          "type": "address"
        },
        {
          "indexed": false,
          "internalType": "uint256",
          "name": "profileId",
          "type": "uint256"
        },
        {
          "indexed": false,
          "internalType": "string",
          "name": "handle",
          "type": "string"
        },
        {
          "indexed": false,
          "internalType": "string",
          "name": "imageURI",
          "type": "string"
        },
        {
          "indexed": false,
          "internalType": "uint256",
          "name": "blockNumber",
          "type": "uint256"
        }
      ],
      "name": "ProfileCreated",
      "type": "event"
    },
    {
      "anonymous": false,
      "inputs": [
        {
          "indexed": true,
          "internalType": "address",
          "name": "from",
          "type": "address"
        },
        {
          "indexed": true,
          "internalType": "address",
          "name": "to",
          "type": "address"
        },
        {
          "indexed": true,
          "internalType": "uint256",
          "name": "tokenId",
          "type": "uint256"
        }
      ],
      "name": "Transfer",
      "type": "event"
    },
    {
      "anonymous": false,
      "inputs": [
        {
          "indexed": false,
          "internalType": "uint256",
          "name": "profileId",
          "type": "uint256"
        },
        {
          "indexed": false,
          "internalType": "address",
          "name": "wallet",
          "type": "address"
        }
      ],
      "name": "WalletAdded",
      "type": "event"
    },
    {
      "inputs": [
        {
          "internalType": "uint256",
          "name": "profileId",
          "type": "uint256"
        },
        {
          "internalType": "address",
          "name": "wallet",
          "type": "address"
        }
      ],
      "name": "addWallet",
      "outputs": [],
      "stateMutability": "nonpayable",
      "type": "function"
    },
    {
      "inputs": [
        {
          "internalType": "address",
          "name": "to",
          "type": "address"
        },
        {
          "internalType": "uint256",
          "name": "tokenId",
          "type": "uint256"
        }
      ],
      "name": "approve",
      "outputs": [],
      "stateMutability": "nonpayable",
      "type": "function"
    },
    {
      "inputs": [
        {
          "internalType": "address",
          "name": "owner",
          "type": "address"
        }
      ],
      "name": "balanceOf",
      "outputs": [
        {
          "internalType": "uint256",
          "name": "",
          "type": "uint256"
        }
      ],
      "stateMutability": "view",
      "type": "function"
    },
    {
      "inputs": [
        {
          "internalType": "uint256",
          "name": "profileId",
          "type": "uint256"
        },
        {
          "components": [
            {
              "internalType": "uint256",
              "name": "chainId",
              "type": "uint256"
            },
            {
              "internalType": "address",
              "name": "contractAddress",
              "type": "address"
            },
            {
              "internalType": "uint256",
              "name": "tokenId",
              "type": "uint256"
            },
            {
              "internalType": "string",
              "name": "tokenURI",
              "type": "string"
            },
            {
              "internalType": "address",
              "name": "wallet",
              "type": "address"
            }
          ],
          "internalType": "struct INFTCollectionModule.NFTStruct[]",
          "name": "nfts",
          "type": "tuple[]"
        }
      ],
      "name": "createNFTCollection",
      "outputs": [],
      "stateMutability": "nonpayable",
      "type": "function"
    },
    {
      "inputs": [
        {
          "components": [
            {
              "internalType": "string",
              "name": "handle",
              "type": "string"
            },
            {
              "internalType": "string",
              "name": "imageURI",
              "type": "string"
            },
            {
              "components": [
                {
                  "internalType": "uint256",
                  "name": "chainId",
                  "type": "uint256"
                },
                {
                  "internalType": "address",
                  "name": "contractAddress",
                  "type": "address"
                },
                {
                  "internalType": "uint256",
                  "name": "tokenId",
                  "type": "uint256"
                },
                {
                  "internalType": "string",
                  "name": "tokenURI",
                  "type": "string"
                },
                {
                  "internalType": "address",
                  "name": "wallet",
                  "type": "address"
                }
              ],
              "internalType": "struct INFTCollectionModule.NFTStruct[]",
              "name": "nfts",
              "type": "tuple[]"
            }
          ],
          "internalType": "struct IProfile.CreateProfileStructData",
          "name": "vars",
          "type": "tuple"
        }
      ],
      "name": "createProfile",
      "outputs": [
        {
          "internalType": "uint256",
          "name": "",
          "type": "uint256"
        }
      ],
      "stateMutability": "nonpayable",
      "type": "function"
    },
    {
      "inputs": [
        {
          "internalType": "uint256",
          "name": "tokenId",
          "type": "uint256"
        }
      ],
      "name": "getApproved",
      "outputs": [
        {
          "internalType": "address",
          "name": "",
          "type": "address"
        }
      ],
      "stateMutability": "view",
      "type": "function"
    },
    {
      "inputs": [
        {
          "internalType": "uint256",
          "name": "profileId",
          "type": "uint256"
        },
        {
          "internalType": "uint256",
          "name": "nftCollectionPubId",
          "type": "uint256"
        }
      ],
      "name": "getNFTCollection",
      "outputs": [
        {
          "components": [
            {
              "internalType": "uint256",
              "name": "chainId",
              "type": "uint256"
            },
            {
              "internalType": "address",
              "name": "contractAddress",
              "type": "address"
            },
            {
              "internalType": "uint256",
              "name": "tokenId",
              "type": "uint256"
            },
            {
              "internalType": "string",
              "name": "tokenURI",
              "type": "string"
            },
            {
              "internalType": "address",
              "name": "wallet",
              "type": "address"
            }
          ],
          "internalType": "struct INFTCollectionModule.NFTStruct[]",
          "name": "",
          "type": "tuple[]"
        }
      ],
      "stateMutability": "view",
      "type": "function"
    },
    {
      "inputs": [
        {
          "internalType": "uint256",
          "name": "profileId",
          "type": "uint256"
        }
      ],
      "name": "getProfile",
      "outputs": [
        {
          "components": [
            {
              "internalType": "address[]",
              "name": "wallets",
              "type": "address[]"
            },
            {
              "internalType": "string",
              "name": "handle",
              "type": "string"
            },
            {
              "internalType": "string",
              "name": "imageURI",
              "type": "string"
            },
            {
              "internalType": "uint256",
              "name": "nftCollectionPubId",
              "type": "uint256"
            }
          ],
          "internalType": "struct IProfile.ProfileStruct",
          "name": "",
          "type": "tuple"
        }
      ],
      "stateMutability": "view",
      "type": "function"
    },
    {
      "inputs": [
        {
          "internalType": "address",
          "name": "owner",
          "type": "address"
        },
        {
          "internalType": "address",
          "name": "operator",
          "type": "address"
        }
      ],
      "name": "isApprovedForAll",
      "outputs": [
        {
          "internalType": "bool",
          "name": "",
          "type": "bool"
        }
      ],
      "stateMutability": "view",
      "type": "function"
    },
    {
      "inputs": [],
      "name": "name",
      "outputs": [
        {
          "internalType": "string",
          "name": "",
          "type": "string"
        }
      ],
      "stateMutability": "view",
      "type": "function"
    },
    {
      "inputs": [],
      "name": "owner",
      "outputs": [
        {
          "internalType": "address",
          "name": "",
          "type": "address"
        }
      ],
      "stateMutability": "view",
      "type": "function"
    },
    {
      "inputs": [
        {
          "internalType": "uint256",
          "name": "tokenId",
          "type": "uint256"
        }
      ],
      "name": "ownerOf",
      "outputs": [
        {
          "internalType": "address",
          "name": "",
          "type": "address"
        }
      ],
      "stateMutability": "view",
      "type": "function"
    },
    {
      "inputs": [],
      "name": "renounceOwnership",
      "outputs": [],
      "stateMutability": "nonpayable",
      "type": "function"
    },
    {
      "inputs": [
        {
          "internalType": "address",
          "name": "from",
          "type": "address"
        },
        {
          "internalType": "address",
          "name": "to",
          "type": "address"
        },
        {
          "internalType": "uint256",
          "name": "tokenId",
          "type": "uint256"
        }
      ],
      "name": "safeTransferFrom",
      "outputs": [],
      "stateMutability": "nonpayable",
      "type": "function"
    },
    {
      "inputs": [
        {
          "internalType": "address",
          "name": "from",
          "type": "address"
        },
        {
          "internalType": "address",
          "name": "to",
          "type": "address"
        },
        {
          "internalType": "uint256",
          "name": "tokenId",
          "type": "uint256"
        },
        {
          "internalType": "bytes",
          "name": "data",
          "type": "bytes"
        }
      ],
      "name": "safeTransferFrom",
      "outputs": [],
      "stateMutability": "nonpayable",
      "type": "function"
    },
    {
      "inputs": [
        {
          "internalType": "address",
          "name": "operator",
          "type": "address"
        },
        {
          "internalType": "bool",
          "name": "approved",
          "type": "bool"
        }
      ],
      "name": "setApprovalForAll",
      "outputs": [],
      "stateMutability": "nonpayable",
      "type": "function"
    },
    {
      "inputs": [
        {
          "internalType": "address",
          "name": "nftCollectionModule",
          "type": "address"
        }
      ],
      "name": "setNFTCollectionModule",
      "outputs": [],
      "stateMutability": "nonpayable",
      "type": "function"
    },
    {
      "inputs": [
        {
          "internalType": "bytes4",
          "name": "interfaceId",
          "type": "bytes4"
        }
      ],
      "name": "supportsInterface",
      "outputs": [
        {
          "internalType": "bool",
          "name": "",
          "type": "bool"
        }
      ],
      "stateMutability": "view",
      "type": "function"
    },
    {
      "inputs": [],
      "name": "symbol",
      "outputs": [
        {
          "internalType": "string",
          "name": "",
          "type": "string"
        }
      ],
      "stateMutability": "view",
      "type": "function"
    },
    {
      "inputs": [
        {
          "internalType": "uint256",
          "name": "index",
          "type": "uint256"
        }
      ],
      "name": "tokenByIndex",
      "outputs": [
        {
          "internalType": "uint256",
          "name": "",
          "type": "uint256"
        }
      ],
      "stateMutability": "view",
      "type": "function"
    },
    {
      "inputs": [
        {
          "internalType": "address",
          "name": "owner",
          "type": "address"
        },
        {
          "internalType": "uint256",
          "name": "index",
          "type": "uint256"
        }
      ],
      "name": "tokenOfOwnerByIndex",
      "outputs": [
        {
          "internalType": "uint256",
          "name": "",
          "type": "uint256"
        }
      ],
      "stateMutability": "view",
      "type": "function"
    },
    {
      "inputs": [
        {
          "internalType": "uint256",
          "name": "tokenId",
          "type": "uint256"
        }
      ],
      "name": "tokenURI",
      "outputs": [
        {
          "internalType": "string",
          "name": "",
          "type": "string"
        }
      ],
      "stateMutability": "view",
      "type": "function"
    },
    {
      "inputs": [],
      "name": "totalSupply",
      "outputs": [
        {
          "internalType": "uint256",
          "name": "",
          "type": "uint256"
        }
      ],
      "stateMutability": "view",
      "type": "function"
    },
    {
      "inputs": [
        {
          "internalType": "address",
          "name": "from",
          "type": "address"
        },
        {
          "internalType": "address",
          "name": "to",
          "type": "address"
        },
        {
          "internalType": "uint256",
          "name": "tokenId",
          "type": "uint256"
        }
      ],
      "name": "transferFrom",
      "outputs": [],
      "stateMutability": "nonpayable",
      "type": "function"
    },
    {
      "inputs": [
        {
          "internalType": "address",
          "name": "newOwner",
          "type": "address"
        }
      ],
      "name": "transferOwnership",
      "outputs": [],
      "stateMutability": "nonpayable",
      "type": "function"
    }
  ],
  "bytecode": "0x60806040523480156200001157600080fd5b5060405162004864380380620048648339818101604052810190620000379190620002f7565b6040518060400160405280600781526020017f50726f66696c65000000000000000000000000000000000000000000000000008152506040518060400160405280600781526020017f50524f46494c45000000000000000000000000000000000000000000000000008152508160009080519060200190620000bb929190620001dd565b508060019080519060200190620000d4929190620001dd565b505050620000f7620000eb6200010f60201b60201c565b6200011760201b60201c565b62000108816200011760201b60201c565b506200038e565b600033905090565b6000600a60009054906101000a900473ffffffffffffffffffffffffffffffffffffffff16905081600a60006101000a81548173ffffffffffffffffffffffffffffffffffffffff021916908373ffffffffffffffffffffffffffffffffffffffff1602179055508173ffffffffffffffffffffffffffffffffffffffff168173ffffffffffffffffffffffffffffffffffffffff167f8be0079c531659141344cd1fd0a4f28419497f9722a3daafe3b4186f6b6457e060405160405180910390a35050565b828054620001eb9062000358565b90600052602060002090601f0160209004810192826200020f57600085556200025b565b82601f106200022a57805160ff19168380011785556200025b565b828001600101855582156200025b579182015b828111156200025a5782518255916020019190600101906200023d565b5b5090506200026a91906200026e565b5090565b5b80821115620002895760008160009055506001016200026f565b5090565b600080fd5b600073ffffffffffffffffffffffffffffffffffffffff82169050919050565b6000620002bf8262000292565b9050919050565b620002d181620002b2565b8114620002dd57600080fd5b50565b600081519050620002f181620002c6565b92915050565b60006020828403121562000310576200030f6200028d565b5b60006200032084828501620002e0565b91505092915050565b7f4e487b7100000000000000000000000000000000000000000000000000000000600052602260045260246000fd5b600060028204905060018216806200037157607f821691505b6020821081141562000388576200038762000329565b5b50919050565b6144c6806200039e6000396000f3fe608060405234801561001057600080fd5b50600436106101735760003560e01c806370a08231116100de578063b941d1db11610097578063e99ac60511610071578063e99ac6051461046e578063f08f4f641461048a578063f2fde38b146104ba578063fe22830c146104d657610173565b8063b941d1db146103f2578063c87b56dd1461040e578063e985e9c51461043e57610173565b806370a0823114610344578063715018a6146103745780638da5cb5b1461037e57806395d89b411461039c578063a22cb465146103ba578063b88d4fde146103d657610173565b806323b872dd1161013057806323b872dd1461024c5780632f745c591461026857806338385e8c1461029857806342842e0e146102c85780634f6ccce7146102e45780636352211e1461031457610173565b806301ffc9a71461017857806306fdde03146101a8578063081812fc146101c657806308a71390146101f6578063095ea7b31461021257806318160ddd1461022e575b600080fd5b610192600480360381019061018d9190612799565b610506565b60405161019f91906127e1565b60405180910390f35b6101b0610580565b6040516101bd9190612895565b60405180910390f35b6101e060048036038101906101db91906128ed565b610612565b6040516101ed919061295b565b60405180910390f35b610210600480360381019061020b91906129a2565b610658565b005b61022c600480360381019061022791906129cf565b6106a4565b005b6102366107bc565b6040516102439190612a1e565b60405180910390f35b61026660048036038101906102619190612a39565b6107c9565b005b610282600480360381019061027d91906129cf565b610829565b60405161028f9190612a1e565b60405180910390f35b6102b260048036038101906102ad9190612a8c565b6108ce565b6040516102bf9190612c6c565b60405180910390f35b6102e260048036038101906102dd9190612a39565b61097b565b005b6102fe60048036038101906102f991906128ed565b61099b565b60405161030b9190612a1e565b60405180910390f35b61032e600480360381019061032991906128ed565b610a0c565b60405161033b919061295b565b60405180910390f35b61035e600480360381019061035991906129a2565b610abe565b60405161036b9190612a1e565b60405180910390f35b61037c610b76565b005b610386610b8a565b604051610393919061295b565b60405180910390f35b6103a4610bb4565b6040516103b19190612895565b60405180910390f35b6103d460048036038101906103cf9190612cba565b610c46565b005b6103f060048036038101906103eb9190612e2f565b610c5c565b005b61040c60048036038101906104079190612eb2565b610cbe565b005b610428600480360381019061042391906128ed565b610dbb565b6040516104359190612895565b60405180910390f35b61045860048036038101906104539190612ef2565b610e23565b60405161046591906127e1565b60405180910390f35b61048860048036038101906104839190612f92565b610eb7565b005b6104a4600480360381019061049f91906128ed565b610f39565b6040516104b19190613112565b60405180910390f35b6104d460048036038101906104cf91906129a2565b611122565b005b6104f060048036038101906104eb9190613158565b6111a6565b6040516104fd9190612a1e565b60405180910390f35b60007f780e9d63000000000000000000000000000000000000000000000000000000007bffffffffffffffffffffffffffffffffffffffffffffffffffffffff1916827bffffffffffffffffffffffffffffffffffffffffffffffffffffffff1916148061057957506105788261135d565b5b9050919050565b60606000805461058f906131d0565b80601f01602080910402602001604051908101604052809291908181526020018280546105bb906131d0565b80156106085780601f106105dd57610100808354040283529160200191610608565b820191906000526020600020905b8154815290600101906020018083116105eb57829003601f168201915b5050505050905090565b600061061d8261143f565b6004600083815260200190815260200160002060009054906101000a900473ffffffffffffffffffffffffffffffffffffffff169050919050565b61066061148a565b80600d60006101000a81548173ffffffffffffffffffffffffffffffffffffffff021916908373ffffffffffffffffffffffffffffffffffffffff16021790555050565b60006106af82610a0c565b90508073ffffffffffffffffffffffffffffffffffffffff168373ffffffffffffffffffffffffffffffffffffffff161415610720576040517f08c379a000000000000000000000000000000000000000000000000000000000815260040161071790613274565b60405180910390fd5b8073ffffffffffffffffffffffffffffffffffffffff1661073f611508565b73ffffffffffffffffffffffffffffffffffffffff16148061076e575061076d81610768611508565b610e23565b5b6107ad576040517f08c379a00000000000000000000000000000000000000000000000000000000081526004016107a490613306565b60405180910390fd5b6107b78383611510565b505050565b6000600880549050905090565b6107da6107d4611508565b826115c9565b610819576040517f08c379a000000000000000000000000000000000000000000000000000000000815260040161081090613398565b60405180910390fd5b61082483838361165e565b505050565b600061083483610abe565b8210610875576040517f08c379a000000000000000000000000000000000000000000000000000000000815260040161086c9061342a565b60405180910390fd5b600660008473ffffffffffffffffffffffffffffffffffffffff1673ffffffffffffffffffffffffffffffffffffffff168152602001908152602001600020600083815260200190815260200160002054905092915050565b6060600d60009054906101000a900473ffffffffffffffffffffffffffffffffffffffff1673ffffffffffffffffffffffffffffffffffffffff16630ff711c384846040518363ffffffff1660e01b815260040161092d92919061344a565b600060405180830381865afa15801561094a573d6000803e3d6000fd5b505050506040513d6000823e3d601f19601f8201168201806040525081019061097391906136d1565b905092915050565b61099683838360405180602001604052806000815250610c5c565b505050565b60006109a56107bc565b82106109e6576040517f08c379a00000000000000000000000000000000000000000000000000000000081526004016109dd9061378c565b60405180910390fd5b600882815481106109fa576109f96137ac565b5b90600052602060002001549050919050565b6000806002600084815260200190815260200160002060009054906101000a900473ffffffffffffffffffffffffffffffffffffffff169050600073ffffffffffffffffffffffffffffffffffffffff168173ffffffffffffffffffffffffffffffffffffffff161415610ab5576040517f08c379a0000000000000000000000000000000000000000000000000000000008152600401610aac90613827565b60405180910390fd5b80915050919050565b60008073ffffffffffffffffffffffffffffffffffffffff168273ffffffffffffffffffffffffffffffffffffffff161415610b2f576040517f08c379a0000000000000000000000000000000000000000000000000000000008152600401610b26906138b9565b60405180910390fd5b600360008373ffffffffffffffffffffffffffffffffffffffff1673ffffffffffffffffffffffffffffffffffffffff168152602001908152602001600020549050919050565b610b7e61148a565b610b8860006118c5565b565b6000600a60009054906101000a900473ffffffffffffffffffffffffffffffffffffffff16905090565b606060018054610bc3906131d0565b80601f0160208091040260200160405190810160405280929190818152602001828054610bef906131d0565b8015610c3c5780601f10610c1157610100808354040283529160200191610c3c565b820191906000526020600020905b815481529060010190602001808311610c1f57829003601f168201915b5050505050905090565b610c58610c51611508565b838361198b565b5050565b610c6d610c67611508565b836115c9565b610cac576040517f08c379a0000000000000000000000000000000000000000000000000000000008152600401610ca390613398565b60405180910390fd5b610cb884848484611af8565b50505050565b610cc833836115c9565b610d07576040517f08c379a0000000000000000000000000000000000000000000000000000000008152600401610cfe9061394b565b60405180910390fd5b600b6000838152602001908152602001600020600001819080600181540180825580915050600190039060005260206000200160009091909190916101000a81548173ffffffffffffffffffffffffffffffffffffffff021916908373ffffffffffffffffffffffffffffffffffffffff1602179055507ff0306f4e8668d23ebcc691f3a47412cb3e3bc7a86b5be28204cf62853914ff158282604051610daf92919061396b565b60405180910390a15050565b6060610dc68261143f565b6000610dd0611b54565b90506000815111610df05760405180602001604052806000815250610e1b565b80610dfa84611b91565b604051602001610e0b9291906139d0565b6040516020818303038152906040525b915050919050565b6000600560008473ffffffffffffffffffffffffffffffffffffffff1673ffffffffffffffffffffffffffffffffffffffff16815260200190815260200160002060008373ffffffffffffffffffffffffffffffffffffffff1673ffffffffffffffffffffffffffffffffffffffff16815260200190815260200160002060009054906101000a900460ff16905092915050565b610ec133846115c9565b610f00576040517f08c379a0000000000000000000000000000000000000000000000000000000008152600401610ef79061394b565b60405180910390fd5b610f3483600b600086815260200190815260200160002060030160008154610f2790613a23565b9190508190558484611cf2565b505050565b610f41612662565b600b600083815260200190815260200160002060405180608001604052908160008201805480602002602001604051908101604052809291908181526020018280548015610fe457602002820191906000526020600020905b8160009054906101000a900473ffffffffffffffffffffffffffffffffffffffff1673ffffffffffffffffffffffffffffffffffffffff1681526020019060010190808311610f9a575b50505050508152602001600182018054610ffd906131d0565b80601f0160208091040260200160405190810160405280929190818152602001828054611029906131d0565b80156110765780601f1061104b57610100808354040283529160200191611076565b820191906000526020600020905b81548152906001019060200180831161105957829003601f168201915b5050505050815260200160028201805461108f906131d0565b80601f01602080910402602001604051908101604052809291908181526020018280546110bb906131d0565b80156111085780601f106110dd57610100808354040283529160200191611108565b820191906000526020600020905b8154815290600101906020018083116110eb57829003601f168201915b505050505081526020016003820154815250509050919050565b61112a61148a565b600073ffffffffffffffffffffffffffffffffffffffff168173ffffffffffffffffffffffffffffffffffffffff16141561119a576040517f08c379a000000000000000000000000000000000000000000000000000000000815260040161119190613ade565b60405180910390fd5b6111a3816118c5565b50565b600080600c600081546111b890613a23565b91905081905590506111ca3382611de3565b600b6000828152602001908152602001600020600001339080600181540180825580915050600190039060005260206000200160009091909190916101000a81548173ffffffffffffffffffffffffffffffffffffffff021916908373ffffffffffffffffffffffffffffffffffffffff1602179055508280600001906112519190613b0d565b600b6000848152602001908152602001600020600101919061127492919061268a565b508280602001906112859190613b0d565b600b600084815260200190815260200160002060020191906112a892919061268a565b506000600b6000838152602001908152602001600020600301819055506112e08160018580604001906112db9190613b70565b611cf2565b3373ffffffffffffffffffffffffffffffffffffffff167fc1422e75502faf8c82e2a97f85271cdfcbe44cd4dfb5f5d334f8d0e0a9a8503e828580600001906113299190613b0d565b8780602001906113399190613b0d565b4360405161134c96959493929190613c00565b60405180910390a280915050919050565b60007f80ac58cd000000000000000000000000000000000000000000000000000000007bffffffffffffffffffffffffffffffffffffffffffffffffffffffff1916827bffffffffffffffffffffffffffffffffffffffffffffffffffffffff1916148061142857507f5b5e139f000000000000000000000000000000000000000000000000000000007bffffffffffffffffffffffffffffffffffffffffffffffffffffffff1916827bffffffffffffffffffffffffffffffffffffffffffffffffffffffff1916145b80611438575061143782611fbd565b5b9050919050565b61144881612027565b611487576040517f08c379a000000000000000000000000000000000000000000000000000000000815260040161147e90613827565b60405180910390fd5b50565b611492611508565b73ffffffffffffffffffffffffffffffffffffffff166114b0610b8a565b73ffffffffffffffffffffffffffffffffffffffff1614611506576040517f08c379a00000000000000000000000000000000000000000000000000000000081526004016114fd90613ca3565b60405180910390fd5b565b600033905090565b816004600083815260200190815260200160002060006101000a81548173ffffffffffffffffffffffffffffffffffffffff021916908373ffffffffffffffffffffffffffffffffffffffff160217905550808273ffffffffffffffffffffffffffffffffffffffff1661158383610a0c565b73ffffffffffffffffffffffffffffffffffffffff167f8c5be1e5ebec7d5bd14f71427d1e84f3dd0314c0f7b2291e5b200ac8c7c3b92560405160405180910390a45050565b6000806115d583610a0c565b90508073ffffffffffffffffffffffffffffffffffffffff168473ffffffffffffffffffffffffffffffffffffffff16148061161757506116168185610e23565b5b8061165557508373ffffffffffffffffffffffffffffffffffffffff1661163d84610612565b73ffffffffffffffffffffffffffffffffffffffff16145b91505092915050565b8273ffffffffffffffffffffffffffffffffffffffff1661167e82610a0c565b73ffffffffffffffffffffffffffffffffffffffff16146116d4576040517f08c379a00000000000000000000000000000000000000000000000000000000081526004016116cb90613d35565b60405180910390fd5b600073ffffffffffffffffffffffffffffffffffffffff168273ffffffffffffffffffffffffffffffffffffffff161415611744576040517f08c379a000000000000000000000000000000000000000000000000000000000815260040161173b90613dc7565b60405180910390fd5b61174f838383612093565b61175a600082611510565b6001600360008573ffffffffffffffffffffffffffffffffffffffff1673ffffffffffffffffffffffffffffffffffffffff16815260200190815260200160002060008282546117aa9190613de7565b925050819055506001600360008473ffffffffffffffffffffffffffffffffffffffff1673ffffffffffffffffffffffffffffffffffffffff16815260200190815260200160002060008282546118019190613e1b565b92505081905550816002600083815260200190815260200160002060006101000a81548173ffffffffffffffffffffffffffffffffffffffff021916908373ffffffffffffffffffffffffffffffffffffffff160217905550808273ffffffffffffffffffffffffffffffffffffffff168473ffffffffffffffffffffffffffffffffffffffff167fddf252ad1be2c89b69c2b068fc378daa952ba7f163c4a11628f55a4df523b3ef60405160405180910390a46118c08383836121a7565b505050565b6000600a60009054906101000a900473ffffffffffffffffffffffffffffffffffffffff16905081600a60006101000a81548173ffffffffffffffffffffffffffffffffffffffff021916908373ffffffffffffffffffffffffffffffffffffffff1602179055508173ffffffffffffffffffffffffffffffffffffffff168173ffffffffffffffffffffffffffffffffffffffff167f8be0079c531659141344cd1fd0a4f28419497f9722a3daafe3b4186f6b6457e060405160405180910390a35050565b8173ffffffffffffffffffffffffffffffffffffffff168373ffffffffffffffffffffffffffffffffffffffff1614156119fa576040517f08c379a00000000000000000000000000000000000000000000000000000000081526004016119f190613ebd565b60405180910390fd5b80600560008573ffffffffffffffffffffffffffffffffffffffff1673ffffffffffffffffffffffffffffffffffffffff16815260200190815260200160002060008473ffffffffffffffffffffffffffffffffffffffff1673ffffffffffffffffffffffffffffffffffffffff16815260200190815260200160002060006101000a81548160ff0219169083151502179055508173ffffffffffffffffffffffffffffffffffffffff168373ffffffffffffffffffffffffffffffffffffffff167f17307eab39ab6107e8899845ad3d59bd9653f200f220920489ca2b5937696c3183604051611aeb91906127e1565b60405180910390a3505050565b611b0384848461165e565b611b0f848484846121ac565b611b4e576040517f08c379a0000000000000000000000000000000000000000000000000000000008152600401611b4590613f4f565b60405180910390fd5b50505050565b60606040518060400160405280601381526020017f687474703a2f2f6578616d706c652e636f6d2f00000000000000000000000000815250905090565b60606000821415611bd9576040518060400160405280600181526020017f30000000000000000000000000000000000000000000000000000000000000008152509050611ced565b600082905060005b60008214611c0b578080611bf490613a23565b915050600a82611c049190613f9e565b9150611be1565b60008167ffffffffffffffff811115611c2757611c26612d04565b5b6040519080825280601f01601f191660200182016040528015611c595781602001600182028036833780820191505090505b5090505b60008514611ce657600182611c729190613de7565b9150600a85611c819190613fcf565b6030611c8d9190613e1b565b60f81b818381518110611ca357611ca26137ac565b5b60200101907effffffffffffffffffffffffffffffffffffffffffffffffffffffffffffff1916908160001a905350600a85611cdf9190613f9e565b9450611c5d565b8093505050505b919050565b600d60009054906101000a900473ffffffffffffffffffffffffffffffffffffffff1673ffffffffffffffffffffffffffffffffffffffff1663934129a7858585856040518563ffffffff1660e01b8152600401611d539493929190614234565b600060405180830381600087803b158015611d6d57600080fd5b505af1158015611d81573d6000803e3d6000fd5b5050505082600b60008681526020019081526020016000206003018190555082847f9449144c2b3a81c6b7b5cf2679e3e1c1008bbb300e50bb4911c1a7f9c9af369c848443604051611dd593929190614274565b60405180910390a350505050565b600073ffffffffffffffffffffffffffffffffffffffff168273ffffffffffffffffffffffffffffffffffffffff161415611e53576040517f08c379a0000000000000000000000000000000000000000000000000000000008152600401611e4a906142f2565b60405180910390fd5b611e5c81612027565b15611e9c576040517f08c379a0000000000000000000000000000000000000000000000000000000008152600401611e939061435e565b60405180910390fd5b611ea860008383612093565b6001600360008473ffffffffffffffffffffffffffffffffffffffff1673ffffffffffffffffffffffffffffffffffffffff1681526020019081526020016000206000828254611ef89190613e1b565b92505081905550816002600083815260200190815260200160002060006101000a81548173ffffffffffffffffffffffffffffffffffffffff021916908373ffffffffffffffffffffffffffffffffffffffff160217905550808273ffffffffffffffffffffffffffffffffffffffff16600073ffffffffffffffffffffffffffffffffffffffff167fddf252ad1be2c89b69c2b068fc378daa952ba7f163c4a11628f55a4df523b3ef60405160405180910390a4611fb9600083836121a7565b5050565b60007f01ffc9a7000000000000000000000000000000000000000000000000000000007bffffffffffffffffffffffffffffffffffffffffffffffffffffffff1916827bffffffffffffffffffffffffffffffffffffffffffffffffffffffff1916149050919050565b60008073ffffffffffffffffffffffffffffffffffffffff166002600084815260200190815260200160002060009054906101000a900473ffffffffffffffffffffffffffffffffffffffff1673ffffffffffffffffffffffffffffffffffffffff1614159050919050565b61209e838383612334565b600073ffffffffffffffffffffffffffffffffffffffff168373ffffffffffffffffffffffffffffffffffffffff1614156120e1576120dc81612339565b612120565b8173ffffffffffffffffffffffffffffffffffffffff168373ffffffffffffffffffffffffffffffffffffffff161461211f5761211e8382612382565b5b5b600073ffffffffffffffffffffffffffffffffffffffff168273ffffffffffffffffffffffffffffffffffffffff1614156121635761215e816124ef565b6121a2565b8273ffffffffffffffffffffffffffffffffffffffff168273ffffffffffffffffffffffffffffffffffffffff16146121a1576121a082826125c0565b5b5b505050565b505050565b60006121cd8473ffffffffffffffffffffffffffffffffffffffff1661263f565b15612327578373ffffffffffffffffffffffffffffffffffffffff1663150b7a026121f6611508565b8786866040518563ffffffff1660e01b815260040161221894939291906143d3565b6020604051808303816000875af192505050801561225457506040513d601f19601f820116820180604052508101906122519190614434565b60015b6122d7573d8060008114612284576040519150601f19603f3d011682016040523d82523d6000602084013e612289565b606091505b506000815114156122cf576040517f08c379a00000000000000000000000000000000000000000000000000000000081526004016122c690613f4f565b60405180910390fd5b805181602001fd5b63150b7a0260e01b7bffffffffffffffffffffffffffffffffffffffffffffffffffffffff1916817bffffffffffffffffffffffffffffffffffffffffffffffffffffffff19161491505061232c565b600190505b949350505050565b505050565b6008805490506009600083815260200190815260200160002081905550600881908060018154018082558091505060019003906000526020600020016000909190919091505550565b6000600161238f84610abe565b6123999190613de7565b905060006007600084815260200190815260200160002054905081811461247e576000600660008673ffffffffffffffffffffffffffffffffffffffff1673ffffffffffffffffffffffffffffffffffffffff168152602001908152602001600020600084815260200190815260200160002054905080600660008773ffffffffffffffffffffffffffffffffffffffff1673ffffffffffffffffffffffffffffffffffffffff168152602001908152602001600020600084815260200190815260200160002081905550816007600083815260200190815260200160002081905550505b6007600084815260200190815260200160002060009055600660008573ffffffffffffffffffffffffffffffffffffffff1673ffffffffffffffffffffffffffffffffffffffff16815260200190815260200160002060008381526020019081526020016000206000905550505050565b600060016008805490506125039190613de7565b9050600060096000848152602001908152602001600020549050600060088381548110612533576125326137ac565b5b906000526020600020015490508060088381548110612555576125546137ac565b5b9060005260206000200181905550816009600083815260200190815260200160002081905550600960008581526020019081526020016000206000905560088054806125a4576125a3614461565b5b6001900381819060005260206000200160009055905550505050565b60006125cb83610abe565b905081600660008573ffffffffffffffffffffffffffffffffffffffff1673ffffffffffffffffffffffffffffffffffffffff168152602001908152602001600020600083815260200190815260200160002081905550806007600084815260200190815260200160002081905550505050565b6000808273ffffffffffffffffffffffffffffffffffffffff163b119050919050565b6040518060800160405280606081526020016060815260200160608152602001600081525090565b828054612696906131d0565b90600052602060002090601f0160209004810192826126b857600085556126ff565b82601f106126d157803560ff19168380011785556126ff565b828001600101855582156126ff579182015b828111156126fe5782358255916020019190600101906126e3565b5b50905061270c9190612710565b5090565b5b80821115612729576000816000905550600101612711565b5090565b6000604051905090565b600080fd5b600080fd5b60007fffffffff0000000000000000000000000000000000000000000000000000000082169050919050565b61277681612741565b811461278157600080fd5b50565b6000813590506127938161276d565b92915050565b6000602082840312156127af576127ae612737565b5b60006127bd84828501612784565b91505092915050565b60008115159050919050565b6127db816127c6565b82525050565b60006020820190506127f660008301846127d2565b92915050565b600081519050919050565b600082825260208201905092915050565b60005b8381101561283657808201518184015260208101905061281b565b83811115612845576000848401525b50505050565b6000601f19601f8301169050919050565b6000612867826127fc565b6128718185612807565b9350612881818560208601612818565b61288a8161284b565b840191505092915050565b600060208201905081810360008301526128af818461285c565b905092915050565b6000819050919050565b6128ca816128b7565b81146128d557600080fd5b50565b6000813590506128e7816128c1565b92915050565b60006020828403121561290357612902612737565b5b6000612911848285016128d8565b91505092915050565b600073ffffffffffffffffffffffffffffffffffffffff82169050919050565b60006129458261291a565b9050919050565b6129558161293a565b82525050565b6000602082019050612970600083018461294c565b92915050565b61297f8161293a565b811461298a57600080fd5b50565b60008135905061299c81612976565b92915050565b6000602082840312156129b8576129b7612737565b5b60006129c68482850161298d565b91505092915050565b600080604083850312156129e6576129e5612737565b5b60006129f48582860161298d565b9250506020612a05858286016128d8565b9150509250929050565b612a18816128b7565b82525050565b6000602082019050612a336000830184612a0f565b92915050565b600080600060608486031215612a5257612a51612737565b5b6000612a608682870161298d565b9350506020612a718682870161298d565b9250506040612a82868287016128d8565b9150509250925092565b60008060408385031215612aa357612aa2612737565b5b6000612ab1858286016128d8565b9250506020612ac2858286016128d8565b9150509250929050565b600081519050919050565b600082825260208201905092915050565b6000819050602082019050919050565b612b01816128b7565b82525050565b612b108161293a565b82525050565b600082825260208201905092915050565b6000612b32826127fc565b612b3c8185612b16565b9350612b4c818560208601612818565b612b558161284b565b840191505092915050565b600060a083016000830151612b786000860182612af8565b506020830151612b8b6020860182612b07565b506040830151612b9e6040860182612af8565b5060608301518482036060860152612bb68282612b27565b9150506080830151612bcb6080860182612b07565b508091505092915050565b6000612be28383612b60565b905092915050565b6000602082019050919050565b6000612c0282612acc565b612c0c8185612ad7565b935083602082028501612c1e85612ae8565b8060005b85811015612c5a5784840389528151612c3b8582612bd6565b9450612c4683612bea565b925060208a01995050600181019050612c22565b50829750879550505050505092915050565b60006020820190508181036000830152612c868184612bf7565b905092915050565b612c97816127c6565b8114612ca257600080fd5b50565b600081359050612cb481612c8e565b92915050565b60008060408385031215612cd157612cd0612737565b5b6000612cdf8582860161298d565b9250506020612cf085828601612ca5565b9150509250929050565b600080fd5b600080fd5b7f4e487b7100000000000000000000000000000000000000000000000000000000600052604160045260246000fd5b612d3c8261284b565b810181811067ffffffffffffffff82111715612d5b57612d5a612d04565b5b80604052505050565b6000612d6e61272d565b9050612d7a8282612d33565b919050565b600067ffffffffffffffff821115612d9a57612d99612d04565b5b612da38261284b565b9050602081019050919050565b82818337600083830152505050565b6000612dd2612dcd84612d7f565b612d64565b905082815260208101848484011115612dee57612ded612cff565b5b612df9848285612db0565b509392505050565b600082601f830112612e1657612e15612cfa565b5b8135612e26848260208601612dbf565b91505092915050565b60008060008060808587031215612e4957612e48612737565b5b6000612e578782880161298d565b9450506020612e688782880161298d565b9350506040612e79878288016128d8565b925050606085013567ffffffffffffffff811115612e9a57612e9961273c565b5b612ea687828801612e01565b91505092959194509250565b60008060408385031215612ec957612ec8612737565b5b6000612ed7858286016128d8565b9250506020612ee88582860161298d565b9150509250929050565b60008060408385031215612f0957612f08612737565b5b6000612f178582860161298d565b9250506020612f288582860161298d565b9150509250929050565b600080fd5b600080fd5b60008083601f840112612f5257612f51612cfa565b5b8235905067ffffffffffffffff811115612f6f57612f6e612f32565b5b602083019150836020820283011115612f8b57612f8a612f37565b5b9250929050565b600080600060408486031215612fab57612faa612737565b5b6000612fb9868287016128d8565b935050602084013567ffffffffffffffff811115612fda57612fd961273c565b5b612fe686828701612f3c565b92509250509250925092565b600081519050919050565b600082825260208201905092915050565b6000819050602082019050919050565b600061302a8383612b07565b60208301905092915050565b6000602082019050919050565b600061304e82612ff2565b6130588185612ffd565b93506130638361300e565b8060005b8381101561309457815161307b888261301e565b975061308683613036565b925050600181019050613067565b5085935050505092915050565b600060808301600083015184820360008601526130be8282613043565b915050602083015184820360208601526130d88282612b27565b915050604083015184820360408601526130f28282612b27565b91505060608301516131076060860182612af8565b508091505092915050565b6000602082019050818103600083015261312c81846130a1565b905092915050565b600080fd5b60006060828403121561314f5761314e613134565b5b81905092915050565b60006020828403121561316e5761316d612737565b5b600082013567ffffffffffffffff81111561318c5761318b61273c565b5b61319884828501613139565b91505092915050565b7f4e487b7100000000000000000000000000000000000000000000000000000000600052602260045260246000fd5b600060028204905060018216806131e857607f821691505b602082108114156131fc576131fb6131a1565b5b50919050565b7f4552433732313a20617070726f76616c20746f2063757272656e74206f776e6560008201527f7200000000000000000000000000000000000000000000000000000000000000602082015250565b600061325e602183612807565b915061326982613202565b604082019050919050565b6000602082019050818103600083015261328d81613251565b9050919050565b7f4552433732313a20617070726f76652063616c6c6572206973206e6f7420746f60008201527f6b656e206f776e6572206e6f7220617070726f76656420666f7220616c6c0000602082015250565b60006132f0603e83612807565b91506132fb82613294565b604082019050919050565b6000602082019050818103600083015261331f816132e3565b9050919050565b7f4552433732313a2063616c6c6572206973206e6f7420746f6b656e206f776e6560008201527f72206e6f7220617070726f766564000000000000000000000000000000000000602082015250565b6000613382602e83612807565b915061338d82613326565b604082019050919050565b600060208201905081810360008301526133b181613375565b9050919050565b7f455243373231456e756d657261626c653a206f776e657220696e646578206f7560008201527f74206f6620626f756e6473000000000000000000000000000000000000000000602082015250565b6000613414602b83612807565b915061341f826133b8565b604082019050919050565b6000602082019050818103600083015261344381613407565b9050919050565b600060408201905061345f6000830185612a0f565b61346c6020830184612a0f565b9392505050565b600067ffffffffffffffff82111561348e5761348d612d04565b5b602082029050602081019050919050565b600080fd5b600080fd5b6000815190506134b8816128c1565b92915050565b6000815190506134cd81612976565b92915050565b600067ffffffffffffffff8211156134ee576134ed612d04565b5b6134f78261284b565b9050602081019050919050565b6000613517613512846134d3565b612d64565b90508281526020810184848401111561353357613532612cff565b5b61353e848285612818565b509392505050565b600082601f83011261355b5761355a612cfa565b5b815161356b848260208601613504565b91505092915050565b600060a0828403121561358a5761358961349f565b5b61359460a0612d64565b905060006135a4848285016134a9565b60008301525060206135b8848285016134be565b60208301525060406135cc848285016134a9565b604083015250606082015167ffffffffffffffff8111156135f0576135ef6134a4565b5b6135fc84828501613546565b6060830152506080613610848285016134be565b60808301525092915050565b600061362f61362a84613473565b612d64565b9050808382526020820190506020840283018581111561365257613651612f37565b5b835b8181101561369957805167ffffffffffffffff81111561367757613676612cfa565b5b8086016136848982613574565b85526020850194505050602081019050613654565b5050509392505050565b600082601f8301126136b8576136b7612cfa565b5b81516136c884826020860161361c565b91505092915050565b6000602082840312156136e7576136e6612737565b5b600082015167ffffffffffffffff8111156137055761370461273c565b5b613711848285016136a3565b91505092915050565b7f455243373231456e756d657261626c653a20676c6f62616c20696e646578206f60008201527f7574206f6620626f756e64730000000000000000000000000000000000000000602082015250565b6000613776602c83612807565b91506137818261371a565b604082019050919050565b600060208201905081810360008301526137a581613769565b9050919050565b7f4e487b7100000000000000000000000000000000000000000000000000000000600052603260045260246000fd5b7f4552433732313a20696e76616c696420746f6b656e2049440000000000000000600082015250565b6000613811601883612807565b915061381c826137db565b602082019050919050565b6000602082019050818103600083015261384081613804565b9050919050565b7f4552433732313a2061646472657373207a65726f206973206e6f74206120766160008201527f6c6964206f776e65720000000000000000000000000000000000000000000000602082015250565b60006138a3602983612807565b91506138ae82613847565b604082019050919050565b600060208201905081810360008301526138d281613896565b9050919050565b7f50726f66696c653a2063616c6c6572206973206e6f74206f776e6572206f722060008201527f617070726f766564000000000000000000000000000000000000000000000000602082015250565b6000613935602883612807565b9150613940826138d9565b604082019050919050565b6000602082019050818103600083015261396481613928565b9050919050565b60006040820190506139806000830185612a0f565b61398d602083018461294c565b9392505050565b600081905092915050565b60006139aa826127fc565b6139b48185613994565b93506139c4818560208601612818565b80840191505092915050565b60006139dc828561399f565b91506139e8828461399f565b91508190509392505050565b7f4e487b7100000000000000000000000000000000000000000000000000000000600052601160045260246000fd5b6000613a2e826128b7565b91507fffffffffffffffffffffffffffffffffffffffffffffffffffffffffffffffff821415613a6157613a606139f4565b5b600182019050919050565b7f4f776e61626c653a206e6577206f776e657220697320746865207a65726f206160008201527f6464726573730000000000000000000000000000000000000000000000000000602082015250565b6000613ac8602683612807565b9150613ad382613a6c565b604082019050919050565b60006020820190508181036000830152613af781613abb565b9050919050565b600080fd5b600080fd5b600080fd5b60008083356001602003843603038112613b2a57613b29613afe565b5b80840192508235915067ffffffffffffffff821115613b4c57613b4b613b03565b5b602083019250600182023603831315613b6857613b67613b08565b5b509250929050565b60008083356001602003843603038112613b8d57613b8c613afe565b5b80840192508235915067ffffffffffffffff821115613baf57613bae613b03565b5b602083019250602082023603831315613bcb57613bca613b08565b5b509250929050565b6000613bdf8385612807565b9350613bec838584612db0565b613bf58361284b565b840190509392505050565b6000608082019050613c156000830189612a0f565b8181036020830152613c28818789613bd3565b90508181036040830152613c3d818587613bd3565b9050613c4c6060830184612a0f565b979650505050505050565b7f4f776e61626c653a2063616c6c6572206973206e6f7420746865206f776e6572600082015250565b6000613c8d602083612807565b9150613c9882613c57565b602082019050919050565b60006020820190508181036000830152613cbc81613c80565b9050919050565b7f4552433732313a207472616e736665722066726f6d20696e636f72726563742060008201527f6f776e6572000000000000000000000000000000000000000000000000000000602082015250565b6000613d1f602583612807565b9150613d2a82613cc3565b604082019050919050565b60006020820190508181036000830152613d4e81613d12565b9050919050565b7f4552433732313a207472616e7366657220746f20746865207a65726f2061646460008201527f7265737300000000000000000000000000000000000000000000000000000000602082015250565b6000613db1602483612807565b9150613dbc82613d55565b604082019050919050565b60006020820190508181036000830152613de081613da4565b9050919050565b6000613df2826128b7565b9150613dfd836128b7565b925082821015613e1057613e0f6139f4565b5b828203905092915050565b6000613e26826128b7565b9150613e31836128b7565b9250827fffffffffffffffffffffffffffffffffffffffffffffffffffffffffffffffff03821115613e6657613e656139f4565b5b828201905092915050565b7f4552433732313a20617070726f766520746f2063616c6c657200000000000000600082015250565b6000613ea7601983612807565b9150613eb282613e71565b602082019050919050565b60006020820190508181036000830152613ed681613e9a565b9050919050565b7f4552433732313a207472616e7366657220746f206e6f6e20455243373231526560008201527f63656976657220696d706c656d656e7465720000000000000000000000000000602082015250565b6000613f39603283612807565b9150613f4482613edd565b604082019050919050565b60006020820190508181036000830152613f6881613f2c565b9050919050565b7f4e487b7100000000000000000000000000000000000000000000000000000000600052601260045260246000fd5b6000613fa9826128b7565b9150613fb4836128b7565b925082613fc457613fc3613f6f565b5b828204905092915050565b6000613fda826128b7565b9150613fe5836128b7565b925082613ff557613ff4613f6f565b5b828206905092915050565b6000819050919050565b600061401960208401846128d8565b905092915050565b6000614030602084018461298d565b905092915050565b600080fd5b600080fd5b600080fd5b6000808335600160200384360303811261406457614063614042565b5b83810192508235915060208301925067ffffffffffffffff82111561408c5761408b614038565b5b6001820236038413156140a2576140a161403d565b5b509250929050565b60006140b68385612b16565b93506140c3838584612db0565b6140cc8361284b565b840190509392505050565b600060a083016140ea600084018461400a565b6140f76000860182612af8565b506141056020840184614021565b6141126020860182612b07565b50614120604084018461400a565b61412d6040860182612af8565b5061413b6060840184614047565b858303606087015261414e8382846140aa565b9250505061415f6080840184614021565b61416c6080860182612b07565b508091505092915050565b600061418383836140d7565b905092915050565b60008235600160a0038336030381126141a7576141a6614042565b5b82810191505092915050565b6000602082019050919050565b60006141cc8385612ad7565b9350836020840285016141de84614000565b8060005b878110156142225784840389526141f9828461418b565b6142038582614177565b945061420e836141b3565b925060208a019950506001810190506141e2565b50829750879450505050509392505050565b60006060820190506142496000830187612a0f565b6142566020830186612a0f565b81810360408301526142698184866141c0565b905095945050505050565b6000604082019050818103600083015261428f8185876141c0565b905061429e6020830184612a0f565b949350505050565b7f4552433732313a206d696e7420746f20746865207a65726f2061646472657373600082015250565b60006142dc602083612807565b91506142e7826142a6565b602082019050919050565b6000602082019050818103600083015261430b816142cf565b9050919050565b7f4552433732313a20746f6b656e20616c7265616479206d696e74656400000000600082015250565b6000614348601c83612807565b915061435382614312565b602082019050919050565b600060208201905081810360008301526143778161433b565b9050919050565b600081519050919050565b600082825260208201905092915050565b60006143a58261437e565b6143af8185614389565b93506143bf818560208601612818565b6143c88161284b565b840191505092915050565b60006080820190506143e8600083018761294c565b6143f5602083018661294c565b6144026040830185612a0f565b8181036060830152614414818461439a565b905095945050505050565b60008151905061442e8161276d565b92915050565b60006020828403121561444a57614449612737565b5b60006144588482850161441f565b91505092915050565b7f4e487b7100000000000000000000000000000000000000000000000000000000600052603160045260246000fdfea264697066735822122027cd966c4b4f1d6f3a49f85db0aeb7a3f370df5160b350b746a34509790a449864736f6c634300080a0033",
  "linkReferences": {},
  "deployedLinkReferences": {}
}