{
  "_format": "hh-sol-artifact-1",
  "contractName": "Profile",
  "sourceName": "contracts/core/Profile.sol",
  "abi": [
    {
      "inputs": [
        {
          "internalType": "address",
          "name": "owner",
          "type": "address"
        }
      ],
      "stateMutability": "nonpayable",
      "type": "constructor"
    },
    {
      "anonymous": false,
      "inputs": [
        {
          "indexed": true,
          "internalType": "address",
          "name": "owner",
          "type": "address"
        },
        {
          "indexed": true,
          "internalType": "address",
          "name": "approved",
          "type": "address"
        },
        {
          "indexed": true,
          "internalType": "uint256",
          "name": "tokenId",
          "type": "uint256"
        }
      ],
      "name": "Approval",
      "type": "event"
    },
    {
      "anonymous": false,
      "inputs": [
        {
          "indexed": true,
          "internalType": "address",
          "name": "owner",
          "type": "address"
        },
        {
          "indexed": true,
          "internalType": "address",
          "name": "operator",
          "type": "address"
        },
        {
          "indexed": false,
          "internalType": "bool",
          "name": "approved",
          "type": "bool"
        }
      ],
      "name": "ApprovalForAll",
      "type": "event"
    },
    {
      "anonymous": false,
      "inputs": [
        {
          "indexed": true,
          "internalType": "uint256",
          "name": "profileId",
          "type": "uint256"
        },
        {
          "indexed": true,
          "internalType": "uint256",
          "name": "extensionId",
          "type": "uint256"
        },
        {
          "indexed": false,
          "internalType": "uint256",
          "name": "blockNumber",
          "type": "uint256"
        }
      ],
      "name": "ColorActivated",
      "type": "event"
    },
    {
      "anonymous": false,
      "inputs": [
        {
          "indexed": true,
          "internalType": "uint256",
          "name": "profileId",
          "type": "uint256"
        },
        {
          "indexed": true,
          "internalType": "uint256",
          "name": "extensionId",
          "type": "uint256"
        },
        {
          "indexed": false,
          "internalType": "uint256",
          "name": "blockNumber",
          "type": "uint256"
        }
      ],
      "name": "ColorAdded",
      "type": "event"
    },
    {
      "anonymous": false,
      "inputs": [
        {
          "indexed": true,
          "internalType": "uint256",
          "name": "profileId",
          "type": "uint256"
        },
        {
          "indexed": true,
          "internalType": "uint256",
          "name": "extensionId",
          "type": "uint256"
        },
        {
          "indexed": false,
          "internalType": "uint256",
          "name": "blockNumber",
          "type": "uint256"
        }
      ],
      "name": "ColorDeactivated",
      "type": "event"
    },
    {
      "anonymous": false,
      "inputs": [
        {
          "indexed": true,
          "internalType": "uint256",
          "name": "profileId",
          "type": "uint256"
        },
        {
          "indexed": true,
          "internalType": "uint256",
          "name": "moduleId",
          "type": "uint256"
        },
        {
          "indexed": false,
          "internalType": "uint256",
          "name": "blockNumber",
          "type": "uint256"
        }
      ],
      "name": "MirrorAdded",
      "type": "event"
    },
    {
      "anonymous": false,
      "inputs": [
        {
          "indexed": true,
          "internalType": "uint256",
          "name": "profileId",
          "type": "uint256"
        },
        {
          "indexed": true,
          "internalType": "address",
          "name": "module",
          "type": "address"
        },
        {
          "indexed": false,
          "internalType": "uint256",
          "name": "blockNumber",
          "type": "uint256"
        }
      ],
      "name": "NFTCollectionCreated",
      "type": "event"
    },
    {
      "anonymous": false,
      "inputs": [
        {
          "indexed": true,
          "internalType": "address",
          "name": "previousOwner",
          "type": "address"
        },
        {
          "indexed": true,
          "internalType": "address",
          "name": "newOwner",
          "type": "address"
        }
      ],
      "name": "OwnershipTransferred",
      "type": "event"
    },
    {
      "anonymous": false,
      "inputs": [
        {
          "indexed": true,
          "internalType": "uint256",
          "name": "profileId",
          "type": "uint256"
        },
        {
          "indexed": true,
          "internalType": "address",
          "name": "owner",
          "type": "address"
        },
        {
          "indexed": false,
          "internalType": "uint256",
          "name": "blockNumber",
          "type": "uint256"
        }
      ],
      "name": "ProfileCreated",
      "type": "event"
    },
    {
      "anonymous": false,
      "inputs": [
        {
          "indexed": true,
          "internalType": "uint256",
          "name": "profileId",
          "type": "uint256"
        },
        {
          "indexed": false,
          "internalType": "uint256",
          "name": "blockNumber",
          "type": "uint256"
        }
      ],
      "name": "SNSAccountCreated",
      "type": "event"
    },
    {
      "anonymous": false,
      "inputs": [
        {
          "indexed": true,
          "internalType": "uint256",
          "name": "profileId",
          "type": "uint256"
        },
        {
          "indexed": false,
          "internalType": "uint256",
          "name": "blockNumber",
          "type": "uint256"
        }
      ],
      "name": "ScoreCreated",
      "type": "event"
    },
    {
      "anonymous": false,
      "inputs": [
        {
          "indexed": true,
          "internalType": "address",
          "name": "from",
          "type": "address"
        },
        {
          "indexed": true,
          "internalType": "address",
          "name": "to",
          "type": "address"
        },
        {
          "indexed": true,
          "internalType": "uint256",
          "name": "tokenId",
          "type": "uint256"
        }
      ],
      "name": "Transfer",
      "type": "event"
    },
    {
      "anonymous": false,
      "inputs": [
        {
          "indexed": false,
          "internalType": "uint256",
          "name": "profileId",
          "type": "uint256"
        },
        {
          "indexed": false,
          "internalType": "address",
          "name": "wallet",
          "type": "address"
        }
      ],
      "name": "WalletAdded",
      "type": "event"
    },
    {
      "inputs": [
        {
          "internalType": "uint256",
          "name": "profileId",
          "type": "uint256"
        },
        {
          "internalType": "uint256",
          "name": "extensionId",
          "type": "uint256"
        }
      ],
      "name": "activateColor",
      "outputs": [],
      "stateMutability": "nonpayable",
      "type": "function"
    },
    {
      "inputs": [
        {
          "internalType": "uint256",
          "name": "profileId",
          "type": "uint256"
        },
        {
          "internalType": "string",
          "name": "color",
          "type": "string"
        }
      ],
      "name": "addColor",
      "outputs": [],
      "stateMutability": "nonpayable",
      "type": "function"
    },
    {
      "inputs": [
        {
          "internalType": "uint256",
          "name": "profileId",
          "type": "uint256"
        },
        {
          "components": [
            {
              "internalType": "string",
              "name": "hoge",
              "type": "string"
            }
          ],
          "internalType": "struct IMirrorModule.MirrorStruct",
          "name": "mirror",
          "type": "tuple"
        }
      ],
      "name": "addMirror",
      "outputs": [],
      "stateMutability": "nonpayable",
      "type": "function"
    },
    {
      "inputs": [
        {
          "internalType": "uint256",
          "name": "profileId",
          "type": "uint256"
        },
        {
          "internalType": "address",
          "name": "wallet",
          "type": "address"
        }
      ],
      "name": "addWallet",
      "outputs": [],
      "stateMutability": "nonpayable",
      "type": "function"
    },
    {
      "inputs": [
        {
          "internalType": "address",
          "name": "to",
          "type": "address"
        },
        {
          "internalType": "uint256",
          "name": "tokenId",
          "type": "uint256"
        }
      ],
      "name": "approve",
      "outputs": [],
      "stateMutability": "nonpayable",
      "type": "function"
    },
    {
      "inputs": [
        {
          "internalType": "address",
          "name": "owner",
          "type": "address"
        }
      ],
      "name": "balanceOf",
      "outputs": [
        {
          "internalType": "uint256",
          "name": "",
          "type": "uint256"
        }
      ],
      "stateMutability": "view",
      "type": "function"
    },
    {
      "inputs": [
        {
          "internalType": "uint256",
          "name": "profileId",
          "type": "uint256"
        },
        {
          "components": [
            {
              "internalType": "uint256",
              "name": "chainId",
              "type": "uint256"
            },
            {
              "internalType": "address",
              "name": "contractAddress",
              "type": "address"
            },
            {
              "internalType": "uint256",
              "name": "tokenId",
              "type": "uint256"
            },
            {
              "internalType": "string",
              "name": "tokenURI",
              "type": "string"
            },
            {
              "internalType": "address",
              "name": "owner",
              "type": "address"
            }
          ],
          "internalType": "struct INFTCollectionModule.NFTStruct[]",
          "name": "nfts",
          "type": "tuple[]"
        }
      ],
      "name": "createNFTCollection",
      "outputs": [],
      "stateMutability": "nonpayable",
      "type": "function"
    },
    {
      "inputs": [
        {
          "internalType": "uint256",
          "name": "profileId",
          "type": "uint256"
        },
        {
          "components": [
            {
              "internalType": "uint256",
              "name": "chainId",
              "type": "uint256"
            },
            {
              "internalType": "address",
              "name": "contractAddress",
              "type": "address"
            },
            {
              "internalType": "uint256",
              "name": "tokenId",
              "type": "uint256"
            },
            {
              "internalType": "string",
              "name": "tokenURI",
              "type": "string"
            },
            {
              "internalType": "address",
              "name": "owner",
              "type": "address"
            }
          ],
          "internalType": "struct INFTCollectionModule.NFTStruct[]",
          "name": "poaps",
          "type": "tuple[]"
        }
      ],
      "name": "createPOAPCollection",
      "outputs": [],
      "stateMutability": "nonpayable",
      "type": "function"
    },
    {
      "inputs": [
        {
          "components": [
            {
              "internalType": "string",
              "name": "name",
              "type": "string"
            },
            {
              "internalType": "string",
              "name": "introduction",
              "type": "string"
            },
            {
              "internalType": "string",
              "name": "imageURI",
              "type": "string"
            },
            {
              "components": [
                {
                  "internalType": "uint256",
                  "name": "chainId",
                  "type": "uint256"
                },
                {
                  "internalType": "address",
                  "name": "contractAddress",
                  "type": "address"
                },
                {
                  "internalType": "uint256",
                  "name": "tokenId",
                  "type": "uint256"
                },
                {
                  "internalType": "string",
                  "name": "tokenURI",
                  "type": "string"
                },
                {
                  "internalType": "address",
                  "name": "owner",
                  "type": "address"
                }
              ],
              "internalType": "struct INFTCollectionModule.NFTStruct[]",
              "name": "nfts",
              "type": "tuple[]"
            },
            {
              "components": [
                {
                  "internalType": "uint256",
                  "name": "chainId",
                  "type": "uint256"
                },
                {
                  "internalType": "address",
                  "name": "contractAddress",
                  "type": "address"
                },
                {
                  "internalType": "uint256",
                  "name": "tokenId",
                  "type": "uint256"
                },
                {
                  "internalType": "string",
                  "name": "tokenURI",
                  "type": "string"
                },
                {
                  "internalType": "address",
                  "name": "owner",
                  "type": "address"
                }
              ],
              "internalType": "struct INFTCollectionModule.NFTStruct[]",
              "name": "poaps",
              "type": "tuple[]"
            },
            {
              "components": [
                {
                  "internalType": "string",
                  "name": "service",
                  "type": "string"
                },
                {
                  "internalType": "string",
                  "name": "userId",
                  "type": "string"
                },
                {
                  "internalType": "string",
                  "name": "userPageURL",
                  "type": "string"
                },
                {
                  "internalType": "address",
                  "name": "wallet",
                  "type": "address"
                }
              ],
              "internalType": "struct ISNSAccountModule.SNSAccountStruct[]",
              "name": "snsAccounts",
              "type": "tuple[]"
            }
          ],
          "internalType": "struct IProfile.CreateProfileStructData",
          "name": "vars",
          "type": "tuple"
        }
      ],
      "name": "createProfile",
      "outputs": [
        {
          "internalType": "uint256",
          "name": "",
          "type": "uint256"
        }
      ],
      "stateMutability": "nonpayable",
      "type": "function"
    },
    {
      "inputs": [
        {
          "internalType": "uint256",
          "name": "profileId",
          "type": "uint256"
        },
        {
          "components": [
            {
              "internalType": "string",
              "name": "service",
              "type": "string"
            },
            {
              "internalType": "string",
              "name": "userId",
              "type": "string"
            },
            {
              "internalType": "string",
              "name": "userPageURL",
              "type": "string"
            },
            {
              "internalType": "address",
              "name": "wallet",
              "type": "address"
            }
          ],
          "internalType": "struct ISNSAccountModule.SNSAccountStruct[]",
          "name": "snsAccounts",
          "type": "tuple[]"
        }
      ],
      "name": "createSNSAccount",
      "outputs": [],
      "stateMutability": "nonpayable",
      "type": "function"
    },
    {
      "inputs": [
        {
          "internalType": "uint256",
          "name": "profileId",
          "type": "uint256"
        }
      ],
      "name": "createScore",
      "outputs": [],
      "stateMutability": "nonpayable",
      "type": "function"
    },
    {
      "inputs": [
        {
          "internalType": "uint256",
          "name": "profileId",
          "type": "uint256"
        },
        {
          "internalType": "uint256",
          "name": "extensionId",
          "type": "uint256"
        }
      ],
      "name": "deactivateColor",
      "outputs": [],
      "stateMutability": "nonpayable",
      "type": "function"
    },
    {
      "inputs": [
        {
          "internalType": "uint256",
          "name": "tokenId",
          "type": "uint256"
        }
      ],
      "name": "getApproved",
      "outputs": [
        {
          "internalType": "address",
          "name": "",
          "type": "address"
        }
      ],
      "stateMutability": "view",
      "type": "function"
    },
    {
      "inputs": [
        {
          "internalType": "uint256",
          "name": "profileId",
          "type": "uint256"
        }
      ],
      "name": "getColor",
      "outputs": [
        {
          "components": [
            {
              "internalType": "string",
              "name": "color",
              "type": "string"
            },
            {
              "internalType": "bool",
              "name": "active",
              "type": "bool"
            }
          ],
          "internalType": "struct IColorExtension.ColorStruct[]",
          "name": "",
          "type": "tuple[]"
        }
      ],
      "stateMutability": "view",
      "type": "function"
    },
    {
      "inputs": [
        {
          "internalType": "uint256",
          "name": "profileId",
          "type": "uint256"
        }
      ],
      "name": "getMirror",
      "outputs": [
        {
          "components": [
            {
              "internalType": "string",
              "name": "hoge",
              "type": "string"
            }
          ],
          "internalType": "struct IMirrorModule.MirrorStruct[]",
          "name": "",
          "type": "tuple[]"
        }
      ],
      "stateMutability": "view",
      "type": "function"
    },
    {
      "inputs": [
        {
          "internalType": "uint256",
          "name": "profileId",
          "type": "uint256"
        }
      ],
      "name": "getNFTCollection",
      "outputs": [
        {
          "components": [
            {
              "internalType": "uint256",
              "name": "chainId",
              "type": "uint256"
            },
            {
              "internalType": "address",
              "name": "contractAddress",
              "type": "address"
            },
            {
              "internalType": "uint256",
              "name": "tokenId",
              "type": "uint256"
            },
            {
              "internalType": "string",
              "name": "tokenURI",
              "type": "string"
            },
            {
              "internalType": "address",
              "name": "owner",
              "type": "address"
            }
          ],
          "internalType": "struct INFTCollectionModule.NFTStruct[]",
          "name": "",
          "type": "tuple[]"
        }
      ],
      "stateMutability": "view",
      "type": "function"
    },
    {
      "inputs": [
        {
          "internalType": "uint256",
          "name": "profileId",
          "type": "uint256"
        }
      ],
      "name": "getPOAPCollection",
      "outputs": [
        {
          "components": [
            {
              "internalType": "uint256",
              "name": "chainId",
              "type": "uint256"
            },
            {
              "internalType": "address",
              "name": "contractAddress",
              "type": "address"
            },
            {
              "internalType": "uint256",
              "name": "tokenId",
              "type": "uint256"
            },
            {
              "internalType": "string",
              "name": "tokenURI",
              "type": "string"
            },
            {
              "internalType": "address",
              "name": "owner",
              "type": "address"
            }
          ],
          "internalType": "struct INFTCollectionModule.NFTStruct[]",
          "name": "",
          "type": "tuple[]"
        }
      ],
      "stateMutability": "view",
      "type": "function"
    },
    {
      "inputs": [
        {
          "internalType": "uint256",
          "name": "profileId",
          "type": "uint256"
        }
      ],
      "name": "getProfile",
      "outputs": [
        {
          "components": [
            {
              "internalType": "address[]",
              "name": "wallets",
              "type": "address[]"
            },
            {
              "internalType": "string",
              "name": "name",
              "type": "string"
            },
            {
              "internalType": "string",
              "name": "introduction",
              "type": "string"
            },
            {
              "internalType": "string",
              "name": "imageURI",
              "type": "string"
            },
            {
              "internalType": "uint256",
              "name": "snsAccountsPubId",
              "type": "uint256"
            }
          ],
          "internalType": "struct IProfile.ProfileStruct",
          "name": "",
          "type": "tuple"
        }
      ],
      "stateMutability": "view",
      "type": "function"
    },
    {
      "inputs": [
        {
          "internalType": "address",
          "name": "wallet",
          "type": "address"
        }
      ],
      "name": "getProfileId",
      "outputs": [
        {
          "internalType": "uint256",
          "name": "",
          "type": "uint256"
        }
      ],
      "stateMutability": "view",
      "type": "function"
    },
    {
      "inputs": [
        {
          "internalType": "uint256",
          "name": "profileId",
          "type": "uint256"
        }
      ],
      "name": "getSNSAccounts",
      "outputs": [
        {
          "components": [
            {
              "internalType": "string",
              "name": "service",
              "type": "string"
            },
            {
              "internalType": "string",
              "name": "userId",
              "type": "string"
            },
            {
              "internalType": "string",
              "name": "userPageURL",
              "type": "string"
            },
            {
              "internalType": "address",
              "name": "wallet",
              "type": "address"
            }
          ],
          "internalType": "struct ISNSAccountModule.SNSAccountStruct[]",
          "name": "",
          "type": "tuple[]"
        }
      ],
      "stateMutability": "view",
      "type": "function"
    },
    {
      "inputs": [
        {
          "internalType": "uint256",
          "name": "profileId",
          "type": "uint256"
        }
      ],
      "name": "getScore",
      "outputs": [
        {
          "components": [
            {
              "internalType": "string",
              "name": "name",
              "type": "string"
            },
            {
              "internalType": "uint256",
              "name": "point",
              "type": "uint256"
            }
          ],
          "internalType": "struct IScoreModule.ScoreStruct[]",
          "name": "",
          "type": "tuple[]"
        }
      ],
      "stateMutability": "view",
      "type": "function"
    },
    {
      "inputs": [
        {
          "internalType": "address",
          "name": "owner",
          "type": "address"
        },
        {
          "internalType": "address",
          "name": "operator",
          "type": "address"
        }
      ],
      "name": "isApprovedForAll",
      "outputs": [
        {
          "internalType": "bool",
          "name": "",
          "type": "bool"
        }
      ],
      "stateMutability": "view",
      "type": "function"
    },
    {
      "inputs": [],
      "name": "name",
      "outputs": [
        {
          "internalType": "string",
          "name": "",
          "type": "string"
        }
      ],
      "stateMutability": "view",
      "type": "function"
    },
    {
      "inputs": [],
      "name": "owner",
      "outputs": [
        {
          "internalType": "address",
          "name": "",
          "type": "address"
        }
      ],
      "stateMutability": "view",
      "type": "function"
    },
    {
      "inputs": [
        {
          "internalType": "uint256",
          "name": "tokenId",
          "type": "uint256"
        }
      ],
      "name": "ownerOf",
      "outputs": [
        {
          "internalType": "address",
          "name": "",
          "type": "address"
        }
      ],
      "stateMutability": "view",
      "type": "function"
    },
    {
      "inputs": [],
      "name": "renounceOwnership",
      "outputs": [],
      "stateMutability": "nonpayable",
      "type": "function"
    },
    {
      "inputs": [
        {
          "internalType": "address",
          "name": "from",
          "type": "address"
        },
        {
          "internalType": "address",
          "name": "to",
          "type": "address"
        },
        {
          "internalType": "uint256",
          "name": "tokenId",
          "type": "uint256"
        }
      ],
      "name": "safeTransferFrom",
      "outputs": [],
      "stateMutability": "nonpayable",
      "type": "function"
    },
    {
      "inputs": [
        {
          "internalType": "address",
          "name": "from",
          "type": "address"
        },
        {
          "internalType": "address",
          "name": "to",
          "type": "address"
        },
        {
          "internalType": "uint256",
          "name": "tokenId",
          "type": "uint256"
        },
        {
          "internalType": "bytes",
          "name": "data",
          "type": "bytes"
        }
      ],
      "name": "safeTransferFrom",
      "outputs": [],
      "stateMutability": "nonpayable",
      "type": "function"
    },
    {
      "inputs": [
        {
          "internalType": "address",
          "name": "operator",
          "type": "address"
        },
        {
          "internalType": "bool",
          "name": "approved",
          "type": "bool"
        }
      ],
      "name": "setApprovalForAll",
      "outputs": [],
      "stateMutability": "nonpayable",
      "type": "function"
    },
    {
      "inputs": [
        {
          "internalType": "address",
          "name": "globals",
          "type": "address"
        }
      ],
      "name": "setGlobals",
      "outputs": [],
      "stateMutability": "nonpayable",
      "type": "function"
    },
    {
      "inputs": [
        {
          "internalType": "bytes4",
          "name": "interfaceId",
          "type": "bytes4"
        }
      ],
      "name": "supportsInterface",
      "outputs": [
        {
          "internalType": "bool",
          "name": "",
          "type": "bool"
        }
      ],
      "stateMutability": "view",
      "type": "function"
    },
    {
      "inputs": [],
      "name": "symbol",
      "outputs": [
        {
          "internalType": "string",
          "name": "",
          "type": "string"
        }
      ],
      "stateMutability": "view",
      "type": "function"
    },
    {
      "inputs": [
        {
          "internalType": "uint256",
          "name": "index",
          "type": "uint256"
        }
      ],
      "name": "tokenByIndex",
      "outputs": [
        {
          "internalType": "uint256",
          "name": "",
          "type": "uint256"
        }
      ],
      "stateMutability": "view",
      "type": "function"
    },
    {
      "inputs": [
        {
          "internalType": "address",
          "name": "owner",
          "type": "address"
        },
        {
          "internalType": "uint256",
          "name": "index",
          "type": "uint256"
        }
      ],
      "name": "tokenOfOwnerByIndex",
      "outputs": [
        {
          "internalType": "uint256",
          "name": "",
          "type": "uint256"
        }
      ],
      "stateMutability": "view",
      "type": "function"
    },
    {
      "inputs": [
        {
          "internalType": "uint256",
          "name": "tokenId",
          "type": "uint256"
        }
      ],
      "name": "tokenURI",
      "outputs": [
        {
          "internalType": "string",
          "name": "",
          "type": "string"
        }
      ],
      "stateMutability": "view",
      "type": "function"
    },
    {
      "inputs": [],
      "name": "totalSupply",
      "outputs": [
        {
          "internalType": "uint256",
          "name": "",
          "type": "uint256"
        }
      ],
      "stateMutability": "view",
      "type": "function"
    },
    {
      "inputs": [
        {
          "internalType": "address",
          "name": "from",
          "type": "address"
        },
        {
          "internalType": "address",
          "name": "to",
          "type": "address"
        },
        {
          "internalType": "uint256",
          "name": "tokenId",
          "type": "uint256"
        }
      ],
      "name": "transferFrom",
      "outputs": [],
      "stateMutability": "nonpayable",
      "type": "function"
    },
    {
      "inputs": [
        {
          "internalType": "address",
          "name": "newOwner",
          "type": "address"
        }
      ],
      "name": "transferOwnership",
      "outputs": [],
      "stateMutability": "nonpayable",
      "type": "function"
    }
  ],
  "bytecode": "0x60806040523480156200001157600080fd5b50604051620041e2380380620041e28339810160408190526200003491620001cd565b6040518060400160405280600781526020016650726f66696c6560c81b8152506040518060400160405280600781526020016650524f46494c4560c81b81525081600090805190602001906200008c92919062000127565b508051620000a290600190602084019062000127565b505050620000bf620000b9620000d160201b60201c565b620000d5565b620000ca81620000d5565b506200023c565b3390565b600a80546001600160a01b038381166001600160a01b0319831681179093556040519116919082907f8be0079c531659141344cd1fd0a4f28419497f9722a3daafe3b4186f6b6457e090600090a35050565b8280546200013590620001ff565b90600052602060002090601f016020900481019282620001595760008555620001a4565b82601f106200017457805160ff1916838001178555620001a4565b82800160010185558215620001a4579182015b82811115620001a457825182559160200191906001019062000187565b50620001b2929150620001b6565b5090565b5b80821115620001b25760008155600101620001b7565b600060208284031215620001e057600080fd5b81516001600160a01b0381168114620001f857600080fd5b9392505050565b600181811c908216806200021457607f821691505b602082108114156200023657634e487b7160e01b600052602260045260246000fd5b50919050565b613f96806200024c6000396000f3fe608060405234801561001057600080fd5b50600436106102325760003560e01c8063715018a611610130578063a22cb465116100b8578063cc2e0a261161007c578063cc2e0a2614610519578063e985e9c51461052c578063e99ac60514610568578063f08f4f641461057b578063f2fde38b1461059b57600080fd5b8063a22cb465146104ba578063b85e4466146104cd578063b88d4fde146104e0578063b941d1db146104f3578063c87b56dd1461050657600080fd5b806395d89b41116100ff57806395d89b41146104665780639a82e2cb1461046e5780639d6d9a70146104815780639dada313146104945780639f19a59d146104a757600080fd5b8063715018a61461040d5780637524fa071461041557806380057b9a146104355780638da5cb5b1461045557600080fd5b806326567eec116101be5780634f6ccce7116101825780634f6ccce7146103ae5780635d7ecd5c146103c15780636352211e146103d457806366815166146103e757806370a08231146103fa57600080fd5b806326567eec146103395780632f745c591461036257806342842e0e1461037557806348defab7146103885780634ddadfd21461039b57600080fd5b8063095ea7b311610205578063095ea7b3146102bf5780630e1af57b146102d45780631202dc61146102f457806318160ddd1461031457806323b872dd1461032657600080fd5b806301ffc9a71461023757806302f4c2ee1461025f57806306fdde031461027f578063081812fc14610294575b600080fd5b61024a610245366004612bdc565b6105ae565b60405190151581526020015b60405180910390f35b61027261026d366004612bf9565b6105d9565b6040516102569190612c6a565b61028761065b565b6040516102569190612d11565b6102a76102a2366004612bf9565b6106ed565b6040516001600160a01b039091168152602001610256565b6102d26102cd366004612d39565b610714565b005b6102e76102e2366004612bf9565b61082f565b6040516102569190612d65565b610307610302366004612bf9565b61090f565b6040516102569190612dcd565b6008545b604051908152602001610256565b6102d2610334366004612e74565b6109ef565b610318610347366004612eb5565b6001600160a01b03166000908152600c602052604090205490565b610318610370366004612d39565b610a20565b6102d2610383366004612e74565b610ab6565b6102d2610396366004612f1d565b610ad1565b6102d26103a9366004612f1d565b610b79565b6103186103bc366004612bf9565b610baa565b6102d26103cf366004612f68565b610c3d565b6102a76103e2366004612bf9565b610d7c565b6102d26103f53660046130c3565b610ddc565b610318610408366004612eb5565b610f21565b6102d2610fa7565b610428610423366004612bf9565b610fbb565b604051610256919061311d565b610448610443366004612bf9565b61109b565b6040516102569190613187565b600a546001600160a01b03166102a7565b61028761117a565b6102d261047c366004612bf9565b611189565b6102d261048f3660046131f1565b6111bb565b6103186104a236600461323e565b6112f4565b6102726104b5366004612bf9565b61157e565b6102d26104c8366004613286565b6115d7565b6102d26104db366004612f68565b6115e6565b6102d26104ee3660046132b4565b611719565b6102d2610501366004613333565b611751565b610287610514366004612bf9565b611862565b6102d2610527366004612eb5565b6118f1565b61024a61053a366004613358565b6001600160a01b03918216600090815260056020908152604080832093909416825291909152205460ff1690565b6102d2610576366004612f1d565b61191b565b61058e610589366004612bf9565b611998565b6040516102569190613386565b6102d26105a9366004612eb5565b611c04565b60006001600160e01b0319821663780e9d6360e01b14806105d357506105d382611c7a565b92915050565b60606105d382600e60009054906101000a90046001600160a01b03166001600160a01b03166303b7af906040518163ffffffff1660e01b8152600401602060405180830381865afa158015610632573d6000803e3d6000fd5b505050506040513d601f19601f820116820180604052508101906106569190613445565b611cca565b60606000805461066a90613462565b80601f016020809104026020016040519081016040528092919081815260200182805461069690613462565b80156106e35780601f106106b8576101008083540402835291602001916106e3565b820191906000526020600020905b8154815290600101906020018083116106c657829003601f168201915b5050505050905090565b60006106f882611d3a565b506000908152600460205260409020546001600160a01b031690565b600061071f82610d7c565b9050806001600160a01b0316836001600160a01b031614156107925760405162461bcd60e51b815260206004820152602160248201527f4552433732313a20617070726f76616c20746f2063757272656e74206f776e656044820152603960f91b60648201526084015b60405180910390fd5b336001600160a01b03821614806107ae57506107ae813361053a565b6108205760405162461bcd60e51b815260206004820152603e60248201527f4552433732313a20617070726f76652063616c6c6572206973206e6f7420746f60448201527f6b656e206f776e6572206e6f7220617070726f76656420666f7220616c6c00006064820152608401610789565b61082a8383611d99565b505050565b600e546040805163bd696d0960e01b815290516060926001600160a01b03169163bd696d099160048083019260209291908290030181865afa158015610879573d6000803e3d6000fd5b505050506040513d601f19601f8201168201806040525081019061089d9190613445565b6001600160a01b0316630e1af57b836040518263ffffffff1660e01b81526004016108ca91815260200190565b600060405180830381865afa1580156108e7573d6000803e3d6000fd5b505050506040513d6000823e601f3d908101601f191682016040526105d39190810190613505565b600e54604080516323ebb8df60e11b815290516060926001600160a01b0316916347d771be9160048083019260209291908290030181865afa158015610959573d6000803e3d6000fd5b505050506040513d601f19601f8201168201806040525081019061097d9190613445565b6001600160a01b0316631202dc61836040518263ffffffff1660e01b81526004016109aa91815260200190565b600060405180830381865afa1580156109c7573d6000803e3d6000fd5b505050506040513d6000823e601f3d908101601f191682016040526105d391908101906135f0565b6109f93382611e07565b610a155760405162461bcd60e51b81526004016107899061372a565b61082a838383611e86565b6000610a2b83610f21565b8210610a8d5760405162461bcd60e51b815260206004820152602b60248201527f455243373231456e756d657261626c653a206f776e657220696e646578206f7560448201526a74206f6620626f756e647360a81b6064820152608401610789565b506001600160a01b03919091166000908152600660209081526040808320938352929052205490565b61082a83838360405180602001604052806000815250611719565b610adb3384611e07565b610af75760405162461bcd60e51b815260040161078990613778565b61082a83600e60009054906101000a90046001600160a01b03166001600160a01b03166303b7af906040518163ffffffff1660e01b8152600401602060405180830381865afa158015610b4e573d6000803e3d6000fd5b505050506040513d601f19601f82011682018060405250810190610b729190613445565b848461202d565b610b833384611e07565b610b9f5760405162461bcd60e51b815260040161078990613778565b61082a8383836120d9565b6000610bb560085490565b8210610c185760405162461bcd60e51b815260206004820152602c60248201527f455243373231456e756d657261626c653a20676c6f62616c20696e646578206f60448201526b7574206f6620626f756e647360a01b6064820152608401610789565b60088281548110610c2b57610c2b6137c0565b90600052602060002001549050919050565b610c473383611e07565b610c635760405162461bcd60e51b815260040161078990613778565b600e60009054906101000a90046001600160a01b03166001600160a01b0316630b0292606040518163ffffffff1660e01b8152600401602060405180830381865afa158015610cb6573d6000803e3d6000fd5b505050506040513d601f19601f82011682018060405250810190610cda9190613445565b6040516323aa3e0f60e21b815260048101849052602481018390526001600160a01b039190911690638ea8f83c90604401600060405180830381600087803b158015610d2557600080fd5b505af1158015610d39573d6000803e3d6000fd5b5050505080827f689c0946d5bcb6c238777710f33d77eaf720fc5b2866cade374904e560dc46f643604051610d7091815260200190565b60405180910390a35050565b6000818152600260205260408120546001600160a01b0316806105d35760405162461bcd60e51b8152602060048201526018602482015277115490cdcc8c4e881a5b9d985b1a59081d1bdad95b88125160421b6044820152606401610789565b610de63383611e07565b610e025760405162461bcd60e51b815260040161078990613778565b600e54604080516258149360e51b815290516000926001600160a01b031691630b0292609160048083019260209291908290030181865afa158015610e4b573d6000803e3d6000fd5b505050506040513d601f19601f82011682018060405250810190610e6f9190613445565b6001600160a01b0316636681516684846040518363ffffffff1660e01b8152600401610e9c9291906137d6565b6020604051808303816000875af1158015610ebb573d6000803e3d6000fd5b505050506040513d601f19601f82011682018060405250810190610edf91906137ef565b905080837f7de1fa55ce381ac320aa3b9feba4c878512f4f12f950af174962b3543a8f1fe943604051610f1491815260200190565b60405180910390a3505050565b60006001600160a01b038216610f8b5760405162461bcd60e51b815260206004820152602960248201527f4552433732313a2061646472657373207a65726f206973206e6f7420612076616044820152683634b21037bbb732b960b91b6064820152608401610789565b506001600160a01b031660009081526003602052604090205490565b610faf6121f0565b610fb9600061224a565b565b600e546040805163ec22013f60e01b815290516060926001600160a01b03169163ec22013f9160048083019260209291908290030181865afa158015611005573d6000803e3d6000fd5b505050506040513d601f19601f820116820180604052508101906110299190613445565b6001600160a01b0316637524fa07836040518263ffffffff1660e01b815260040161105691815260200190565b600060405180830381865afa158015611073573d6000803e3d6000fd5b505050506040513d6000823e601f3d908101601f191682016040526105d39190810190613808565b600e54604080516258149360e51b815290516060926001600160a01b031691630b0292609160048083019260209291908290030181865afa1580156110e4573d6000803e3d6000fd5b505050506040513d601f19601f820116820180604052508101906111089190613445565b6001600160a01b03166380057b9a836040518263ffffffff1660e01b815260040161113591815260200190565b600060405180830381865afa158015611152573d6000803e3d6000fd5b505050506040513d6000823e601f3d908101601f191682016040526105d391908101906138de565b60606001805461066a90613462565b6111933382611e07565b6111af5760405162461bcd60e51b815260040161078990613778565b6111b88161229c565b50565b6111c53383611e07565b6111e15760405162461bcd60e51b815260040161078990613778565b600e546040805163ec22013f60e01b815290516000926001600160a01b03169163ec22013f9160048083019260209291908290030181865afa15801561122b573d6000803e3d6000fd5b505050506040513d601f19601f8201168201806040525081019061124f9190613445565b6001600160a01b0316639d6d9a7084846040518363ffffffff1660e01b815260040161127c929190613a39565b6020604051808303816000875af115801561129b573d6000803e3d6000fd5b505050506040513d601f19601f820116820180604052508101906112bf91906137ef565b905080837f44c8fa92ea188ac4a5d045570b403bd7d004b6ae9c6e6b173db92688d825786343604051610f1491815260200190565b336000908152600c6020526040812054156113515760405162461bcd60e51b815260206004820152601f60248201527f50726f66696c653a2070726f66696c6520616c726561647920657869737473006044820152606401610789565b6000600d6000815461136290613a84565b9182905550336000818152600c6020526040902082905590915061144a90829061138c8680613a9f565b8080601f0160208091040260200160405190810160405280939291908181526020018383808284376000920191909152506113ce925050506020880188613a9f565b8080601f016020809104026020016040519081016040528093929190818152602001838380828437600092019190915250611410925050506040890189613a9f565b8080601f0160208091040260200160405190810160405280939291908181526020018383808284376000920191909152506123af92505050565b6114d781600e60009054906101000a90046001600160a01b03166001600160a01b031663e14607de6040518163ffffffff1660e01b8152600401602060405180830381865afa1580156114a1573d6000803e3d6000fd5b505050506040513d601f19601f820116820180604052508101906114c59190613445565b6114d26060870187613ae5565b61202d565b61155f81600e60009054906101000a90046001600160a01b03166001600160a01b03166303b7af906040518163ffffffff1660e01b8152600401602060405180830381865afa15801561152e573d6000803e3d6000fd5b505050506040513d601f19601f820116820180604052508101906115529190613445565b6114d26080870187613ae5565b6115758161157060a0860186613ae5565b6120d9565b6105d38161229c565b60606105d382600e60009054906101000a90046001600160a01b03166001600160a01b031663e14607de6040518163ffffffff1660e01b8152600401602060405180830381865afa158015610632573d6000803e3d6000fd5b6115e23383836124a2565b5050565b6115f03383611e07565b61160c5760405162461bcd60e51b815260040161078990613778565b600e60009054906101000a90046001600160a01b03166001600160a01b0316630b0292606040518163ffffffff1660e01b8152600401602060405180830381865afa15801561165f573d6000803e3d6000fd5b505050506040513d601f19601f820116820180604052508101906116839190613445565b60405163b4ca798160e01b815260048101849052602481018390526001600160a01b03919091169063b4ca798190604401600060405180830381600087803b1580156116ce57600080fd5b505af11580156116e2573d6000803e3d6000fd5b5050505080827f3da6dc05893b68d5388c9343c22cf91e735f0fee64fbdbc04ec3ca41080afa2443604051610d7091815260200190565b6117233383611e07565b61173f5760405162461bcd60e51b81526004016107899061372a565b61174b84848484612569565b50505050565b61175b3383611e07565b6117775760405162461bcd60e51b815260040161078990613778565b6001600160a01b0381166000908152600c6020526040902054156117dd5760405162461bcd60e51b815260206004820152601f60248201527f50726f66696c653a2070726f66696c6520616c726561647920657869737473006044820152606401610789565b6001600160a01b0381166000818152600c60209081526040808320869055858352600b825280832080546001810182559084529282902090920180546001600160a01b031916841790558151858152908101929092527ff0306f4e8668d23ebcc691f3a47412cb3e3bc7a86b5be28204cf62853914ff15910160405180910390a15050565b606061186d82611d3a565b600061189f604080518082019091526013815272687474703a2f2f6578616d706c652e636f6d2f60681b602082015290565b905060008151116118bf57604051806020016040528060008152506118ea565b806118c98461259c565b6040516020016118da929190613b2e565b6040516020818303038152906040525b9392505050565b6118f96121f0565b600e80546001600160a01b0319166001600160a01b0392909216919091179055565b6119253384611e07565b6119415760405162461bcd60e51b815260040161078990613778565b61082a83600e60009054906101000a90046001600160a01b03166001600160a01b031663e14607de6040518163ffffffff1660e01b8152600401602060405180830381865afa158015610b4e573d6000803e3d6000fd5b6119ca6040518060a0016040528060608152602001606081526020016060815260200160608152602001600081525090565b6000828152600b60209081526040918290208251815460c09381028201840190945260a081018481529093919284928491840182828015611a3457602002820191906000526020600020905b81546001600160a01b03168152600190910190602001808311611a16575b50505050508152602001600182018054611a4d90613462565b80601f0160208091040260200160405190810160405280929190818152602001828054611a7990613462565b8015611ac65780601f10611a9b57610100808354040283529160200191611ac6565b820191906000526020600020905b815481529060010190602001808311611aa957829003601f168201915b50505050508152602001600282018054611adf90613462565b80601f0160208091040260200160405190810160405280929190818152602001828054611b0b90613462565b8015611b585780601f10611b2d57610100808354040283529160200191611b58565b820191906000526020600020905b815481529060010190602001808311611b3b57829003601f168201915b50505050508152602001600382018054611b7190613462565b80601f0160208091040260200160405190810160405280929190818152602001828054611b9d90613462565b8015611bea5780601f10611bbf57610100808354040283529160200191611bea565b820191906000526020600020905b815481529060010190602001808311611bcd57829003601f168201915b505050505081526020016004820154815250509050919050565b611c0c6121f0565b6001600160a01b038116611c715760405162461bcd60e51b815260206004820152602660248201527f4f776e61626c653a206e6577206f776e657220697320746865207a65726f206160448201526564647265737360d01b6064820152608401610789565b6111b88161224a565b60006001600160e01b031982166380ac58cd60e01b1480611cab57506001600160e01b03198216635b5e139f60e01b145b806105d357506301ffc9a760e01b6001600160e01b03198316146105d3565b604051630b43e78560e31b8152600481018390526060906001600160a01b03831690635a1f3c2890602401600060405180830381865afa158015611d12573d6000803e3d6000fd5b505050506040513d6000823e601f3d908101601f191682016040526118ea9190810190613b5d565b6000818152600260205260409020546001600160a01b03166111b85760405162461bcd60e51b8152602060048201526018602482015277115490cdcc8c4e881a5b9d985b1a59081d1bdad95b88125160421b6044820152606401610789565b600081815260046020526040902080546001600160a01b0319166001600160a01b0384169081179091558190611dce82610d7c565b6001600160a01b03167f8c5be1e5ebec7d5bd14f71427d1e84f3dd0314c0f7b2291e5b200ac8c7c3b92560405160405180910390a45050565b600080611e1383610d7c565b9050806001600160a01b0316846001600160a01b03161480611e5a57506001600160a01b0380821660009081526005602090815260408083209388168352929052205460ff165b80611e7e5750836001600160a01b0316611e73846106ed565b6001600160a01b0316145b949350505050565b826001600160a01b0316611e9982610d7c565b6001600160a01b031614611efd5760405162461bcd60e51b815260206004820152602560248201527f4552433732313a207472616e736665722066726f6d20696e636f72726563742060448201526437bbb732b960d91b6064820152608401610789565b6001600160a01b038216611f5f5760405162461bcd60e51b8152602060048201526024808201527f4552433732313a207472616e7366657220746f20746865207a65726f206164646044820152637265737360e01b6064820152608401610789565b611f6a838383612699565b611f75600082611d99565b6001600160a01b0383166000908152600360205260408120805460019290611f9e908490613c74565b90915550506001600160a01b0382166000908152600360205260408120805460019290611fcc908490613c8b565b909155505060008181526002602052604080822080546001600160a01b0319166001600160a01b0386811691821790925591518493918716917fddf252ad1be2c89b69c2b068fc378daa952ba7f163c4a11628f55a4df523b3ef91a4505050565b604051639e11313760e01b81526001600160a01b03841690639e1131379061205d90879086908690600401613ca3565b600060405180830381600087803b15801561207757600080fd5b505af115801561208b573d6000803e3d6000fd5b50505050826001600160a01b0316847f368671e33babaefec9922793c2b772bfd5552fc5457ca10241a5922f14797f06436040516120cb91815260200190565b60405180910390a350505050565b600e60009054906101000a90046001600160a01b03166001600160a01b03166347d771be6040518163ffffffff1660e01b8152600401602060405180830381865afa15801561212c573d6000803e3d6000fd5b505050506040513d601f19601f820116820180604052508101906121509190613445565b6001600160a01b031663c71216508484846040518463ffffffff1660e01b815260040161217f93929190613d82565b600060405180830381600087803b15801561219957600080fd5b505af11580156121ad573d6000803e3d6000fd5b50505050827f5b0d3563a9beca21ac123df26d944a2b6ebdbc5bd6ce911e3e62c696c3027a23436040516121e391815260200190565b60405180910390a2505050565b600a546001600160a01b03163314610fb95760405162461bcd60e51b815260206004820181905260248201527f4f776e61626c653a2063616c6c6572206973206e6f7420746865206f776e65726044820152606401610789565b600a80546001600160a01b038381166001600160a01b0319831681179093556040519116919082907f8be0079c531659141344cd1fd0a4f28419497f9722a3daafe3b4186f6b6457e090600090a35050565b600e60009054906101000a90046001600160a01b03166001600160a01b031663bd696d096040518163ffffffff1660e01b8152600401602060405180830381865afa1580156122ef573d6000803e3d6000fd5b505050506040513d601f19601f820116820180604052508101906123139190613445565b6001600160a01b031663778f6281826040518263ffffffff1660e01b815260040161234091815260200190565b600060405180830381600087803b15801561235a57600080fd5b505af115801561236e573d6000803e3d6000fd5b50505050807f2689353491109488c9e4dbfe939f827ae1c8a589f8f19158ab955357e7685a02436040516123a491815260200190565b60405180910390a250565b6123b93386612751565b6000858152600b60209081526040822080546001808201835582855283852090910180546001600160a01b0319166001600160a01b038a1617905592889052855161240a9390910191860190612b2d565b506000858152600b60209081526040909120835161243092600290920191850190612b2d565b506000858152600b60209081526040909120825161245692600390920191840190612b2d565b50836001600160a01b0316857f94c7a064468d8c8c92b4ce54d25c29022fbdb08117e1a0c6df34cbde87d3d2fb4360405161249391815260200190565b60405180910390a35050505050565b816001600160a01b0316836001600160a01b031614156125045760405162461bcd60e51b815260206004820152601960248201527f4552433732313a20617070726f766520746f2063616c6c6572000000000000006044820152606401610789565b6001600160a01b03838116600081815260056020908152604080832094871680845294825291829020805460ff191686151590811790915591519182527f17307eab39ab6107e8899845ad3d59bd9653f200f220920489ca2b5937696c319101610f14565b612574848484611e86565b6125808484848461289f565b61174b5760405162461bcd60e51b815260040161078990613e6a565b6060816125c05750506040805180820190915260018152600360fc1b602082015290565b8160005b81156125ea57806125d481613a84565b91506125e39050600a83613ed2565b91506125c4565b6000816001600160401b0381111561260457612604612f8a565b6040519080825280601f01601f19166020018201604052801561262e576020820181803683370190505b5090505b8415611e7e57612643600183613c74565b9150612650600a86613ee6565b61265b906030613c8b565b60f81b818381518110612670576126706137c0565b60200101906001600160f81b031916908160001a905350612692600a86613ed2565b9450612632565b6001600160a01b0383166126f4576126ef81600880546000838152600960205260408120829055600182018355919091527ff3f7a9fe364faab93b216da50a3214154f22a0a2b415b23a84c8169e8b636ee30155565b612717565b816001600160a01b0316836001600160a01b03161461271757612717838261299d565b6001600160a01b03821661272e5761082a81612a3a565b826001600160a01b0316826001600160a01b03161461082a5761082a8282612ae9565b6001600160a01b0382166127a75760405162461bcd60e51b815260206004820181905260248201527f4552433732313a206d696e7420746f20746865207a65726f20616464726573736044820152606401610789565b6000818152600260205260409020546001600160a01b03161561280c5760405162461bcd60e51b815260206004820152601c60248201527f4552433732313a20746f6b656e20616c7265616479206d696e746564000000006044820152606401610789565b61281860008383612699565b6001600160a01b0382166000908152600360205260408120805460019290612841908490613c8b565b909155505060008181526002602052604080822080546001600160a01b0319166001600160a01b03861690811790915590518392907fddf252ad1be2c89b69c2b068fc378daa952ba7f163c4a11628f55a4df523b3ef908290a45050565b60006001600160a01b0384163b1561299257604051630a85bd0160e11b81526001600160a01b0385169063150b7a02906128e3903390899088908890600401613efa565b6020604051808303816000875af192505050801561291e575060408051601f3d908101601f1916820190925261291b91810190613f2d565b60015b612978573d80801561294c576040519150601f19603f3d011682016040523d82523d6000602084013e612951565b606091505b5080516129705760405162461bcd60e51b815260040161078990613e6a565b805181602001fd5b6001600160e01b031916630a85bd0160e11b149050611e7e565b506001949350505050565b600060016129aa84610f21565b6129b49190613c74565b600083815260076020526040902054909150808214612a07576001600160a01b03841660009081526006602090815260408083208584528252808320548484528184208190558352600790915290208190555b5060009182526007602090815260408084208490556001600160a01b039094168352600681528383209183525290812055565b600854600090612a4c90600190613c74565b60008381526009602052604081205460088054939450909284908110612a7457612a746137c0565b906000526020600020015490508060088381548110612a9557612a956137c0565b6000918252602080832090910192909255828152600990915260408082208490558582528120556008805480612acd57612acd613f4a565b6001900381819060005260206000200160009055905550505050565b6000612af483610f21565b6001600160a01b039093166000908152600660209081526040808320868452825280832085905593825260079052919091209190915550565b828054612b3990613462565b90600052602060002090601f016020900481019282612b5b5760008555612ba1565b82601f10612b7457805160ff1916838001178555612ba1565b82800160010185558215612ba1579182015b82811115612ba1578251825591602001919060010190612b86565b50612bad929150612bb1565b5090565b5b80821115612bad5760008155600101612bb2565b6001600160e01b0319811681146111b857600080fd5b600060208284031215612bee57600080fd5b81356118ea81612bc6565b600060208284031215612c0b57600080fd5b5035919050565b60005b83811015612c2d578181015183820152602001612c15565b8381111561174b5750506000910152565b60008151808452612c56816020860160208601612c12565b601f01601f19169290920160200192915050565b60006020808301818452808551808352604092508286019150828160051b87010184880160005b83811015612d0357888303603f19018552815180518452878101516001600160a01b0390811689860152878201518886015260608083015160a08288018190529290612cdf84890182612c3e565b60809586015190921697909401969096525050509386019390860190600101612c91565b509098975050505050505050565b6020815260006118ea6020830184612c3e565b6001600160a01b03811681146111b857600080fd5b60008060408385031215612d4c57600080fd5b8235612d5781612d24565b946020939093013593505050565b60006020808301818452808551808352604092508286019150828160051b87010184880160005b83811015612d0357888303603f1901855281518051878552612db088860182612c3e565b918901519489019490945294870194925090860190600101612d8c565b60006020808301818452808551808352604092508286019150828160051b87010184880160005b83811015612d0357603f19898403018552815160808151818652612e1a82870182612c3e565b915050888201518582038a870152612e328282612c3e565b9150508782015185820389870152612e4a8282612c3e565b6060938401516001600160a01b031696909301959095525094870194925090860190600101612df4565b600080600060608486031215612e8957600080fd5b8335612e9481612d24565b92506020840135612ea481612d24565b929592945050506040919091013590565b600060208284031215612ec757600080fd5b81356118ea81612d24565b60008083601f840112612ee457600080fd5b5081356001600160401b03811115612efb57600080fd5b6020830191508360208260051b8501011115612f1657600080fd5b9250929050565b600080600060408486031215612f3257600080fd5b8335925060208401356001600160401b03811115612f4f57600080fd5b612f5b86828701612ed2565b9497909650939450505050565b60008060408385031215612f7b57600080fd5b50508035926020909101359150565b634e487b7160e01b600052604160045260246000fd5b604080519081016001600160401b0381118282101715612fc257612fc2612f8a565b60405290565b604051608081016001600160401b0381118282101715612fc257612fc2612f8a565b604051602081016001600160401b0381118282101715612fc257612fc2612f8a565b60405160a081016001600160401b0381118282101715612fc257612fc2612f8a565b604051601f8201601f191681016001600160401b038111828210171561305657613056612f8a565b604052919050565b60006001600160401b0382111561307757613077612f8a565b50601f01601f191660200190565b60006130986130938461305e565b61302e565b90508281528383830111156130ac57600080fd5b828260208301376000602084830101529392505050565b600080604083850312156130d657600080fd5b8235915060208301356001600160401b038111156130f357600080fd5b8301601f8101851361310457600080fd5b61311385823560208401613085565b9150509250929050565b6000602080830181845280855180835260408601915060408160051b870101925083870160005b8281101561317a57878503603f1901845281515186865261316787870182612c3e565b9550509285019290850190600101613144565b5092979650505050505050565b60006020808301818452808551808352604092508286019150828160051b87010184880160005b83811015612d0357888303603f19018552815180518785526131d288860182612c3e565b91890151151594890194909452948701949250908601906001016131ae565b6000806040838503121561320457600080fd5b8235915060208301356001600160401b0381111561322157600080fd5b83016020818603121561323357600080fd5b809150509250929050565b60006020828403121561325057600080fd5b81356001600160401b0381111561326657600080fd5b820160c081850312156118ea57600080fd5b80151581146111b857600080fd5b6000806040838503121561329957600080fd5b82356132a481612d24565b9150602083013561323381613278565b600080600080608085870312156132ca57600080fd5b84356132d581612d24565b935060208501356132e581612d24565b92506040850135915060608501356001600160401b0381111561330757600080fd5b8501601f8101871361331857600080fd5b61332787823560208401613085565b91505092959194509250565b6000806040838503121561334657600080fd5b82359150602083013561323381612d24565b6000806040838503121561336b57600080fd5b823561337681612d24565b9150602083013561323381612d24565b6020808252825160a083830152805160c0840181905260009291820190839060e08601905b808310156133d45783516001600160a01b031682529284019260019290920191908401906133ab565b50838701519350601f199250828682030160408701526133f48185612c3e565b935050506040850151818584030160608601526134118382612c3e565b92505060608501518185840301608086015261342d8382612c3e565b92505050608084015160a08401528091505092915050565b60006020828403121561345757600080fd5b81516118ea81612d24565b600181811c9082168061347657607f821691505b6020821081141561349757634e487b7160e01b600052602260045260246000fd5b50919050565b60006001600160401b038211156134b6576134b6612f8a565b5060051b60200190565b600082601f8301126134d157600080fd5b81516134df6130938261305e565b8181528460208386010111156134f457600080fd5b611e7e826020830160208701612c12565b6000602080838503121561351857600080fd5b82516001600160401b038082111561352f57600080fd5b818501915085601f83011261354357600080fd5b81516135516130938261349d565b81815260059190911b8301840190848101908883111561357057600080fd5b8585015b838110156135e35780518581111561358c5760008081fd5b86016040818c03601f19018113156135a45760008081fd5b6135ac612fa0565b89830151888111156135be5760008081fd5b6135cc8e8c838701016134c0565b825250910151888201528352918601918601613574565b5098975050505050505050565b6000602080838503121561360357600080fd5b82516001600160401b038082111561361a57600080fd5b818501915085601f83011261362e57600080fd5b815161363c6130938261349d565b81815260059190911b8301840190848101908883111561365b57600080fd5b8585015b838110156135e35780518581111561367657600080fd5b86016080818c03601f1901121561368d5760008081fd5b613695612fc8565b88820151878111156136a75760008081fd5b6136b58d8b838601016134c0565b825250604080830151888111156136cc5760008081fd5b6136da8e8c838701016134c0565b8b84015250606080840151898111156136f35760008081fd5b6137018f8d838801016134c0565b83850152506080840151935061371684612d24565b82019290925284525091860191860161365f565b6020808252602e908201527f4552433732313a2063616c6c6572206973206e6f7420746f6b656e206f776e6560408201526d1c881b9bdc88185c1c1c9bdd995960921b606082015260800190565b60208082526028908201527f50726f66696c653a2063616c6c6572206973206e6f74206f776e6572206f7220604082015267185c1c1c9bdd995960c21b606082015260800190565b634e487b7160e01b600052603260045260246000fd5b828152604060208201526000611e7e6040830184612c3e565b60006020828403121561380157600080fd5b5051919050565b6000602080838503121561381b57600080fd5b82516001600160401b038082111561383257600080fd5b818501915085601f83011261384657600080fd5b81516138546130938261349d565b81815260059190911b8301840190848101908883111561387357600080fd5b8585015b838110156135e35780518581111561388f5760008081fd5b8601808b03601f19018813156138a55760008081fd5b6138ad612fea565b88820151878111156138bf5760008081fd5b6138cd8d8b838601016134c0565b825250845250918601918601613877565b600060208083850312156138f157600080fd5b82516001600160401b038082111561390857600080fd5b818501915085601f83011261391c57600080fd5b815161392a6130938261349d565b81815260059190911b8301840190848101908883111561394957600080fd5b8585015b838110156135e3578051858111156139655760008081fd5b86016040818c03601f190181131561397d5760008081fd5b613985612fa0565b89830151888111156139975760008081fd5b6139a58e8c838701016134c0565b82525091810151916139b683613278565b808a019290925250835291860191860161394d565b6000808335601e198436030181126139e257600080fd5b83016020810192503590506001600160401b03811115613a0157600080fd5b803603831315612f1657600080fd5b81835281816020850137506000828201602090810191909152601f909101601f19169091010190565b828152604060208201526000613a4f83846139cb565b60206040850152613a64606085018284613a10565b9695505050505050565b634e487b7160e01b600052601160045260246000fd5b6000600019821415613a9857613a98613a6e565b5060010190565b6000808335601e19843603018112613ab657600080fd5b8301803591506001600160401b03821115613ad057600080fd5b602001915036819003821315612f1657600080fd5b6000808335601e19843603018112613afc57600080fd5b8301803591506001600160401b03821115613b1657600080fd5b6020019150600581901b3603821315612f1657600080fd5b60008351613b40818460208801612c12565b835190830190613b54818360208801612c12565b01949350505050565b60006020808385031215613b7057600080fd5b82516001600160401b0380821115613b8757600080fd5b818501915085601f830112613b9b57600080fd5b8151613ba96130938261349d565b81815260059190911b83018401908481019088831115613bc857600080fd5b8585015b838110156135e357805185811115613be357600080fd5b860160a0818c03601f19011215613bfa5760008081fd5b613c0261300c565b888201518152604080830151613c1781612d24565b808b8401525060608084015182840152608091508184015189811115613c3d5760008081fd5b613c4b8f8d838801016134c0565b82850152505060a08301519250613c6183612d24565b8101919091528352918601918601613bcc565b600082821015613c8657613c86613a6e565b500390565b60008219821115613c9e57613c9e613a6e565b500190565b600060408083018684526020828186015281868352606092508286019050828760051b870101886000805b8a811015613d7157898403605f190185528235368d9003609e19018112613cf3578283fd5b8c018035855260a087820135613d0881612d24565b6001600160a01b03818116888b0152838c01358c890152613d2b8b8501856139cb565b9250838c8a0152613d3f848a018483613a10565b93505060809150818401359350613d5584612d24565b9290921695909101949094529385019391850191600101613cce565b50919b9a5050505050505050505050565b600060408083018684526020828186015281868352606092508286019050828760051b870101886000805b8a811015613d7157898403605f190185528235368d9003607e19018112613dd2578283fd5b8c016080613de082806139cb565b828852613df08389018284613a10565b92505050613e00888301836139cb565b8783038a890152613e12838284613a10565b92505050613e228a8301836139cb565b8783038c890152613e34838284613a10565b92505050888201359150613e4782612d24565b6001600160a01b0391909116948801949094529385019391850191600101613dad565b60208082526032908201527f4552433732313a207472616e7366657220746f206e6f6e20455243373231526560408201527131b2b4bb32b91034b6b83632b6b2b73a32b960711b606082015260800190565b634e487b7160e01b600052601260045260246000fd5b600082613ee157613ee1613ebc565b500490565b600082613ef557613ef5613ebc565b500690565b6001600160a01b0385811682528416602082015260408101839052608060608201819052600090613a6490830184612c3e565b600060208284031215613f3f57600080fd5b81516118ea81612bc6565b634e487b7160e01b600052603160045260246000fdfea26469706673582212202674854645794073dc9ddd8e84fd6f1d26cc5494324eb3a8320510e3b47bf33064736f6c634300080a0033",
  "linkReferences": {},
  "deployedLinkReferences": {}
}