{
  "_format": "hh-sol-artifact-1",
  "contractName": "Profile",
  "sourceName": "contracts/core/Profile.sol",
  "abi": [
    {
      "inputs": [
        {
          "internalType": "address",
          "name": "owner",
          "type": "address"
        }
      ],
      "stateMutability": "nonpayable",
      "type": "constructor"
    },
    {
      "anonymous": false,
      "inputs": [
        {
          "indexed": true,
          "internalType": "address",
          "name": "owner",
          "type": "address"
        },
        {
          "indexed": true,
          "internalType": "address",
          "name": "approved",
          "type": "address"
        },
        {
          "indexed": true,
          "internalType": "uint256",
          "name": "tokenId",
          "type": "uint256"
        }
      ],
      "name": "Approval",
      "type": "event"
    },
    {
      "anonymous": false,
      "inputs": [
        {
          "indexed": true,
          "internalType": "address",
          "name": "owner",
          "type": "address"
        },
        {
          "indexed": true,
          "internalType": "address",
          "name": "operator",
          "type": "address"
        },
        {
          "indexed": false,
          "internalType": "bool",
          "name": "approved",
          "type": "bool"
        }
      ],
      "name": "ApprovalForAll",
      "type": "event"
    },
    {
      "anonymous": false,
      "inputs": [
        {
          "indexed": true,
          "internalType": "uint256",
          "name": "profileId",
          "type": "uint256"
        },
        {
          "indexed": true,
          "internalType": "uint256",
          "name": "pubId",
          "type": "uint256"
        },
        {
          "components": [
            {
              "internalType": "uint256",
              "name": "chainId",
              "type": "uint256"
            },
            {
              "internalType": "address",
              "name": "contractAddress",
              "type": "address"
            },
            {
              "internalType": "uint256",
              "name": "tokenId",
              "type": "uint256"
            },
            {
              "internalType": "string",
              "name": "tokenURI",
              "type": "string"
            },
            {
              "internalType": "address",
              "name": "wallet",
              "type": "address"
            }
          ],
          "indexed": false,
          "internalType": "struct INFTCollectionModule.NFTStruct[]",
          "name": "nfts",
          "type": "tuple[]"
        },
        {
          "indexed": false,
          "internalType": "uint256",
          "name": "blockNumber",
          "type": "uint256"
        }
      ],
      "name": "NFTCollectionCreated",
      "type": "event"
    },
    {
      "anonymous": false,
      "inputs": [
        {
          "indexed": true,
          "internalType": "address",
          "name": "previousOwner",
          "type": "address"
        },
        {
          "indexed": true,
          "internalType": "address",
          "name": "newOwner",
          "type": "address"
        }
      ],
      "name": "OwnershipTransferred",
      "type": "event"
    },
    {
      "anonymous": false,
      "inputs": [
        {
          "indexed": true,
          "internalType": "address",
          "name": "wallet",
          "type": "address"
        },
        {
          "indexed": false,
          "internalType": "uint256",
          "name": "profileId",
          "type": "uint256"
        },
        {
          "indexed": false,
          "internalType": "string",
          "name": "handle",
          "type": "string"
        },
        {
          "indexed": false,
          "internalType": "string",
          "name": "imageURI",
          "type": "string"
        },
        {
          "indexed": false,
          "internalType": "uint256",
          "name": "blockNumber",
          "type": "uint256"
        }
      ],
      "name": "ProfileCreated",
      "type": "event"
    },
    {
      "anonymous": false,
      "inputs": [
        {
          "indexed": true,
          "internalType": "uint256",
          "name": "profileId",
          "type": "uint256"
        },
        {
          "indexed": true,
          "internalType": "uint256",
          "name": "pubId",
          "type": "uint256"
        },
        {
          "components": [
            {
              "internalType": "string",
              "name": "service",
              "type": "string"
            },
            {
              "internalType": "string",
              "name": "user_id",
              "type": "string"
            },
            {
              "internalType": "string",
              "name": "userPageURL",
              "type": "string"
            },
            {
              "internalType": "address",
              "name": "wallet",
              "type": "address"
            }
          ],
          "indexed": false,
          "internalType": "struct ISNSAccountModule.SNSAccountStruct",
          "name": "sns",
          "type": "tuple"
        },
        {
          "indexed": false,
          "internalType": "uint256",
          "name": "blockNumber",
          "type": "uint256"
        }
      ],
      "name": "SNSAccountCreated",
      "type": "event"
    },
    {
      "anonymous": false,
      "inputs": [
        {
          "indexed": true,
          "internalType": "address",
          "name": "from",
          "type": "address"
        },
        {
          "indexed": true,
          "internalType": "address",
          "name": "to",
          "type": "address"
        },
        {
          "indexed": true,
          "internalType": "uint256",
          "name": "tokenId",
          "type": "uint256"
        }
      ],
      "name": "Transfer",
      "type": "event"
    },
    {
      "anonymous": false,
      "inputs": [
        {
          "indexed": false,
          "internalType": "uint256",
          "name": "profileId",
          "type": "uint256"
        },
        {
          "indexed": false,
          "internalType": "address",
          "name": "wallet",
          "type": "address"
        }
      ],
      "name": "WalletAdded",
      "type": "event"
    },
    {
      "inputs": [
        {
          "internalType": "uint256",
          "name": "profileId",
          "type": "uint256"
        },
        {
          "internalType": "address",
          "name": "wallet",
          "type": "address"
        }
      ],
      "name": "addWallet",
      "outputs": [],
      "stateMutability": "nonpayable",
      "type": "function"
    },
    {
      "inputs": [
        {
          "internalType": "address",
          "name": "to",
          "type": "address"
        },
        {
          "internalType": "uint256",
          "name": "tokenId",
          "type": "uint256"
        }
      ],
      "name": "approve",
      "outputs": [],
      "stateMutability": "nonpayable",
      "type": "function"
    },
    {
      "inputs": [
        {
          "internalType": "address",
          "name": "owner",
          "type": "address"
        }
      ],
      "name": "balanceOf",
      "outputs": [
        {
          "internalType": "uint256",
          "name": "",
          "type": "uint256"
        }
      ],
      "stateMutability": "view",
      "type": "function"
    },
    {
      "inputs": [
        {
          "internalType": "uint256",
          "name": "profileId",
          "type": "uint256"
        },
        {
          "components": [
            {
              "internalType": "uint256",
              "name": "chainId",
              "type": "uint256"
            },
            {
              "internalType": "address",
              "name": "contractAddress",
              "type": "address"
            },
            {
              "internalType": "uint256",
              "name": "tokenId",
              "type": "uint256"
            },
            {
              "internalType": "string",
              "name": "tokenURI",
              "type": "string"
            },
            {
              "internalType": "address",
              "name": "wallet",
              "type": "address"
            }
          ],
          "internalType": "struct INFTCollectionModule.NFTStruct[]",
          "name": "nfts",
          "type": "tuple[]"
        }
      ],
      "name": "createNFTCollection",
      "outputs": [],
      "stateMutability": "nonpayable",
      "type": "function"
    },
    {
      "inputs": [
        {
          "components": [
            {
              "internalType": "string",
              "name": "handle",
              "type": "string"
            },
            {
              "internalType": "string",
              "name": "imageURI",
              "type": "string"
            },
            {
              "components": [
                {
                  "internalType": "uint256",
                  "name": "chainId",
                  "type": "uint256"
                },
                {
                  "internalType": "address",
                  "name": "contractAddress",
                  "type": "address"
                },
                {
                  "internalType": "uint256",
                  "name": "tokenId",
                  "type": "uint256"
                },
                {
                  "internalType": "string",
                  "name": "tokenURI",
                  "type": "string"
                },
                {
                  "internalType": "address",
                  "name": "wallet",
                  "type": "address"
                }
              ],
              "internalType": "struct INFTCollectionModule.NFTStruct[]",
              "name": "nfts",
              "type": "tuple[]"
            }
          ],
          "internalType": "struct IProfile.CreateProfileStructData",
          "name": "vars",
          "type": "tuple"
        }
      ],
      "name": "createProfile",
      "outputs": [
        {
          "internalType": "uint256",
          "name": "",
          "type": "uint256"
        }
      ],
      "stateMutability": "nonpayable",
      "type": "function"
    },
    {
      "inputs": [
        {
          "internalType": "uint256",
          "name": "profileId",
          "type": "uint256"
        },
        {
          "components": [
            {
              "internalType": "string",
              "name": "service",
              "type": "string"
            },
            {
              "internalType": "string",
              "name": "user_id",
              "type": "string"
            },
            {
              "internalType": "string",
              "name": "userPageURL",
              "type": "string"
            },
            {
              "internalType": "address",
              "name": "wallet",
              "type": "address"
            }
          ],
          "internalType": "struct ISNSAccountModule.SNSAccountStruct",
          "name": "snsAccount",
          "type": "tuple"
        }
      ],
      "name": "createSNSAccount",
      "outputs": [],
      "stateMutability": "nonpayable",
      "type": "function"
    },
    {
      "inputs": [
        {
          "internalType": "uint256",
          "name": "tokenId",
          "type": "uint256"
        }
      ],
      "name": "getApproved",
      "outputs": [
        {
          "internalType": "address",
          "name": "",
          "type": "address"
        }
      ],
      "stateMutability": "view",
      "type": "function"
    },
    {
      "inputs": [
        {
          "internalType": "uint256",
          "name": "profileId",
          "type": "uint256"
        },
        {
          "internalType": "uint256",
          "name": "nftCollectionPubId",
          "type": "uint256"
        }
      ],
      "name": "getNFTCollection",
      "outputs": [
        {
          "components": [
            {
              "internalType": "uint256",
              "name": "chainId",
              "type": "uint256"
            },
            {
              "internalType": "address",
              "name": "contractAddress",
              "type": "address"
            },
            {
              "internalType": "uint256",
              "name": "tokenId",
              "type": "uint256"
            },
            {
              "internalType": "string",
              "name": "tokenURI",
              "type": "string"
            },
            {
              "internalType": "address",
              "name": "wallet",
              "type": "address"
            }
          ],
          "internalType": "struct INFTCollectionModule.NFTStruct[]",
          "name": "",
          "type": "tuple[]"
        }
      ],
      "stateMutability": "view",
      "type": "function"
    },
    {
      "inputs": [
        {
          "internalType": "uint256",
          "name": "profileId",
          "type": "uint256"
        }
      ],
      "name": "getProfile",
      "outputs": [
        {
          "components": [
            {
              "internalType": "address[]",
              "name": "wallets",
              "type": "address[]"
            },
            {
              "internalType": "string",
              "name": "handle",
              "type": "string"
            },
            {
              "internalType": "string",
              "name": "imageURI",
              "type": "string"
            },
            {
              "internalType": "uint256",
              "name": "nftCollectionPubId",
              "type": "uint256"
            },
            {
              "internalType": "uint256",
              "name": "snsPubId",
              "type": "uint256"
            }
          ],
          "internalType": "struct IProfile.ProfileStruct",
          "name": "",
          "type": "tuple"
        }
      ],
      "stateMutability": "view",
      "type": "function"
    },
    {
      "inputs": [
        {
          "internalType": "uint256",
          "name": "profileId",
          "type": "uint256"
        },
        {
          "internalType": "uint256",
          "name": "snsPubId",
          "type": "uint256"
        }
      ],
      "name": "getSNSAccounts",
      "outputs": [
        {
          "components": [
            {
              "internalType": "string",
              "name": "service",
              "type": "string"
            },
            {
              "internalType": "string",
              "name": "user_id",
              "type": "string"
            },
            {
              "internalType": "string",
              "name": "userPageURL",
              "type": "string"
            },
            {
              "internalType": "address",
              "name": "wallet",
              "type": "address"
            }
          ],
          "internalType": "struct ISNSAccountModule.SNSAccountStruct[]",
          "name": "",
          "type": "tuple[]"
        }
      ],
      "stateMutability": "view",
      "type": "function"
    },
    {
      "inputs": [
        {
          "internalType": "address",
          "name": "owner",
          "type": "address"
        },
        {
          "internalType": "address",
          "name": "operator",
          "type": "address"
        }
      ],
      "name": "isApprovedForAll",
      "outputs": [
        {
          "internalType": "bool",
          "name": "",
          "type": "bool"
        }
      ],
      "stateMutability": "view",
      "type": "function"
    },
    {
      "inputs": [],
      "name": "name",
      "outputs": [
        {
          "internalType": "string",
          "name": "",
          "type": "string"
        }
      ],
      "stateMutability": "view",
      "type": "function"
    },
    {
      "inputs": [],
      "name": "owner",
      "outputs": [
        {
          "internalType": "address",
          "name": "",
          "type": "address"
        }
      ],
      "stateMutability": "view",
      "type": "function"
    },
    {
      "inputs": [
        {
          "internalType": "uint256",
          "name": "tokenId",
          "type": "uint256"
        }
      ],
      "name": "ownerOf",
      "outputs": [
        {
          "internalType": "address",
          "name": "",
          "type": "address"
        }
      ],
      "stateMutability": "view",
      "type": "function"
    },
    {
      "inputs": [],
      "name": "renounceOwnership",
      "outputs": [],
      "stateMutability": "nonpayable",
      "type": "function"
    },
    {
      "inputs": [
        {
          "internalType": "address",
          "name": "from",
          "type": "address"
        },
        {
          "internalType": "address",
          "name": "to",
          "type": "address"
        },
        {
          "internalType": "uint256",
          "name": "tokenId",
          "type": "uint256"
        }
      ],
      "name": "safeTransferFrom",
      "outputs": [],
      "stateMutability": "nonpayable",
      "type": "function"
    },
    {
      "inputs": [
        {
          "internalType": "address",
          "name": "from",
          "type": "address"
        },
        {
          "internalType": "address",
          "name": "to",
          "type": "address"
        },
        {
          "internalType": "uint256",
          "name": "tokenId",
          "type": "uint256"
        },
        {
          "internalType": "bytes",
          "name": "data",
          "type": "bytes"
        }
      ],
      "name": "safeTransferFrom",
      "outputs": [],
      "stateMutability": "nonpayable",
      "type": "function"
    },
    {
      "inputs": [
        {
          "internalType": "address",
          "name": "operator",
          "type": "address"
        },
        {
          "internalType": "bool",
          "name": "approved",
          "type": "bool"
        }
      ],
      "name": "setApprovalForAll",
      "outputs": [],
      "stateMutability": "nonpayable",
      "type": "function"
    },
    {
      "inputs": [
        {
          "internalType": "address",
          "name": "icecandy",
          "type": "address"
        }
      ],
      "name": "setIceCandy",
      "outputs": [],
      "stateMutability": "nonpayable",
      "type": "function"
    },
    {
      "inputs": [
        {
          "internalType": "address",
          "name": "nftCollectionModule",
          "type": "address"
        }
      ],
      "name": "setNFTCollectionModule",
      "outputs": [],
      "stateMutability": "nonpayable",
      "type": "function"
    },
    {
      "inputs": [
        {
          "internalType": "address",
          "name": "snsAccountModule",
          "type": "address"
        }
      ],
      "name": "setSNSAccountModule",
      "outputs": [],
      "stateMutability": "nonpayable",
      "type": "function"
    },
    {
      "inputs": [
        {
          "internalType": "bytes4",
          "name": "interfaceId",
          "type": "bytes4"
        }
      ],
      "name": "supportsInterface",
      "outputs": [
        {
          "internalType": "bool",
          "name": "",
          "type": "bool"
        }
      ],
      "stateMutability": "view",
      "type": "function"
    },
    {
      "inputs": [],
      "name": "symbol",
      "outputs": [
        {
          "internalType": "string",
          "name": "",
          "type": "string"
        }
      ],
      "stateMutability": "view",
      "type": "function"
    },
    {
      "inputs": [
        {
          "internalType": "uint256",
          "name": "index",
          "type": "uint256"
        }
      ],
      "name": "tokenByIndex",
      "outputs": [
        {
          "internalType": "uint256",
          "name": "",
          "type": "uint256"
        }
      ],
      "stateMutability": "view",
      "type": "function"
    },
    {
      "inputs": [
        {
          "internalType": "address",
          "name": "owner",
          "type": "address"
        },
        {
          "internalType": "uint256",
          "name": "index",
          "type": "uint256"
        }
      ],
      "name": "tokenOfOwnerByIndex",
      "outputs": [
        {
          "internalType": "uint256",
          "name": "",
          "type": "uint256"
        }
      ],
      "stateMutability": "view",
      "type": "function"
    },
    {
      "inputs": [
        {
          "internalType": "uint256",
          "name": "tokenId",
          "type": "uint256"
        }
      ],
      "name": "tokenURI",
      "outputs": [
        {
          "internalType": "string",
          "name": "",
          "type": "string"
        }
      ],
      "stateMutability": "view",
      "type": "function"
    },
    {
      "inputs": [],
      "name": "totalSupply",
      "outputs": [
        {
          "internalType": "uint256",
          "name": "",
          "type": "uint256"
        }
      ],
      "stateMutability": "view",
      "type": "function"
    },
    {
      "inputs": [
        {
          "internalType": "address",
          "name": "from",
          "type": "address"
        },
        {
          "internalType": "address",
          "name": "to",
          "type": "address"
        },
        {
          "internalType": "uint256",
          "name": "tokenId",
          "type": "uint256"
        }
      ],
      "name": "transferFrom",
      "outputs": [],
      "stateMutability": "nonpayable",
      "type": "function"
    },
    {
      "inputs": [
        {
          "internalType": "address",
          "name": "newOwner",
          "type": "address"
        }
      ],
      "name": "transferOwnership",
      "outputs": [],
      "stateMutability": "nonpayable",
      "type": "function"
    }
  ],
  "bytecode": "0x60806040523480156200001157600080fd5b506040516200510d3803806200510d8339818101604052810190620000379190620002f7565b6040518060400160405280600781526020017f50726f66696c65000000000000000000000000000000000000000000000000008152506040518060400160405280600781526020017f50524f46494c45000000000000000000000000000000000000000000000000008152508160009080519060200190620000bb929190620001dd565b508060019080519060200190620000d4929190620001dd565b505050620000f7620000eb6200010f60201b60201c565b6200011760201b60201c565b62000108816200011760201b60201c565b506200038e565b600033905090565b6000600a60009054906101000a900473ffffffffffffffffffffffffffffffffffffffff16905081600a60006101000a81548173ffffffffffffffffffffffffffffffffffffffff021916908373ffffffffffffffffffffffffffffffffffffffff1602179055508173ffffffffffffffffffffffffffffffffffffffff168173ffffffffffffffffffffffffffffffffffffffff167f8be0079c531659141344cd1fd0a4f28419497f9722a3daafe3b4186f6b6457e060405160405180910390a35050565b828054620001eb9062000358565b90600052602060002090601f0160209004810192826200020f57600085556200025b565b82601f106200022a57805160ff19168380011785556200025b565b828001600101855582156200025b579182015b828111156200025a5782518255916020019190600101906200023d565b5b5090506200026a91906200026e565b5090565b5b80821115620002895760008160009055506001016200026f565b5090565b600080fd5b600073ffffffffffffffffffffffffffffffffffffffff82169050919050565b6000620002bf8262000292565b9050919050565b620002d181620002b2565b8114620002dd57600080fd5b50565b600081519050620002f181620002c6565b92915050565b60006020828403121562000310576200030f6200028d565b5b60006200032084828501620002e0565b91505092915050565b7f4e487b7100000000000000000000000000000000000000000000000000000000600052602260045260246000fd5b600060028204905060018216806200037157607f821691505b6020821081141562000388576200038762000329565b5b50919050565b614d6f806200039e6000396000f3fe608060405234801561001057600080fd5b50600436106101cf5760003560e01c806370a0823111610104578063b941d1db116100a2578063e99ac60511610071578063e99ac6051461054e578063f08f4f641461056a578063f2fde38b1461059a578063fe22830c146105b6576101cf565b8063b941d1db146104b6578063c7410489146104d2578063c87b56dd146104ee578063e985e9c51461051e576101cf565b806395d89b41116100de57806395d89b41146104445780639e68df1b14610462578063a22cb4651461047e578063b88d4fde1461049a576101cf565b806370a08231146103ec578063715018a61461041c5780638da5cb5b14610426576101cf565b806323b872dd1161017157806338385e8c1161014b57806338385e8c1461034057806342842e0e146103705780634f6ccce71461038c5780636352211e146103bc576101cf565b806323b872dd146102d85780632f745c59146102f45780633538b19514610324576101cf565b806308a71390116101ad57806308a7139014610252578063095ea7b31461026e57806318160ddd1461028a5780631ac12836146102a8576101cf565b806301ffc9a7146101d457806306fdde0314610204578063081812fc14610222575b600080fd5b6101ee60048036038101906101e99190612b64565b6105e6565b6040516101fb9190612bac565b60405180910390f35b61020c610660565b6040516102199190612c60565b60405180910390f35b61023c60048036038101906102379190612cb8565b6106f2565b6040516102499190612d26565b60405180910390f35b61026c60048036038101906102679190612d6d565b610738565b005b61028860048036038101906102839190612d9a565b610784565b005b61029261089c565b60405161029f9190612de9565b60405180910390f35b6102c260048036038101906102bd9190612e04565b6108a9565b6040516102cf9190612fd0565b60405180910390f35b6102f260048036038101906102ed9190612ff2565b610956565b005b61030e60048036038101906103099190612d9a565b6109b6565b60405161031b9190612de9565b60405180910390f35b61033e60048036038101906103399190613069565b610a5b565b005b61035a60048036038101906103559190612e04565b610b04565b604051610367919061320c565b60405180910390f35b61038a60048036038101906103859190612ff2565b610bb1565b005b6103a660048036038101906103a19190612cb8565b610bd1565b6040516103b39190612de9565b60405180910390f35b6103d660048036038101906103d19190612cb8565b610c42565b6040516103e39190612d26565b60405180910390f35b61040660048036038101906104019190612d6d565b610cf4565b6040516104139190612de9565b60405180910390f35b610424610dac565b005b61042e610dc0565b60405161043b9190612d26565b60405180910390f35b61044c610dea565b6040516104599190612c60565b60405180910390f35b61047c60048036038101906104779190612d6d565b610e7c565b005b6104986004803603810190610493919061325a565b610ec8565b005b6104b460048036038101906104af91906133cf565b610ede565b005b6104d060048036038101906104cb9190613452565b610f40565b005b6104ec60048036038101906104e79190612d6d565b61103d565b005b61050860048036038101906105039190612cb8565b611089565b6040516105159190612c60565b60405180910390f35b61053860048036038101906105339190613492565b6110f1565b6040516105459190612bac565b60405180910390f35b61056860048036038101906105639190613532565b611185565b005b610584600480360381019061057f9190612cb8565b611207565b60405161059191906136c5565b60405180910390f35b6105b460048036038101906105af9190612d6d565b6113fa565b005b6105d060048036038101906105cb9190613706565b61147e565b6040516105dd9190612de9565b60405180910390f35b60007f780e9d63000000000000000000000000000000000000000000000000000000007bffffffffffffffffffffffffffffffffffffffffffffffffffffffff1916827bffffffffffffffffffffffffffffffffffffffffffffffffffffffff19161480610659575061065882611635565b5b9050919050565b60606000805461066f9061377e565b80601f016020809104026020016040519081016040528092919081815260200182805461069b9061377e565b80156106e85780601f106106bd576101008083540402835291602001916106e8565b820191906000526020600020905b8154815290600101906020018083116106cb57829003601f168201915b5050505050905090565b60006106fd82611717565b6004600083815260200190815260200160002060009054906101000a900473ffffffffffffffffffffffffffffffffffffffff169050919050565b610740611762565b80600e60006101000a81548173ffffffffffffffffffffffffffffffffffffffff021916908373ffffffffffffffffffffffffffffffffffffffff16021790555050565b600061078f82610c42565b90508073ffffffffffffffffffffffffffffffffffffffff168373ffffffffffffffffffffffffffffffffffffffff161415610800576040517f08c379a00000000000000000000000000000000000000000000000000000000081526004016107f790613822565b60405180910390fd5b8073ffffffffffffffffffffffffffffffffffffffff1661081f6117e0565b73ffffffffffffffffffffffffffffffffffffffff16148061084e575061084d816108486117e0565b6110f1565b5b61088d576040517f08c379a0000000000000000000000000000000000000000000000000000000008152600401610884906138b4565b60405180910390fd5b61089783836117e8565b505050565b6000600880549050905090565b6060600f60009054906101000a900473ffffffffffffffffffffffffffffffffffffffff1673ffffffffffffffffffffffffffffffffffffffff16631ac1283684846040518363ffffffff1660e01b81526004016109089291906138d4565b600060405180830381865afa158015610925573d6000803e3d6000fd5b505050506040513d6000823e3d601f19601f8201168201806040525081019061094e9190613b6a565b905092915050565b6109676109616117e0565b826118a1565b6109a6576040517f08c379a000000000000000000000000000000000000000000000000000000000815260040161099d90613c25565b60405180910390fd5b6109b1838383611936565b505050565b60006109c183610cf4565b8210610a02576040517f08c379a00000000000000000000000000000000000000000000000000000000081526004016109f990613cb7565b60405180910390fd5b600660008473ffffffffffffffffffffffffffffffffffffffff1673ffffffffffffffffffffffffffffffffffffffff168152602001908152602001600020600083815260200190815260200160002054905092915050565b610a6533836118a1565b610aa4576040517f08c379a0000000000000000000000000000000000000000000000000000000008152600401610a9b90613d49565b60405180910390fd5b6000600b60008481526020019081526020016000206004015490506000811415610af457600b600084815260200190815260200160002060040160008154610aeb90613d98565b91905081905590505b610aff838284611b9d565b505050565b6060600e60009054906101000a900473ffffffffffffffffffffffffffffffffffffffff1673ffffffffffffffffffffffffffffffffffffffff16630ff711c384846040518363ffffffff1660e01b8152600401610b639291906138d4565b600060405180830381865afa158015610b80573d6000803e3d6000fd5b505050506040513d6000823e3d601f19601f82011682018060405250810190610ba99190613f7f565b905092915050565b610bcc83838360405180602001604052806000815250610ede565b505050565b6000610bdb61089c565b8210610c1c576040517f08c379a0000000000000000000000000000000000000000000000000000000008152600401610c139061403a565b60405180910390fd5b60088281548110610c3057610c2f61405a565b5b90600052602060002001549050919050565b6000806002600084815260200190815260200160002060009054906101000a900473ffffffffffffffffffffffffffffffffffffffff169050600073ffffffffffffffffffffffffffffffffffffffff168173ffffffffffffffffffffffffffffffffffffffff161415610ceb576040517f08c379a0000000000000000000000000000000000000000000000000000000008152600401610ce2906140d5565b60405180910390fd5b80915050919050565b60008073ffffffffffffffffffffffffffffffffffffffff168273ffffffffffffffffffffffffffffffffffffffff161415610d65576040517f08c379a0000000000000000000000000000000000000000000000000000000008152600401610d5c90614167565b60405180910390fd5b600360008373ffffffffffffffffffffffffffffffffffffffff1673ffffffffffffffffffffffffffffffffffffffff168152602001908152602001600020549050919050565b610db4611762565b610dbe6000611c89565b565b6000600a60009054906101000a900473ffffffffffffffffffffffffffffffffffffffff16905090565b606060018054610df99061377e565b80601f0160208091040260200160405190810160405280929190818152602001828054610e259061377e565b8015610e725780601f10610e4757610100808354040283529160200191610e72565b820191906000526020600020905b815481529060010190602001808311610e5557829003601f168201915b5050505050905090565b610e84611762565b80600d60006101000a81548173ffffffffffffffffffffffffffffffffffffffff021916908373ffffffffffffffffffffffffffffffffffffffff16021790555050565b610eda610ed36117e0565b8383611d4f565b5050565b610eef610ee96117e0565b836118a1565b610f2e576040517f08c379a0000000000000000000000000000000000000000000000000000000008152600401610f2590613c25565b60405180910390fd5b610f3a84848484611ebc565b50505050565b610f4a33836118a1565b610f89576040517f08c379a0000000000000000000000000000000000000000000000000000000008152600401610f8090613d49565b60405180910390fd5b600b6000838152602001908152602001600020600001819080600181540180825580915050600190039060005260206000200160009091909190916101000a81548173ffffffffffffffffffffffffffffffffffffffff021916908373ffffffffffffffffffffffffffffffffffffffff1602179055507ff0306f4e8668d23ebcc691f3a47412cb3e3bc7a86b5be28204cf62853914ff158282604051611031929190614187565b60405180910390a15050565b611045611762565b80600f60006101000a81548173ffffffffffffffffffffffffffffffffffffffff021916908373ffffffffffffffffffffffffffffffffffffffff16021790555050565b606061109482611717565b600061109e611f18565b905060008151116110be57604051806020016040528060008152506110e9565b806110c884611f55565b6040516020016110d99291906141ec565b6040516020818303038152906040525b915050919050565b6000600560008473ffffffffffffffffffffffffffffffffffffffff1673ffffffffffffffffffffffffffffffffffffffff16815260200190815260200160002060008373ffffffffffffffffffffffffffffffffffffffff1673ffffffffffffffffffffffffffffffffffffffff16815260200190815260200160002060009054906101000a900460ff16905092915050565b61118f33846118a1565b6111ce576040517f08c379a00000000000000000000000000000000000000000000000000000000081526004016111c590613d49565b60405180910390fd5b61120283600b6000868152602001908152602001600020600301600081546111f590613d98565b91905081905584846120b6565b505050565b61120f612a26565b600b60008381526020019081526020016000206040518060a0016040529081600082018054806020026020016040519081016040528092919081815260200182805480156112b257602002820191906000526020600020905b8160009054906101000a900473ffffffffffffffffffffffffffffffffffffffff1673ffffffffffffffffffffffffffffffffffffffff1681526020019060010190808311611268575b505050505081526020016001820180546112cb9061377e565b80601f01602080910402602001604051908101604052809291908181526020018280546112f79061377e565b80156113445780601f1061131957610100808354040283529160200191611344565b820191906000526020600020905b81548152906001019060200180831161132757829003601f168201915b5050505050815260200160028201805461135d9061377e565b80601f01602080910402602001604051908101604052809291908181526020018280546113899061377e565b80156113d65780601f106113ab576101008083540402835291602001916113d6565b820191906000526020600020905b8154815290600101906020018083116113b957829003601f168201915b50505050508152602001600382015481526020016004820154815250509050919050565b611402611762565b600073ffffffffffffffffffffffffffffffffffffffff168173ffffffffffffffffffffffffffffffffffffffff161415611472576040517f08c379a000000000000000000000000000000000000000000000000000000000815260040161146990614282565b60405180910390fd5b61147b81611c89565b50565b600080600c6000815461149090613d98565b91905081905590506114a233826121a7565b600b6000828152602001908152602001600020600001339080600181540180825580915050600190039060005260206000200160009091909190916101000a81548173ffffffffffffffffffffffffffffffffffffffff021916908373ffffffffffffffffffffffffffffffffffffffff16021790555082806000019061152991906142b1565b600b6000848152602001908152602001600020600101919061154c929190612a55565b5082806020019061155d91906142b1565b600b60008481526020019081526020016000206002019190611580929190612a55565b506000600b6000838152602001908152602001600020600301819055506115b88160018580604001906115b39190614314565b6120b6565b3373ffffffffffffffffffffffffffffffffffffffff167fc1422e75502faf8c82e2a97f85271cdfcbe44cd4dfb5f5d334f8d0e0a9a8503e8285806000019061160191906142b1565b87806020019061161191906142b1565b43604051611624969594939291906143a4565b60405180910390a280915050919050565b60007f80ac58cd000000000000000000000000000000000000000000000000000000007bffffffffffffffffffffffffffffffffffffffffffffffffffffffff1916827bffffffffffffffffffffffffffffffffffffffffffffffffffffffff1916148061170057507f5b5e139f000000000000000000000000000000000000000000000000000000007bffffffffffffffffffffffffffffffffffffffffffffffffffffffff1916827bffffffffffffffffffffffffffffffffffffffffffffffffffffffff1916145b80611710575061170f82612381565b5b9050919050565b611720816123eb565b61175f576040517f08c379a0000000000000000000000000000000000000000000000000000000008152600401611756906140d5565b60405180910390fd5b50565b61176a6117e0565b73ffffffffffffffffffffffffffffffffffffffff16611788610dc0565b73ffffffffffffffffffffffffffffffffffffffff16146117de576040517f08c379a00000000000000000000000000000000000000000000000000000000081526004016117d590614447565b60405180910390fd5b565b600033905090565b816004600083815260200190815260200160002060006101000a81548173ffffffffffffffffffffffffffffffffffffffff021916908373ffffffffffffffffffffffffffffffffffffffff160217905550808273ffffffffffffffffffffffffffffffffffffffff1661185b83610c42565b73ffffffffffffffffffffffffffffffffffffffff167f8c5be1e5ebec7d5bd14f71427d1e84f3dd0314c0f7b2291e5b200ac8c7c3b92560405160405180910390a45050565b6000806118ad83610c42565b90508073ffffffffffffffffffffffffffffffffffffffff168473ffffffffffffffffffffffffffffffffffffffff1614806118ef57506118ee81856110f1565b5b8061192d57508373ffffffffffffffffffffffffffffffffffffffff16611915846106f2565b73ffffffffffffffffffffffffffffffffffffffff16145b91505092915050565b8273ffffffffffffffffffffffffffffffffffffffff1661195682610c42565b73ffffffffffffffffffffffffffffffffffffffff16146119ac576040517f08c379a00000000000000000000000000000000000000000000000000000000081526004016119a3906144d9565b60405180910390fd5b600073ffffffffffffffffffffffffffffffffffffffff168273ffffffffffffffffffffffffffffffffffffffff161415611a1c576040517f08c379a0000000000000000000000000000000000000000000000000000000008152600401611a139061456b565b60405180910390fd5b611a27838383612457565b611a326000826117e8565b6001600360008573ffffffffffffffffffffffffffffffffffffffff1673ffffffffffffffffffffffffffffffffffffffff1681526020019081526020016000206000828254611a82919061458b565b925050819055506001600360008473ffffffffffffffffffffffffffffffffffffffff1673ffffffffffffffffffffffffffffffffffffffff1681526020019081526020016000206000828254611ad991906145bf565b92505081905550816002600083815260200190815260200160002060006101000a81548173ffffffffffffffffffffffffffffffffffffffff021916908373ffffffffffffffffffffffffffffffffffffffff160217905550808273ffffffffffffffffffffffffffffffffffffffff168473ffffffffffffffffffffffffffffffffffffffff167fddf252ad1be2c89b69c2b068fc378daa952ba7f163c4a11628f55a4df523b3ef60405160405180910390a4611b9883838361256b565b505050565b600f60009054906101000a900473ffffffffffffffffffffffffffffffffffffffff1673ffffffffffffffffffffffffffffffffffffffff16632cf41c5f8484846040518463ffffffff1660e01b8152600401611bfc93929190614762565b600060405180830381600087803b158015611c1657600080fd5b505af1158015611c2a573d6000803e3d6000fd5b5050505081600b60008581526020019081526020016000206004018190555081837f3f0b76306f3a56ae7bd7b94950a2b147773fe7c7df8b15a5c34843f9f1266e638343604051611c7c9291906147a0565b60405180910390a3505050565b6000600a60009054906101000a900473ffffffffffffffffffffffffffffffffffffffff16905081600a60006101000a81548173ffffffffffffffffffffffffffffffffffffffff021916908373ffffffffffffffffffffffffffffffffffffffff1602179055508173ffffffffffffffffffffffffffffffffffffffff168173ffffffffffffffffffffffffffffffffffffffff167f8be0079c531659141344cd1fd0a4f28419497f9722a3daafe3b4186f6b6457e060405160405180910390a35050565b8173ffffffffffffffffffffffffffffffffffffffff168373ffffffffffffffffffffffffffffffffffffffff161415611dbe576040517f08c379a0000000000000000000000000000000000000000000000000000000008152600401611db59061481c565b60405180910390fd5b80600560008573ffffffffffffffffffffffffffffffffffffffff1673ffffffffffffffffffffffffffffffffffffffff16815260200190815260200160002060008473ffffffffffffffffffffffffffffffffffffffff1673ffffffffffffffffffffffffffffffffffffffff16815260200190815260200160002060006101000a81548160ff0219169083151502179055508173ffffffffffffffffffffffffffffffffffffffff168373ffffffffffffffffffffffffffffffffffffffff167f17307eab39ab6107e8899845ad3d59bd9653f200f220920489ca2b5937696c3183604051611eaf9190612bac565b60405180910390a3505050565b611ec7848484611936565b611ed384848484612570565b611f12576040517f08c379a0000000000000000000000000000000000000000000000000000000008152600401611f09906148ae565b60405180910390fd5b50505050565b60606040518060400160405280601381526020017f687474703a2f2f6578616d706c652e636f6d2f00000000000000000000000000815250905090565b60606000821415611f9d576040518060400160405280600181526020017f300000000000000000000000000000000000000000000000000000000000000081525090506120b1565b600082905060005b60008214611fcf578080611fb890613d98565b915050600a82611fc891906148fd565b9150611fa5565b60008167ffffffffffffffff811115611feb57611fea6132a4565b5b6040519080825280601f01601f19166020018201604052801561201d5781602001600182028036833780820191505090505b5090505b600085146120aa57600182612036919061458b565b9150600a85612045919061492e565b603061205191906145bf565b60f81b8183815181106120675761206661405a565b5b60200101907effffffffffffffffffffffffffffffffffffffffffffffffffffffffffffff1916908160001a905350600a856120a391906148fd565b9450612021565b8093505050505b919050565b600e60009054906101000a900473ffffffffffffffffffffffffffffffffffffffff1673ffffffffffffffffffffffffffffffffffffffff1663934129a7858585856040518563ffffffff1660e01b81526004016121179493929190614add565b600060405180830381600087803b15801561213157600080fd5b505af1158015612145573d6000803e3d6000fd5b5050505082600b60008681526020019081526020016000206003018190555082847f9449144c2b3a81c6b7b5cf2679e3e1c1008bbb300e50bb4911c1a7f9c9af369c84844360405161219993929190614b1d565b60405180910390a350505050565b600073ffffffffffffffffffffffffffffffffffffffff168273ffffffffffffffffffffffffffffffffffffffff161415612217576040517f08c379a000000000000000000000000000000000000000000000000000000000815260040161220e90614b9b565b60405180910390fd5b612220816123eb565b15612260576040517f08c379a000000000000000000000000000000000000000000000000000000000815260040161225790614c07565b60405180910390fd5b61226c60008383612457565b6001600360008473ffffffffffffffffffffffffffffffffffffffff1673ffffffffffffffffffffffffffffffffffffffff16815260200190815260200160002060008282546122bc91906145bf565b92505081905550816002600083815260200190815260200160002060006101000a81548173ffffffffffffffffffffffffffffffffffffffff021916908373ffffffffffffffffffffffffffffffffffffffff160217905550808273ffffffffffffffffffffffffffffffffffffffff16600073ffffffffffffffffffffffffffffffffffffffff167fddf252ad1be2c89b69c2b068fc378daa952ba7f163c4a11628f55a4df523b3ef60405160405180910390a461237d6000838361256b565b5050565b60007f01ffc9a7000000000000000000000000000000000000000000000000000000007bffffffffffffffffffffffffffffffffffffffffffffffffffffffff1916827bffffffffffffffffffffffffffffffffffffffffffffffffffffffff1916149050919050565b60008073ffffffffffffffffffffffffffffffffffffffff166002600084815260200190815260200160002060009054906101000a900473ffffffffffffffffffffffffffffffffffffffff1673ffffffffffffffffffffffffffffffffffffffff1614159050919050565b6124628383836126f8565b600073ffffffffffffffffffffffffffffffffffffffff168373ffffffffffffffffffffffffffffffffffffffff1614156124a5576124a0816126fd565b6124e4565b8173ffffffffffffffffffffffffffffffffffffffff168373ffffffffffffffffffffffffffffffffffffffff16146124e3576124e28382612746565b5b5b600073ffffffffffffffffffffffffffffffffffffffff168273ffffffffffffffffffffffffffffffffffffffff16141561252757612522816128b3565b612566565b8273ffffffffffffffffffffffffffffffffffffffff168273ffffffffffffffffffffffffffffffffffffffff1614612565576125648282612984565b5b5b505050565b505050565b60006125918473ffffffffffffffffffffffffffffffffffffffff16612a03565b156126eb578373ffffffffffffffffffffffffffffffffffffffff1663150b7a026125ba6117e0565b8786866040518563ffffffff1660e01b81526004016125dc9493929190614c7c565b6020604051808303816000875af192505050801561261857506040513d601f19601f820116820180604052508101906126159190614cdd565b60015b61269b573d8060008114612648576040519150601f19603f3d011682016040523d82523d6000602084013e61264d565b606091505b50600081511415612693576040517f08c379a000000000000000000000000000000000000000000000000000000000815260040161268a906148ae565b60405180910390fd5b805181602001fd5b63150b7a0260e01b7bffffffffffffffffffffffffffffffffffffffffffffffffffffffff1916817bffffffffffffffffffffffffffffffffffffffffffffffffffffffff1916149150506126f0565b600190505b949350505050565b505050565b6008805490506009600083815260200190815260200160002081905550600881908060018154018082558091505060019003906000526020600020016000909190919091505550565b6000600161275384610cf4565b61275d919061458b565b9050600060076000848152602001908152602001600020549050818114612842576000600660008673ffffffffffffffffffffffffffffffffffffffff1673ffffffffffffffffffffffffffffffffffffffff168152602001908152602001600020600084815260200190815260200160002054905080600660008773ffffffffffffffffffffffffffffffffffffffff1673ffffffffffffffffffffffffffffffffffffffff168152602001908152602001600020600084815260200190815260200160002081905550816007600083815260200190815260200160002081905550505b6007600084815260200190815260200160002060009055600660008573ffffffffffffffffffffffffffffffffffffffff1673ffffffffffffffffffffffffffffffffffffffff16815260200190815260200160002060008381526020019081526020016000206000905550505050565b600060016008805490506128c7919061458b565b90506000600960008481526020019081526020016000205490506000600883815481106128f7576128f661405a565b5b9060005260206000200154905080600883815481106129195761291861405a565b5b90600052602060002001819055508160096000838152602001908152602001600020819055506009600085815260200190815260200160002060009055600880548061296857612967614d0a565b5b6001900381819060005260206000200160009055905550505050565b600061298f83610cf4565b905081600660008573ffffffffffffffffffffffffffffffffffffffff1673ffffffffffffffffffffffffffffffffffffffff168152602001908152602001600020600083815260200190815260200160002081905550806007600084815260200190815260200160002081905550505050565b6000808273ffffffffffffffffffffffffffffffffffffffff163b119050919050565b6040518060a0016040528060608152602001606081526020016060815260200160008152602001600081525090565b828054612a619061377e565b90600052602060002090601f016020900481019282612a835760008555612aca565b82601f10612a9c57803560ff1916838001178555612aca565b82800160010185558215612aca579182015b82811115612ac9578235825591602001919060010190612aae565b5b509050612ad79190612adb565b5090565b5b80821115612af4576000816000905550600101612adc565b5090565b6000604051905090565b600080fd5b600080fd5b60007fffffffff0000000000000000000000000000000000000000000000000000000082169050919050565b612b4181612b0c565b8114612b4c57600080fd5b50565b600081359050612b5e81612b38565b92915050565b600060208284031215612b7a57612b79612b02565b5b6000612b8884828501612b4f565b91505092915050565b60008115159050919050565b612ba681612b91565b82525050565b6000602082019050612bc16000830184612b9d565b92915050565b600081519050919050565b600082825260208201905092915050565b60005b83811015612c01578082015181840152602081019050612be6565b83811115612c10576000848401525b50505050565b6000601f19601f8301169050919050565b6000612c3282612bc7565b612c3c8185612bd2565b9350612c4c818560208601612be3565b612c5581612c16565b840191505092915050565b60006020820190508181036000830152612c7a8184612c27565b905092915050565b6000819050919050565b612c9581612c82565b8114612ca057600080fd5b50565b600081359050612cb281612c8c565b92915050565b600060208284031215612cce57612ccd612b02565b5b6000612cdc84828501612ca3565b91505092915050565b600073ffffffffffffffffffffffffffffffffffffffff82169050919050565b6000612d1082612ce5565b9050919050565b612d2081612d05565b82525050565b6000602082019050612d3b6000830184612d17565b92915050565b612d4a81612d05565b8114612d5557600080fd5b50565b600081359050612d6781612d41565b92915050565b600060208284031215612d8357612d82612b02565b5b6000612d9184828501612d58565b91505092915050565b60008060408385031215612db157612db0612b02565b5b6000612dbf85828601612d58565b9250506020612dd085828601612ca3565b9150509250929050565b612de381612c82565b82525050565b6000602082019050612dfe6000830184612dda565b92915050565b60008060408385031215612e1b57612e1a612b02565b5b6000612e2985828601612ca3565b9250506020612e3a85828601612ca3565b9150509250929050565b600081519050919050565b600082825260208201905092915050565b6000819050602082019050919050565b600082825260208201905092915050565b6000612e8c82612bc7565b612e968185612e70565b9350612ea6818560208601612be3565b612eaf81612c16565b840191505092915050565b612ec381612d05565b82525050565b60006080830160008301518482036000860152612ee68282612e81565b91505060208301518482036020860152612f008282612e81565b91505060408301518482036040860152612f1a8282612e81565b9150506060830151612f2f6060860182612eba565b508091505092915050565b6000612f468383612ec9565b905092915050565b6000602082019050919050565b6000612f6682612e44565b612f708185612e4f565b935083602082028501612f8285612e60565b8060005b85811015612fbe5784840389528151612f9f8582612f3a565b9450612faa83612f4e565b925060208a01995050600181019050612f86565b50829750879550505050505092915050565b60006020820190508181036000830152612fea8184612f5b565b905092915050565b60008060006060848603121561300b5761300a612b02565b5b600061301986828701612d58565b935050602061302a86828701612d58565b925050604061303b86828701612ca3565b9150509250925092565b600080fd5b6000608082840312156130605761305f613045565b5b81905092915050565b600080604083850312156130805761307f612b02565b5b600061308e85828601612ca3565b925050602083013567ffffffffffffffff8111156130af576130ae612b07565b5b6130bb8582860161304a565b9150509250929050565b600081519050919050565b600082825260208201905092915050565b6000819050602082019050919050565b6130fa81612c82565b82525050565b600060a08301600083015161311860008601826130f1565b50602083015161312b6020860182612eba565b50604083015161313e60408601826130f1565b50606083015184820360608601526131568282612e81565b915050608083015161316b6080860182612eba565b508091505092915050565b60006131828383613100565b905092915050565b6000602082019050919050565b60006131a2826130c5565b6131ac81856130d0565b9350836020820285016131be856130e1565b8060005b858110156131fa57848403895281516131db8582613176565b94506131e68361318a565b925060208a019950506001810190506131c2565b50829750879550505050505092915050565b600060208201905081810360008301526132268184613197565b905092915050565b61323781612b91565b811461324257600080fd5b50565b6000813590506132548161322e565b92915050565b6000806040838503121561327157613270612b02565b5b600061327f85828601612d58565b925050602061329085828601613245565b9150509250929050565b600080fd5b600080fd5b7f4e487b7100000000000000000000000000000000000000000000000000000000600052604160045260246000fd5b6132dc82612c16565b810181811067ffffffffffffffff821117156132fb576132fa6132a4565b5b80604052505050565b600061330e612af8565b905061331a82826132d3565b919050565b600067ffffffffffffffff82111561333a576133396132a4565b5b61334382612c16565b9050602081019050919050565b82818337600083830152505050565b600061337261336d8461331f565b613304565b90508281526020810184848401111561338e5761338d61329f565b5b613399848285613350565b509392505050565b600082601f8301126133b6576133b561329a565b5b81356133c684826020860161335f565b91505092915050565b600080600080608085870312156133e9576133e8612b02565b5b60006133f787828801612d58565b945050602061340887828801612d58565b935050604061341987828801612ca3565b925050606085013567ffffffffffffffff81111561343a57613439612b07565b5b613446878288016133a1565b91505092959194509250565b6000806040838503121561346957613468612b02565b5b600061347785828601612ca3565b925050602061348885828601612d58565b9150509250929050565b600080604083850312156134a9576134a8612b02565b5b60006134b785828601612d58565b92505060206134c885828601612d58565b9150509250929050565b600080fd5b600080fd5b60008083601f8401126134f2576134f161329a565b5b8235905067ffffffffffffffff81111561350f5761350e6134d2565b5b60208301915083602082028301111561352b5761352a6134d7565b5b9250929050565b60008060006040848603121561354b5761354a612b02565b5b600061355986828701612ca3565b935050602084013567ffffffffffffffff81111561357a57613579612b07565b5b613586868287016134dc565b92509250509250925092565b600081519050919050565b600082825260208201905092915050565b6000819050602082019050919050565b60006135ca8383612eba565b60208301905092915050565b6000602082019050919050565b60006135ee82613592565b6135f8818561359d565b9350613603836135ae565b8060005b8381101561363457815161361b88826135be565b9750613626836135d6565b925050600181019050613607565b5085935050505092915050565b600060a083016000830151848203600086015261365e82826135e3565b915050602083015184820360208601526136788282612e81565b915050604083015184820360408601526136928282612e81565b91505060608301516136a760608601826130f1565b5060808301516136ba60808601826130f1565b508091505092915050565b600060208201905081810360008301526136df8184613641565b905092915050565b6000606082840312156136fd576136fc613045565b5b81905092915050565b60006020828403121561371c5761371b612b02565b5b600082013567ffffffffffffffff81111561373a57613739612b07565b5b613746848285016136e7565b91505092915050565b7f4e487b7100000000000000000000000000000000000000000000000000000000600052602260045260246000fd5b6000600282049050600182168061379657607f821691505b602082108114156137aa576137a961374f565b5b50919050565b7f4552433732313a20617070726f76616c20746f2063757272656e74206f776e6560008201527f7200000000000000000000000000000000000000000000000000000000000000602082015250565b600061380c602183612bd2565b9150613817826137b0565b604082019050919050565b6000602082019050818103600083015261383b816137ff565b9050919050565b7f4552433732313a20617070726f76652063616c6c6572206973206e6f7420746f60008201527f6b656e206f776e6572206e6f7220617070726f76656420666f7220616c6c0000602082015250565b600061389e603e83612bd2565b91506138a982613842565b604082019050919050565b600060208201905081810360008301526138cd81613891565b9050919050565b60006040820190506138e96000830185612dda565b6138f66020830184612dda565b9392505050565b600067ffffffffffffffff821115613918576139176132a4565b5b602082029050602081019050919050565b600080fd5b600080fd5b600067ffffffffffffffff82111561394e5761394d6132a4565b5b61395782612c16565b9050602081019050919050565b600061397761397284613933565b613304565b9050828152602081018484840111156139935761399261329f565b5b61399e848285612be3565b509392505050565b600082601f8301126139bb576139ba61329a565b5b81516139cb848260208601613964565b91505092915050565b6000815190506139e381612d41565b92915050565b6000608082840312156139ff576139fe613929565b5b613a096080613304565b9050600082015167ffffffffffffffff811115613a2957613a2861392e565b5b613a35848285016139a6565b600083015250602082015167ffffffffffffffff811115613a5957613a5861392e565b5b613a65848285016139a6565b602083015250604082015167ffffffffffffffff811115613a8957613a8861392e565b5b613a95848285016139a6565b6040830152506060613aa9848285016139d4565b60608301525092915050565b6000613ac8613ac3846138fd565b613304565b90508083825260208201905060208402830185811115613aeb57613aea6134d7565b5b835b81811015613b3257805167ffffffffffffffff811115613b1057613b0f61329a565b5b808601613b1d89826139e9565b85526020850194505050602081019050613aed565b5050509392505050565b600082601f830112613b5157613b5061329a565b5b8151613b61848260208601613ab5565b91505092915050565b600060208284031215613b8057613b7f612b02565b5b600082015167ffffffffffffffff811115613b9e57613b9d612b07565b5b613baa84828501613b3c565b91505092915050565b7f4552433732313a2063616c6c6572206973206e6f7420746f6b656e206f776e6560008201527f72206e6f7220617070726f766564000000000000000000000000000000000000602082015250565b6000613c0f602e83612bd2565b9150613c1a82613bb3565b604082019050919050565b60006020820190508181036000830152613c3e81613c02565b9050919050565b7f455243373231456e756d657261626c653a206f776e657220696e646578206f7560008201527f74206f6620626f756e6473000000000000000000000000000000000000000000602082015250565b6000613ca1602b83612bd2565b9150613cac82613c45565b604082019050919050565b60006020820190508181036000830152613cd081613c94565b9050919050565b7f50726f66696c653a2063616c6c6572206973206e6f74206f776e6572206f722060008201527f617070726f766564000000000000000000000000000000000000000000000000602082015250565b6000613d33602883612bd2565b9150613d3e82613cd7565b604082019050919050565b60006020820190508181036000830152613d6281613d26565b9050919050565b7f4e487b7100000000000000000000000000000000000000000000000000000000600052601160045260246000fd5b6000613da382612c82565b91507fffffffffffffffffffffffffffffffffffffffffffffffffffffffffffffffff821415613dd657613dd5613d69565b5b600182019050919050565b600067ffffffffffffffff821115613dfc57613dfb6132a4565b5b602082029050602081019050919050565b600081519050613e1c81612c8c565b92915050565b600060a08284031215613e3857613e37613929565b5b613e4260a0613304565b90506000613e5284828501613e0d565b6000830152506020613e66848285016139d4565b6020830152506040613e7a84828501613e0d565b604083015250606082015167ffffffffffffffff811115613e9e57613e9d61392e565b5b613eaa848285016139a6565b6060830152506080613ebe848285016139d4565b60808301525092915050565b6000613edd613ed884613de1565b613304565b90508083825260208201905060208402830185811115613f0057613eff6134d7565b5b835b81811015613f4757805167ffffffffffffffff811115613f2557613f2461329a565b5b808601613f328982613e22565b85526020850194505050602081019050613f02565b5050509392505050565b600082601f830112613f6657613f6561329a565b5b8151613f76848260208601613eca565b91505092915050565b600060208284031215613f9557613f94612b02565b5b600082015167ffffffffffffffff811115613fb357613fb2612b07565b5b613fbf84828501613f51565b91505092915050565b7f455243373231456e756d657261626c653a20676c6f62616c20696e646578206f60008201527f7574206f6620626f756e64730000000000000000000000000000000000000000602082015250565b6000614024602c83612bd2565b915061402f82613fc8565b604082019050919050565b6000602082019050818103600083015261405381614017565b9050919050565b7f4e487b7100000000000000000000000000000000000000000000000000000000600052603260045260246000fd5b7f4552433732313a20696e76616c696420746f6b656e2049440000000000000000600082015250565b60006140bf601883612bd2565b91506140ca82614089565b602082019050919050565b600060208201905081810360008301526140ee816140b2565b9050919050565b7f4552433732313a2061646472657373207a65726f206973206e6f74206120766160008201527f6c6964206f776e65720000000000000000000000000000000000000000000000602082015250565b6000614151602983612bd2565b915061415c826140f5565b604082019050919050565b6000602082019050818103600083015261418081614144565b9050919050565b600060408201905061419c6000830185612dda565b6141a96020830184612d17565b9392505050565b600081905092915050565b60006141c682612bc7565b6141d081856141b0565b93506141e0818560208601612be3565b80840191505092915050565b60006141f882856141bb565b915061420482846141bb565b91508190509392505050565b7f4f776e61626c653a206e6577206f776e657220697320746865207a65726f206160008201527f6464726573730000000000000000000000000000000000000000000000000000602082015250565b600061426c602683612bd2565b915061427782614210565b604082019050919050565b6000602082019050818103600083015261429b8161425f565b9050919050565b600080fd5b600080fd5b600080fd5b600080833560016020038436030381126142ce576142cd6142a2565b5b80840192508235915067ffffffffffffffff8211156142f0576142ef6142a7565b5b60208301925060018202360383131561430c5761430b6142ac565b5b509250929050565b60008083356001602003843603038112614331576143306142a2565b5b80840192508235915067ffffffffffffffff821115614353576143526142a7565b5b60208301925060208202360383131561436f5761436e6142ac565b5b509250929050565b60006143838385612bd2565b9350614390838584613350565b61439983612c16565b840190509392505050565b60006080820190506143b96000830189612dda565b81810360208301526143cc818789614377565b905081810360408301526143e1818587614377565b90506143f06060830184612dda565b979650505050505050565b7f4f776e61626c653a2063616c6c6572206973206e6f7420746865206f776e6572600082015250565b6000614431602083612bd2565b915061443c826143fb565b602082019050919050565b6000602082019050818103600083015261446081614424565b9050919050565b7f4552433732313a207472616e736665722066726f6d20696e636f72726563742060008201527f6f776e6572000000000000000000000000000000000000000000000000000000602082015250565b60006144c3602583612bd2565b91506144ce82614467565b604082019050919050565b600060208201905081810360008301526144f2816144b6565b9050919050565b7f4552433732313a207472616e7366657220746f20746865207a65726f2061646460008201527f7265737300000000000000000000000000000000000000000000000000000000602082015250565b6000614555602483612bd2565b9150614560826144f9565b604082019050919050565b6000602082019050818103600083015261458481614548565b9050919050565b600061459682612c82565b91506145a183612c82565b9250828210156145b4576145b3613d69565b5b828203905092915050565b60006145ca82612c82565b91506145d583612c82565b9250827fffffffffffffffffffffffffffffffffffffffffffffffffffffffffffffffff0382111561460a57614609613d69565b5b828201905092915050565b600080fd5b600080fd5b600080fd5b600080833560016020038436030381126146415761464061461f565b5b83810192508235915060208301925067ffffffffffffffff82111561466957614668614615565b5b60018202360384131561467f5761467e61461a565b5b509250929050565b60006146938385612e70565b93506146a0838584613350565b6146a983612c16565b840190509392505050565b60006146c36020840184612d58565b905092915050565b6000608083016146de6000840184614624565b85830360008701526146f1838284614687565b925050506147026020840184614624565b8583036020870152614715838284614687565b925050506147266040840184614624565b8583036040870152614739838284614687565b9250505061474a60608401846146b4565b6147576060860182612eba565b508091505092915050565b60006060820190506147776000830186612dda565b6147846020830185612dda565b818103604083015261479681846146cb565b9050949350505050565b600060408201905081810360008301526147ba81856146cb565b90506147c96020830184612dda565b9392505050565b7f4552433732313a20617070726f766520746f2063616c6c657200000000000000600082015250565b6000614806601983612bd2565b9150614811826147d0565b602082019050919050565b60006020820190508181036000830152614835816147f9565b9050919050565b7f4552433732313a207472616e7366657220746f206e6f6e20455243373231526560008201527f63656976657220696d706c656d656e7465720000000000000000000000000000602082015250565b6000614898603283612bd2565b91506148a38261483c565b604082019050919050565b600060208201905081810360008301526148c78161488b565b9050919050565b7f4e487b7100000000000000000000000000000000000000000000000000000000600052601260045260246000fd5b600061490882612c82565b915061491383612c82565b925082614923576149226148ce565b5b828204905092915050565b600061493982612c82565b915061494483612c82565b925082614954576149536148ce565b5b828206905092915050565b6000819050919050565b60006149786020840184612ca3565b905092915050565b600060a083016149936000840184614969565b6149a060008601826130f1565b506149ae60208401846146b4565b6149bb6020860182612eba565b506149c96040840184614969565b6149d660408601826130f1565b506149e46060840184614624565b85830360608701526149f7838284614687565b92505050614a0860808401846146b4565b614a156080860182612eba565b508091505092915050565b6000614a2c8383614980565b905092915050565b60008235600160a003833603038112614a5057614a4f61461f565b5b82810191505092915050565b6000602082019050919050565b6000614a7583856130d0565b935083602084028501614a878461495f565b8060005b87811015614acb578484038952614aa28284614a34565b614aac8582614a20565b9450614ab783614a5c565b925060208a01995050600181019050614a8b565b50829750879450505050509392505050565b6000606082019050614af26000830187612dda565b614aff6020830186612dda565b8181036040830152614b12818486614a69565b905095945050505050565b60006040820190508181036000830152614b38818587614a69565b9050614b476020830184612dda565b949350505050565b7f4552433732313a206d696e7420746f20746865207a65726f2061646472657373600082015250565b6000614b85602083612bd2565b9150614b9082614b4f565b602082019050919050565b60006020820190508181036000830152614bb481614b78565b9050919050565b7f4552433732313a20746f6b656e20616c7265616479206d696e74656400000000600082015250565b6000614bf1601c83612bd2565b9150614bfc82614bbb565b602082019050919050565b60006020820190508181036000830152614c2081614be4565b9050919050565b600081519050919050565b600082825260208201905092915050565b6000614c4e82614c27565b614c588185614c32565b9350614c68818560208601612be3565b614c7181612c16565b840191505092915050565b6000608082019050614c916000830187612d17565b614c9e6020830186612d17565b614cab6040830185612dda565b8181036060830152614cbd8184614c43565b905095945050505050565b600081519050614cd781612b38565b92915050565b600060208284031215614cf357614cf2612b02565b5b6000614d0184828501614cc8565b91505092915050565b7f4e487b7100000000000000000000000000000000000000000000000000000000600052603160045260246000fdfea26469706673582212204272a3953ff568b6cd27e805a3c95616788c50a53b4cdeab68f4e4b93050f7f364736f6c634300080a0033",
  "linkReferences": {},
  "deployedLinkReferences": {}
}