{
  "_format": "hh-sol-artifact-1",
  "contractName": "ScoreModule",
  "sourceName": "contracts/core/modules/ScoreModule.sol",
  "abi": [
    {
      "inputs": [
        {
          "internalType": "address",
          "name": "owner",
          "type": "address"
        }
      ],
      "stateMutability": "nonpayable",
      "type": "constructor"
    },
    {
      "anonymous": false,
      "inputs": [
        {
          "indexed": true,
          "internalType": "address",
          "name": "previousOwner",
          "type": "address"
        },
        {
          "indexed": true,
          "internalType": "address",
          "name": "newOwner",
          "type": "address"
        }
      ],
      "name": "OwnershipTransferred",
      "type": "event"
    },
    {
      "anonymous": false,
      "inputs": [
        {
          "indexed": true,
          "internalType": "uint256",
          "name": "profileId",
          "type": "uint256"
        },
        {
          "indexed": false,
          "internalType": "uint256",
          "name": "blockNumber",
          "type": "uint256"
        }
      ],
      "name": "ScoreCreated",
      "type": "event"
    },
    {
      "inputs": [
        {
          "internalType": "uint256",
          "name": "profileId",
          "type": "uint256"
        }
      ],
      "name": "createScore",
      "outputs": [],
      "stateMutability": "nonpayable",
      "type": "function"
    },
    {
      "inputs": [
        {
          "internalType": "uint256",
          "name": "profileId",
          "type": "uint256"
        }
      ],
      "name": "getScore",
      "outputs": [
        {
          "components": [
            {
              "internalType": "enum IScoreModule.ScoreType",
              "name": "scoreType",
              "type": "uint8"
            },
            {
              "internalType": "uint256",
              "name": "point",
              "type": "uint256"
            }
          ],
          "internalType": "struct IScoreModule.ScoreStruct[]",
          "name": "",
          "type": "tuple[]"
        }
      ],
      "stateMutability": "view",
      "type": "function"
    },
    {
      "inputs": [],
      "name": "owner",
      "outputs": [
        {
          "internalType": "address",
          "name": "",
          "type": "address"
        }
      ],
      "stateMutability": "view",
      "type": "function"
    },
    {
      "inputs": [],
      "name": "renounceOwnership",
      "outputs": [],
      "stateMutability": "nonpayable",
      "type": "function"
    },
    {
      "inputs": [
        {
          "internalType": "address",
          "name": "globals",
          "type": "address"
        }
      ],
      "name": "setGlobals",
      "outputs": [],
      "stateMutability": "nonpayable",
      "type": "function"
    },
    {
      "inputs": [
        {
          "internalType": "address",
          "name": "newOwner",
          "type": "address"
        }
      ],
      "name": "transferOwnership",
      "outputs": [],
      "stateMutability": "nonpayable",
      "type": "function"
    }
  ],
  "bytecode": "0x608060405234801561001057600080fd5b5060405161140438038061140483398101604081905261002f91610099565b8061003933610049565b61004281610049565b50506100c9565b600080546001600160a01b038381166001600160a01b0319831681178455604051919092169283917f8be0079c531659141344cd1fd0a4f28419497f9722a3daafe3b4186f6b6457e09190a35050565b6000602082840312156100ab57600080fd5b81516001600160a01b03811681146100c257600080fd5b9392505050565b61132c806100d86000396000f3fe608060405234801561001057600080fd5b50600436106100625760003560e01c80630e1af57b14610067578063715018a6146100905780638da5cb5b1461009a5780639a82e2cb146100b5578063cc2e0a26146100c8578063f2fde38b146100db575b600080fd5b61007a610075366004610f68565b6100ee565b6040516100879190610f97565b60405180910390f35b610098610399565b005b6000546040516001600160a01b039091168152602001610087565b6100986100c3366004610f68565b6103ad565b6100986100d6366004611019565b610866565b6100986100e9366004611019565b610890565b6040805160038082526080820190925260609160009190816020015b604080518082019091526000808252602082015281526020019060019003908161010a575050600084815260026020818152604080842084805290915291829020825180840190935280549394509192839160ff9091169081111561017157610171610f81565b600281111561018257610182610f81565b8152602001600182015481525050816000815181106101a3576101a3611053565b602090810291909101810191909152600084815260028252604080822060015482516370a303ef60e11b8152925191946001600160a01b039091169263e14607de92600480830193928290030181865afa158015610205573d6000803e3d6000fd5b505050506040513d601f19601f820116820180604052508101906102299190611079565b6001600160a01b031681526020810191909152604090810160002081518083019092528054829060ff16600281111561026457610264610f81565b600281111561027557610275610f81565b81526020016001820154815250508160018151811061029657610296611053565b60209081029190910181019190915260008481526002825260408082206001548251623b7af960e41b8152925191946001600160a01b03909116926303b7af9092600480830193928290030181865afa1580156102f7573d6000803e3d6000fd5b505050506040513d601f19601f8201168201806040525081019061031b9190611079565b6001600160a01b031681526020810191909152604090810160002081518083019092528054829060ff16600281111561035657610356610f81565b600281111561036757610367610f81565b81526020016001820154815250508160028151811061038857610388611053565b602090810291909101015292915050565b6103a1610909565b6103ab6000610963565b565b600160009054906101000a90046001600160a01b03166001600160a01b031663d6afc9b16040518163ffffffff1660e01b8152600401602060405180830381865afa158015610400573d6000803e3d6000fd5b505050506040513d601f19601f820116820180604052508101906104249190611079565b6001600160a01b0316336001600160a01b031614806104ca5750600160009054906101000a90046001600160a01b03166001600160a01b031663852b67736040518163ffffffff1660e01b8152600401602060405180830381865afa158015610491573d6000803e3d6000fd5b505050506040513d601f19601f820116820180604052508101906104b59190611079565b6001600160a01b0316336001600160a01b0316145b61051b5760405162461bcd60e51b815260206004820152601860248201527f4d6f64756c65426173653a206f6e6c792070726f66696c65000000000000000060448201526064015b60405180910390fd5b60008181526002602090815260408083208380529091529020805460ff19169055610545816109b3565b6000828152600260208181526040808420848052808352818520600190810196909655868552928252845481516370a303ef60e11b815291519394936001600160a01b039091169263e14607de92600480820193918290030181865afa1580156105b3573d6000803e3d6000fd5b505050506040513d601f19601f820116820180604052508101906105d79190611079565b6001600160a01b031681526020810191909152604001600020805460ff1916600183600281111561060a5761060a610f81565b021790555061061881610d57565b600082815260026020908152604080832060015482516370a303ef60e11b815292519194936001600160a01b039091169263e14607de92600480830193928290030181865afa15801561066f573d6000803e3d6000fd5b505050506040513d601f19601f820116820180604052508101906106939190611079565b6001600160a01b03166001600160a01b031681526020019081526020016000206001018190555060028060008381526020019081526020016000206000600160009054906101000a90046001600160a01b03166001600160a01b03166303b7af906040518163ffffffff1660e01b8152600401602060405180830381865afa158015610723573d6000803e3d6000fd5b505050506040513d601f19601f820116820180604052508101906107479190611079565b6001600160a01b031681526020810191909152604001600020805460ff1916600183600281111561077a5761077a610f81565b021790555061078881610e4b565b60008281526002602090815260408083206001548251623b7af960e41b815292519194936001600160a01b03909116926303b7af9092600480830193928290030181865afa1580156107de573d6000803e3d6000fd5b505050506040513d601f19601f820116820180604052508101906108029190611079565b6001600160a01b03166001600160a01b0316815260200190815260200160002060010181905550807f2689353491109488c9e4dbfe939f827ae1c8a589f8f19158ab955357e7685a024360405161085b91815260200190565b60405180910390a250565b61086e610909565b600180546001600160a01b0319166001600160a01b0392909216919091179055565b610898610909565b6001600160a01b0381166108fd5760405162461bcd60e51b815260206004820152602660248201527f4f776e61626c653a206e6577206f776e657220697320746865207a65726f206160448201526564647265737360d01b6064820152608401610512565b61090681610963565b50565b6000546001600160a01b031633146103ab5760405162461bcd60e51b815260206004820181905260248201527f4f776e61626c653a2063616c6c6572206973206e6f7420746865206f776e65726044820152606401610512565b600080546001600160a01b038381166001600160a01b0319831681178455604051919092169283917f8be0079c531659141344cd1fd0a4f28419497f9722a3daafe3b4186f6b6457e09190a35050565b6000610d51600160009054906101000a90046001600160a01b03166001600160a01b031663852b67736040518163ffffffff1660e01b8152600401602060405180830381865afa158015610a0b573d6000803e3d6000fd5b505050506040513d601f19601f82011682018060405250810190610a2f9190611079565b6001600160a01b031663af104cd3846040518263ffffffff1660e01b8152600401610a5c91815260200190565b602060405180830381865afa158015610a79573d6000803e3d6000fd5b505050506040513d601f19601f82011682018060405250810190610a9d9190611096565b600160009054906101000a90046001600160a01b03166001600160a01b031663852b67736040518163ffffffff1660e01b8152600401602060405180830381865afa158015610af0573d6000803e3d6000fd5b505050506040513d601f19601f82011682018060405250810190610b149190611079565b6001600160a01b0316639a716cde856040518263ffffffff1660e01b8152600401610b4191815260200190565b602060405180830381865afa158015610b5e573d6000803e3d6000fd5b505050506040513d601f19601f82011682018060405250810190610b829190611096565b600160009054906101000a90046001600160a01b03166001600160a01b031663852b67736040518163ffffffff1660e01b8152600401602060405180830381865afa158015610bd5573d6000803e3d6000fd5b505050506040513d601f19601f82011682018060405250810190610bf99190611079565b6001600160a01b0316635d0bd524866040518263ffffffff1660e01b8152600401610c2691815260200190565b602060405180830381865afa158015610c43573d6000803e3d6000fd5b505050506040513d601f19601f82011682018060405250810190610c679190611096565b600160009054906101000a90046001600160a01b03166001600160a01b031663852b67736040518163ffffffff1660e01b8152600401602060405180830381865afa158015610cba573d6000803e3d6000fd5b505050506040513d601f19601f82011682018060405250810190610cde9190611079565b6001600160a01b0316639fe38f65876040518263ffffffff1660e01b8152600401610d0b91815260200190565b602060405180830381865afa158015610d28573d6000803e3d6000fd5b505050506040513d601f19601f82011682018060405250810190610d4c9190611096565b610ef4565b92915050565b6000610d51600160009054906101000a90046001600160a01b03166001600160a01b031663d6afc9b16040518163ffffffff1660e01b8152600401602060405180830381865afa158015610daf573d6000803e3d6000fd5b505050506040513d601f19601f82011682018060405250810190610dd39190611079565b6001600160a01b0316639f19a59d846040518263ffffffff1660e01b8152600401610e0091815260200190565b600060405180830381865afa158015610e1d573d6000803e3d6000fd5b505050506040513d6000823e601f3d908101601f19168201604052610e459190810190611109565b51610f5b565b6000610d51600160009054906101000a90046001600160a01b03166001600160a01b031663d6afc9b16040518163ffffffff1660e01b8152600401602060405180830381865afa158015610ea3573d6000803e3d6000fd5b505050506040513d601f19601f82011682018060405250810190610ec79190611079565b6001600160a01b03166302f4c2ee846040518263ffffffff1660e01b8152600401610e0091815260200190565b600080610f028660646112bf565b610f0c90826112de565b9050610f198560646112bf565b610f2390826112de565b9050610f3084600a6112bf565b610f3a90826112de565b9050610f4783600a6112bf565b610f5190826112de565b9695505050505050565b6000610d5182600a6112bf565b600060208284031215610f7a57600080fd5b5035919050565b634e487b7160e01b600052602160045260246000fd5b60208082528251828201819052600091906040908185019086840185805b83811015610ff6578251805160038110610fdd57634e487b7160e01b84526021600452602484fd5b8652870151878601529385019391860191600101610fb5565b509298975050505050505050565b6001600160a01b038116811461090657600080fd5b60006020828403121561102b57600080fd5b813561103681611004565b9392505050565b634e487b7160e01b600052604160045260246000fd5b634e487b7160e01b600052603260045260246000fd5b805161107481611004565b919050565b60006020828403121561108b57600080fd5b815161103681611004565b6000602082840312156110a857600080fd5b5051919050565b60405160a0810167ffffffffffffffff811182821017156110d2576110d261103d565b60405290565b604051601f8201601f1916810167ffffffffffffffff811182821017156111015761110161103d565b604052919050565b6000602080838503121561111c57600080fd5b825167ffffffffffffffff8082111561113457600080fd5b818501915085601f83011261114857600080fd5b81518181111561115a5761115a61103d565b8060051b6111698582016110d8565b918252838101850191858101908984111561118357600080fd5b86860192505b8383101561129c578251858111156111a057600080fd5b8601601f1960a0828d03820112156111b757600080fd5b6111bf6110af565b8983015181526040808401516111d481611004565b828c01526060840151818301526080840151898111156111f45760008081fd5b8401603f81018f136112065760008081fd5b8b8101518a81111561121a5761121a61103d565b61122a8d86601f840116016110d8565b94508085528f838284010111156112415760008081fd5b60005b8181101561125f578281018401518682018f01528d01611244565b818111156112705760008e83880101525b5050505081606082015261128660a08401611069565b6080820152845250509186019190860190611189565b9998505050505050505050565b634e487b7160e01b600052601160045260246000fd5b60008160001904831182151516156112d9576112d96112a9565b500290565b600082198211156112f1576112f16112a9565b50019056fea2646970667358221220a4258c5fcdafac4ae267a40d3714b643206a2b651580a6d944d5f3a77768f4a964736f6c634300080a0033",
  "linkReferences": {},
  "deployedLinkReferences": {}
}