{
  "_format": "hh-sol-artifact-1",
  "contractName": "ScoreModule",
  "sourceName": "contracts/core/modules/ScoreModule.sol",
  "abi": [
    {
      "inputs": [
        {
          "internalType": "address",
          "name": "owner",
          "type": "address"
        }
      ],
      "stateMutability": "nonpayable",
      "type": "constructor"
    },
    {
      "anonymous": false,
      "inputs": [
        {
          "indexed": true,
          "internalType": "address",
          "name": "previousOwner",
          "type": "address"
        },
        {
          "indexed": true,
          "internalType": "address",
          "name": "newOwner",
          "type": "address"
        }
      ],
      "name": "OwnershipTransferred",
      "type": "event"
    },
    {
      "inputs": [
        {
          "internalType": "uint256",
          "name": "profileId",
          "type": "uint256"
        }
      ],
      "name": "getScore",
      "outputs": [
        {
          "components": [
            {
              "internalType": "string",
              "name": "name",
              "type": "string"
            },
            {
              "internalType": "uint256",
              "name": "point",
              "type": "uint256"
            }
          ],
          "internalType": "struct IScoreModule.ScoreStruct[]",
          "name": "",
          "type": "tuple[]"
        }
      ],
      "stateMutability": "view",
      "type": "function"
    },
    {
      "inputs": [],
      "name": "owner",
      "outputs": [
        {
          "internalType": "address",
          "name": "",
          "type": "address"
        }
      ],
      "stateMutability": "view",
      "type": "function"
    },
    {
      "inputs": [
        {
          "internalType": "uint256",
          "name": "profileId",
          "type": "uint256"
        }
      ],
      "name": "processScore",
      "outputs": [],
      "stateMutability": "nonpayable",
      "type": "function"
    },
    {
      "inputs": [],
      "name": "renounceOwnership",
      "outputs": [],
      "stateMutability": "nonpayable",
      "type": "function"
    },
    {
      "inputs": [
        {
          "internalType": "address",
          "name": "nftCollectionModule",
          "type": "address"
        }
      ],
      "name": "setNFTCollectionModule",
      "outputs": [],
      "stateMutability": "nonpayable",
      "type": "function"
    },
    {
      "inputs": [
        {
          "internalType": "address",
          "name": "poapCollectionModule",
          "type": "address"
        }
      ],
      "name": "setPOAPCollectionModule",
      "outputs": [],
      "stateMutability": "nonpayable",
      "type": "function"
    },
    {
      "inputs": [
        {
          "internalType": "address",
          "name": "profile",
          "type": "address"
        }
      ],
      "name": "setProfile",
      "outputs": [],
      "stateMutability": "nonpayable",
      "type": "function"
    },
    {
      "inputs": [
        {
          "internalType": "address",
          "name": "newOwner",
          "type": "address"
        }
      ],
      "name": "transferOwnership",
      "outputs": [],
      "stateMutability": "nonpayable",
      "type": "function"
    }
  ],
  "bytecode": "0x60806040523480156200001157600080fd5b50604051620014d2380380620014d28339818101604052810190620000379190620001a5565b620000576200004b6200006f60201b60201c565b6200007760201b60201c565b62000068816200007760201b60201c565b50620001d7565b600033905090565b60008060009054906101000a900473ffffffffffffffffffffffffffffffffffffffff169050816000806101000a81548173ffffffffffffffffffffffffffffffffffffffff021916908373ffffffffffffffffffffffffffffffffffffffff1602179055508173ffffffffffffffffffffffffffffffffffffffff168173ffffffffffffffffffffffffffffffffffffffff167f8be0079c531659141344cd1fd0a4f28419497f9722a3daafe3b4186f6b6457e060405160405180910390a35050565b600080fd5b600073ffffffffffffffffffffffffffffffffffffffff82169050919050565b60006200016d8262000140565b9050919050565b6200017f8162000160565b81146200018b57600080fd5b50565b6000815190506200019f8162000174565b92915050565b600060208284031215620001be57620001bd6200013b565b5b6000620001ce848285016200018e565b91505092915050565b6112eb80620001e76000396000f3fe608060405234801561001057600080fd5b50600436106100885760003560e01c8063778f62811161005b578063778f6281146100ff5780638da5cb5b1461011b578063e0b6a1e314610139578063f2fde38b1461015557610088565b806308a713901461008d5780630d2b4ae0146100a95780630e1af57b146100c5578063715018a6146100f5575b600080fd5b6100a760048036038101906100a29190610df8565b610171565b005b6100c360048036038101906100be9190610df8565b6101bd565b005b6100df60048036038101906100da9190610e5b565b610209565b6040516100ec919061102f565b60405180910390f35b6100fd610683565b005b61011960048036038101906101149190610e5b565b610697565b005b610123610a95565b6040516101309190611060565b60405180910390f35b610153600480360381019061014e9190610df8565b610abe565b005b61016f600480360381019061016a9190610df8565b610b0a565b005b610179610b8e565b80600360006101000a81548173ffffffffffffffffffffffffffffffffffffffff021916908373ffffffffffffffffffffffffffffffffffffffff16021790555050565b6101c5610b8e565b80600460006101000a81548173ffffffffffffffffffffffffffffffffffffffff021916908373ffffffffffffffffffffffffffffffffffffffff16021790555050565b6060600260009054906101000a900473ffffffffffffffffffffffffffffffffffffffff1673ffffffffffffffffffffffffffffffffffffffff163373ffffffffffffffffffffffffffffffffffffffff161461029b576040517f08c379a0000000000000000000000000000000000000000000000000000000008152600401610292906110d8565b60405180910390fd5b6000600367ffffffffffffffff8111156102b8576102b76110f8565b5b6040519080825280602002602001820160405280156102f157816020015b6102de610cd8565b8152602001906001900390816102d65790505b5090506001600084815260200190815260200160002060008073ffffffffffffffffffffffffffffffffffffffff1673ffffffffffffffffffffffffffffffffffffffff16815260200190815260200160002060405180604001604052908160008201805461035f90611156565b80601f016020809104026020016040519081016040528092919081815260200182805461038b90611156565b80156103d85780601f106103ad576101008083540402835291602001916103d8565b820191906000526020600020905b8154815290600101906020018083116103bb57829003601f168201915b50505050508152602001600182015481525050816000815181106103ff576103fe611188565b5b6020026020010181905250600160008481526020019081526020016000206000600360009054906101000a900473ffffffffffffffffffffffffffffffffffffffff1673ffffffffffffffffffffffffffffffffffffffff1673ffffffffffffffffffffffffffffffffffffffff16815260200190815260200160002060405180604001604052908160008201805461049790611156565b80601f01602080910402602001604051908101604052809291908181526020018280546104c390611156565b80156105105780601f106104e557610100808354040283529160200191610510565b820191906000526020600020905b8154815290600101906020018083116104f357829003601f168201915b505050505081526020016001820154815250508160018151811061053757610536611188565b5b6020026020010181905250600160008481526020019081526020016000206000600460009054906101000a900473ffffffffffffffffffffffffffffffffffffffff1673ffffffffffffffffffffffffffffffffffffffff1673ffffffffffffffffffffffffffffffffffffffff1681526020019081526020016000206040518060400160405290816000820180546105cf90611156565b80601f01602080910402602001604051908101604052809291908181526020018280546105fb90611156565b80156106485780601f1061061d57610100808354040283529160200191610648565b820191906000526020600020905b81548152906001019060200180831161062b57829003601f168201915b505050505081526020016001820154815250508160028151811061066f5761066e611188565b5b602002602001018190525080915050919050565b61068b610b8e565b6106956000610c0c565b565b600260009054906101000a900473ffffffffffffffffffffffffffffffffffffffff1673ffffffffffffffffffffffffffffffffffffffff163373ffffffffffffffffffffffffffffffffffffffff1614610727576040517f08c379a000000000000000000000000000000000000000000000000000000000815260040161071e906110d8565b60405180910390fd5b6040518060400160405280600781526020017f50524f46494c45000000000000000000000000000000000000000000000000008152506001600083815260200190815260200160002060008073ffffffffffffffffffffffffffffffffffffffff1673ffffffffffffffffffffffffffffffffffffffff16815260200190815260200160002060000190805190602001906107c3929190610cf2565b5061012c6001600083815260200190815260200160002060008073ffffffffffffffffffffffffffffffffffffffff1673ffffffffffffffffffffffffffffffffffffffff168152602001908152602001600020600101819055506040518060400160405280600381526020017f4e46540000000000000000000000000000000000000000000000000000000000815250600160008381526020019081526020016000206000600360009054906101000a900473ffffffffffffffffffffffffffffffffffffffff1673ffffffffffffffffffffffffffffffffffffffff1673ffffffffffffffffffffffffffffffffffffffff16815260200190815260200160002060000190805190602001906108dc929190610cf2565b506064600160008381526020019081526020016000206000600360009054906101000a900473ffffffffffffffffffffffffffffffffffffffff1673ffffffffffffffffffffffffffffffffffffffff1673ffffffffffffffffffffffffffffffffffffffff168152602001908152602001600020600101819055506040518060400160405280600481526020017f504f415000000000000000000000000000000000000000000000000000000000815250600160008381526020019081526020016000206000600460009054906101000a900473ffffffffffffffffffffffffffffffffffffffff1673ffffffffffffffffffffffffffffffffffffffff1673ffffffffffffffffffffffffffffffffffffffff1681526020019081526020016000206000019080519060200190610a16929190610cf2565b5060c8600160008381526020019081526020016000206000600460009054906101000a900473ffffffffffffffffffffffffffffffffffffffff1673ffffffffffffffffffffffffffffffffffffffff1673ffffffffffffffffffffffffffffffffffffffff1681526020019081526020016000206001018190555050565b60008060009054906101000a900473ffffffffffffffffffffffffffffffffffffffff16905090565b610ac6610b8e565b80600260006101000a81548173ffffffffffffffffffffffffffffffffffffffff021916908373ffffffffffffffffffffffffffffffffffffffff16021790555050565b610b12610b8e565b600073ffffffffffffffffffffffffffffffffffffffff168173ffffffffffffffffffffffffffffffffffffffff161415610b82576040517f08c379a0000000000000000000000000000000000000000000000000000000008152600401610b7990611229565b60405180910390fd5b610b8b81610c0c565b50565b610b96610cd0565b73ffffffffffffffffffffffffffffffffffffffff16610bb4610a95565b73ffffffffffffffffffffffffffffffffffffffff1614610c0a576040517f08c379a0000000000000000000000000000000000000000000000000000000008152600401610c0190611295565b60405180910390fd5b565b60008060009054906101000a900473ffffffffffffffffffffffffffffffffffffffff169050816000806101000a81548173ffffffffffffffffffffffffffffffffffffffff021916908373ffffffffffffffffffffffffffffffffffffffff1602179055508173ffffffffffffffffffffffffffffffffffffffff168173ffffffffffffffffffffffffffffffffffffffff167f8be0079c531659141344cd1fd0a4f28419497f9722a3daafe3b4186f6b6457e060405160405180910390a35050565b600033905090565b604051806040016040528060608152602001600081525090565b828054610cfe90611156565b90600052602060002090601f016020900481019282610d205760008555610d67565b82601f10610d3957805160ff1916838001178555610d67565b82800160010185558215610d67579182015b82811115610d66578251825591602001919060010190610d4b565b5b509050610d749190610d78565b5090565b5b80821115610d91576000816000905550600101610d79565b5090565b600080fd5b600073ffffffffffffffffffffffffffffffffffffffff82169050919050565b6000610dc582610d9a565b9050919050565b610dd581610dba565b8114610de057600080fd5b50565b600081359050610df281610dcc565b92915050565b600060208284031215610e0e57610e0d610d95565b5b6000610e1c84828501610de3565b91505092915050565b6000819050919050565b610e3881610e25565b8114610e4357600080fd5b50565b600081359050610e5581610e2f565b92915050565b600060208284031215610e7157610e70610d95565b5b6000610e7f84828501610e46565b91505092915050565b600081519050919050565b600082825260208201905092915050565b6000819050602082019050919050565b600081519050919050565b600082825260208201905092915050565b60005b83811015610eee578082015181840152602081019050610ed3565b83811115610efd576000848401525b50505050565b6000601f19601f8301169050919050565b6000610f1f82610eb4565b610f298185610ebf565b9350610f39818560208601610ed0565b610f4281610f03565b840191505092915050565b610f5681610e25565b82525050565b60006040830160008301518482036000860152610f798282610f14565b9150506020830151610f8e6020860182610f4d565b508091505092915050565b6000610fa58383610f5c565b905092915050565b6000602082019050919050565b6000610fc582610e88565b610fcf8185610e93565b935083602082028501610fe185610ea4565b8060005b8581101561101d5784840389528151610ffe8582610f99565b945061100983610fad565b925060208a01995050600181019050610fe5565b50829750879550505050505092915050565b600060208201905081810360008301526110498184610fba565b905092915050565b61105a81610dba565b82525050565b60006020820190506110756000830184611051565b92915050565b600082825260208201905092915050565b7f53636f72654d6f64756c653a206f6e6c792070726f66696c6500000000000000600082015250565b60006110c260198361107b565b91506110cd8261108c565b602082019050919050565b600060208201905081810360008301526110f1816110b5565b9050919050565b7f4e487b7100000000000000000000000000000000000000000000000000000000600052604160045260246000fd5b7f4e487b7100000000000000000000000000000000000000000000000000000000600052602260045260246000fd5b6000600282049050600182168061116e57607f821691505b6020821081141561118257611181611127565b5b50919050565b7f4e487b7100000000000000000000000000000000000000000000000000000000600052603260045260246000fd5b7f4f776e61626c653a206e6577206f776e657220697320746865207a65726f206160008201527f6464726573730000000000000000000000000000000000000000000000000000602082015250565b600061121360268361107b565b915061121e826111b7565b604082019050919050565b6000602082019050818103600083015261124281611206565b9050919050565b7f4f776e61626c653a2063616c6c6572206973206e6f7420746865206f776e6572600082015250565b600061127f60208361107b565b915061128a82611249565b602082019050919050565b600060208201905081810360008301526112ae81611272565b905091905056fea2646970667358221220fd61b3c0bde657fd52942b79ed144823711c2bf14f0ec060d2e82e7f9d6f4aea64736f6c634300080a0033",
  "linkReferences": {},
  "deployedLinkReferences": {}
}