{
  "_format": "hh-sol-artifact-1",
  "contractName": "ScoreModule",
  "sourceName": "contracts/core/modules/ScoreModule.sol",
  "abi": [
    {
      "inputs": [
        {
          "internalType": "address",
          "name": "owner",
          "type": "address"
        }
      ],
      "stateMutability": "nonpayable",
      "type": "constructor"
    },
    {
      "anonymous": false,
      "inputs": [
        {
          "indexed": true,
          "internalType": "address",
          "name": "previousOwner",
          "type": "address"
        },
        {
          "indexed": true,
          "internalType": "address",
          "name": "newOwner",
          "type": "address"
        }
      ],
      "name": "OwnershipTransferred",
      "type": "event"
    },
    {
      "inputs": [
        {
          "internalType": "uint256",
          "name": "profileId",
          "type": "uint256"
        }
      ],
      "name": "getScore",
      "outputs": [
        {
          "components": [
            {
              "internalType": "string",
              "name": "name",
              "type": "string"
            },
            {
              "internalType": "uint256",
              "name": "point",
              "type": "uint256"
            }
          ],
          "internalType": "struct IScoreModule.ScoreStruct[]",
          "name": "",
          "type": "tuple[]"
        }
      ],
      "stateMutability": "view",
      "type": "function"
    },
    {
      "inputs": [],
      "name": "owner",
      "outputs": [
        {
          "internalType": "address",
          "name": "",
          "type": "address"
        }
      ],
      "stateMutability": "view",
      "type": "function"
    },
    {
      "inputs": [
        {
          "internalType": "uint256",
          "name": "profileId",
          "type": "uint256"
        }
      ],
      "name": "processScore",
      "outputs": [],
      "stateMutability": "nonpayable",
      "type": "function"
    },
    {
      "inputs": [],
      "name": "renounceOwnership",
      "outputs": [],
      "stateMutability": "nonpayable",
      "type": "function"
    },
    {
      "inputs": [
        {
          "internalType": "address",
          "name": "globals",
          "type": "address"
        }
      ],
      "name": "setGlobals",
      "outputs": [],
      "stateMutability": "nonpayable",
      "type": "function"
    },
    {
      "inputs": [
        {
          "internalType": "address",
          "name": "newOwner",
          "type": "address"
        }
      ],
      "name": "transferOwnership",
      "outputs": [],
      "stateMutability": "nonpayable",
      "type": "function"
    }
  ],
  "bytecode": "0x608060405234801561001057600080fd5b5060405161162738038061162783398101604081905261002f91610099565b8061003933610049565b61004281610049565b50506100c9565b600080546001600160a01b038381166001600160a01b0319831681178455604051919092169283917f8be0079c531659141344cd1fd0a4f28419497f9722a3daafe3b4186f6b6457e09190a35050565b6000602082840312156100ab57600080fd5b81516001600160a01b03811681146100c257600080fd5b9392505050565b61154f806100d86000396000f3fe608060405234801561001057600080fd5b50600436106100625760003560e01c80630e1af57b14610067578063715018a614610090578063778f62811461009a5780638da5cb5b146100ad578063cc2e0a26146100c8578063f2fde38b146100db575b600080fd5b61007a61007536600461113a565b6100ee565b6040516100879190611183565b60405180910390f35b6100986104d7565b005b6100986100a836600461113a565b6104eb565b6000546040516001600160a01b039091168152602001610087565b6100986100d6366004611222565b61099f565b6100986100e9366004611222565b6109c9565b6040805160038082526080820190925260609160009190816020015b60408051808201909152606081526000602082015281526020019060019003908161010a575050600084815260026020908152604080832083805290915290819020815180830190925280549293509091829082906101689061125c565b80601f01602080910402602001604051908101604052809291908181526020018280546101949061125c565b80156101e15780601f106101b6576101008083540402835291602001916101e1565b820191906000526020600020905b8154815290600101906020018083116101c457829003601f168201915b505050505081526020016001820154815250508160008151811061020757610207611297565b602090810291909101810191909152600084815260028252604080822060015482516370a303ef60e11b8152925191946001600160a01b039091169263e14607de92600480830193928290030181865afa158015610269573d6000803e3d6000fd5b505050506040513d601f19601f8201168201806040525081019061028d91906112bd565b6001600160a01b03166001600160a01b031681526020019081526020016000206040518060400160405290816000820180546102c89061125c565b80601f01602080910402602001604051908101604052809291908181526020018280546102f49061125c565b80156103415780601f1061031657610100808354040283529160200191610341565b820191906000526020600020905b81548152906001019060200180831161032457829003601f168201915b505050505081526020016001820154815250508160018151811061036757610367611297565b60209081029190910181019190915260008481526002825260408082206001548251623b7af960e41b8152925191946001600160a01b03909116926303b7af9092600480830193928290030181865afa1580156103c8573d6000803e3d6000fd5b505050506040513d601f19601f820116820180604052508101906103ec91906112bd565b6001600160a01b03166001600160a01b031681526020019081526020016000206040518060400160405290816000820180546104279061125c565b80601f01602080910402602001604051908101604052809291908181526020018280546104539061125c565b80156104a05780601f10610475576101008083540402835291602001916104a0565b820191906000526020600020905b81548152906001019060200180831161048357829003601f168201915b50505050508152602001600182015481525050816002815181106104c6576104c6611297565b602090810291909101015292915050565b6104df610a42565b6104e96000610a9c565b565b600160009054906101000a90046001600160a01b03166001600160a01b031663d6afc9b16040518163ffffffff1660e01b8152600401602060405180830381865afa15801561053e573d6000803e3d6000fd5b505050506040513d601f19601f8201168201806040525081019061056291906112bd565b6001600160a01b0316336001600160a01b031614806106085750600160009054906101000a90046001600160a01b03166001600160a01b031663852b67736040518163ffffffff1660e01b8152600401602060405180830381865afa1580156105cf573d6000803e3d6000fd5b505050506040513d601f19601f820116820180604052508101906105f391906112bd565b6001600160a01b0316336001600160a01b0316145b6106595760405162461bcd60e51b815260206004820152601b60248201527f457874656e73696f6e426173653a206f6e6c792070726f66696c65000000000060448201526064015b60405180910390fd5b604080518082018252600781526650524f46494c4560c81b602080830191825260008581526002825284812081805290915292909220905161069b92906110a1565b506106a581610aec565b600082815260026020818152604080842084805280835281852060019081019690965581518083018352600381526213919560ea1b81850152878652938352945481516370a303ef60e11b81529151939594936001600160a01b039091169263e14607de92600480820193918290030181865afa15801561072a573d6000803e3d6000fd5b505050506040513d601f19601f8201168201806040525081019061074e91906112bd565b6001600160a01b03168152602080820192909252604001600020825161077a93919291909101906110a1565b5061078481610e90565b600082815260026020908152604080832060015482516370a303ef60e11b815292519194936001600160a01b039091169263e14607de92600480830193928290030181865afa1580156107db573d6000803e3d6000fd5b505050506040513d601f19601f820116820180604052508101906107ff91906112bd565b6001600160a01b03166001600160a01b0316815260200190815260200160002060010181905550604051806040016040528060048152602001630504f41560e41b815250600260008381526020019081526020016000206000600160009054906101000a90046001600160a01b03166001600160a01b03166303b7af906040518163ffffffff1660e01b8152600401602060405180830381865afa1580156108ab573d6000803e3d6000fd5b505050506040513d601f19601f820116820180604052508101906108cf91906112bd565b6001600160a01b0316815260208082019290925260400160002082516108fb93919291909101906110a1565b5061090581610f84565b60008281526002602090815260408083206001548251623b7af960e41b815292519194936001600160a01b03909116926303b7af9092600480830193928290030181865afa15801561095b573d6000803e3d6000fd5b505050506040513d601f19601f8201168201806040525081019061097f91906112bd565b6001600160a01b0316815260208101919091526040016000206001015550565b6109a7610a42565b600180546001600160a01b0319166001600160a01b0392909216919091179055565b6109d1610a42565b6001600160a01b038116610a365760405162461bcd60e51b815260206004820152602660248201527f4f776e61626c653a206e6577206f776e657220697320746865207a65726f206160448201526564647265737360d01b6064820152608401610650565b610a3f81610a9c565b50565b6000546001600160a01b031633146104e95760405162461bcd60e51b815260206004820181905260248201527f4f776e61626c653a2063616c6c6572206973206e6f7420746865206f776e65726044820152606401610650565b600080546001600160a01b038381166001600160a01b0319831681178455604051919092169283917f8be0079c531659141344cd1fd0a4f28419497f9722a3daafe3b4186f6b6457e09190a35050565b6000610e8a600160009054906101000a90046001600160a01b03166001600160a01b031663852b67736040518163ffffffff1660e01b8152600401602060405180830381865afa158015610b44573d6000803e3d6000fd5b505050506040513d601f19601f82011682018060405250810190610b6891906112bd565b6001600160a01b031663af104cd3846040518263ffffffff1660e01b8152600401610b9591815260200190565b602060405180830381865afa158015610bb2573d6000803e3d6000fd5b505050506040513d601f19601f82011682018060405250810190610bd691906112da565b600160009054906101000a90046001600160a01b03166001600160a01b031663852b67736040518163ffffffff1660e01b8152600401602060405180830381865afa158015610c29573d6000803e3d6000fd5b505050506040513d601f19601f82011682018060405250810190610c4d91906112bd565b6001600160a01b0316639a716cde856040518263ffffffff1660e01b8152600401610c7a91815260200190565b602060405180830381865afa158015610c97573d6000803e3d6000fd5b505050506040513d601f19601f82011682018060405250810190610cbb91906112da565b600160009054906101000a90046001600160a01b03166001600160a01b031663852b67736040518163ffffffff1660e01b8152600401602060405180830381865afa158015610d0e573d6000803e3d6000fd5b505050506040513d601f19601f82011682018060405250810190610d3291906112bd565b6001600160a01b0316635d0bd524866040518263ffffffff1660e01b8152600401610d5f91815260200190565b602060405180830381865afa158015610d7c573d6000803e3d6000fd5b505050506040513d601f19601f82011682018060405250810190610da091906112da565b600160009054906101000a90046001600160a01b03166001600160a01b031663852b67736040518163ffffffff1660e01b8152600401602060405180830381865afa158015610df3573d6000803e3d6000fd5b505050506040513d601f19601f82011682018060405250810190610e1791906112bd565b6001600160a01b0316639fe38f65876040518263ffffffff1660e01b8152600401610e4491815260200190565b602060405180830381865afa158015610e61573d6000803e3d6000fd5b505050506040513d601f19601f82011682018060405250810190610e8591906112da565b61102d565b92915050565b6000610e8a600160009054906101000a90046001600160a01b03166001600160a01b031663d6afc9b16040518163ffffffff1660e01b8152600401602060405180830381865afa158015610ee8573d6000803e3d6000fd5b505050506040513d601f19601f82011682018060405250810190610f0c91906112bd565b6001600160a01b0316639f19a59d846040518263ffffffff1660e01b8152600401610f3991815260200190565b600060405180830381865afa158015610f56573d6000803e3d6000fd5b505050506040513d6000823e601f3d908101601f19168201604052610f7e919081019061134d565b51611094565b6000610e8a600160009054906101000a90046001600160a01b03166001600160a01b031663d6afc9b16040518163ffffffff1660e01b8152600401602060405180830381865afa158015610fdc573d6000803e3d6000fd5b505050506040513d601f19601f8201168201806040525081019061100091906112bd565b6001600160a01b03166302f4c2ee846040518263ffffffff1660e01b8152600401610f3991815260200190565b60008061103b8660646114e2565b6110459082611501565b90506110528560646114e2565b61105c9082611501565b905061106984600a6114e2565b6110739082611501565b905061108083600a6114e2565b61108a9082611501565b9695505050505050565b6000610e8a82600a6114e2565b8280546110ad9061125c565b90600052602060002090601f0160209004810192826110cf5760008555611115565b82601f106110e857805160ff1916838001178555611115565b82800160010185558215611115579182015b828111156111155782518255916020019190600101906110fa565b50611121929150611125565b5090565b5b808211156111215760008155600101611126565b60006020828403121561114c57600080fd5b5035919050565b60005b8381101561116e578181015183820152602001611156565b8381111561117d576000848401525b50505050565b60006020808301818452808551808352604092508286019150828160051b87010184880160005b838110156111ff57603f19898403018552815180518785528051808987015260606111da828289018d8601611153565b928a0151868b015296890196601f01601f1916909401019250908601906001016111aa565b509098975050505050505050565b6001600160a01b0381168114610a3f57600080fd5b60006020828403121561123457600080fd5b813561123f8161120d565b9392505050565b634e487b7160e01b600052604160045260246000fd5b600181811c9082168061127057607f821691505b6020821081141561129157634e487b7160e01b600052602260045260246000fd5b50919050565b634e487b7160e01b600052603260045260246000fd5b80516112b88161120d565b919050565b6000602082840312156112cf57600080fd5b815161123f8161120d565b6000602082840312156112ec57600080fd5b5051919050565b60405160a0810167ffffffffffffffff8111828210171561131657611316611246565b60405290565b604051601f8201601f1916810167ffffffffffffffff8111828210171561134557611345611246565b604052919050565b6000602080838503121561136057600080fd5b825167ffffffffffffffff8082111561137857600080fd5b818501915085601f83011261138c57600080fd5b81518181111561139e5761139e611246565b8060051b6113ad85820161131c565b91825283810185019185810190898411156113c757600080fd5b86860192505b838310156114bf578251858111156113e457600080fd5b8601601f1960a0828d03820112156113fb57600080fd5b6114036112f3565b8983015181526040808401516114188161120d565b828c01526060840151818301526080840151898111156114385760008081fd5b8401603f81018f1361144a5760008081fd5b8b8101518a81111561145e5761145e611246565b61146e8d86601f8401160161131c565b94508085528f838284010111156114855760008081fd5b611494818e8701858501611153565b5050508160608201526114a960a084016112ad565b60808201528452505091860191908601906113cd565b9998505050505050505050565b634e487b7160e01b600052601160045260246000fd5b60008160001904831182151516156114fc576114fc6114cc565b500290565b60008219821115611514576115146114cc565b50019056fea26469706673582212206a002b6b5e63604ee559f880e52d00ff1226cd45577d251c08552eb9c08149a264736f6c634300080a0033",
  "linkReferences": {},
  "deployedLinkReferences": {}
}