{
  "_format": "hh-sol-artifact-1",
  "contractName": "SkillModule",
  "sourceName": "contracts/core/modules/SkillModule.sol",
  "abi": [
    {
      "inputs": [
        {
          "internalType": "address",
          "name": "owner",
          "type": "address"
        }
      ],
      "stateMutability": "nonpayable",
      "type": "constructor"
    },
    {
      "anonymous": false,
      "inputs": [
        {
          "indexed": true,
          "internalType": "address",
          "name": "previousOwner",
          "type": "address"
        },
        {
          "indexed": true,
          "internalType": "address",
          "name": "newOwner",
          "type": "address"
        }
      ],
      "name": "OwnershipTransferred",
      "type": "event"
    },
    {
      "anonymous": false,
      "inputs": [
        {
          "indexed": true,
          "internalType": "uint256",
          "name": "profileId",
          "type": "uint256"
        },
        {
          "indexed": true,
          "internalType": "uint256",
          "name": "moduleId",
          "type": "uint256"
        },
        {
          "indexed": false,
          "internalType": "uint256",
          "name": "blockNumber",
          "type": "uint256"
        }
      ],
      "name": "SkillAdded",
      "type": "event"
    },
    {
      "inputs": [
        {
          "internalType": "uint256",
          "name": "profileId",
          "type": "uint256"
        },
        {
          "components": [
            {
              "internalType": "string",
              "name": "name",
              "type": "string"
            },
            {
              "internalType": "string",
              "name": "description",
              "type": "string"
            },
            {
              "internalType": "string",
              "name": "link",
              "type": "string"
            }
          ],
          "internalType": "struct ISkillModule.SkillStruct",
          "name": "skill",
          "type": "tuple"
        }
      ],
      "name": "addSkill",
      "outputs": [],
      "stateMutability": "nonpayable",
      "type": "function"
    },
    {
      "inputs": [
        {
          "internalType": "uint256",
          "name": "profileId",
          "type": "uint256"
        }
      ],
      "name": "getSkill",
      "outputs": [
        {
          "components": [
            {
              "internalType": "string",
              "name": "name",
              "type": "string"
            },
            {
              "internalType": "string",
              "name": "description",
              "type": "string"
            },
            {
              "internalType": "string",
              "name": "link",
              "type": "string"
            }
          ],
          "internalType": "struct ISkillModule.SkillStruct[]",
          "name": "",
          "type": "tuple[]"
        }
      ],
      "stateMutability": "view",
      "type": "function"
    },
    {
      "inputs": [],
      "name": "owner",
      "outputs": [
        {
          "internalType": "address",
          "name": "",
          "type": "address"
        }
      ],
      "stateMutability": "view",
      "type": "function"
    },
    {
      "inputs": [],
      "name": "renounceOwnership",
      "outputs": [],
      "stateMutability": "nonpayable",
      "type": "function"
    },
    {
      "inputs": [
        {
          "internalType": "address",
          "name": "globals",
          "type": "address"
        }
      ],
      "name": "setGlobals",
      "outputs": [],
      "stateMutability": "nonpayable",
      "type": "function"
    },
    {
      "inputs": [
        {
          "internalType": "address",
          "name": "newOwner",
          "type": "address"
        }
      ],
      "name": "transferOwnership",
      "outputs": [],
      "stateMutability": "nonpayable",
      "type": "function"
    }
  ],
  "bytecode": "0x608060405234801561001057600080fd5b50604051610c47380380610c4783398101604081905261002f91610099565b8061003933610049565b61004281610049565b50506100c9565b600080546001600160a01b038381166001600160a01b0319831681178455604051919092169283917f8be0079c531659141344cd1fd0a4f28419497f9722a3daafe3b4186f6b6457e09190a35050565b6000602082840312156100ab57600080fd5b81516001600160a01b03811681146100c257600080fd5b9392505050565b610b6f806100d86000396000f3fe608060405234801561001057600080fd5b50600436106100625760003560e01c8063524c6bc714610067578063715018a61461007c5780638da5cb5b14610084578063bd880fae146100a4578063cc2e0a26146100c4578063f2fde38b146100d7575b600080fd5b61007a61007536600461067a565b6100ea565b005b61007a61025d565b6000546040516001600160a01b0390911681526020015b60405180910390f35b6100b76100b23660046106c8565b610271565b60405161009b919061072e565b61007a6100d23660046107e4565b61052d565b61007a6100e53660046107e4565b610557565b600160009054906101000a90046001600160a01b03166001600160a01b031663d6afc9b16040518163ffffffff1660e01b8152600401602060405180830381865afa15801561013d573d6000803e3d6000fd5b505050506040513d601f19601f820116820180604052508101906101619190610808565b6001600160a01b0316336001600160a01b0316146101c65760405162461bcd60e51b815260206004820152601860248201527f4d6f64756c65426173653a206f6e6c792070726f66696c65000000000000000060448201526064015b60405180910390fd5b600082815260036020526040812080549091906101e29061083b565b90915550600082815260026020908152604080832060038352818420548452909152902081906102128282610a05565b505060008281526003602090815260409182902054915143815284917f8ddef22b803e2edb2bd3c242fccd97baa438ecc1ab793a85a09745567dd4c547910160405180910390a35050565b6102656105d0565b61026f600061062a565b565b6000818152600360205260408120546060919067ffffffffffffffff81111561029c5761029c6108a4565b6040519080825280602002602001820160405280156102f157816020015b6102de60405180606001604052806060815260200160608152602001606081525090565b8152602001906001900390816102ba5790505b50905060005b60008481526003602052604090205481101561052657600084815260026020526040812090610327836001610b0b565b8152602001908152602001600020604051806060016040529081600082018054610350906108ba565b80601f016020809104026020016040519081016040528092919081815260200182805461037c906108ba565b80156103c95780601f1061039e576101008083540402835291602001916103c9565b820191906000526020600020905b8154815290600101906020018083116103ac57829003601f168201915b505050505081526020016001820180546103e2906108ba565b80601f016020809104026020016040519081016040528092919081815260200182805461040e906108ba565b801561045b5780601f106104305761010080835404028352916020019161045b565b820191906000526020600020905b81548152906001019060200180831161043e57829003601f168201915b50505050508152602001600282018054610474906108ba565b80601f01602080910402602001604051908101604052809291908181526020018280546104a0906108ba565b80156104ed5780601f106104c2576101008083540402835291602001916104ed565b820191906000526020600020905b8154815290600101906020018083116104d057829003601f168201915b50505050508152505082828151811061050857610508610b23565b6020026020010181905250808061051e9061083b565b9150506102f7565b5092915050565b6105356105d0565b600180546001600160a01b0319166001600160a01b0392909216919091179055565b61055f6105d0565b6001600160a01b0381166105c45760405162461bcd60e51b815260206004820152602660248201527f4f776e61626c653a206e6577206f776e657220697320746865207a65726f206160448201526564647265737360d01b60648201526084016101bd565b6105cd8161062a565b50565b6000546001600160a01b0316331461026f5760405162461bcd60e51b815260206004820181905260248201527f4f776e61626c653a2063616c6c6572206973206e6f7420746865206f776e657260448201526064016101bd565b600080546001600160a01b038381166001600160a01b0319831681178455604051919092169283917f8be0079c531659141344cd1fd0a4f28419497f9722a3daafe3b4186f6b6457e09190a35050565b6000806040838503121561068d57600080fd5b82359150602083013567ffffffffffffffff8111156106ab57600080fd5b8301606081860312156106bd57600080fd5b809150509250929050565b6000602082840312156106da57600080fd5b5035919050565b6000815180845260005b81811015610707576020818501810151868301820152016106eb565b81811115610719576000602083870101525b50601f01601f19169290920160200192915050565b60006020808301818452808551808352604092508286019150828160051b87010184880160005b838110156107c157603f1989840301855281516060815181865261077b828701826106e1565b915050888201518582038a87015261079382826106e1565b915050878201519150848103888601526107ad81836106e1565b968901969450505090860190600101610755565b509098975050505050505050565b6001600160a01b03811681146105cd57600080fd5b6000602082840312156107f657600080fd5b8135610801816107cf565b9392505050565b60006020828403121561081a57600080fd5b8151610801816107cf565b634e487b7160e01b600052601160045260246000fd5b600060001982141561084f5761084f610825565b5060010190565b6000808335601e1984360301811261086d57600080fd5b83018035915067ffffffffffffffff82111561088857600080fd5b60200191503681900382131561089d57600080fd5b9250929050565b634e487b7160e01b600052604160045260246000fd5b600181811c908216806108ce57607f821691505b602082108114156108ef57634e487b7160e01b600052602260045260246000fd5b50919050565b601f82111561093f57600081815260208120601f850160051c8101602086101561091c5750805b601f850160051c820191505b8181101561093b57828155600101610928565b5050505b505050565b67ffffffffffffffff83111561095c5761095c6108a4565b6109708361096a83546108ba565b836108f5565b6000601f8411600181146109a4576000851561098c5750838201355b600019600387901b1c1916600186901b1783556109fe565b600083815260209020601f19861690835b828110156109d557868501358255602094850194600190920191016109b5565b50868210156109f25760001960f88860031b161c19848701351681555b505060018560011b0183555b5050505050565b610a0f8283610856565b67ffffffffffffffff811115610a2757610a276108a4565b610a3b81610a3585546108ba565b856108f5565b6000601f821160018114610a6f5760008315610a575750838201355b600019600385901b1c1916600184901b178555610ac9565b600085815260209020601f19841690835b82811015610aa05786850135825560209485019460019092019101610a80565b5084821015610abd5760001960f88660031b161c19848701351681555b505060018360011b0185555b50505050610ada6020830183610856565b610ae8818360018601610944565b5050610af76040830183610856565b610b05818360028601610944565b50505050565b60008219821115610b1e57610b1e610825565b500190565b634e487b7160e01b600052603260045260246000fdfea26469706673582212205cc8ea5916a86b6894820f16d29341c8d63b34cbe4f0e81402a3ad0c860d928b64736f6c634300080a0033",
  "linkReferences": {},
  "deployedLinkReferences": {}
}