{
  "_format": "hh-sol-artifact-1",
  "contractName": "SNSAccountModule",
  "sourceName": "contracts/core/modules/SNSAccountModule.sol",
  "abi": [
    {
      "inputs": [
        {
          "internalType": "address",
          "name": "owner",
          "type": "address"
        }
      ],
      "stateMutability": "nonpayable",
      "type": "constructor"
    },
    {
      "anonymous": false,
      "inputs": [
        {
          "indexed": true,
          "internalType": "address",
          "name": "previousOwner",
          "type": "address"
        },
        {
          "indexed": true,
          "internalType": "address",
          "name": "newOwner",
          "type": "address"
        }
      ],
      "name": "OwnershipTransferred",
      "type": "event"
    },
    {
      "anonymous": false,
      "inputs": [
        {
          "indexed": true,
          "internalType": "uint256",
          "name": "profileId",
          "type": "uint256"
        },
        {
          "indexed": false,
          "internalType": "uint256",
          "name": "blockNumber",
          "type": "uint256"
        }
      ],
      "name": "SNSAccountCreated",
      "type": "event"
    },
    {
      "inputs": [
        {
          "internalType": "uint256",
          "name": "profileId",
          "type": "uint256"
        },
        {
          "components": [
            {
              "internalType": "string",
              "name": "service",
              "type": "string"
            },
            {
              "internalType": "string",
              "name": "userId",
              "type": "string"
            },
            {
              "internalType": "string",
              "name": "userPageURL",
              "type": "string"
            },
            {
              "internalType": "address",
              "name": "wallet",
              "type": "address"
            }
          ],
          "internalType": "struct ISNSAccountModule.SNSAccountStruct[]",
          "name": "sns",
          "type": "tuple[]"
        }
      ],
      "name": "createSNSAccount",
      "outputs": [],
      "stateMutability": "nonpayable",
      "type": "function"
    },
    {
      "inputs": [
        {
          "internalType": "uint256",
          "name": "profileId",
          "type": "uint256"
        }
      ],
      "name": "getSNSAccounts",
      "outputs": [
        {
          "components": [
            {
              "internalType": "string",
              "name": "service",
              "type": "string"
            },
            {
              "internalType": "string",
              "name": "userId",
              "type": "string"
            },
            {
              "internalType": "string",
              "name": "userPageURL",
              "type": "string"
            },
            {
              "internalType": "address",
              "name": "wallet",
              "type": "address"
            }
          ],
          "internalType": "struct ISNSAccountModule.SNSAccountStruct[]",
          "name": "",
          "type": "tuple[]"
        }
      ],
      "stateMutability": "view",
      "type": "function"
    },
    {
      "inputs": [],
      "name": "owner",
      "outputs": [
        {
          "internalType": "address",
          "name": "",
          "type": "address"
        }
      ],
      "stateMutability": "view",
      "type": "function"
    },
    {
      "inputs": [],
      "name": "renounceOwnership",
      "outputs": [],
      "stateMutability": "nonpayable",
      "type": "function"
    },
    {
      "inputs": [
        {
          "internalType": "address",
          "name": "globals",
          "type": "address"
        }
      ],
      "name": "setGlobals",
      "outputs": [],
      "stateMutability": "nonpayable",
      "type": "function"
    },
    {
      "inputs": [
        {
          "internalType": "address",
          "name": "newOwner",
          "type": "address"
        }
      ],
      "name": "transferOwnership",
      "outputs": [],
      "stateMutability": "nonpayable",
      "type": "function"
    }
  ],
  "bytecode": "0x608060405234801561001057600080fd5b50604051610e32380380610e3283398101604081905261002f91610099565b8061003933610049565b61004281610049565b50506100c9565b600080546001600160a01b038381166001600160a01b0319831681178455604051919092169283917f8be0079c531659141344cd1fd0a4f28419497f9722a3daafe3b4186f6b6457e09190a35050565b6000602082840312156100ab57600080fd5b81516001600160a01b03811681146100c257600080fd5b9392505050565b610d5a806100d86000396000f3fe608060405234801561001057600080fd5b50600436106100625760003560e01c80631202dc61146100675780634ddadfd214610090578063715018a6146100a55780638da5cb5b146100ad578063cc2e0a26146100c8578063f2fde38b146100db575b600080fd5b61007a6100753660046107ba565b6100ee565b6040516100879190610820565b60405180910390f35b6100a361009e3660046108d5565b6103d1565b005b6100a361060b565b6000546040516001600160a01b039091168152602001610087565b6100a36100d6366004610969565b61061f565b6100a36100e9366004610969565b610649565b6000818152600360205260408120546060919067ffffffffffffffff8111156101195761011961098d565b60405190808252806020026020018201604052801561017e57816020015b61016b604051806080016040528060608152602001606081526020016060815260200160006001600160a01b031681525090565b8152602001906001900390816101375790505b50905060005b6000848152600360205260409020548110156103ca576000848152600260205260408120906101b48360016109b9565b81526020019081526020016000206040518060800160405290816000820180546101dd906109d1565b80601f0160208091040260200160405190810160405280929190818152602001828054610209906109d1565b80156102565780601f1061022b57610100808354040283529160200191610256565b820191906000526020600020905b81548152906001019060200180831161023957829003601f168201915b5050505050815260200160018201805461026f906109d1565b80601f016020809104026020016040519081016040528092919081815260200182805461029b906109d1565b80156102e85780601f106102bd576101008083540402835291602001916102e8565b820191906000526020600020905b8154815290600101906020018083116102cb57829003601f168201915b50505050508152602001600282018054610301906109d1565b80601f016020809104026020016040519081016040528092919081815260200182805461032d906109d1565b801561037a5780601f1061034f5761010080835404028352916020019161037a565b820191906000526020600020905b81548152906001019060200180831161035d57829003601f168201915b5050509183525050600391909101546001600160a01b031660209091015282518390839081106103ac576103ac610a0c565b602002602001018190525080806103c290610a22565b915050610184565b5092915050565b600160009054906101000a90046001600160a01b03166001600160a01b031663d6afc9b16040518163ffffffff1660e01b8152600401602060405180830381865afa158015610424573d6000803e3d6000fd5b505050506040513d601f19601f820116820180604052508101906104489190610a3d565b6001600160a01b0316336001600160a01b0316146104ad5760405162461bcd60e51b815260206004820152601860248201527f4d6f64756c65426173653a206f6e6c792070726f66696c65000000000000000060448201526064015b60405180910390fd5b60005b60008481526003602052604090205481101561053f576000848152600260205260408120906104e08360016109b9565b8152602001908152602001600020600080820160006104ff919061076c565b61050d60018301600061076c565b61051b60028301600061076c565b5060030180546001600160a01b03191690558061053781610a22565b9150506104b0565b5060005b818110156105b85782828281811061055d5761055d610a0c565b905060200281019061056f9190610a5a565b6000858152600260205260408120906105898460016109b9565b815260200190815260200160002081816105a39190610beb565b508190506105b081610a22565b915050610543565b50600083815260036020526040908190208290555183907f5b0d3563a9beca21ac123df26d944a2b6ebdbc5bd6ce911e3e62c696c3027a23906105fe9043815260200190565b60405180910390a2505050565b6106136106c2565b61061d600061071c565b565b6106276106c2565b600180546001600160a01b0319166001600160a01b0392909216919091179055565b6106516106c2565b6001600160a01b0381166106b65760405162461bcd60e51b815260206004820152602660248201527f4f776e61626c653a206e6577206f776e657220697320746865207a65726f206160448201526564647265737360d01b60648201526084016104a4565b6106bf8161071c565b50565b6000546001600160a01b0316331461061d5760405162461bcd60e51b815260206004820181905260248201527f4f776e61626c653a2063616c6c6572206973206e6f7420746865206f776e657260448201526064016104a4565b600080546001600160a01b038381166001600160a01b0319831681178455604051919092169283917f8be0079c531659141344cd1fd0a4f28419497f9722a3daafe3b4186f6b6457e09190a35050565b508054610778906109d1565b6000825580601f10610788575050565b601f0160209004906000526020600020908101906106bf91905b808211156107b657600081556001016107a2565b5090565b6000602082840312156107cc57600080fd5b5035919050565b6000815180845260005b818110156107f9576020818501810151868301820152016107dd565b8181111561080b576000602083870101525b50601f01601f19169290920160200192915050565b60006020808301818452808551808352604092508286019150828160051b87010184880160005b838110156108c757603f1989840301855281516080815181865261086d828701826107d3565b915050888201518582038a87015261088582826107d3565b915050878201518582038987015261089d82826107d3565b6060938401516001600160a01b031696909301959095525094870194925090860190600101610847565b509098975050505050505050565b6000806000604084860312156108ea57600080fd5b83359250602084013567ffffffffffffffff8082111561090957600080fd5b818601915086601f83011261091d57600080fd5b81358181111561092c57600080fd5b8760208260051b850101111561094157600080fd5b6020830194508093505050509250925092565b6001600160a01b03811681146106bf57600080fd5b60006020828403121561097b57600080fd5b813561098681610954565b9392505050565b634e487b7160e01b600052604160045260246000fd5b634e487b7160e01b600052601160045260246000fd5b600082198211156109cc576109cc6109a3565b500190565b600181811c908216806109e557607f821691505b60208210811415610a0657634e487b7160e01b600052602260045260246000fd5b50919050565b634e487b7160e01b600052603260045260246000fd5b6000600019821415610a3657610a366109a3565b5060010190565b600060208284031215610a4f57600080fd5b815161098681610954565b60008235607e19833603018112610a7057600080fd5b9190910192915050565b6000808335601e19843603018112610a9157600080fd5b83018035915067ffffffffffffffff821115610aac57600080fd5b602001915036819003821315610ac157600080fd5b9250929050565b601f821115610b1257600081815260208120601f850160051c81016020861015610aef5750805b601f850160051c820191505b81811015610b0e57828155600101610afb565b5050505b505050565b67ffffffffffffffff831115610b2f57610b2f61098d565b610b4383610b3d83546109d1565b83610ac8565b6000601f841160018114610b775760008515610b5f5750838201355b600019600387901b1c1916600186901b178355610bd1565b600083815260209020601f19861690835b82811015610ba85786850135825560209485019460019092019101610b88565b5086821015610bc55760001960f88860031b161c19848701351681555b505060018560011b0183555b5050505050565b60008135610be581610954565b92915050565b610bf58283610a7a565b67ffffffffffffffff811115610c0d57610c0d61098d565b610c2181610c1b85546109d1565b85610ac8565b6000601f821160018114610c555760008315610c3d5750838201355b600019600385901b1c1916600184901b178555610caf565b600085815260209020601f19841690835b82811015610c865786850135825560209485019460019092019101610c66565b5084821015610ca35760001960f88660031b161c19848701351681555b505060018360011b0185555b50505050610cc06020830183610a7a565b610cce818360018601610b17565b5050610cdd6040830183610a7a565b610ceb818360028601610b17565b5050610d20610cfc60608401610bd8565b6003830180546001600160a01b0319166001600160a01b0392909216919091179055565b505056fea2646970667358221220c803ebb30bf48ee896cdd0c277c6fea14577343d6a6aa5ac66942367987f634964736f6c634300080a0033",
  "linkReferences": {},
  "deployedLinkReferences": {}
}